:020000040800F2
:1000000078110020010100089529000861280008E6
:1000100091290008C9070008DD3000080000000031
:10002000000000000000000000000000912A00080D
:10003000ED07000800000000112A0008B52A00089A
:100040001B0100081B0100081B0100081B01000820
:100050001B0100081B0100081B0100081B01000810
:100060001B0100081B0100081B0100081B01000800
:100070001B0100081B010008CD070008DD07000870
:100080001B0100081B0100081B0100081B010008E0
:100090001B0100081B0100081B0100081B010008D0
:1000A0001B010008612B00081B0100081B01000850
:1000B0001B0100081B0100081B0100081B010008B0
:1000C0001B0100081B0100081B0100081B010008A0
:1000D0001B010008CD3000081B0100081B010008AF
:1000E0001B0100081B0100081B010008DFF80CD0F1
:1000F00000F0BCFA00480047793D00087811002064
:100100000648804706480047FEE7FEE7FEE7FEE7B1
:10011000FEE7FEE7FEE7FEE7FEE7FEE75D2B0008F1
:10012000ED000008D2B201E000F8012B491EFBD21D
:1001300070470022F6E710B513460A4604461946F2
:10014000FFF7F0FF204610BD421C10F8011B0029EC
:10015000FBD1801A70472DE9F04791460F46804643
:100160000446002614F8015B2DB100F073F8006816
:10017000405DC007F6D12B2D02D02D2D18D0641E66
:100180004A463946204600F069F827B13968A1424D
:1001900001D1C7F8008071054FF002040BD5404231
:1001A000002803DD04F01CF80460A007BDE8F08718
:1001B00046F48066E4E70028F8DA04F011F80460F9
:1001C0006FF00040F2E730B50B46014600202022D8
:1001D000012409E021FA02F59D4205D303FA02F554
:1001E000491B04FA02F52844151EA2F10102F1DCB4
:1001F00030BD2DE9F05F0546002092469B468846BB
:100200000646814640241BE0284641464746224692
:1002100000F04DFA53465A46C01A914110D3114688
:100220001846224600F034FA2D1A67EB01084F46B3
:1002300022460120002100F02BFA17EB00094E4165
:10024000201EA4F10104DFDC484631462A4643461D
:10025000BDE8F09F00487047B44B00082DE9F05FFF
:1002600082460078002715468B460AF10104B946FC
:10027000302801D09DB113E014F8010B0127782834
:1002800003D0582801D045B10AE00DB1102D07D197
:100290000027102514F8010B02E0082500E00A25CC
:1002A0000026B0460EE005FB080005FB06F101271D
:1002B00001EB10461FFA80F8B6F5803F00D3B9462F
:1002C00014F8010B294600F014FA0028EBDABBF110
:1002D000000F05D00FB1641E00E05446CBF800407B
:1002E000B9F1000F06D003F07BFF02210160C81EA8
:1002F000BDE8F09F48EA0640FAE72DE9FE4F804648
:1003000081EA0300C00F0C46009021F0004123F069
:100310000045B8EB0200A94105D24046214690466F
:100320001C460B46024623F00040104347D0270DE1
:10033000C7F30A00C3F30A510290401A0190402803
:100340006BDAC3F3130040F4801B0098924620B18F
:100350000023D2EB030A63EB0B0B01985946C0F163
:100360004002504600F094F906460D465046594664
:10037000019A00F0ACF910EB08006141002487EA13
:10038000115284EAE7731A4340D0009A62B3019A8B
:10039000012A4FEA075215DC001B61EB02014FF006
:1003A000004202EA0752CDE90042001C41F58011EB
:1003B00032462B4600F0BAF903B0BDE8F08F404654
:1003C0002146F9E7001B61EB0201001C41F5801397
:1003D00000185B412018A2F5001747EB030140EA23
:1003E000D570B6196D4111E06D084FEA360645EA41
:1003F000C0754FEA0752001B61EB0201001C41F57A
:10040000801149084FEA30000019514132462B460D
:1004100003B0BDE8F04F00F07AB900980122400027
:100420000023D0EB020263EBE073009821464FEA11
:10043000E074B8EB000061EB0401E9E783F00043EE
:100440005BE781F0004158E72DE9FE4F81EA0304A4
:1004500004F0004421F0004100944FF0000B23F021
:10046000004350EA01045ED052EA03045BD0C3F3B8
:100470000A54C1F30A552C44A4F2F3340194A0FBAE
:100480000254C1F3130141F48011C3F3130343F485
:10049000801301FB024400FB034E840A970A44EADE
:1004A000815447EA8357A4FB076802958D0A05FB30
:1004B00007854FEA932C04FB0C542705029D4FEA55
:1004C000065847EA1637B5EB08056EEB070C870EA2
:1004D000920E47EA811742EA8312A7FB0201B6EBAC
:1004E0000B0164EB00042B0D43EA0C335E1844EB64
:1004F0001C50DA465146E7FB0201C5F313044FEAEC
:100500000B3343EA14534FEA0432019C43EA0603D7
:10051000A4F10C040294009CCDE900B400F006F9AB
:1005200003B0BDE8F08F00200146F9E72DE9F04D5A
:1005300081EA030404F0004B21F0004514464FF01B
:10054000000A23F0004150EA050220D054EA0102DB
:100550001DD0C5F30A570246C5F31303C1F31300B8
:10056000C1F30A5640F4801543F48013A7EB060844
:10057000101BD64608F2FD3873EB050002D308F1D4
:10058000010801E092185B41B8F1000F03DA002086
:100590000146BDE8F08D00204FF4801106468446E8
:1005A0000EE0171B73EB050705D3121B63EB050366
:1005B00006434CEA010C49084FEA300092185B41AF
:1005C00050EA0107EDD152EA030012D082EA04009A
:1005D00083EA0501084305D0101BAB4106D2012276
:1005E000002306E000224FF0004302E06FF001021A
:1005F00053101AEB06004CEB085110EB0A0041EBCC
:100600000B01BDE8F04D00F082B8C1F30A52C1F30E
:10061000130140F2FF3341F480119A4202DA0020C4
:100620000146704740F233439A42A2F2334202DC61
:10063000524200F03CB800F02BB8000030B5041E68
:1006400071F1000404DB4FF00044404264EB01010F
:10065000141E73F1000405DB1C464FF000435242A8
:1006600063EB0403994208BF904230BD064C074D2E
:1006700006E0E06840F0010394E807009847103472
:10068000AC42F6D3FFF736FD284D0008484D000870
:10069000202A04DB203A00FA02F100207047914042
:1006A000C2F1200320FA03F3194390407047202A37
:1006B00004DB203A21FA02F00021704721FA02F30C
:1006C000D040C2F120029140084319467047202AC9
:1006D00006DBCB17203A41FA02F043EAE07306E06A
:1006E00041FA02F3D040C2F120029140084319467A
:1006F00070473A2800D2303820F02002412A01D336
:10070000A2F13700884201D34FF0FF30704710B597
:10071000141E73F1000408DA401C41F10001921824
:100720005B411A4301D120F0010010BD2DE9F04DCD
:1007300092469B4611B1B1FA81F202E0B0FA80F222
:1007400020329046FFF7A4FF04460F4640EA0A0015
:1007500041EA0B0153465A46084313D0114653EA67
:10076000010019D0C8F140025046FFF7A0FF05462E
:100770000E46504659464246FFF78AFF084305D0C9
:10078000012004E020463946BDE8F08D00200543F5
:1007900046EAE0762C4337430A986305E40AA0EB67
:1007A00008000022FD0A44EA47540A3002D500201E
:1007B0000146E9E7010510196941DDE9084500191D
:1007C0006941BDE8F04DA2E7FFE7FEE780B540F2E2
:1007D0001820C2F2000000F0DFF880BD80B540F2C2
:1007E000D410C2F2000000F0D7F880BD70470000BE
:1007F00081B0EFF3108072B60090FFE7FEE70000D3
:1008000083B0019000208DF80300019890F821003A
:1008100002280DD0FFE7019904208863FFE70199C2
:10082000002081F82000FFE701208DF80B0021E077
:1008300001980168086820F00E00086001980168BE
:10084000086820F0010008600198C16B026C01206B
:1008500090404860FFE70199012081F82100FFE7FF
:100860000199002081F82000FFE79DF803008DF832
:100870000B00FFE79DF80B0003B0704780B588B010
:10088000079000208DF81B00079890F8210002289F
:1008900007D0FFE707990420886301208DF81B002B
:1008A00076E007980168086820F00E000860079855
:1008B0000168086820F001000860079800680821B6
:1008C000C4F20201884203D1FFE70120059047E00E
:1008D000079800681C21C4F20201884203D1FFE797
:1008E0001020049039E0079800683021C4F202011A
:1008F000884204D1FFE74FF4807003902AE0079804
:1009000000684421C4F20201884204D1FFE74FF499
:10091000805002901BE0079800685821C4F2020141
:10092000884204D1FFE74FF4803001900CE0079833
:1009300001686C22C4F202024FF08070914208BF3D
:100940004FF480100190FFE701980290FFE70298B2
:100950000390FFE703980490FFE704980590FFE7F2
:1009600005980421C4F2020108600799012081F86A
:100970002100FFE70799002081F82000FFE7079892
:10098000406B20B1FFE70798416B8847FFE7FFE71F
:100990009DF81B0008B080BD80B58EB00D900D98FD
:1009A000C06B00680C900D98006800680B900C9864
:1009B0000D99096CC8404007002875D5FFE79DF8E0
:1009C0002C00400700286FD5FFE70D9800680068ED
:1009D0008006002807D4FFE70D980168086820F01A
:1009E00004000860FFE70D9800680821C4F20201C6
:1009F000884203D1FFE704200A9047E00D98006881
:100A00001C21C4F20201884203D1FFE74020099073
:100A100039E00D9800683021C4F20201884204D107
:100A2000FFE74FF4806008902AE00D9800684421A9
:100A3000C4F20201884204D1FFE74FF480400790DE
:100A40001BE00D9800685821C4F20201884204D1CD
:100A5000FFE74FF4802006900CE00D9801686C22AF
:100A6000C4F202024FF08060914208BF4FF4800050
:100A70000690FFE706980790FFE707980890FFE7C2
:100A800008980990FFE709980A90FFE70A9804215F
:100A9000C4F2020108600D98C06A20B1FFE70D980A
:100AA000C16A8847FFE7B8E00C980D99096CC84007
:100AB0008007002840F18080FFE79DF82C00800728
:100AC000002879D5FFE70D980068006880060028A7
:100AD0000BD4FFE70D980168086820F00A00086051
:100AE0000D99012081F82100FFE70D980068082189
:100AF000C4F20201884203D1FFE70220059047E0DB
:100B00000D9800681C21C4F20201884203D1FFE75E
:100B10002020049039E00D9800683021C4F20201D1
:100B2000884204D1FFE74FF4007003902AE00D984B
:100B300000684421C4F20201884204D1FFE74FF467
:100B4000005002901BE00D9800685821C4F2020189
:100B5000884204D1FFE74FF4003001900CE00D987B
:100B600001686C22C4F202024FF00070914208BF8B
:100B70004FF400100190FFE701980290FFE7029800
:100B80000390FFE703980490FFE704980590FFE7C0
:100B900005980421C4F202010860FFE70D990020C6
:100BA00081F82000FFE70D98806A20B1FFE70D98DB
:100BB000816A8847FFE72FE00C980D99096CC840BF
:100BC0000007002827D5FFE79DF82C000007002824
:100BD00021D5FFE70D980168086820F00E00086035
:100BE0000D98C26B016C012000FA01F151600D9962
:100BF00088630D9981F82100FFE70D99002081F8A5
:100C00002000FFE70D98006B20B1FFE70D98016B06
:100C10008847FFE7FFE7FFE7FFE70EB080BD000072
:100C200083B0019000200090019820B9FFE70120D7
:100C30008DF80B0047E0019908684FF6F872CBF683
:100C4000FD7210444CF6CD42CCF6CC42A0FB020221
:100C50006FF0030000EA9200086401990020C4F2DA
:100C60000200C8630199022081F821000198006800
:100C700000680090009843F6F07188430090019955
:100C80004868D1F808C0CB680A6940EA0C001843EC
:100C900010434A6910438A691043C96901430098A7
:100CA00008430090009801990968086001990020A4
:100CB0008863019A012182F82110019981F82000AE
:100CC0008DF80B00FFE79DF80B0003B070470000A4
:100CD00080B584B0039000F0DDF902900398019094
:100CE0000198013048B1FFE740F23900C2F200003C
:100CF0000178019808440190FFE7FFE700F0CAF986
:100D00000299401A0199884201D2FFE7F6E704B040
:100D100080BD000090B00F900E9100200D900990C2
:100D2000FFE70E9800680D99C840002800F07F8109
:100D3000FFE70D99012088400C900E9800680C99EF
:100D400008400B900B980C99884240F06C81FFE7AB
:100D50000E9840680590002851D0FFE705980128BB
:100D60003AD0FFE7059802283FD0FFE7059803280F
:100D70005FD0FFE70598112832D0FFE705981228C9
:100D800038D0FFE705980021C1F21101884236D022
:100D9000FFE705980021C1F2120188422FD0FFE73A
:100DA00005980021C1F22101884228D0FFE705986B
:100DB0000021C1F22201884221D0FFE705980021DD
:100DC000C1F2310188421AD0FFE705980021C1F233
:100DD0003201884213D02FE00E98C06809902CE0B1
:100DE0000E98C0680430099027E00E98C06808305B
:100DF000099022E00E98C0680C3009901DE00E9812
:100E0000806818B9FFE70420099011E00E98806807
:100E1000012806D1FFE7082009900C980F99086176
:100E200005E0082009900C980F994861FFE7FFE75B
:100E300003E00020099000E0FFE70B98FF2803D8AB
:100E4000FFE70F98049003E00F9804300490FFE749
:100E5000049808900B98FF2804D8FFE70D988000AD
:100E6000039006E00D996FF01F0000EB81000390E6
:100E7000FFE70398079008980068079A0F219140B0
:100E80008843099991400843089908600E98C079F1
:100E9000C006002840F1C680FFE7FFE741F21800D6
:100EA000C4F20200016841F001010160006800F035
:100EB000010006900698FFE70D9820F00300082136
:100EC000C4F2010140580A900D9800F0030081001F
:100ED0000F2000FA01F10A9888430A900F9840F613
:100EE0000001C4F20101884203D1FFE70020029013
:100EF00026E00F9840F60041C4F20101884203D178
:100F0000FFE70120019018E00F9841F20001C4F2C0
:100F10000101884203D1FFE7022000900AE00F9907
:100F200041F20042C4F201020420914208BF0320B2
:100F30000090FFE700980190FFE701980290FFE71B
:100F400002980D9901F00301890000FA01F10A9855
:100F500008430A900A980D9921F003010822C4F26F
:100F6000010288500E988079C006002809D5FFE755
:100F70000B9A40F20841C4F201010868104308606E
:100F800008E00B9A40F20841C4F20101086890435E
:100F90000860FFE70E9880798006002809D5FFE7F2
:100FA0000B9A40F20C41C4F201010868104308603A
:100FB00008E00B9A40F20C41C4F20101086890432A
:100FC0000860FFE70E9880798007002809D5FFE7C1
:100FD0000B9A40F20441C4F2010108681043086012
:100FE00008E00B9A40F20441C4F201010868904302
:100FF0000860FFE70E988079C00748B1FFE70B9AB9
:1010000040F20041C4F2010108681043086008E0A2
:101010000B9A40F20041C4F2010108689043086055
:10102000FFE7FFE7FFE70D9801300D9079E610B07C
:101030007047000082B00190ADF8021001988068FE
:10104000BDF80210084204D0FFE701208DF801002E
:1010500003E000208DF80100FFE79DF8010002B0D9
:101060007047000082B00190ADF802108DF80120A9
:101070009DF8010028B1FFE7BDF802000199086161
:1010800005E0BDF80200000401990861FFE702B025
:101090007047000040F65830C2F200000068704708
:1010A00040F23900C2F20000027840F65831C2F234
:1010B00000010868104408607047000080B542F2E3
:1010C0000001C4F20201086840F01000086003202B
:1010D00000F03AF90F2000F005F800F071F8002058
:1010E00080BD000080B58CB00B900020059004906E
:1010F0008DF80B00FFE741F21800C4F2020001680E
:1011000041F400610160006800F400600190019802
:10111000FFE706A803A900F04BFA00F08BFA059050
:1011200005984DF68361C4F21B31A0FB01014FF01D
:10113000FF3000EB9140049040F25C20C2F20000CE
:1011400042F60041C4F20101016040F2E731C160A2
:1011500004994160002101618160816100F020FEFD
:101160008DF80B009DF80B0028BBFFE740F25C20D8
:10117000C2F2000000F066FE8DF80B009DF80B0037
:10118000C0B9FFE7192000F0BBF80B980F280CD866
:10119000FFE70B991920002200F0BCF80B9840F2F1
:1011A0003C01C2F20001086003E001208DF80B0051
:1011B000FFE7FFE7FFE79DF80B000CB080BD0000E4
:1011C00080B584B0FFE741F21800C4F20200016864
:1011D00041F001010160006800F0010003900398F4
:1011E000FFE7FFE741F21C00C4F20200016841F092
:1011F00080510160006800F0805002900298FFE783
:101200006FF001000F21002200F084F8FFE70421B5
:10121000C4F2010108680190019820F0E06001909B
:10122000019840F00070019001980860FFE704B059
:1012300080BD000080B584B002908DF80710009248
:10124000029820B9FFE701208DF80F0053E00298C3
:1012500090F8410040B9FFE70299002081F8400072
:10126000029801F0C7F9FFE70299242081F84100B4
:1012700002980168C86820F40050C860029801F024
:1012800013FE02980168086920F4904008610298F2
:101290000168486920F02A004861029801680869DD
:1012A00020F00F0008619DF8072002980168086986
:1012B0001043086102980168C86820F40060C860A3
:1012C000009A02980168C8681043C86002980168D3
:1012D000C86840F40050C860029900204864029A2F
:1012E000202182F84110029A82F842100299486344
:1012F0008DF80F00FFE79DF80F0004B080BD0000DF
:1013000080B582B08DF807009DF9070001F0E8FE76
:1013100002B080BD80B586B08DF8170004910392AD
:101320000020029001F0F4FE02909DF91700019058
:1013300002980499039A01F02FFB0146019801F0ED
:10134000EFFE06B080BD000080B582B0019001982C
:1013500001F008FF02B080BD80B584B00290019119
:10136000029820B9FFE701208DF80F001BE10198DA
:1013700042F20001C4F20201096801F0070188424B
:1013800016D9FFE742F20000C4F20200016821F022
:101390000701019A11430160006800F007000199FC
:1013A000884204D0FFE701208DF80F00FBE0FFE743
:1013B00002980078800700282AD5FFE70298007875
:1013C0004007002809D5FFE741F20401C4F20201F9
:1013D000086840F4E0600860FFE7029800780007C2
:1013E000002809D5FFE741F20401C4F202010868B0
:1013F00040F460500860FFE741F20401C4F20201CA
:10140000086820F0F000029A926810430860FFE735
:1014100002980078C007002860D0FFE70298406873
:1014200001280ED1FFE741F20000C4F2020000687B
:101430008003002804D4FFE701208DF80F00B2E0FC
:1014400021E00298406802280ED1FFE741F2000037
:10145000C4F2020000688001002804D4FFE70120E4
:101460008DF80F009FE00DE041F20000C4F2020091
:1014700000688007002804D4FFE701208DF80F00E2
:1014800091E0FFE7FFE741F20401C4F202010868BE
:1014900020F00300029A526810430860FFF7FAFD3B
:1014A0000090FFE741F20400C4F20200006800F07F
:1014B0000C0002994968B0EB810F0ED0FFE7FFF7EF
:1014C000E9FD0099401A41F28931884204D3FFE7CF
:1014D00003208DF80F0066E0E4E7FFE7019842F291
:1014E0000001C4F20201096801F00701884216D226
:1014F000FFE742F20000C4F20200016821F0070198
:10150000019A11430160006800F0070001998842C8
:1015100004D0FFE701208DF80F0044E0FFE70298B8
:101520000078400700280CD5FFE741F20401C4F21F
:101530000201086820F4E060029AD2681043086053
:10154000FFE702980078000700280DD5FFE741F279
:101550000401C4F20201086820F46050029A126982
:1015600040EAC2000860FFE700F076F841F20401AB
:10157000C4F202010968C9B20A0944F6B831C0F6DA
:101580000001895CC84040F20C01C2F20001086011
:1015900040F23C00C2F200000068FFF7A3FD00200B
:1015A0008DF80F00FFE79DF80F0004B080BD00002C
:1015B00082B00190009101990F20086041F204006F
:1015C000C4F20200016801F00301019A5160016850
:1015D00001F0F001019A9160016801F4E061019A63
:1015E000D160006800F46050C0080199086142F2BF
:1015F0000000C4F20200006800F0070000990860D3
:1016000002B0704740F20C00C2F200000068704760
:1016100080B5FFF7F7FF41F20401C4F20201096847
:10162000C1F3022244F6C831C0F60001895CC8400B
:1016300080BD000080B5FFF7E5FF41F20401C4F270
:1016400002010968C1F3C22244F6C831C0F60001A4
:10165000895CC84080BD000086B0002005900490E1
:1016600003900290019041F20400C4F2020000686D
:101670000590059800F00C000146009100283FD02D
:10168000FFE70098042804D0FFE70098082806D058
:1016900037E041F20020C0F27A00019037E005986F
:1016A000C0F3834144F6D030C0F60000405C0290A5
:1016B0009DF81600C007C0B1FFE741F20400C4F274
:1016C00002000068C0F3404144F6E030C0F600007C
:1016D000405C0490029841F20021C0F27A01484334
:1016E0000499B0FBF1F0039007E0029840F6001176
:1016F000C0F23D0148430390FFE70398019006E0E4
:10170000FFE741F20020C0F27A000190FFE7019864
:1017100006B0704780B586B00490049820B9FFE702
:1017200001208DF817002EE304980078C0070028E8
:1017300000F0AE80FFE741F20400C4F2020000684E
:1017400000F00C00042813D0FFE741F20400C4F2BB
:101750000200006800F00C0008281BD1FFE741F2EE
:101760000400C4F202000068C003002812D5FFE79D
:1017700041F20000C4F2020000688003002808D58E
:10178000FFE70498406820B9FFE701208DF81700B3
:10179000F9E27CE0FFE704984068B0F5803F09D1AA
:1017A000FFE741F20001C4F20201086840F4803012
:1017B000086032E00498406868B9FFE741F2000130
:1017C000C4F20201086820F480300860086820F440
:1017D0008020086020E004984068B0F5A02F0DD16B
:1017E000FFE741F20001C4F20201086840F48020E2
:1017F0000860086840F4803008600CE041F20001A5
:10180000C4F20201086820F480300860086820F4FF
:1018100080200860FFE7FFE7FFE7FFE704984068E4
:10182000D0B1FFE7FFF736FC0390FFE741F200007D
:10183000C4F202000068800300280CD4FFE7FFF721
:1018400029FC0399401A652804D3FFE703208DF88B
:10185000170098E2EAE719E0FFF71CFC0390FFE7A6
:1018600041F20000C4F202000068800300280CD599
:10187000FFE7FFF70FFC0399401A652804D3FFE741
:1018800003208DF817007EE2EAE7FFE7FFE7FFE7B6
:10189000049800788007002840F18D80FFE741F22E
:1018A0000400C4F20200006810F00C0F13D0FFE730
:1018B00041F20400C4F20200006800F00C000828A5
:1018C00029D1FFE741F20400C4F202000068C0031E
:1018D000002820D4FFE741F20000C4F202000068B3
:1018E0008007002809D5FFE704980069012804D083
:1018F000FFE701208DF8170045E241F20001C4F234
:101900000201086820F0F800049A526940EAC20017
:101910000860FFE74EE00498006958B3FFE7002134
:10192000C4F2422101200860FFF7B4FB0390FFE7F7
:1019300041F20000C4F202000068800700280CD4C5
:10194000FFE7FFF7A7FB0399401A032804D3FFE73B
:1019500003208DF8170016E2EAE741F20001C4F215
:101960000201086820F0F800049A526940EAC200B7
:1019700008601EE00021C4F2422100200860FFF749
:1019800089FB0390FFE741F20000C4F20200006807
:10199000800700280CD5FFE7FFF77CFB0399401A6E
:1019A000032804D3FFE703208DF81700EBE1EAE7F3
:1019B000FFE7FFE7FFE7049800780007002848D515
:1019C000FFE70498806918B3FFE740F28041C4F252
:1019D000422101200860FFF75DFB0390FFE741F221
:1019E0002400C4F202000068800700280CD4FFE73E
:1019F000FFF750FB0399401A032804D3FFE70320A5
:101A00008DF81700BFE1EAE7012001F023F81FE09D
:101A100040F28041C4F2422100200860FFF73AFB07
:101A20000390FFE741F22400C4F20200006880073F
:101A300000280CD5FFE7FFF72DFB0399401A032878
:101A400004D3FFE703208DF817009CE1EAE7FFE7E6
:101A5000FFE7049800784007002840F1D880FFE7AE
:101A600000208DF8070041F21C00C4F2020000685B
:101A7000C000002813D4FFE7FFE741F21C00C4F2C6
:101A80000200016841F080510160006800F0805060
:101A900000900098FFE701208DF80700FFE747F26C
:101AA0000000C4F200000068C005002822D4FFE74F
:101AB00047F20001C4F20001086840F48070086039
:101AC000FFF7E8FA0390FFE747F20000C4F20000D6
:101AD0000068C00500280CD4FFE7FFF7DBFA039984
:101AE000401A652804D3FFE703208DF817004AE168
:101AF000EAE7FFE7FFE70498C068012809D1FFE79C
:101B000041F22001C4F20201086840F001000860BF
:101B100031E00498C06868B9FFE741F22001C4F2DF
:101B20000201086820F001000860086820F0040045
:101B300008601FE00498C06805280DD1FFE741F256
:101B40002001C4F20201086840F00400086008683F
:101B500040F0010008600CE041F22001C4F20201F3
:101B6000086820F001000860086820F004000860A0
:101B7000FFE7FFE7FFE7FFE70498C068E0B1FFE792
:101B8000FFF788FA0390FFE741F22000C4F2020059
:101B90000068800700280ED4FFE7FFF77BFA03995F
:101BA000401A41F28931884204D3FFE703208DF8BF
:101BB0001700E8E0E8E71BE0FFF76CFA0390FFE7A7
:101BC00041F22000C4F202000068800700280ED510
:101BD000FFE7FFF75FFA0399401A41F28931884223
:101BE00004D3FFE703208DF81700CCE0E8E7FFE718
:101BF0009DF80700012809D1FFE741F21C01C4F25A
:101C00000201086820F080500860FFE7FFE70498B1
:101C1000C069002800F0B380FFE741F20400C4F27D
:101C20000200006800F00C00082800F08280FFE746
:101C30000498C06902285CD1FFE76021C4F2422108
:101C400000200860FFF726FA0390FFE741F200004A
:101C5000C4F202000068800100280CD5FFE7FFF7FE
:101C600019FA0399401A032804D3FFE703208DF8DB
:101C7000170088E0EAE70498006AB0F5803F0CD1CD
:101C8000FFE741F20401C4F20201086820F40030C9
:101C9000049A926810430860FFE741F20401C4F21D
:101CA0000201086820F47410049B1A6A5B6A1A43E4
:101CB000104308606021C4F2422101200860FFF750
:101CC000E9F90390FFE741F20000C4F20200006866
:101CD000800100280CD4FFE7FFF7DCF90399401AD4
:101CE000032804D3FFE703208DF817004BE0EAE751
:101CF0001EE06021C4F2422100200860FFF7CAF90B
:101D00000390FFE741F20000C4F202000068800186
:101D100000280CD5FFE7FFF7BDF90399401A032807
:101D200004D3FFE703208DF817002CE0EAE7FFE774
:101D300024E00498C069012804D1FFE701208DF850
:101D4000170020E041F20400C4F202000068029093
:101D5000029800F480300499096A884208D1FFE7AC
:101D6000029800F470100499496A884204D0FFE791
:101D700001208DF8170006E0FFE7FFE7FFE70020EE
:101D80008DF81700FFE79DF8170006B080BD000032
:101D900081B0009001B0704781B0009001B07047F1
:101DA00080B582B00090009820B9FFE701208DF83F
:101DB00007003FE0009890F83D0040B9FFE7009928
:101DC000002081F83C00009800F038F8FFE7009907
:101DD000022081F83D00009951F8040B00F0C8FE84
:101DE0000099012081F84600FFE70099012081F861
:101DF0003E00009981F83F00009981F84000009969
:101E000081F84100FFE7FFE70099012081F84200D7
:101E1000009981F84300009981F84400009981F805
:101E20004500FFE70099012081F83D0000208DF872
:101E30000700FFE79DF8070002B080BD81B0009069
:101E400001B0704783B00190019890F83D000128DF
:101E500004D0FFE701208DF80B0047E00199022034
:101E600081F83D0001980168C86840F00100C86031
:101E70000198006842F60041C4F20101884218D07E
:101E8000FFE701980068B0F1804F12D0FFE701989A
:101E9000006840F20041C4F20001884209D0FFE727
:101EA0000198006840F60001C4F20001884212D196
:101EB000FFE701980068806800F007000090009834
:101EC000062807D0FFE701980168086840F0010084
:101ED0000860FFE706E001980168086840F001002B
:101EE0000860FFE700208DF80B00FFE79DF80B006E
:101EF00003B0704781B0009001B0704780B582B0E8
:101F0000019001980068006900F002010020B0EB28
:101F1000510F28D0FFE701980068C06800F0020167
:101F20000020B0EB510F1DD0FFE7019801686FF062
:101F30000200086101990120087701980068806912
:101F4000800720B1FFE70198FFF7D4FF06E0019872
:101F500000F012F9019800F013F9FFE70199002051
:101F60000877FFE7FFE701980068006900F00401C7
:101F70000020B0EB910F29D0FFE701980068C068FE
:101F800000F004010020B0EB910F1ED0FFE7019894
:101F900001686FF004000861019902200877019838
:101FA0000068806910F4407F04D0FFE70198FFF7D4
:101FB000A1FF06E0019800F0DFF8019800F0E0F8DA
:101FC000FFE7019900200877FFE7FFE70198006825
:101FD000006900F008010020B0EBD10F28D0FFE726
:101FE00001980068C06800F008010020B0EBD10F34
:101FF0001DD0FFE7019801686FF0080008610199A2
:102000000420087701980068C069800720B1FFE7C5
:102010000198FFF76FFF06E0019800F0ADF8019816
:1020200000F0AEF8FFE7019900200877FFE7FFE72F
:1020300001980068006900F010010020B0EB111F4A
:1020400029D0FFE701980068C06800F01001002067
:10205000B0EB111F1ED0FFE7019801686FF0100070
:10206000086101990820087701980068C06910F498
:10207000407F04D0FFE70198FFF73CFF06E001989E
:1020800000F07AF8019800F07BF8FFE70199002052
:102090000877FFE7FFE7019800680069C00780B193
:1020A000FFE701980068C068C00748B1FFE70198E2
:1020B00001686FF001000861019800F065F8FFE722
:1020C000FFE7019800680069C1B20020B0EBD11FA2
:1020D00013D0FFE701980068C068C1B20020B0EBE0
:1020E000D11F09D0FFE7019801686FF080000861F7
:1020F0000198FFF74DFEFFE7FFE7019800680069D0
:1021000000F040010020B0EB911F14D0FFE70198D0
:102110000068C06800F040010020B0EB911F09D0BA
:10212000FFE7019801686FF040000861019800F036
:102130003DF8FFE7FFE701980068006900F0200123
:102140000020B0EB511F14D0FFE701980068C06871
:1021500000F020010020B0EB511F09D0FFE70198EB
:1021600001686FF0200008610198FFF715FEFFE796
:10217000FFE702B080BD000081B0009001B0704761
:1021800081B0009001B0704780B582B00190019895
:10219000006842F60041C4F20101884203D1FFE722
:1021A000FEF77EFFFFE702B080BD000081B0009027
:1021B00001B0704782B00190ADF8021002B07047D4
:1021C00081B0009001B0704780B592B01190119825
:1021D00000680068109011980068C0680F9011980E
:1021E000006840690E9000200D900C90109800F04F
:1021F0000F000D900D9888B9FFE79DF8400080060C
:1022000000280AD5FFE79DF83C008006002804D589
:10221000FFE7119800F092FDE9E1FFE70D98002833
:1022200000F0C280FFE79DF83800C00738B9FFE72B
:10223000BDF83C0010F4907F00F0B680FFE79DF8F9
:102240004000C00758B1FFE79DF83D00C00730B11E
:10225000FFE71199486C40F001004864FFE79DF8E2
:102260004000400700280BD5FFE79DF83800C00765
:1022700030B1FFE71199486C40F002004864FFE775
:102280009DF84000800700280BD5FFE79DF8380037
:10229000C00730B1FFE71199486C40F00400486472
:1022A000FFE79DF840000007002811D5FFE79DF8E3
:1022B0003C008006002805D4FFE79DF83800C007E1
:1022C00030B1FFE71199486C40F008004864FFE71F
:1022D0001198406C002866D0FFE79DF8400080060A
:1022E00000280AD5FFE79DF83C008006002804D5A9
:1022F000FFE7119800F022FDFFE7119800684069A0
:10230000C0F380100C901198406C0007002804D492
:10231000FFE70C9800283ED0FFE7119800F0B0FCD2
:10232000119800684069400600282FD5FFE7FFE7B5
:10233000FFE71198006850E8050F20F040000B906F
:10234000FFE70B991198026842E805100028F0D1C8
:10235000FFE7FFE71198C06B98B1FFE71198C16BD9
:1023600042F66140C0F6000048631198C06BFEF76A
:1023700085FA28B1FFE71198C06B416B8847FFE7EA
:1023800003E01198FFF71CFFFFE703E01198FFF748
:1023900017FFFFE706E01198FFF712FF11990020E1
:1023A0004864FFE7FFE722E11198006B012840F045
:1023B000FE80FFE79DF84000C006002840F1F7804E
:1023C000FFE79DF83C00C006002840F1F080FFE7E1
:1023D000FFE700200A901198006800680A901198A1
:1023E000006840680A900A98FFE711980068406901
:1023F0004006002840F18180FFE71198C06B00681B
:102400004068ADF82600BDF82600002874D0FFE72C
:10241000BDF826001199898D88426DDAFFE7BDF875
:1024200026001199C8851198C06B8069202858D062
:10243000FFE7FFE7FFE71198006850E8030F20F47B
:1024400080700890FFE708991198026842E803102D
:102450000028F0D1FFE7FFE7FFE7FFE711980068EA
:1024600050E8050F20F001000790FFE70799119849
:10247000026842E805100028F0D1FFE7FFE7FFE718
:10248000FFE71198006850E8050F20F04000069023
:10249000FFE706991198026842E805100028F0D17C
:1024A000FFE7FFE71199202081F8420011990020F1
:1024B0000863FFE7FFE71198006850E8030F20F07A
:1024C00010000590FFE705991198026842E8031093
:1024D0000028F0D1FFE7FFE71198C06BFEF790F9F5
:1024E000FFE71199022048631198818DC28D891AE6
:1024F00089B2FFF75FFEFFE779E01199888DC98DFA
:10250000401AADF812001198C08D00284ED0FFE798
:10251000BDF81200002849D0FFE7FFE7FFE7119858
:10252000006850E8030F20F490700390FFE70399D0
:102530001198026842E803100028F0D1FFE7FFE796
:10254000FFE7FFE71198006850E8050F20F0010051
:102550000290FFE702991198026842E805100028EE
:10256000F0D1FFE7FFE71199202081F8420011998F
:1025700000200863FFE7FFE71198006850E8030FA9
:1025800020F010000190FFE701991198026842E8DD
:1025900003100028F0D1FFE7FFE7119902204863FC
:1025A0001198BDF81210FFF705FEFFE71FE09DF838
:1025B0004000000600280AD5FFE79DF83C00000611
:1025C000002804D5FFE7119800F0CCFC0FE09DF83F
:1025D0004000400600280AD5FFE79DF83C00400671
:1025E000002804D5FFE7119800F094FBFFE712B034
:1025F00080BD000080B58EB00D9000200C900B9037
:102600000A9009900D98006843F60001C4F2010198
:10261000884240F08B80FFE7FFE741F21800C4F2E8
:102620000200016841F480410160006800F48040CC
:1026300008900898FFE7FFE741F21800C4F2020093
:10264000016841F004010160006800F00400079097
:102650000798FFE74FF40070099002200A900320CA
:102660000C9040F60000C4F20100039009A9049107
:10267000FEF750FB039804994FF480620992002200
:1026800005920A920B92FEF745FB059940F218203D
:10269000C2F2000006904422C4F20202026010223C
:1026A000426081608022C260016141618161C161DB
:1026B000FEF7B6FA18B1FFE7FEF79AF8FFE7FFE773
:1026C0000D9840F21821C2F2000181630D98486212
:1026D000FFE740F2D410C2F2000002905821C4F289
:1026E000020101600021416081608022C2600161BD
:1026F00041618161C161FEF793FA18B1FFE7FEF70E
:1027000077F8FFE7FFE70D9840F2D411C2F200011D
:10271000C1630D984862FFE7252001900E21002239
:10272000FEF7F8FD0198FEF7EBFDFFE70EB080BD68
:1027300081B0009001B0704780B58AB008900791D1
:10274000ADF81A20059300200290089890F84100F7
:10275000202878D1FFE7079820B1FFE7BDF81A00DD
:1027600020B9FFE701208DF8270070E008990020CC
:1027700048640899212081F84100FEF78BFC029003
:10278000BDF81A0008998884BDF81A000899C88411
:1027900008988068B0F5805F09D1FFE70898006964
:1027A00028B9FFE7002004900798039004E00798F9
:1027B000049000200390FFE7FFE70898C08C58B30F
:1027C000FFE70898029B05996A4611608021002264
:1027D00000F012FC20B1FFE703208DF8270036E05F
:1027E000049858B9FFE7039800886FF35F200899B1
:1027F0000968486003980230039008E00498007864
:10280000089909684860049801300490FFE7089926
:10281000C88C0138C884D0E70898029B05996A469D
:1028200011604021002200F0E7FB20B1FFE7032008
:102830008DF827000BE00899202081F84100002046
:102840008DF8270003E002208DF82700FFE79DF8B0
:1028500027000AB080BD000081B0009001B0704731
:10286000FFE7FEE780B584B0FFE741F21400C4F251
:102870000200016841F001010160006800F0010000
:1028800003900398FFE70E21009100220192084671
:10289000FEF740FD0098FEF733FD0099019A0F20E6
:1028A0000290FEF737FD0298FEF72AFD04B080BDC6
:1028B00080B58AB000200990089007900690FFE745
:1028C00041F21800C4F20200016841F010010160F9
:1028D000006800F0100005900598FFE7FFE741F25F
:1028E0001800C4F20200016841F020010160006894
:1028F00000F0200004900498FFE7FFE741F2180081
:10290000C4F20200016841F004010160006800F0B7
:10291000040003900398FFE741F20000C4F20100B5
:1029200002904FF40051009101220192FEF79AFBB0
:10293000009A0199029806920791002108910321BB
:10294000099106A9FEF7E6F90AB080BD80B582B00C
:1029500040F2A420C2F20000019043F60001C4F24C
:10296000010101604FF4E131416000228260C260E8
:1029700002610C2141618261C2611146FEF75AFC7D
:1029800018B1FFE7FDF734FFFFE702B080BD00009C
:10299000FFE7FEE7FFE7FEE788B0079006910592A4
:1029A000079800F0070004900498C0F1070005287C
:1029B00003D3FFE70420019004E00498C0F107006E
:1029C0000190FFE70198039004980430062803D88B
:1029D000FFE70020009003E0049803380090FFE731
:1029E0000098029006980399012202FA01F1013938
:1029F0000840029B984005999A40013A11400843CB
:102A000008B0704700000000000000000000000057
:102A1000EFF30980BFF36F8F0D4B1A6820E9F00FB9
:102A200010602DE908404FF0500080F3118801F04C
:102A30006BFA4FF0000080F31188BDE80840196878
:102A40000868B0E8F00F80F30988BFF36F8F704714
:102A5000EC02002082B00190019840F20C01C2F219
:102A600000010968C90844F6D352C1F26202A1FB11
:102A70000221890948430090FFE700BFFFE7009863
:102A8000411E00910028F8D1FFE702B07047000016
:102A9000074B19680868B0E8F00F80F30988BFF3A6
:102AA0006F8F4FF0000080F311884EF00D0E7047CD
:102AB000EC02002080B582B04FF0500080F3118806
:102AC000BFF36F8FBFF34F8F009001F081FA40B1D9
:102AD000FFE74EF60451CEF200014FF0805008603F
:102AE000FFE700200190019880F3118802B080BDBB
:102AF00080B590B006A800902821FDF71AFB009839
:102B000000230593049303930293019301220692F9
:102B10004FF48031079108930A9202220D920E9190
:102B20004FF4E0110F91FEF7F5FD18B1FFE7FDF747
:102B30005FFEFFE70F200190022102910020039029
:102B40004FF480620492059001A8FEF705FC18B1CD
:102B5000FFE7FDF74DFEFFE710B080BD70470000B6
:102B600080B540F25C20C2F20000FFF7C7F980BDDB
:102B700083B002900191029800680090029842F69A
:102B80000041C4F20101884215D0FFE70298B0F17C
:102B9000804F10D0FFE7029840F20041C4F20001DC
:102BA000884208D0FFE7029840F60001C4F2000115
:102BB00088420AD1FFE7009820F070000090019849
:102BC0004168009808430090FFE7029842F60041F0
:102BD000C4F20101884215D0FFE70298B0F1804F9E
:102BE00010D0FFE7029840F20041C4F20001884291
:102BF00008D0FFE7029840F60001C4F200018842C5
:102C00000AD1FFE7009820F4407000900198C16855
:102C1000009808430090FFE7009820F08000019999
:102C200049690843009000980299086001988068FB
:102C30000299C8620198006802998862029842F677
:102C40000041C4F20101884205D1FFE70198006903
:102C500002990863FFE702990120486103B07047B9
:102C600080B582B001900198406A009000990020E0
:102C7000C8850099C8840098FFF7A2FA02B080BD09
:102C800084B00390FFE7FFE70398006850E8030F64
:102C900020F490700290FFE702990398026842E8DE
:102CA00003100028F0D1FFE7FFE7FFE7FFE70398F5
:102CB000006850E8050F20F001000190FFE701993E
:102CC0000398026842E805100028F0D1FFE7FFE70B
:102CD0000398006B012814D1FFE7FFE7FFE7039893
:102CE000006850E8030F20F010000090FFE7009903
:102CF0000398026842E803100028F0D1FFE7FFE7DD
:102D0000FFE70399202081F842000399002008631F
:102D100004B0704780B582B0019001980168C8681E
:102D200020F04000C8600199202081F841000198FE
:102D3000FFF792FD002002B080BD000080B586B094
:102D40000490049890F84200222840F0A480FFE705
:102D500004988068B0F5805F15D1FFE7049800699A
:102D600088B9FFE7002003900498806A02900498D5
:102D7000006840686FF35F20029908800499886AB0
:102D80000230886225E00498806A03900020029057
:102D900004988068B0F5805F08D0FFE704988068E9
:102DA00050B9FFE70498006930B9FFE7049800685C
:102DB00040680399087007E004980068406800F0D4
:102DC0007F0003990870FFE70499886A01308862E0
:102DD000FFE70499C88D0138C8850004002856D142
:102DE000FFE704980168C86820F02000C8600498D4
:102DF0000168C86820F48070C86004980168486958
:102E000020F0010048610499202081F842000499D3
:102E1000002048630498006B012830D1FFE7049933
:102E200000200863FFE7FFE70498006850E8030FFD
:102E300020F010000190FFE701990498026842E831
:102E400003100028F0D1FFE7FFE70498006800684E
:102E5000C00600280ED5FFE7FFE700200090049889
:102E6000006800680090049800684068009000982E
:102E7000FFE7FFE70498818DFFF79CF903E00498D2
:102E8000FFF756FCFFE700208DF8170007E0002051
:102E90008DF8170003E002208DF81700FFE79DF87A
:102EA000170006B080BD000080B584B00390039881
:102EB0000068006920F44050039A1168D2681043FA
:102EC0000861039988680A694969104308430290B8
:102ED00003980068C06841F20C6188430299084376
:102EE00003990968C86003980068406920F440703D
:102EF000039A11689269104348610398006843F689
:102F00000001C4F20101884204D1FFE7FEF792FB01
:102F1000019003E0FEF77CFB0190FFE70198192187
:102F20004843039A116852689200B0FBF2FC48F2E1
:102F30001F52C5F2EB12ACFB02304309642003FBC5
:102F400010CC322000EB0C10A0FB0202F02000EAB3
:102F5000521000EB0310C2F343121044886004B017
:102F600080BD000083B00190019890F841002128B5
:102F70003AD1FFE701988068B0F5805F13D1FFE791
:102F80000198006978B9FFE70198006A00900098FD
:102F900000886FF35F200199096848600199086A09
:102FA0000230086208E0019A106A411C1162007840
:102FB000019909684860FFE70199C88C0138C88405
:102FC000000468B9FFE701980168C86820F0800034
:102FD000C86001980168C86840F04000C860FFE719
:102FE00000208DF80B0003E002208DF80B00FFE7B6
:102FF0009DF80B0003B0704780B588B0DDF828C09D
:10300000069005918DF813200393FFE7069800685A
:10301000006805990840401AB0FA80F040099DF810
:103020001310884249D1FFE70A980130002843D0A5
:10303000FFE70A9840B1FFE7FEF72CF80399401A22
:103040000A99884237D9FFE7FFE7FFE7069800684B
:1030500050E8030F20F4D0700290FFE70299069821
:10306000026842E803100028F0D1FFE7FFE7FFE71E
:10307000FFE70698006850E8050F20F00100019076
:10308000FFE701990698026842E805100028F0D190
:10309000FFE7FFE70699202081F84100069981F8B3
:1030A0004200FFE70699002081F84000FFE7032077
:1030B0008DF81F0005E0FFE7A8E700208DF81F004E
:1030C000FFE79DF81F0008B080BD000080B540F20A
:1030D000A420C2F20000FFF777F880BDFFE7FEE70B
:1030E00081B08DF803009DF9030000280ED4FFE79E
:1030F0009DF9031001F01F02012090404A094EF291
:103100000011CEF2000141F82200FFE701B0704744
:103110004EF60C50CEF200000068C0F3022070475B
:1031200082B08DF8070000919DF9070000280AD4AD
:10313000FFE7009800019DF907104EF20042CEF221
:10314000000288540BE0009800019DF8071001F080
:103150000F014EF61452CEF200028854FFE702B07F
:103160007047000083B00290029800F007000090C2
:103170004EF60C51CEF200010868019001984FF60E
:10318000FF02104001900198009A40EA02200022BC
:10319000C0F2FA52104301900198086003B07047E2
:1031A000FFE7FEE780B582B00190FFE740F2400004
:1031B000C2F200000088642810DBFFE740F218002C
:1031C000C2F20000006844F60843C0F60003002184
:1031D000202200F0D5F8FFF7E3FF0DE040F21800E1
:1031E000C2F20000006844F61A43C0F6000304214E
:1031F000202200F0C5F8FFE7FFE740F24000C2F2EE
:1032000000000088D0B9FFE70020ADF80200FFE71A
:10321000BDF80200632810DCFFE7BDF8022040F291
:103220004401C2F20001002041F82200FFE7BDF88E
:1032300002000130ADF80200EAE7FFE7019840F232
:103240004003C2F200031A88511C198040F2440165
:10325000C2F2000141F8220002B080BD80B586B004
:1032600005900491FFE7059880B9FFE740F21C0044
:10327000C2F20000006844F60843C0F600030021D3
:10328000712200F07DF8FFF78BFF0DE040F21C008B
:10329000C2F20000006844F61A43C0F6000304219D
:1032A000712200F06DF8FFE7FFE70598C068039012
:1032B0000398806900F024FB02900398806900F075
:1032C0000BFBADF806000298BDF80610FDF7B2FE44
:1032D000002818BF012004990870012006B080BDA5
:1032E00080B58AB00990FFE7099880B9FFE740F2FE
:1032F0001C00C2F20000006844F60843C0F6000358
:103300000021262200F03CF8FFF74AFF0DE040F2D2
:103310001C00C2F20000006844F61A43C0F6000325
:103320000421262200F02CF8FFE7FFE70998C06887
:1033300008900898806900F0E3FA0790089880697F
:1033400000F0CAFAADF81A00002000900590049031
:10335000039002900121019103910490BDF81A009D
:10336000029003200590079802A9FDF7D3FC009A6C
:103370000798BDF81A10FDF775FE01980AB080BDD8
:1033800080B58AB009908DF82310079206939DF8B6
:10339000230040F23801C2F200010978884252DC71
:1033A000FFE7099A40F25870C2F20000039044F619
:1033B0000851C0F60001029100F0ECFE0398FCF702
:1033C000C3FE02990246039810449DF8233044F648
:1033D000F432C0F6000252F8232000F0DBFE03981E
:1033E000FCF7B2FE014603980844079A44F681416F
:1033F000C0F6000100F0CEFE03980CA90591FCF781
:10340000A3FE0146039808440699059A00F0D6FEEB
:103410000398FCF799FE04900498402801D8FFE730
:10342000FFE740F25870C2F200000190FCF78CFEFA
:10343000019982B240F2A420C2F200004FF47A73E4
:10344000FFF77AF9FFE70AB080BD000080B58AB0C7
:1034500009908DF82310FFE7099880B9FFE740F243
:103460001C00C2F20000006844F60843C0F60003E6
:1034700000213A22FFF784FFFFF792FE0DE040F2B1
:103480001C00C2F20000006844F61A43C0F60003B4
:1034900004213A22FFF774FFFFE7FFE7FFE79DF8FB
:1034A0002300052810DBFFE740F21C00C2F20000F9
:1034B000006844F60843C0F6000300213B22FFF7F2
:1034C0005FFFFFF76DFE0DE040F21C00C2F200004E
:1034D000006844F61A43C0F6000304213B22FFF7BC
:1034E0004FFFFFE7FFE70998C068079007988069DA
:1034F00000F006FA06900798806900F0EDF9ADF843
:103500001600002004900390029001909DF8230083
:1035100020B9FFE70020029003902BE09DF82300E4
:10352000012805D1FFE7002002900120039020E050
:103530009DF82300022805D1FFE700200290022019
:10354000039015E09DF82300032805D1FFE7012033
:103550000290002003900AE09DF82300042805D182
:10356000FFE71120029001200390FFE7FFE7FFE74C
:10357000FFE7FFE7BDF816000190032004900698CE
:1035800001A9FDF7C7FB01200AB080BD80B586B058
:1035900005908DF81310FFE7059880B9FFE740F21A
:1035A0001C00C2F20000006844F60843C0F60003A5
:1035B00000216422FFF7E4FEFFF7F2FD0DE040F288
:1035C0001C00C2F20000006844F61A43C0F6000373
:1035D00004216422FFF7D4FEFFE7FFE70598C068E7
:1035E00003900398806900F08BF90290039880693A
:1035F00000F072F9ADF806000298BDF806109DF8CB
:10360000132002F00102FDF72DFD012006B080BD60
:1036100080B584B0039001208DF80B000398FCF76F
:1036200093FD042806D1FFE7039890F901002E28A6
:1036300004D0FFE700208DF80B0032E0039890F9EA
:103640000000412806DBFFE7039890F900004728B7
:1036500004DBFFE700208DF80B0021E0039890F9D0
:103660000200302806DBFFE7039890F902003A28B1
:1036700004DBFFE700208DF80B0010E0039890F9C1
:103680000300302806DBFFE7039890F903003A288F
:1036900004DBFFE700208DF80B00FFE7FFE7FFE703
:1036A000FFE7039802300190019800210A22FCF7FD
:1036B00052FDADF80200BDF80200002805D4FFE776
:1036C000BDF80200102804DBFFE700208DF80B0096
:1036D000FFE79DF80B0000F0010004B080BD000082
:1036E00080B582B001900091FFE7019880B9FFE7B3
:1036F00040F21800C2F20000006844F60843C0F629
:10370000000300211022FFF73BFEFFF749FD0DE00B
:1037100040F21800C2F20000006844F61A43C0F6F6
:10372000000304211022FFF72BFEFFE7FFE7FFE76E
:10373000009880B9FFE740F21800C2F2000000686C
:1037400044F60843C0F6000300211122FFF718FEDB
:10375000FFF726FD0DE040F21800C2F200000068FD
:1037600044F61A43C0F6000304211122FFF708FEB5
:10377000FFE7FFE7FFE70098006880B9FFE740F246
:103780001800C2F20000006844F60843C0F60003C7
:1037900000211222FFF7F4FDFFF702FD0DE040F2D9
:1037A0001800C2F20000006844F61A43C0F6000395
:1037B00004211222FFF7E4FDFFE7FFE70199009AD9
:1037C000106852684A6008600198FFF7EBFC02B08D
:1037D00080BD000080B584B0039002910192FFE7A4
:1037E000039880B9FFE740F21C00C2F200000068B5
:1037F00044F60843C0F6000300211B22FFF7C0FD7A
:10380000FFF7CEFC0DE040F21C00C2F200000068A1
:1038100044F61A43C0F6000304211B22FFF7B0FD53
:10382000FFE7FFE7FFE7029880B9FFE740F21C00DF
:10383000C2F20000006844F60843C0F6000300210D
:103840001C22FFF79DFDFFF7ABFC0DE040F21C00D2
:10385000C2F20000006844F61A43C0F600030421D7
:103860001C22FFF78DFDFFE7FFE7FFE70198FFF759
:10387000CFFE80B9FFE740F21C00C2F200000068F2
:1038800044F60843C0F6000300211D22FFF778FD2F
:10389000FFF786FC0DE040F21C00C2F20000006859
:1038A00044F61A43C0F6000304211D22FFF768FD09
:1038B000FFE7FFE7019800F035F801980399886168
:1038C000039B029944F6E432C0F60002184600F069
:1038D000B5F804B080BD000080B584B003900398B3
:1038E00002300290029800210A22FCF734FCADF865
:1038F0000600BDF806100120884080B204B080BDEB
:1039000081B00090009890F9001040F22400C2F2BB
:10391000000000EB81004FF6FC61CFF6FF714058CC
:1039200001B0704780B586B005900598FFF7E8FFB5
:1039300040F60001C4F20101884210D1FFE7FFE721
:1039400041F21800C4F20200016841F00401016074
:10395000006800F0040004900498FFE76BE005980D
:10396000FFF7CEFF40F60041C4F20101884210D1BA
:10397000FFE7FFE741F21800C4F20200016841F0DE
:1039800008010160006800F0080003900398FFE759
:1039900050E00598FFF7B4FF41F20001C4F20101C5
:1039A000884210D1FFE7FFE741F21800C4F202009D
:1039B000016841F010010160006800F01000029001
:1039C0000298FFE735E00598FFF79AFF41F20041C2
:1039D000C4F20101884210D1FFE7FFE741F218006D
:1039E000C4F20200016841F020010160006800F0AB
:1039F000200001900198FFE71AE00598FFF780FF8B
:103A000041F60001C4F20101884210D1FFE7FFE74F
:103A100041F21800C4F20200016841F04001016067
:103A2000006800F0400000900098FFE7FFE7FFE724
:103A3000FFE7FFE7FFE706B080BD000080B586B076
:103A40000590049103920293FFE7059880B9FFE780
:103A500040F22000C2F20000006844F60843C0F6BD
:103A6000000300210B22FFF78BFCFFF799FB0DE011
:103A700040F22000C2F20000006844F61A43C0F68B
:103A8000000304210B22FFF77BFCFFE7FFE7FFE7C2
:103A9000049880B9FFE740F22000C2F200000068FD
:103AA00044F60843C0F6000300210C22FFF768FC2F
:103AB000FFF776FB0DE040F22000C2F20000006844
:103AC00044F61A43C0F6000304210C22FFF758FC09
:103AD000FFE7FFE7FFE7039880B9FFE740F2200028
:103AE000C2F20000006844F60843C0F6000300215B
:103AF0000D22FFF745FCFFF753FB0DE040F22000DD
:103B0000C2F20000006844F61A43C0F60003042124
:103B10000D22FFF735FCFFE7FFE704980090012036
:103B20008DF804000A208DF8050005986946FFF716
:103B3000D7FD02980599C860059900208860039810
:103B40000599086105980169096888470599052064
:103B5000087506B080BD000080B584B003908DF874
:103B60000B10FFE7039880B9FFE740F22000C2F294
:103B70000000006844F60843C0F6000300211F223D
:103B8000FFF7FEFBFFF70CFB0DE040F22000C2F256
:103B90000000006844F61A43C0F6000304211F2207
:103BA000FFF7EEFBFFE7FFE7FFE79DF80B000528B7
:103BB00010DBFFE740F22000C2F20000006844F68C
:103BC0000843C0F6000300212022FFF7D9FBFFF7CE
:103BD000E7FA0DE040F22000C2F20000006844F66F
:103BE0001A43C0F6000304212022FFF7C9FBFFE7B8
:103BF000FFE7039801900198007D9DF80B10884223
:103C00000BD0FFE7019801694A689DF80B109047B7
:103C10009DF80B0001990875FFE704B080BD000016
:103C200080B584B003908DF80B10FFE7039880B93E
:103C3000FFE740F22000C2F20000006844F60843AB
:103C4000C0F6000300212D22FFF79AFBFFF7A8FA28
:103C50000DE040F22000C2F20000006844F61A4372
:103C6000C0F6000304212D22FFF78AFBFFE7FFE7E0
:103C7000FFE70398007D052810DBFFE740F22000F6
:103C8000C2F20000006844F60843C0F600030021B9
:103C90002E22FFF775FBFFF783FA0DE040F22000BC
:103CA000C2F20000006844F61A43C0F60003042183
:103CB0002E22FFF765FBFFE7FFE7039801909DF8D1
:103CC0000B0000F001000199497D01F001018842DB
:103CD00017D0FFE70198007D032812DBFFE701986A
:103CE00001698A689DF80B1001F00101904738B115
:103CF000FFE79DF80B00019900F001004875FFE710
:103D0000FFE704B080BD000080B584B08DF80F00DF
:103D10009DF80F00042819DCFFE79DF80F0040F222
:103D20003801C2F20001087040F21400C2F2000033
:103D300000689DF80F106A46116044F66B43C0F6A8
:103D4000000304212222FFF71BFB13E040F21400C2
:103D5000C2F2000000689DF80F106A46516004210D
:103D6000116044F64043C0F6000300212522FFF70E
:103D700007FBFFE704B080BD80B58EB00020049043
:103D80000D90FDF79BF9FEF7B3FEFEF791FDFEF7F0
:103D900069FDFEF7DBFD0420FFF7B6FF04980C90E9
:103DA000012000F08FFE0C90FFE70C9880B9FFE730
:103DB00040F21000C2F20000006844F60843C0F66A
:103DC000000300216822FFF7DBFAFFF7E9F90DE0B5
:103DD00040F21000C2F20000006844F61A43C0F638
:103DE000000304216822FFF7CBFAFFE7FFE7012079
:103DF000FFF78AFF44F63841C0F6000144F62C4232
:103E0000C0F6000205A80390FFF7E4FC0398032125
:103E1000FFF7A2FEFFE7FFE705A801900121FFF7EA
:103E2000FFFE64200290FCF753FF01980021FFF78A
:103E3000F7FE0298FCF74CFFEEE7000081B040F27D
:103E4000F020C2F200000068006840B9FFE740F6C9
:103E50006831C2F200014FF0FF3008600FE040F21D
:103E6000F020C2F200000068C068C06800900098AE
:103E7000406840F66831C2F200010860FFE701B017
:103E80007047000082B0019001980069009001988D
:103E9000416880688860019948688968486000982E
:103EA00040680199884205D1FFE701988068009930
:103EB000486000E0FFE70199002008610099086868
:103EC000013808600098006802B0704783B0029023
:103ED000019102984068009000980199486000980C
:103EE0008068019988600198009989684860019804
:103EF0000099886002980199086102990868013068
:103F0000086003B07047000083B040F66030C2F232
:103F10000000006838B1FFE740F67431C2F20001DA
:103F20000120086051E040F67431C2F20001002027
:103F3000086040F66430C2F2000000680190FFE7BC
:103F4000019800EB800140F2F820C2F2000050F826
:103F5000210090B9FFE7019858B9FFE74FF05000F2
:103F600080F31188BFF36F8FBFF34F8F0290FFE78D
:103F7000FEE7019801380190E2E7019800EB80012B
:103F800040F2F820C2F2000000EB8100009000999E
:103F9000486840684860009948680831884205D1FF
:103FA000FFE70099486840684860FFE7009840686C
:103FB000C06840F2EC21C2F200010860019840F6AE
:103FC0006431C2F200010860FFE703B070470000EF
:103FD00080B586B00020029040F66030C2F200004A
:103FE0000068002840F0C080FFE740F67031C2F260
:103FF000000108680130019001980860019858BBE1
:10400000FFE740F2F020C2F200000068006858B1FB
:10401000FFE74FF0500080F31188BFF36F8FBFF3BD
:104020004F8F0590FFE7FEE740F2F022C2F2000258
:104030001068009040F2F421C2F20001086810609C
:104040000098086040F66C31C2F200010868013047
:104050000860FFF7F3FE00E0FFE7019840F66831E3
:10406000C2F200010968884268D3FFE7FFE740F227
:10407000F020C2F200000068006840B9FFE740F697
:104080006831C2F200014FF0FF30086055E040F2A5
:10409000F020C2F200000068C068C0680490049874
:1040A0004068039001980399884207D2FFE703987C
:1040B00040F66831C2F2000108603EE0FFE7049874
:1040C0000430FFF7DFFE0498806A28B1FFE7049808
:1040D0001830FFF7D7FE00E0FFE70498C06A40F60B
:1040E0006431C2F200010968884208D9FFE70498E8
:1040F000C06A40F66431C2F200010860FFE704992B
:10410000C86A00EB800240F2F820C2F2000000EB27
:1041100082000431FFF7DAFE0498C06A40F2EC2115
:10412000C2F200010968C96A884203D3FFE701208F
:10413000029000E0FFE7FFE799E7FFE740F2EC209D
:10414000C2F200000068C06A00EB800140F2F82073
:10415000C2F2000050F82100022803D3FFE701203B
:10416000029000E0FFE707E040F65C31C2F2000198
:10417000086801300860FFE740F67430C2F20000C2
:10418000006818B1FFE70120029000E0FFE7029805
:1041900006B080BD0FB4084B10B504A902AA03985D
:1041A00000F0F4F8044602A9002000F086FC204646
:1041B00010BC5DF814FB0000BB4A000837B514467C
:1041C0000846064B6A46214600F0E0F80446694678
:1041D000002000F072FC20463EBD0000BB4A0008F3
:1041E000004870470800002002E008C8121F08C1FC
:1041F000002AFAD170477047002001E001C1121F68
:10420000002AFBD1704700002DE9FF5F82B000213A
:10421000DDE90430020DDDF840B0034318D044F668
:104220001050A2F2FF3242431514119801281FD0FA
:10423000A5EB0B00401C5FEA000A4FF000064E4F52
:10424000DFF83891B046504615D5CAF1000413E0A6
:10425000119801244AA3012801D16FEA0B010298A9
:10426000119AC0E90031C0E9024206B0BDE8F09FF2
:10427000CBF10000DFE704460021404A491842EB39
:104280000450CDE9001012E0E00707D032463B466B
:1042900040464946FCF7D8F88046894632463B46B8
:1042A00010461946FCF7D0F806460F466410002C5D
:1042B000EAD1DDE90401DDE90023BAF1000F06DAF5
:1042C000FCF7C2F842464B46FCF7BEF805E0FCF7A7
:1042D0002DF942464B46FCF729F904460E460022CA
:1042E000284BFCF7ABF903D84FF0FF30014607E04D
:1042F0000022254B20463146FBF7FFFFFCF785F9EE
:10430000102409E0002C0ADB0A220023FBF771FFCE
:10431000039B30321A55641E50EA0102F2D1641C2C
:10432000039AC4F111031444119A012A03D0012203
:1043300008430DD10AE0084304D000204FF0110BD0
:10434000119072E7A3EB0B056D1E0DE05B4504DDDC
:104350004FF0000205F1010504E003DA4FF000021E
:10436000A5F10105002AECD002981199C0E90231AB
:10437000C0E9004579E70000000014400000F03F6C
:10438000300000000000F0430000E03F2DE9FF4F47
:1043900095B09B468946064600250FE2252877D131
:1043A00000242746F84A0121059400E0044316F84A
:1043B000013F203B01FA03F01042F7D130782A2860
:1043C00011D06FF02F033078A0F13002092A16D8EF
:1043D000059A44F0020402EB820203EB420210440D
:1043E000761C0590EFE759F8042B0592002A03DAB2
:1043F000504244F40054059044F00204761C307896
:104400002E2816D116F8010F44F004042A280DD0E6
:104410006FF02F023078A0F13003092B09D807EB99
:10442000870302EB4303C718761CF3E759F8047BB4
:10443000761C30786C280FD006DC4C2817D0682802
:104440000DD06A2814D104E0742810D07A280FD136
:104450000DE044F400140AE044F4801401E044F454
:1044600040147278824202D104F58014761C761CC6
:10447000307866280BD013DC582877D009DC002868
:1044800075D04528F6D04628F4D047281AD19DE1AA
:1044900018E0632835D0642879D0652812D195E1D9
:1044A000702873D008DC6728F1D069286FD06E2897
:1044B0000DD06F2806D1B5E073282CD0752875D0A3
:1044C000782874D05A46179990476D1C75E1C4F34B
:1044D0000250022809D003280DD0D9F80010042872
:1044E0000DD00D6009F1040967E1D9F80010EA1751
:1044F000C1E90052F6E7D9F800100D80F2E70D701F
:10450000F0E719F8041B8DF8001000208DF8010069
:10451000EA46012003E059F804AB4FF0FF30610791
:104520004FF0000102D40DE008F101018846B942C4
:104530000FDA8045F8DB1AF808100029F4D108E0FA
:1045400008F1010188468142FADB1AF808100029B7
:10455000F6D105985B46A0EB080721463846179A26
:1045600000F094FA284400EB080507E04DE029E14B
:104570000DE01AF8010B5A4617999047B8F1010857
:10458000F7D25B4621463846179A13E142E00A22E9
:104590000092C4F302524FF0000A022A08D059F8E0
:1045A00004CB032A4FEAEC710AD00DE029E02AE09F
:1045B00009F1070121F00702F2E802C1914609E082
:1045C0000FFA8CFC4FEAEC71042A03D14FFA8CFCF1
:1045D0004FEAEC71002907DA0A460021DCF1000CF1
:1045E00061EB02012D2202E0220504D52B228DF879
:1045F0000420012203E0E20701D02022F7E79046E1
:1046000059E00A2102E010220DE010214FF0000ACB
:1046100000910BE010224FF0000A44F00404082738
:10462000009203E008224FF0000A0092C4F3025205
:10463000022A05D059F804CB0021032A08D009E04A
:1046400009F1070121F00702F2E802C1914605E0F5
:104650001FFA8CFC042A01D10CF0FF0C4FF000086B
:10466000220728D5702806D0009B83F0100353EA58
:104670000A0305D00EE040228DF80420012208E054
:104680005CEA010206D030228DF804208DF8050086
:1046900002229046009B83F0080353EA0A030AD1E2
:1046A0005CEA010201D1620705D530228DF80420B1
:1046B0004FF001087F1E582804D034A003900EA8A4
:1046C00002900DE036A0F9E753466046009AFBF7EA
:1046D00090FD84460398825C0298401E029002700E
:1046E0005CEA0100F0D1029806A9081A00F1200A3C
:1046F000600702D524F4803400E00127574502DD2D
:10470000A7EB0A0000E0002000EB0A0100900598EA
:104710004144401A0590E00306D45B462146179AAF
:10472000059800F0B3F90544002706E001A85A46B1
:10473000C05D179990476D1C7F1C4745F6DBE00371
:104740000CD55B462146179A059800F09FF9054461
:1047500004E030205A46179990476D1C0099481E76
:1047600000900029F5DC08E0029802995A4600788A
:10477000491C0291179990476D1CBAF10001AAF1EA
:10478000010AF1DC65E10000092801003031323313
:10479000343536373839616263646566000000007D
:1047A0003031323334353637383941424344454667
:1047B0000000000000F058F90544761C307800280D
:1047C0007FF4ECAD19B02846BDE8F08F620700D445
:1047D000062709F1070222F0070CFCE80223E14654
:1047E00003F000485FEA080C02D00FF2702C0DE0D5
:1047F0005FEA045C02D50FF2682C07E05FEAC47C34
:1048000002D00FF2602C01E0AFF2700C4FF0FF38D5
:1048100023F00043CDF850C065280CD006DC4528B5
:1048200009D046281DD047283DD13DE0662818D044
:1048300067287ED138E00021112F01DB112000E034
:10484000781CCDE9000106A90EA8FFF7DDFCDDE923
:104850000F010E9A03910021009207F1010A0491C1
:104860004DE04FF000400097CDE9011006A90EA8D9
:10487000FFF7CAFCDDE90F0203920E9B119900229B
:10488000DDF80CA00093049211B9791C00EB010A29
:10489000B7EB0A0004D4C0F1FF3007F1010A04901D
:1048A000AAEB0700019044E0012F00DA0127002164
:1048B000112F01DD112000E03846CDE9000106A9E5
:1048C0000EA8FFF7A1FCDDE90F010E9A039100216C
:1048D00004910092BA4621070CD40399514500DA9D
:1048E0008A46BAF1010F05DD009AAAF10101515C77
:1048F000302908D0B84202DA10F1040F06DA01219B
:10490000CDE9011015E0AAF10101E9E7002805DC75
:10491000049901440491AAEB000102E0411C5145B5
:1049200000DD8A460499401A401C01904FF0004077
:104930000290200704D40198504501DBCDF8048093
:1049400000208DF84F0002980DF14F07B0F1004F95
:1049500025D02B200E9002984FF0020800280CDA88
:10496000404202902D200E9007E00A210298FBF7AA
:104970002AFC3031029007F8011DB8F10001A8F1BE
:104980000108F2DC02980028EFD1791E0E98087019
:10499000307800F0200040F0450007F8020D12A822
:1049A000C01B00F107081498007800B1012000EB4B
:1049B0000A01019801EBE07105984144401A401E3C
:1049C0000590E00306D45B462146179A059800F04F
:1049D0005DF805441498007818B15A461799904725
:1049E0006D1CE00324D55B462146179A059800F01C
:1049F0004DF805441CE00498002807DBDDE90301BD
:104A0000884203DD0098405C179901E01799302037
:104A10005A469047049805F10105401C04900198FE
:104A2000401E019004D12E205A46179990476D1CC4
:104A3000BAF10001AAF1010ADDDC05E017F8010B6B
:104A40005A46179990476D1CB8F10001A8F101086A
:104A5000F4DC5B462146179A0598ABE62D00000072
:104A60002B000000200000002DE9F0410446002545
:104A70001E461746880404D405E039462020B04776
:104A80006D1C641EF9D52846BDE8F0812DE9F04182
:104A9000044600251E469046C80301D5302700E095
:104AA0002027880404D505E041463846B0476D1CF0
:104AB000641EF9D52846BDE8F0810A68531C0B60D6
:104AC00010707047F0B50B30154D20F00701002431
:104AD000144A0FE003688B420BD38B4205D95E1A50
:104AE00043184768C3E9006700E04368136002C0E9
:104AF00004E0021D10680028ECD12046002802D1F5
:104B0000286808B10020F0BD064A07481060074A2F
:104B1000121A22F00702C0E9002401202860D7E71A
:104B200004000020000000207C0B0020780D0020F5
:104B300000404040404040404040414141414140B0
:104B40004040404040404040404040404040404065
:104B500040050202020202020202020202020202F4
:104B600002202020202020202020200202020202F9
:104B70000202909090909090101010101010101051
:104B8000101010101010101010101010020202025D
:104B900002028888888888880808080808080808A1
:104BA000080808080808080808080808020202029D
:104BB00040000000314B0008000000000000000031
:104BC00001020304060708090000000001020304B3
:104BD00002030405060708090A0B0C0D0E0F10103E
:104BE00001020000E13200084D3400088D35000854
:104BF0005D320008F04C0008904C0008D84C0008CA
:104C0000A84C0008C04C000861737365727420667C
:104C100061696C757265210D0A0061737365727448
:104C20002073756363657373210D0A00432E31335E
:104C3000006D61696E2E630070696E5F6C65640063
:104C40006C6F67206D6178206C6576656C20697388
:104C50002025642C6E6F7720796F75722076616CD9
:104C600075652069732025640D0A006C6F67206EDE
:104C70006F77206C6576656C2069732025640D0A5A
:104C8000004C696E652025643A006C6F672E6300E6
:104C90001B5B313B33333B34306D205B5761726EAD
:104CA000205D201B5B306D001B5B313B33343B349C
:104CB000306D205B496E666F205D201B5B306D00A0
:104CC0001B5B313B33373B34306D205B5472616387
:104CD000655D201B5B306D001B5B313B33323B3429
:104CE000306D205B44656275675D201B5B306D0035
:104CF0001B5B313B33313B34306D205B4572726F4F
:104D0000725D201B5B306D002573006465766963FE
:104D1000652E63006472765F70696E2E6300686151
:104D20006C5F70696E2E6300484D00080000002023
:104D300040000000E8410008884D000840000020C5
:104D400038110000F84100080000000000000000D9
:104D5000000000000024F400314C00088A4C0008D8
:104D60000B4D0008144D00081E4D000800080140BE
:104D7000000C0140001001400014014000180140E7
:084D8000020100001000000018
:04000005080000ED02
:00000001FF
