:020000040800F2
:10000000E820002001010008912900085D2800086F
:100010008D29000809080008CD3000080000000004
:10002000000000000000000000000000812A00081D
:100030002D08000800000000012A0008A52A000879
:100040001B0100081B0100081B0100081B01000820
:100050001B0100081B0100081B0100081B01000810
:100060001B0100081B0100081B0100081B01000800
:100070001B0100081B0100080D0800081D080008EE
:100080001B0100081B0100081B0100081B010008E0
:100090001B0100081B0100081B0100081B010008D0
:1000A0001B010008512B00081B0100081B01000860
:1000B0001B0100081B0100081B0100081B010008B0
:1000C0001B0100081B0100081B0100081B010008A0
:1000D0001B010008BD3000081B0100081B010008BF
:1000E0001B0100081B0100081B010008DFF80CD0F1
:1000F00000F0DCFA004800473D3F0008E8200020FF
:100100000648804706480047FEE7FEE7FEE7FEE7B1
:10011000FEE7FEE7FEE7FEE7FEE7FEE74D2B000801
:10012000ED00000840EA01039B0703D009E008C97D
:10013000121F08C0042AFAD203E011F8013B00F8AC
:10014000013B521EF9D27047D2B201E000F8012BF8
:10015000491EFBD270470022F6E710B513460A4647
:1001600004461946FFF7F0FF204610BD421C10F868
:10017000011B0029FBD1801A704710B5002200E056
:10018000521C835C8C5CA34201D1002BF8D1D8B205
:10019000E1B2401A10BD2DE9F04791460F46804666
:1001A0000446002614F8015B2DB100F073F80068D6
:1001B000405DC007F6D12B2D02D02D2D18D0641E26
:1001C0004A463946204600F069F827B13968A1420D
:1001D00001D1C7F8008071054FF002040BD54042F1
:1001E000002803DD06F0F8FB0460A007BDE8F087F7
:1001F00046F48066E4E70028F8DA06F0EDFB0460D8
:100200006FF00040F2E730B50B4601460020202297
:10021000012409E021FA02F59D4205D303FA02F513
:10022000491B04FA02F52844151EA2F10102F1DC73
:1002300030BD2DE9F05F0546002092469B4688467A
:100240000646814640241BE0284641464746224652
:1002500000F04DFA53465A46C01A914110D3114648
:100260001846224600F034FA2D1A67EB01084F4673
:1002700022460120002100F02BFA17EB00094E4125
:10028000201EA4F10104DFDC484631462A464346DD
:10029000BDE8F09F00487047407300082DE9F05F0B
:1002A00082460078002715468B460AF10104B946BC
:1002B000302801D09DB113E014F8010B01277828F4
:1002C00003D0582801D045B10AE00DB1102D07D157
:1002D0000027102514F8010B02E0082500E00A258C
:1002E0000026B0460EE005FB080005FB06F10127DD
:1002F00001EB10461FFA80F8B6F5803F00D3B946EF
:1003000014F8010B294600F014FA0028EBDABBF1CF
:10031000000F05D00FB1641E00E05446CBF800403A
:10032000B9F1000F06D006F057FB02210160C81E8C
:10033000BDE8F09F48EA0640FAE72DE9FE4F804607
:1003400081EA0300C00F0C46009021F0004123F029
:100350000045B8EB0200A94105D24046214690462F
:100360001C460B46024623F00040104347D0270DA1
:10037000C7F30A00C3F30A510290401A01904028C3
:100380006BDAC3F3130040F4801B0098924620B14F
:100390000023D2EB030A63EB0B0B01985946C0F123
:1003A0004002504600F094F906460D465046594624
:1003B000019A00F0ACF910EB08006141002487EAD3
:1003C000115284EAE7731A4340D0009A62B3019A4B
:1003D000012A4FEA075215DC001B61EB02014FF0C6
:1003E000004202EA0752CDE90042001C41F58011AB
:1003F00032462B4600F0BAF903B0BDE8F08F404614
:100400002146F9E7001B61EB0201001C41F5801356
:1004100000185B412018A2F5001747EB030140EAE2
:10042000D570B6196D4111E06D084FEA360645EA00
:10043000C0754FEA0752001B61EB0201001C41F539
:10044000801149084FEA30000019514132462B46CD
:1004500003B0BDE8F04F00F07AB9009801224000E7
:100460000023D0EB020263EBE073009821464FEAD1
:10047000E074B8EB000061EB0401E9E783F00043AE
:100480005BE781F0004158E72DE9FE4F81EA030464
:1004900004F0004421F0004100944FF0000B23F0E1
:1004A000004350EA01045ED052EA03045BD0C3F378
:1004B0000A54C1F30A552C44A4F2F3340194A0FB6E
:1004C0000254C1F3130141F48011C3F3130343F445
:1004D000801301FB024400FB034E840A970A44EA9E
:1004E000815447EA8357A4FB076802958D0A05FBF0
:1004F00007854FEA932C04FB0C542705029D4FEA15
:10050000065847EA1637B5EB08056EEB070C870E61
:10051000920E47EA811742EA8312A7FB0201B6EB6B
:100520000B0164EB00042B0D43EA0C335E1844EB23
:100530001C50DA465146E7FB0201C5F313044FEAAB
:100540000B3343EA14534FEA0432019C43EA060397
:10055000A4F10C040294009CCDE900B400F006F96B
:1005600003B0BDE8F08F00200146F9E72DE9F04D1A
:1005700081EA030404F0004B21F0004514464FF0DB
:10058000000A23F0004150EA050220D054EA01029B
:100590001DD0C5F30A570246C5F31303C1F3130078
:1005A000C1F30A5640F4801543F48013A7EB060804
:1005B000101BD64608F2FD3873EB050002D308F194
:1005C000010801E092185B41B8F1000F03DA002046
:1005D0000146BDE8F08D00204FF4801106468446A8
:1005E0000EE0171B73EB050705D3121B63EB050326
:1005F00006434CEA010C49084FEA300092185B416F
:1006000050EA0107EDD152EA030012D082EA040059
:1006100083EA0501084305D0101BAB4106D2012235
:10062000002306E000224FF0004302E06FF00102D9
:1006300053101AEB06004CEB085110EB0A0041EB8B
:100640000B01BDE8F04D00F082B8C1F30A52C1F3CE
:10065000130140F2FF3341F480119A4202DA002084
:100660000146704740F233439A42A2F2334202DC21
:10067000524200F03CB800F02BB8000030B5041E28
:1006800071F1000404DB4FF00044404264EB0101CF
:10069000141E73F1000405DB1C464FF00043524268
:1006A00063EB0403994208BF904230BD064C074DEE
:1006B00006E0E06840F0010394E807009847103432
:1006C000AC42F6D3FFF716FDA0740008C074000812
:1006D000202A04DB203A00FA02F100207047914002
:1006E000C2F1200320FA03F3194390407047202AF7
:1006F00004DB203A21FA02F00021704721FA02F3CC
:10070000D040C2F120029140084319467047202A88
:1007100006DBCB17203A41FA02F043EAE07306E029
:1007200041FA02F3D040C2F1200291400843194639
:1007300070473A2800D2303820F02002412A01D3F5
:10074000A2F13700884201D34FF0FF30704710B557
:10075000141E73F1000408DA401C41F100019218E4
:100760005B411A4301D120F0010010BD2DE9F04D8D
:1007700092469B4611B1B1FA81F202E0B0FA80F2E2
:1007800020329046FFF7A4FF04460F4640EA0A00D5
:1007900041EA0B0153465A46084313D0114653EA27
:1007A000010019D0C8F140025046FFF7A0FF0546EE
:1007B0000E46504659464246FFF78AFF084305D089
:1007C000012004E020463946BDE8F08D00200543B5
:1007D00046EAE0762C4337430A986305E40AA0EB27
:1007E00008000022FD0A44EA47540A3002D50020DE
:1007F0000146E9E7010510196941DDE908450019DD
:100800006941BDE8F04DA2E7FFE7FEE780B540F69D
:100810008000C2F2000000F0DFF880BD80B540F635
:100820003C00C2F2000000F0D7F880BD7047000025
:1008300081B0EFF3108072B60090FFE7FEE7000092
:1008400083B0019000208DF80300019890F82100FA
:1008500002280DD0FFE7019904208863FFE7019982
:10086000002081F82000FFE701208DF80B0021E037
:1008700001980168086820F00E000860019801687E
:10088000086820F0010008600198C16B026C01202B
:1008900090404860FFE70199012081F82100FFE7BF
:1008A0000199002081F82000FFE79DF803008DF8F2
:1008B0000B00FFE79DF80B0003B0704780B588B0D0
:1008C000079000208DF81B00079890F8210002285F
:1008D00007D0FFE707990420886301208DF81B00EB
:1008E00076E007980168086820F00E000860079815
:1008F0000168086820F00100086007980068082176
:10090000C4F20201884203D1FFE70120059047E0CD
:10091000079800681C21C4F20201884203D1FFE756
:100920001020049039E0079800683021C4F20201D9
:10093000884204D1FFE74FF4807003902AE00798C3
:1009400000684421C4F20201884204D1FFE74FF459
:10095000805002901BE0079800685821C4F2020101
:10096000884204D1FFE74FF4803001900CE00798F3
:1009700001686C22C4F202024FF08070914208BFFD
:100980004FF480100190FFE701980290FFE7029872
:100990000390FFE703980490FFE704980590FFE7B2
:1009A00005980421C4F2020108600799012081F82A
:1009B0002100FFE70799002081F82000FFE7079852
:1009C000406B20B1FFE70798416B8847FFE7FFE7DF
:1009D0009DF81B0008B080BD80B58EB00D900D98BD
:1009E000C06B00680C900D98006800680B900C9824
:1009F0000D99096CC8404007002875D5FFE79DF8A0
:100A00002C00400700286FD5FFE70D9800680068AC
:100A10008006002807D4FFE70D980168086820F0D9
:100A200004000860FFE70D9800680821C4F2020185
:100A3000884203D1FFE704200A9047E00D98006840
:100A40001C21C4F20201884203D1FFE74020099033
:100A500039E00D9800683021C4F20201884204D1C7
:100A6000FFE74FF4806008902AE00D980068442169
:100A7000C4F20201884204D1FFE74FF4804007909E
:100A80001BE00D9800685821C4F20201884204D18D
:100A9000FFE74FF4802006900CE00D9801686C226F
:100AA000C4F202024FF08060914208BF4FF4800010
:100AB0000690FFE706980790FFE707980890FFE782
:100AC00008980990FFE709980A90FFE70A9804211F
:100AD000C4F2020108600D98C06A20B1FFE70D98CA
:100AE000C16A8847FFE7B8E00C980D99096CC840C7
:100AF0008007002840F18080FFE79DF82C008007E8
:100B0000002879D5FFE70D98006800688006002866
:100B10000BD4FFE70D980168086820F00A00086010
:100B20000D99012081F82100FFE70D980068082148
:100B3000C4F20201884203D1FFE70220059047E09A
:100B40000D9800681C21C4F20201884203D1FFE71E
:100B50002020049039E00D9800683021C4F2020191
:100B6000884204D1FFE74FF4007003902AE00D980B
:100B700000684421C4F20201884204D1FFE74FF427
:100B8000005002901BE00D9800685821C4F2020149
:100B9000884204D1FFE74FF4003001900CE00D983B
:100BA00001686C22C4F202024FF00070914208BF4B
:100BB0004FF400100190FFE701980290FFE70298C0
:100BC0000390FFE703980490FFE704980590FFE780
:100BD00005980421C4F202010860FFE70D99002086
:100BE00081F82000FFE70D98806A20B1FFE70D989B
:100BF000816A8847FFE72FE00C980D99096CC8407F
:100C00000007002827D5FFE79DF82C0000070028E3
:100C100021D5FFE70D980168086820F00E000860F4
:100C20000D98C26B016C012000FA01F151600D9921
:100C300088630D9981F82100FFE70D99002081F864
:100C40002000FFE70D98006B20B1FFE70D98016BC6
:100C50008847FFE7FFE7FFE7FFE70EB080BD000032
:100C600083B0019000200090019820B9FFE7012097
:100C70008DF80B0047E0019908684FF6F872CBF643
:100C8000FD7210444CF6CD42CCF6CC42A0FB0202E1
:100C90006FF0030000EA9200086401990020C4F29A
:100CA0000200C8630199022081F8210001980068C0
:100CB00000680090009843F6F07188430090019915
:100CC0004868D1F808C0CB680A6940EA0C001843AC
:100CD00010434A6910438A691043C9690143009867
:100CE0000843009000980199096808600199002064
:100CF0008863019A012182F82110019981F820006E
:100D00008DF80B00FFE79DF80B0003B07047000063
:100D100090B00F900E9100200D900990FFE70E9873
:100D200000680D99C840002800F07F81FFE70D9909
:100D3000012088400C900E9800680C9908400B9098
:100D40000B980C99884240F06C81FFE70E98406840
:100D50000590002851D0FFE7059801283AD0FFE719
:100D6000059802283FD0FFE7059803285FD0FFE7EA
:100D70000598112832D0FFE70598122838D0FFE7F0
:100D800005980021C1F21101884236D0FFE705988D
:100D90000021C1F2120188422FD0FFE705980021FF
:100DA000C1F22101884228D0FFE705980021C1F255
:100DB0002201884221D0FFE705980021C1F23101CC
:100DC00088421AD0FFE705980021C1F2320188421B
:100DD00013D02FE00E98C06809902CE00E98C068E0
:100DE0000430099027E00E98C0680830099022E08E
:100DF0000E98C0680C3009901DE00E98806818B9F4
:100E0000FFE70420099011E00E988068012806D1C0
:100E1000FFE7082009900C980F99086105E0082069
:100E200009900C980F994861FFE7FFE703E0002065
:100E3000099000E0FFE70B98FF2803D8FFE70F9821
:100E4000049003E00F9804300490FFE704980890A2
:100E50000B98FF2804D8FFE70D988000039006E068
:100E60000D996FF01F0000EB81000390FFE70398DE
:100E7000079008980068079A0F21914088430999C4
:100E800091400843089908600E98C079C006002870
:100E900040F1C680FFE7FFE741F21800C4F202000C
:100EA000016841F001010160006800F00100069056
:100EB0000698FFE70D9820F003000821C4F2010115
:100EC00040580A900D9800F0030081000F2000FAAE
:100ED00001F10A9888430A900F9840F60001C4F285
:100EE0000101884203D1FFE70020029026E00F981D
:100EF00040F60041C4F20101884203D1FFE701201E
:100F0000019018E00F9841F20001C4F201018842FB
:100F100003D1FFE7022000900AE00F9941F200425E
:100F2000C4F201020420914208BF03200090FFE7B1
:100F300000980190FFE701980290FFE702980D9951
:100F400001F00301890000FA01F10A9808430A90B0
:100F50000A980D9921F003010822C4F20102885079
:100F60000E988079C006002809D5FFE70B9A40F259
:100F70000841C4F2010108681043086008E00B9AB8
:100F800040F20841C4F20101086890430860FFE79D
:100F90000E9880798006002809D5FFE70B9A40F269
:100FA0000C41C4F2010108681043086008E00B9A84
:100FB00040F20C41C4F20101086890430860FFE769
:100FC0000E9880798007002809D5FFE70B9A40F238
:100FD0000441C4F2010108681043086008E00B9A5C
:100FE00040F20441C4F20101086890430860FFE741
:100FF0000E988079C00748B1FFE70B9A40F2004194
:10100000C4F2010108681043086008E00B9A40F23E
:101010000041C4F20101086890430860FFE7FFE760
:10102000FFE70D9801300D9079E610B07047000091
:1010300082B00190ADF8021001988068BDF80210EE
:10104000084204D0FFE701208DF8010003E00020F2
:101050008DF80100FFE79DF8010002B07047000025
:1010600082B00190ADF802108DF801209DF80100CA
:1010700028B1FFE7BDF802000199086105E0BDF85D
:101080000200000401990861FFE702B07047000008
:1010900041F6CC30C2F200000068704740F23D00DB
:1010A000C2F20000027841F6CC31C2F200010868B9
:1010B000104408607047000080B542F20001C4F29D
:1010C0000201086840F010000860032000F03AF9BF
:1010D0000F2000F005F800F071F8002080BD00003E
:1010E00080B58CB00B900020059004908DF80B001B
:1010F000FFE741F21800C4F20200016841F4006108
:101100000160006800F4006001900198FFE706A804
:1011100003A900F04BFA00F08BFA059005984DF604
:101120008361C4F21B31A0FB01014FF0FF3000EBE3
:101130009140049040F6C400C2F2000042F6004123
:10114000C4F20101016040F2E731C16004994160DD
:10115000002101618160816100F020FE8DF80B00AB
:101160009DF80B0028BBFFE740F6C400C2F2000068
:1011700000F066FE8DF80B009DF80B00C0B9FFE78C
:10118000192000F0BBF80B980F280CD8FFE70B993B
:101190001920002200F0BCF80B9840F24001C2F286
:1011A0000001086003E001208DF80B00FFE7FFE776
:1011B000FFE79DF80B000CB080BD000080B584B047
:1011C000FFE741F21800C4F20200016841F001019A
:1011D0000160006800F0010003900398FFE7FFE75B
:1011E00041F21C00C4F20200016841F0805101602C
:1011F000006800F0805002900298FFE76FF0010055
:101200000F21002200F084F8FFE70421C4F201015D
:1012100008680190019820F0E0600190019840F08A
:101220000070019001980860FFE704B080BD0000E5
:1012300080B584B002908DF807100092029820B912
:10124000FFE701208DF80F0053E0029890F841006D
:1012500040B9FFE70299002081F84000029801F0B0
:10126000C7F9FFE70299242081F84100029801683C
:10127000C86820F40050C860029801F00DFE029882
:101280000168086920F49040086102980168486983
:1012900020F02A00486102980168086920F00F00D8
:1012A00008619DF8072002980168086910430861E9
:1012B00002980168C86820F40060C860009A02982B
:1012C0000168C8681043C86002980168C86840F4A3
:1012D0000050C860029900204864029A202182F8D8
:1012E0004110029A82F84210029948638DF80F006B
:1012F000FFE79DF80F0004B080BD000080B582B00C
:101300008DF807009DF9070001F0E2FE02B080BDF4
:1013100080B586B08DF817000491039200200290EA
:1013200001F0EEFE02909DF91700019002980499D9
:10133000039A01F02FFB0146019801F0E9FE06B087
:1013400080BD000080B582B00190019801F002FFDD
:1013500002B080BD80B584B002900191029820B99E
:10136000FFE701208DF80F001BE1019842F2000118
:10137000C4F20201096801F00701884216D9FFE7AB
:1013800042F20000C4F20200016821F00701019A54
:1013900011430160006800F007000199884204D001
:1013A000FFE701208DF80F00FBE0FFE702980078CF
:1013B000800700282AD5FFE7029800784007002818
:1013C00009D5FFE741F20401C4F20201086840F4C4
:1013D000E0600860FFE7029800780007002809D560
:1013E000FFE741F20401C4F20201086840F46050D2
:1013F0000860FFE741F20401C4F20201086820F02E
:10140000F000029A926810430860FFE702980078A3
:10141000C007002860D0FFE70298406801280ED17D
:10142000FFE741F20000C4F20200006880030028D8
:1014300004D4FFE701208DF80F00B2E021E002980C
:10144000406802280ED1FFE741F20000C4F202001A
:1014500000688001002804D4FFE701208DF80F0008
:101460009FE00DE041F20000C4F202000068800736
:10147000002804D4FFE701208DF80F0091E0FFE77A
:10148000FFE741F20401C4F20201086820F0030002
:10149000029A526810430860FFF7FAFD0090FFE7D8
:1014A00041F20400C4F20200006800F00C0002994E
:1014B0004968B0EB810F0ED0FFE7FFF7E9FD009917
:1014C000401A41F28931884204D3FFE703208DF8A6
:1014D0000F0066E0E4E7FFE7019842F20001C4F282
:1014E0000201096801F00701884216D2FFE742F2C3
:1014F0000000C4F20200016821F00701019A1143C3
:101500000160006800F007000199884204D0FFE7FD
:1015100001208DF80F0044E0FFE7029800784007B3
:1015200000280CD5FFE741F20401C4F2020108686B
:1015300020F4E060029AD26810430860FFE7029846
:101540000078000700280DD5FFE741F20401C4F23E
:101550000201086820F46050029A126940EAC20051
:101560000860FFE700F076F841F20401C4F20201DE
:101570000968C9B20A0947F24431C0F60001895C22
:10158000C84040F20401C2F20001086040F240008D
:10159000C2F200000068FFF7A3FD00208DF80F00E5
:1015A000FFE79DF80F0004B080BD000082B00190FD
:1015B000009101990F20086041F20400C4F202007A
:1015C000016801F00301019A5160016801F0F00126
:1015D000019A9160016801F4E061019AD1600068AC
:1015E00000F46050C0080199086142F20000C4F2A2
:1015F0000200006800F007000099086002B0704720
:1016000040F20400C2F200000068704780B5FFF7A6
:10161000F7FF41F20401C4F202010968C1F302229A
:1016200047F25431C0F60001895CC84080BD00001B
:1016300080B5FFF7E5FF41F20401C4F20201096839
:10164000C1F3C22247F25431C0F60001895CC840A0
:1016500080BD000086B000200590049003900290A9
:10166000019041F20400C4F2020000680590059860
:1016700000F00C000146009100283FD0FFE70098E1
:10168000042804D0FFE70098082806D037E041F28C
:101690000020C0F27A00019037E00598C0F3834142
:1016A00047F25C30C0F60000405C02909DF81600E6
:1016B000C007C0B1FFE741F20400C4F202000068B5
:1016C000C0F3404147F26C30C0F60000405C04902B
:1016D000029841F20021C0F27A0148430499B0FB1C
:1016E000F1F0039007E0029840F60011C0F23D01CE
:1016F00048430390FFE70398019006E0FFE741F2BB
:101700000020C0F27A000190FFE7019806B0704710
:1017100080B586B00490049820B9FFE701208DF8C9
:1017200017002EE304980078C007002800F0AE8070
:10173000FFE741F20400C4F20200006800F00C0070
:10174000042813D0FFE741F20400C4F2020000684D
:1017500000F00C0008281BD1FFE741F20400C4F29E
:1017600002000068C003002812D5FFE741F2000024
:10177000C4F2020000688003002808D5FFE704983F
:10178000406820B9FFE701208DF81700F9E27CE0FE
:10179000FFE704984068B0F5803F09D1FFE741F2C8
:1017A0000001C4F20201086840F48030086032E0B1
:1017B0000498406868B9FFE741F20001C4F20201F1
:1017C000086820F480300860086820F480200860F1
:1017D00020E004984068B0F5A02F0DD1FFE741F25A
:1017E0000001C4F20201086840F480200860086823
:1017F00040F4803008600CE041F20001C4F20201C4
:10180000086820F480300860086820F480200860B0
:10181000FFE7FFE7FFE7FFE704984068D0B1FFE785
:10182000FFF736FC0390FFE741F20000C4F202002C
:101830000068800300280CD4FFE7FFF729FC039918
:10184000401A652804D3FFE703208DF8170098E2BB
:10185000EAE719E0FFF71CFC0390FFE741F2000004
:10186000C4F202000068800300280CD5FFE7FFF7F0
:101870000FFC0399401A652804D3FFE703208DF875
:1018800017007EE2EAE7FFE7FFE7FFE7049800784A
:101890008007002840F18D80FFE741F20400C4F288
:1018A0000200006810F00C0F13D0FFE741F20400B3
:1018B000C4F20200006800F00C00082829D1FFE7FC
:1018C00041F20400C4F202000068C003002820D4E2
:1018D000FFE741F20000C4F2020000688007002820
:1018E00009D5FFE704980069012804D0FFE701202B
:1018F0008DF8170045E241F20001C4F202010868C8
:1019000020F0F800049A526940EAC2000860FFE73C
:101910004EE00498006958B3FFE70021C4F2422169
:1019200001200860FFF7B4FB0390FFE741F20000DD
:10193000C4F202000068800700280CD4FFE7FFF71C
:10194000A7FB0399401A032804D3FFE703208DF86F
:10195000170016E2EAE741F20001C4F2020108684A
:1019600020F0F800049A526940EAC20008601EE0C4
:101970000021C4F2422100200860FFF789FB039098
:10198000FFE741F20000C4F202000068800700286F
:101990000CD5FFE7FFF77CFB0399401A032804D31B
:1019A000FFE703208DF81700EBE1EAE7FFE7FFE729
:1019B000FFE7049800780007002848D5FFE704985F
:1019C000806918B3FFE740F28041C4F24221012050
:1019D0000860FFF75DFB0390FFE741F22400C4F2CB
:1019E00002000068800700280CD4FFE7FFF750FBD7
:1019F0000399401A032804D3FFE703208DF817004A
:101A0000BFE1EAE7012001F01DF81FE040F280414C
:101A1000C4F2422100200860FFF73AFB0390FFE781
:101A200041F22400C4F202000068800700280CD5AF
:101A3000FFE7FFF72DFB0399401A032804D3FFE7C4
:101A400003208DF817009CE1EAE7FFE7FFE7049821
:101A500000784007002840F1D880FFE700208DF88B
:101A6000070041F21C00C4F202000068C000002818
:101A700013D4FFE7FFE741F21C00C4F20200016843
:101A800041F080510160006800F0805000900098A3
:101A9000FFE701208DF80700FFE747F20000C4F2DE
:101AA00000000068C005002822D4FFE747F20001CB
:101AB000C4F20001086840F480700860FFF7E8FA9B
:101AC0000390FFE747F20000C4F200000068C00581
:101AD00000280CD4FFE7FFF7DBFA0399401A6528CA
:101AE00004D3FFE703208DF817004AE1EAE7FFE798
:101AF000FFE70498C068012809D1FFE741F22001FF
:101B0000C4F20201086840F00100086031E0049866
:101B1000C06868B9FFE741F22001C4F20201086819
:101B200020F001000860086820F0040008601FE051
:101B30000498C06805280DD1FFE741F22001C4F2E6
:101B40000201086840F004000860086840F00100E5
:101B500008600CE041F22001C4F20201086820F0A4
:101B600001000860086820F004000860FFE7FFE754
:101B7000FFE7FFE70498C068E0B1FFE7FFF788FAE6
:101B80000390FFE741F22000C4F2020000688007E2
:101B900000280ED4FFE7FFF77BFA0399401A41F2C1
:101BA0008931884204D3FFE703208DF81700E8E06D
:101BB000E8E71BE0FFF76CFA0390FFE741F2200033
:101BC000C4F202000068800700280ED5FFE7FFF787
:101BD0005FFA0399401A41F28931884204D3FFE742
:101BE00003208DF81700CCE0E8E7FFE79DF8070039
:101BF000012809D1FFE741F21C01C4F20201086883
:101C000020F080500860FFE7FFE70498C0690028D3
:101C100000F0B380FFE741F20400C4F20200006864
:101C200000F00C00082800F08280FFE70498C069EB
:101C300002285CD1FFE76021C4F242210020086045
:101C4000FFF726FA0390FFE741F20000C4F202001A
:101C50000068800100280CD5FFE7FFF719FA039907
:101C6000401A032804D3FFE703208DF8170088E00B
:101C7000EAE70498006AB0F5803F0CD1FFE741F233
:101C80000401C4F20201086820F40030049A92684A
:101C900010430860FFE741F20401C4F20201086842
:101CA00020F47410049B1A6A5B6A1A43104308609C
:101CB0006021C4F2422101200860FFF7E9F9039096
:101CC000FFE741F20000C4F2020000688001002832
:101CD0000CD4FFE7FFF7DCF90399401A032804D37B
:101CE000FFE703208DF817004BE0EAE71EE06021D4
:101CF000C4F2422100200860FFF7CAF90390FFE711
:101D000041F20000C4F202000068800100280CD5F6
:101D1000FFE7FFF7BDF90399401A032804D3FFE753
:101D200003208DF817002CE0EAE7FFE724E0049891
:101D3000C069012804D1FFE701208DF8170020E0D9
:101D400041F20400C4F2020000680290029800F41C
:101D500080300499096A884208D1FFE7029800F4AC
:101D600070100499496A884204D0FFE701208DF879
:101D7000170006E0FFE7FFE7FFE700208DF81700F8
:101D8000FFE79DF8170006B080BD000081B000900D
:101D900001B0704781B0009001B0704780B582B04B
:101DA0000090009820B9FFE701208DF807003FE080
:101DB000009890F83D0040B9FFE70099002081F8B5
:101DC0003C00009800F038F8FFE70099022081F805
:101DD0003D00009951F8040B00F0C2FE009901206B
:101DE00081F84600FFE70099012081F83E00009944
:101DF00081F83F00009981F84000009981F8410086
:101E0000FFE7FFE70099012081F84200009981F87F
:101E10004300009981F84400009981F84500FFE7EC
:101E20000099012081F83D0000208DF80700FFE7B0
:101E30009DF8070002B080BD81B0009001B07047EE
:101E400083B00190019890F83D00012804D0FFE78D
:101E500001208DF80B0047E00199022081F83D0038
:101E600001980168C86840F00100C86001980068E6
:101E700042F60041C4F20101884218D0FFE7019800
:101E80000068B0F1804F12D0FFE70198006840F27F
:101E90000041C4F20001884209D0FFE701980068C0
:101EA00040F60001C4F20001884212D1FFE7019818
:101EB0000068806800F0070000900098062807D0AE
:101EC000FFE701980168086840F001000860FFE73B
:101ED00006E001980168086840F001000860FFE72B
:101EE00000208DF80B00FFE79DF80B0003B0704752
:101EF00081B0009001B0704780B582B00190019828
:101F00000068006900F002010020B0EB510F28D0FA
:101F1000FFE701980068C06800F002010020B0EB04
:101F2000510F1DD0FFE7019801686FF002000861B2
:101F3000019901200877019800688069800720B125
:101F4000FFE70198FFF7D4FF06E0019800F012F9CF
:101F5000019800F013F9FFE7019900200877FFE7E7
:101F6000FFE701980068006900F004010020B0EB71
:101F7000910F29D0FFE701980068C06800F00401C4
:101F80000020B0EB910F1ED0FFE7019801686FF0C1
:101F900004000861019902200877019800688069AF
:101FA00010F4407F04D0FFE70198FFF7A1FF06E09F
:101FB000019800F0DFF8019800F0E0F8FFE70199E0
:101FC00000200877FFE7FFE701980068006900F04C
:101FD00008010020B0EBD10F28D0FFE7019800687E
:101FE000C06800F008010020B0EBD10F1DD0FFE762
:101FF000019801686FF008000861019904200877D2
:1020000001980068C069800720B1FFE70198FFF7D9
:102010006FFF06E0019800F0ADF8019800F0AEF80F
:10202000FFE7019900200877FFE7FFE701980068C4
:10203000006900F010010020B0EB111F29D0FFE76C
:1020400001980068C06800F010010020B0EB111F7B
:102050001ED0FFE7019801686FF010000861019938
:102060000820087701980068C06910F4407F04D008
:10207000FFE70198FFF73CFF06E0019800F07AF8CF
:10208000019800F07BF8FFE7019900200877FFE74F
:10209000FFE7019800680069C00780B1FFE7019879
:1020A0000068C068C00748B1FFE7019801686FF099
:1020B00001000861019800F065F8FFE7FFE701986B
:1020C00000680069C1B20020B0EBD11F13D0FFE758
:1020D00001980068C068C1B20020B0EBD11F09D0E0
:1020E000FFE7019801686FF0800008610198FFF731
:1020F0004DFEFFE7FFE701980068006900F040012E
:102100000020B0EB911F14D0FFE701980068C06871
:1021100000F040010020B0EB911F09D0FFE70198CB
:1021200001686FF040000861019800F03DF8FFE79A
:10213000FFE701980068006900F020010020B0EB83
:10214000511F14D0FFE701980068C06800F020011B
:102150000020B0EB511F09D0FFE7019801686FF034
:10216000200008610198FFF715FEFFE7FFE702B0C6
:1021700080BD000081B0009001B0704781B0009038
:1021800001B0704780B582B001900198006842F6B6
:102190000041C4F20101884203D1FFE7FEF77EFF50
:1021A000FFE702B080BD000081B0009001B0704731
:1021B00082B00190ADF8021002B0704781B000907B
:1021C00001B0704780B592B0119011980068006816
:1021D000109011980068C0680F90119800684069CD
:1021E0000E9000200D900C90109800F00F000D90B4
:1021F0000D9888B9FFE79DF84000800600280AD5B1
:10220000FFE79DF83C008006002804D5FFE7119801
:1022100000F08CFDE9E1FFE70D98002800F0C28096
:10222000FFE79DF83800C00738B9FFE7BDF83C006C
:1022300010F4907F00F0B680FFE79DF84000C007E3
:1022400058B1FFE79DF83D00C00730B1FFE7119995
:10225000486C40F001004864FFE79DF840004007EB
:1022600000280BD5FFE79DF83800C00730B1FFE725
:102270001199486C40F002004864FFE79DF8400067
:10228000800700280BD5FFE79DF83800C00730B164
:10229000FFE71199486C40F004004864FFE79DF89F
:1022A00040000007002811D5FFE79DF83C0080069C
:1022B000002805D4FFE79DF83800C00730B1FFE7DC
:1022C0001199486C40F008004864FFE71198406C91
:1022D000002866D0FFE79DF84000800600280AD558
:1022E000FFE79DF83C008006002804D5FFE7119821
:1022F00000F01CFDFFE7119800684069C0F38010F2
:102300000C901198406C0007002804D4FFE70C984B
:1023100000283ED0FFE7119800F0AAFC1198006851
:102320004069400600282FD5FFE7FFE7FFE7119837
:10233000006850E8050F20F040000B90FFE70B9974
:102340001198026842E805100028F0D1FFE7FFE786
:102350001198C06B98B1FFE71198C16B42F65140DC
:10236000C0F6000048631198C06BFEF7A7FA28B1C9
:10237000FFE71198C06B416B8847FFE703E01198B6
:10238000FFF71CFFFFE703E01198FFF717FFFFE7D8
:1023900006E01198FFF712FF119900204864FFE74B
:1023A000FFE722E11198006B012840F0FE80FFE773
:1023B0009DF84000C006002840F1F780FFE79DF837
:1023C0003C00C006002840F1F080FFE7FFE7002056
:1023D0000A901198006800680A9011980068406897
:1023E0000A900A98FFE711980068406940060028A3
:1023F00040F18180FFE71198C06B00684068ADF83C
:102400002600BDF82600002874D0FFE7BDF826009E
:102410001199898D88426DDAFFE7BDF82600119980
:10242000C8851198C06B8069202858D0FFE7FFE766
:10243000FFE71198006850E8030F20F480700890BF
:10244000FFE708991198026842E803100028F0D1CC
:10245000FFE7FFE7FFE7FFE71198006850E8050F87
:1024600020F001000790FFE707991198026842E801
:1024700005100028F0D1FFE7FFE7FFE7FFE711981D
:10248000006850E8050F20F040000690FFE706992D
:102490001198026842E805100028F0D1FFE7FFE735
:1024A0001199202081F84200119900200863FFE76C
:1024B000FFE71198006850E8030F20F01000059026
:1024C000FFE705991198026842E803100028F0D14F
:1024D000FFE7FFE71198C06BFEF7B2F9FFE711992C
:1024E000022048631198818DC28D891A89B2FFF745
:1024F0005FFEFFE779E01199888DC98D401AADF82C
:1025000012001198C08D00284ED0FFE7BDF81200D0
:10251000002849D0FFE7FFE7FFE71198006850E87F
:10252000030F20F490700390FFE70399119802685D
:1025300042E803100028F0D1FFE7FFE7FFE7FFE7DD
:102540001198006850E8050F20F001000290FFE7A5
:1025500002991198026842E805100028F0D1FFE7BF
:10256000FFE71199202081F84200119900200863AB
:10257000FFE7FFE71198006850E8030F20F0100014
:102580000190FFE701991198026842E803100028C2
:10259000F0D1FFE7FFE71199022048631198BDF8D9
:1025A0001210FFF705FEFFE71FE09DF84000000650
:1025B00000280AD5FFE79DF83C000006002804D556
:1025C000FFE7119800F0C6FC0FE09DF840004006C0
:1025D00000280AD5FFE79DF83C004006002804D5F6
:1025E000FFE7119800F08EFBFFE712B080BD0000FE
:1025F00080B58EB00D9000200C900B900A90099041
:102600000D98006843F60001C4F20101884240F0D1
:102610008B80FFE7FFE741F21800C4F20200016877
:1026200041F480410160006800F4804008900898FF
:10263000FFE7FFE741F21800C4F20200016841F031
:1026400004010160006800F0040007900798FFE7AC
:102650004FF40070099002200A9003200C9040F67D
:102660000000C4F20100039009A90491FEF750FB99
:10267000039804994FF480620992002205920A920D
:102680000B92FEF745FB059940F68000C2F2000070
:1026900006904422C4F2020202601022426081606D
:1026A0008022C260016141618161C161FEF7D8FA97
:1026B00018B1FFE7FEF7BCF8FFE7FFE70D9840F61B
:1026C0008001C2F2000181630D984862FFE740F685
:1026D0003C00C2F2000002905821C4F202010160E5
:1026E0000021416081608022C2600161416181619D
:1026F000C161FEF7B5FA18B1FFE7FEF799F8FFE7F9
:10270000FFE70D9840F63C01C2F20001C1630D984D
:102710004862FFE7252001900E210022FEF7F8FD18
:102720000198FEF7EBFDFFE70EB080BD81B0009091
:1027300001B0704780B58AB008900791ADF81A20B3
:10274000059300200290089890F84100202878D145
:10275000FFE7079820B1FFE7BDF81A0020B9FFE7AF
:1027600001208DF8270070E008990020486408993E
:10277000212081F84100FEF78BFC0290BDF81A0081
:1027800008998884BDF81A000899C8840898806858
:10279000B0F5805F09D1FFE70898006928B9FFE725
:1027A000002004900798039004E00798049000200C
:1027B0000390FFE7FFE70898C08C58B3FFE708983D
:1027C000029B05996A4611608021002200F00CFCF2
:1027D00020B1FFE703208DF8270036E0049858B9B0
:1027E000FFE7039800886FF35F2008990968486045
:1027F00003980230039008E004980078089909686B
:102800004860049801300490FFE70899C88C0138AB
:10281000C884D0E70898029B05996A461160402158
:10282000002200F0E1FB20B1FFE703208DF8270034
:102830000BE00899202081F8410000208DF8270046
:1028400003E002208DF82700FFE79DF827000AB07B
:1028500080BD000081B0009001B07047FFE7FEE747
:1028600080B584B0FFE741F21400C4F202000168B1
:1028700041F001010160006800F00100039003983D
:10288000FFE70E210091002201920846FEF740FD6D
:102890000098FEF733FD0099019A0F200290FEF791
:1028A00037FD0298FEF72AFD04B080BD80B58AB0DE
:1028B00000200990089007900690FFE741F2180069
:1028C000C4F20200016841F010010160006800F0EC
:1028D000100005900598FFE7FFE741F21800C4F2E9
:1028E0000200016841F020010160006800F0200052
:1028F00004900498FFE7FFE741F21800C4F20200D9
:10290000016841F004010160006800F004000390D8
:102910000398FFE741F20000C4F2010002904FF477
:102920000051009101220192FEF79AFB009A019951
:10293000029806920791002108910321099106A9A6
:10294000FEF7E6F90AB080BD80B582B040F60C1003
:10295000C2F20000019043F60001C4F201010160DF
:102960004FF4E131416000228260C26002610C21BB
:1029700041618261C2611146FEF75AFC18B1FFE75E
:10298000FDF756FFFFE702B080BD0000FFE7FEE75E
:10299000FFE7FEE788B0079006910592079800F0E0
:1029A000070004900498C0F10700052803D3FFE74F
:1029B0000420019004E00498C0F107000190FFE7B3
:1029C0000198039004980430062803D8FFE70020FC
:1029D000009003E0049803380090FFE7009802900D
:1029E00006980399012202FA01F101390840029B7D
:1029F000984005999A40013A1140084308B0704741
:102A0000EFF30980BFF36F8F0D4B1A6820E9F00FC9
:102A100010602DE908404FF0500080F3118802F05B
:102A2000E9FE4FF0000080F31188BDE80840196806
:102A30000868B0E8F00F80F30988BFF36F8F704724
:102A40004C0A002082B00190019840F20401C2F2C9
:102A500000010968C90844F6D352C1F26202A1FB21
:102A60000221890948430090FFE700BFFFE7009873
:102A7000411E00910028F8D1FFE702B07047000026
:102A8000074B19680868B0E8F00F80F30988BFF3B6
:102A90006F8F4FF0000080F311884EF00D0E7047DD
:102AA0004C0A002080B582B04FF0500080F31188AE
:102AB000BFF36F8FBFF34F8F009003F041FC40B125
:102AC000FFE74EF60451CEF200014FF0805008604F
:102AD000FFE700200190019880F3118802B080BDCB
:102AE00080B590B006A800902821FDF734FB00982F
:102AF000002305930493039302930193012206920A
:102B00004FF48031079108930A9202220D920E91A0
:102B10004FF4E0110F91FEF7FBFD18B1FFE7FDF751
:102B200087FEFFE70F200190022102910020039011
:102B30004FF480620492059001A8FEF70BFC18B1D7
:102B4000FFE7FDF775FEFFE710B080BD704700009E
:102B500080B540F6C400C2F20000FFF7CDF980BD99
:102B600083B002900191029800680090029842F6AA
:102B70000041C4F20101884215D0FFE70298B0F18C
:102B8000804F10D0FFE7029840F20041C4F20001EC
:102B9000884208D0FFE7029840F60001C4F2000125
:102BA00088420AD1FFE7009820F070000090019859
:102BB0004168009808430090FFE7029842F6004100
:102BC000C4F20101884215D0FFE70298B0F1804FAE
:102BD00010D0FFE7029840F20041C4F200018842A1
:102BE00008D0FFE7029840F60001C4F200018842D5
:102BF0000AD1FFE7009820F4407000900198C16866
:102C0000009808430090FFE7009820F080000199A9
:102C1000496908430090009802990860019880680B
:102C20000299C8620198006802998862029842F687
:102C30000041C4F20101884205D1FFE70198006913
:102C400002990863FFE702990120486103B07047C9
:102C500080B582B001900198406A009000990020F0
:102C6000C8850099C8840098FFF7A8FA02B080BD13
:102C700084B00390FFE7FFE70398006850E8030F74
:102C800020F490700290FFE702990398026842E8EE
:102C900003100028F0D1FFE7FFE7FFE7FFE7039805
:102CA000006850E8050F20F001000190FFE701994E
:102CB0000398026842E805100028F0D1FFE7FFE71B
:102CC0000398006B012814D1FFE7FFE7FFE70398A3
:102CD000006850E8030F20F010000090FFE7009913
:102CE0000398026842E803100028F0D1FFE7FFE7ED
:102CF000FFE70399202081F8420003990020086330
:102D000004B0704780B582B0019001980168C8682E
:102D100020F04000C8600199202081F8410001980E
:102D2000FFF798FD002002B080BD000080B586B09E
:102D30000490049890F84200222840F0A480FFE715
:102D400004988068B0F5805F15D1FFE704980069AA
:102D500088B9FFE7002003900498806A02900498E5
:102D6000006840686FF35F20029908800499886AC0
:102D70000230886225E00498806A03900020029067
:102D800004988068B0F5805F08D0FFE704988068F9
:102D900050B9FFE70498006930B9FFE7049800686C
:102DA00040680399087007E004980068406800F0E4
:102DB0007F0003990870FFE70499886A01308862F0
:102DC000FFE70499C88D0138C8850004002856D152
:102DD000FFE704980168C86820F02000C8600498E4
:102DE0000168C86820F48070C86004980168486968
:102DF00020F0010048610499202081F842000499E4
:102E0000002048630498006B012830D1FFE7049943
:102E100000200863FFE7FFE70498006850E8030F0D
:102E200020F010000190FFE701990498026842E841
:102E300003100028F0D1FFE7FFE70498006800685E
:102E4000C00600280ED5FFE7FFE700200090049899
:102E5000006800680090049800684068009000983E
:102E6000FFE7FFE70498818DFFF7A2F903E00498DC
:102E7000FFF75CFCFFE700208DF8170007E000205B
:102E80008DF8170003E002208DF81700FFE79DF88A
:102E9000170006B080BD000080B584B00390039891
:102EA0000068006920F44050039A1168D26810430A
:102EB0000861039988680A694969104308430290C8
:102EC00003980068C06841F20C6188430299084386
:102ED00003990968C86003980068406920F440704D
:102EE000039A11689269104348610398006843F699
:102EF0000001C4F20101884204D1FFE7FEF798FB0C
:102F0000019003E0FEF782FB0190FFE70198192191
:102F10004843039A116852689200B0FBF2FC48F2F1
:102F20001F52C5F2EB12ACFB02304309642003FBD5
:102F300010CC322000EB0C10A0FB0202F02000EAC3
:102F4000521000EB0310C2F343121044886004B027
:102F500080BD000083B00190019890F841002128C5
:102F60003AD1FFE701988068B0F5805F13D1FFE7A1
:102F70000198006978B9FFE70198006A009000980D
:102F800000886FF35F200199096848600199086A19
:102F90000230086208E0019A106A411C1162007850
:102FA000019909684860FFE70199C88C0138C88415
:102FB000000468B9FFE701980168C86820F0800044
:102FC000C86001980168C86840F04000C860FFE729
:102FD00000208DF80B0003E002208DF80B00FFE7C6
:102FE0009DF80B0003B0704780B588B0DDF828C0AD
:102FF000069005918DF813200393FFE7069800686B
:10300000006805990840401AB0FA80F040099DF820
:103010001310884249D1FFE70A980130002843D0B5
:10302000FFE70A9840B1FFE7FEF732F80399401A2C
:103030000A99884237D9FFE7FFE7FFE7069800685B
:1030400050E8030F20F4D0700290FFE70299069831
:10305000026842E803100028F0D1FFE7FFE7FFE72E
:10306000FFE70698006850E8050F20F00100019086
:10307000FFE701990698026842E805100028F0D1A0
:10308000FFE7FFE70699202081F84100069981F8C3
:103090004200FFE70699002081F84000FFE7032087
:1030A0008DF81F0005E0FFE7A8E700208DF81F005E
:1030B000FFE79DF81F0008B080BD000080B540F616
:1030C0000C10C2F20000FFF77DF880BDFFE7FEE7BD
:1030D00081B08DF803009DF9030000280ED4FFE7AE
:1030E0009DF9031001F01F02012090404A094EF2A1
:1030F0000011CEF2000141F82200FFE701B0704755
:103100004EF60C50CEF200000068C0F3022070476B
:1031100082B08DF8070000919DF9070000280AD4BD
:10312000FFE7009800019DF907104EF20042CEF231
:10313000000288540BE0009800019DF8071001F090
:103140000F014EF61452CEF200028854FFE702B08F
:103150007047000083B00290029800F007000090D2
:103160004EF60C51CEF200010868019001984FF61E
:10317000FF02104001900198009A40EA02200022CC
:10318000C0F2FA52104301900198086003B07047F2
:10319000FFE7FEE780B582B00190FFE7019880B9B4
:1031A000FFE740F20C00C2F20000006847F256430D
:1031B000C0F600030021392200F094F9FFF7E8FF80
:1031C0000DE040F20C00C2F20000006847F26843D4
:1031D000C0F600030421392200F084F9FFE7FFE77D
:1031E000012002B080BD000080B582B00190FFE7F1
:1031F000019880B9FFE740F20800C2F200000068C1
:1032000047F25643C0F600030021182200F06AF985
:10321000FFF7BEFF0DE040F20800C2F200000068B8
:1032200047F26843C0F600030421182200F05AF95F
:10323000FFE7FFE740F20870C2F200000088D0B953
:10324000FFE70020ADF80200FFE7BDF802003F28CD
:1032500010DCFFE7BDF8022040F20C71C2F2000161
:10326000002041F82200FFE7BDF802000130ADF870
:103270000200EAE7FFE7019840F20873C2F2000398
:103280001A88511C198040F20C71C2F2000141F8F9
:10329000220002B080BD000080B584B00290019190
:1032A000FFE7029880B9FFE740F21000C2F2000089
:1032B000006847F25643C0F600030021A52200F043
:1032C00011F9FFF765FF0DE040F21000C2F20000B7
:1032D000006847F26843C0F600030421A52200F00D
:1032E00001F9FFE7FFE70298007902280FDCFFE70A
:1032F000029988688989FDF79BFE019908700198F9
:1033000000780299487101208DF80F0003E0002039
:103310008DF80F00FFE79DF80F0004B080BD00009E
:1033200080B588B00790FFE7079880B9FFE740F2C3
:103330001000C2F20000006847F25643C0F60003D6
:1033400000215B2200F0CEF8FFF722FF0DE040F2F3
:103350001000C2F20000006847F26843C0F60003A4
:1033600004215B2200F0BEF8FFE7FFE7FFE70798C4
:10337000006880B9FFE740F21000C2F20000006868
:1033800047F25643C0F6000300215C2200F0AAF881
:10339000FFF7FEFE0DE040F21000C2F200000068F0
:1033A00047F26843C0F6000304215C2200F09AF85B
:1033B000FFE7FFE70798006800F0E4FC00200190B9
:1033C00006900590049003900121029104910590CC
:1033D00007988089039003200090069007988068E2
:1033E00003A9FDF795FC019A079988688989FDF77B
:1033F00037FE009A01990298079B1A71079A51713A
:1034000008B080BD80B586B004908DF80F10029290
:10341000FFE7049880B9FFE740F20C00C2F2000019
:10342000006847F25643C0F6000300213F2200F037
:1034300059F8FFF7ADFE0DE040F20C00C2F20000BB
:10344000006847F26843C0F6000304213F2200F001
:1034500049F8FFE7FFE7FFE7029880B9FFE740F28E
:103460000C00C2F20000006847F25643C0F60003A9
:103470000021402200F036F8FFF78AFE0DE040F20E
:103480000C00C2F20000006847F26843C0F6000377
:103490000421402200F026F8FFE7FFE70498C06807
:1034A00001909DF80F000146009120B1FFE70098C0
:1034B000012806D00DE00198016988478DF81700B2
:1034C0000BE0019842690299097890478DF817003E
:1034D00003E000208DF81700FFE79DF8170006B005
:1034E00080BD000080B588B007908DF81B10059254
:1034F00004939DF81B0040F23C01C2F200010978E0
:1035000088424ADCFFE7079A41F6CC20C2F200006D
:10351000019047F25341C0F60001009103F036FAE2
:103520000198FCF723FE00990246019810449DF88B
:103530001B3047F27032C0F6000252F8232003F02D
:1035400025FA0198FCF712FE014601980844059AF5
:1035500047F2D231C0F6000103F018FA01980AA927
:103560000391FCF703FE0146019808440499039A6D
:1035700003F020FA0198FCF7F9FD01460198029149
:10358000FCF7F4FD019982B240F60C10C2F2000083
:103590004FF47A73FFF7CEF8FFE708B080BD000064
:1035A00080B582B00190FFE7019880B9FFE740F253
:1035B0000C00C2F20000006847F25643C0F6000358
:1035C00000213322FFF78EFFFFF7E2FD0DE040F20E
:1035D0000C00C2F20000006847F26843C0F6000326
:1035E00004213322FFF77EFFFFE7FFE7012002B04F
:1035F00080BD000080B586B0059004910392ADF8BF
:103600000A30FFE7059880B9FFE740F20C00C2F2EC
:103610000000006847F25643C0F6000300212C2248
:10362000FFF760FFFFF7B4FD0DE040F20C00C2F2BF
:103630000000006847F26843C0F6000304212C2212
:10364000FFF750FFFFE7FFE70598C068019001987A
:10365000C2690399904706B080BD000080B588B06C
:1036600006908DF81710FFE7069880B9FFE740F243
:103670001000C2F20000006847F25643C0F6000393
:1036800000216E22FFF72EFFFFF782FD0DE040F2D2
:103690001000C2F20000006847F26843C0F6000361
:1036A00004216E22FFF71EFFFFE7FFE7FFE79DF80B
:1036B0001700052810DBFFE740F21000C2F20000FF
:1036C000006847F25643C0F6000300216F22FFF75F
:1036D00009FFFFF75DFD0DE040F21000C2F20000AF
:1036E000006847F26843C0F6000304216F22FFF729
:1036F000F9FEFFE7FFE7002004900390029001909D
:103700009DF8170020B9FFE70020029003902FE0FA
:103710009DF81700012805D1FFE700200290012045
:10372000039024E09DF81700022805D1FFE7002050
:1037300002900220039019E09DF81700032805D19C
:10374000FFE701200290002003900EE09DF8170093
:10375000042805D1FFE7112002900120039003E027
:1037600000208DF81F0015E0FFE7FFE7FFE7FFE708
:10377000069880890190032004900698806801A92A
:10378000FDF7C6FA9DF817000699087101208DF81B
:103790001F00FFE79DF81F0008B080BD80B584B012
:1037A00002908DF80710FFE7029880B9FFE740F21A
:1037B0001000C2F20000006847F25643C0F6000352
:1037C00000219722FFF78EFEFFF7E2FC0DE040F2AA
:1037D0001000C2F20000006847F26843C0F6000320
:1037E00004219722FFF77EFEFFE7FFE7029840796A
:1037F0009DF8071088421AD0FFE702980079032845
:1038000015DBFFE70299886889899DF80720002A5F
:1038100018BF0122FDF724FC9DF80700002818BFFF
:1038200001200299487101208DF80F0003E000206B
:103830008DF80F00FFE79DF80F0004B080BD000079
:1038400080B586B0059004910392ADF80A30FFE789
:10385000059880B9FFE740F20C00C2F20000006852
:1038600047F25643C0F6000300212522FFF73AFE37
:10387000FFF78EFC0DE040F20C00C2F20000006881
:1038800047F26843C0F6000304212522FFF72AFE11
:10389000FFE7FFE70598C0680190019882690399E6
:1038A000097801F00101904706B080BD80B582B073
:1038B000694600234B600120086044F6C570C0F6DD
:1038C000000047F2AC31C0F60001802202F05CFC3F
:1038D00001F018FFFFE7FEE780B584B00390FFE733
:1038E00040F20C70C2F20000006880B9FFE740F2BD
:1038F0000800C2F20000006847F25643C0F6000319
:1039000000212522FFF7EEFDFFF742FC0DE040F21B
:103910000800C2F20000006847F26843C0F60003E6
:1039200004212522FFF7DEFDFFE7FFE7FFE703980D
:1039300080B9FFE740F20800C2F20000006847F2D9
:103940005643C0F6000300212622FFF7CBFDFFF708
:103950001FFC0DE040F20800C2F20000006847F2D0
:103960006843C0F6000304212622FFF7BBFDFFE7F2
:10397000FFE700200290ADF80600FFE7BDF8060063
:103980003F282ADCFFE7BDF8061040F20C70C2F2B7
:10399000000050F8210008B9FFE71EE00398BDF8C9
:1039A000062040F20C71C2F2000151F822100968A1
:1039B000FCF7E3FB50B9FFE7BDF8061040F20C70CE
:1039C000C2F2000050F82100029006E0FFE7BDF8C7
:1039D00006000130ADF80600D0E7029804B080BDC3
:1039E00080B584B0039002910192FFE7039880B9FB
:1039F000FFE740F20C00C2F20000006847F25643B5
:103A0000C0F6000300211522FFF76CFDFFF7C0FB95
:103A10000DE040F20C00C2F20000006847F268437B
:103A2000C0F6000304211522FFF75CFDFFE7FFE766
:103A3000FFE7029880B9FFE740F20C00C2F20000F5
:103A4000006847F25643C0F6000300211622FFF734
:103A500049FDFFF79DFB0DE040F20C00C2F20000B3
:103A6000006847F26843C0F6000304211622FFF7FE
:103A700039FDFFE7FFE7FFE7019880B9FFE740F274
:103A80000C00C2F20000006847F25643C0F6000383
:103A900000211722FFF726FDFFF77AFB0DE040F229
:103AA0000C00C2F20000006847F26843C0F6000351
:103AB00004211722FFF716FDFFE7FFE7029803999D
:103AC000086003990120087103990020487101984A
:103AD0000399C860039840F21401C2F2000100F09B
:103AE00031F8039800F002F804B080BD80B582B0D0
:103AF0000190FFE7019880B9FFE740F20800C2F2A9
:103B00000000006847F25643C0F6000300210C2273
:103B1000FFF7E8FCFFF73CFB0DE040F20800C2F2C3
:103B20000000006847F26843C0F6000304210C223D
:103B3000FFF7D8FCFFE7FFE70198FFF755FB02B05E
:103B400080BD000080B582B001900091FFE7019830
:103B500080B9FFE740F20800C2F20000006847F2B7
:103B60005643C0F6000300213822FFF7BBFCFFF7E5
:103B70000FFB0DE040F20800C2F20000006847F2BF
:103B80006843C0F6000304213822FFF7ABFCFFE7CF
:103B9000FFE7FFE7009880B9FFE740F20800C2F2B4
:103BA0000000006847F25643C0F6000300213922A6
:103BB000FFF798FCFFF7ECFA0DE040F20800C2F2C4
:103BC0000000006847F26843C0F600030421392270
:103BD000FFF788FCFFE7FFE700980199886002B0D3
:103BE00080BD000080B584B0039002910192FFE790
:103BF000039880B9FFE740F21000C2F200000068AD
:103C000047F25643C0F600030021B322FFF76AFCD7
:103C1000FFF7BEFA0DE040F21000C2F200000068AB
:103C200047F26843C0F600030421B322FFF75AFCB1
:103C3000FFE7FFE7FFE7029880B9FFE740F21000D7
:103C4000C2F20000006847F25643C0F600030021AC
:103C5000B422FFF747FCFFF79BFA0DE040F210009B
:103C6000C2F20000006847F26843C0F60003042176
:103C7000B422FFF737FCFFE7FFE7FFE7019880B9C1
:103C8000FFE740F21000C2F20000006847F256431E
:103C9000C0F600030021B522FFF724FCFFF778FAF5
:103CA0000DE040F21000C2F20000006847F26843E5
:103CB000C0F600030421B522FFF714FCFFE7FFE77D
:103CC0000198039908600398006800F049F8039987
:103CD00088600398006800F02FF8039988810399A1
:103CE000052008710399FF204871039943F22130A0
:103CF000C0F600000861039943F25D60C0F6000061
:103D00004861039943F29D70C0F6000088610399F1
:103D100043F29920C0F60000C86103980169884702
:103D20000398426903219047039A02F12000029907
:103D3000FFF756FE04B080BD80B584B003900398B1
:103D400002300290029800210A22FCF724FAADF812
:103D50000600BDF806100120884080B204B080BD86
:103D600081B00090009890F9001040F22800C2F253
:103D7000000000EB81004FF6FC61CFF6FF71405868
:103D800001B0704780B586B005900598FFF7E8FF51
:103D900040F60001C4F20101884210D1FFE7FFE7BD
:103DA00041F21800C4F20200016841F00401016010
:103DB000006800F0040004900498FFE76BE00598A9
:103DC000FFF7CEFF40F60041C4F20101884210D156
:103DD000FFE7FFE741F21800C4F20200016841F07A
:103DE00008010160006800F0080003900398FFE7F5
:103DF00050E00598FFF7B4FF41F20001C4F2010161
:103E0000884210D1FFE7FFE741F21800C4F2020038
:103E1000016841F010010160006800F0100002909C
:103E20000298FFE735E00598FFF79AFF41F200415D
:103E3000C4F20101884210D1FFE7FFE741F2180008
:103E4000C4F20200016841F020010160006800F046
:103E5000200001900198FFE71AE00598FFF780FF26
:103E600041F60001C4F20101884210D1FFE7FFE7EB
:103E700041F21800C4F20200016841F04001016003
:103E8000006800F0400000900098FFE7FFE7FFE7C0
:103E9000FFE7FFE7FFE706B080BD000080B584B014
:103EA000039040F60C00C2F2000047F29B31C0F6CE
:103EB000000147F29632C0F60002FFF793FEFFE7DB
:103EC0004FF47A7001F0F8FA40F65410C2F2000094
:103ED0000078C00738B1FFE740F65411C2F2000184
:103EE000002008700FE040F65410C2F20000007885
:103EF000C00738B9FFE740F65411C2F200010120B3
:103F00000870FFE7FFE747F29B30C0F60000019022
:103F1000FFF7E2FC01460198896809680291FFF702
:103F2000DBFCDDF808C040F65411C2F2000109784C
:103F300001F0010200231946E047C1E780B582B0D5
:103F400000200190FDF7B8F8FEF7CAFDFEF7AEFCC1
:103F5000FEF786FCFEF7F8FCFFE7FFF7A7FCFFE79C
:103F6000FEE700007047000080B584B00390029126
:103F700041F6D840C2F200000068009040F64C20A4
:103F8000C2F200000068043001F060F808B9FFE7F1
:103F900000E0FFE70398013080B9FFE7029868B1BD
:103FA000FFE740F64C20C2F200000068011D41F618
:103FB000B040C2F2000001F0EFF83DE00098039934
:103FC00008440190019840F64C21C2F200010968B2
:103FD00048600198009988420ED2FFE740F65C20C5
:103FE000C2F20000006840F64C21C2F200010968EC
:103FF000043101F09BF81EE040F65420C2F20000AC
:10400000006840F64C21C2F200010968043101F059
:104010008DF8019841F64841C2F2000109688842D2
:1040200007D2FFE7019841F64841C2F2000108605B
:1040300000E0FFE7FFE7FFE704B080BD80B582B096
:10404000019001F0C7F841F6D031C2F200010868D2
:104050000130086040F64C20C2F20000006898B9B8
:10406000FFE7019840F64C21C2F20001086041F6DA
:10407000D030C2F200000068012803D1FFE700F051
:10408000EDFA00E0FFE71CE041F6A440C2F20000B8
:104090000068A0B9FFE740F64C20C2F200000068BB
:1040A000C06A0199C96A884207D8FFE7019840F6BB
:1040B0004C21C2F20001086000E0FFE700E0FFE7EA
:1040C000FFE741F6E030C2F2000001680131016013
:1040D0000068019948640198C06A41F6E431C2F26F
:1040E00000010968884208D9FFE70198C06A41F6D3
:1040F000E431C2F200010860FFE70199C86A00EBF1
:10410000800240F66420C2F2000000EB820004311D
:1041100001F042F801F08AF841F6A440C2F2000032
:104120000068C8B1FFE740F64C20C2F2000000680A
:10413000C06A0199C96A88420CD2FFE74EF6045161
:10414000CEF200014FF080500860BFF34F8FBFF3F5
:104150006F8F00E0FFE700E0FFE702B080BD0000E6
:1041600080B584B001F036F841F6DC40C2F20000C0
:104170000068002840D1FFE741F6E830C2F20000B5
:10418000029000F0B3FF41F6FC30C2F20000039051
:1041900000F0ACFF0299039840F65022C2F20002F0
:1041A000116040F66021C2F20001086069460020FB
:1041B000086040F65512C2F2000240F6F813C2F24F
:1041C00000030A20102101F0EDFB014641F6DC401E
:1041D000C2F200000160006860B1FFE741F6DC4018
:1041E000C2F20000006847F28931C0F6000101F018
:1041F00007F900E0FFE700E0FFE701F017F804B07F
:1042000080BD000080B582B0FFE741F6D430C2F235
:104210000000006808B3FFE700F0DCFF41F6C4408F
:10422000C2F20000C068C06801900198043000F03C
:104230000DFF41F6D031C2F2000108680138086074
:1042400041F6D431C2F2000108680138086000F07C
:10425000EDFF019800F08CF8D7E702B080BD0000B8
:1042600080B582B0019000910198006CB8B1FFE771
:104270000199C8680A6C1044C86001984168C06818
:10428000884204D3FFE701990868C86000E0FFE7AF
:104290000098019AD168126CFBF744FFFFE702B067
:1042A00080BD000080B586B0059004910392002087
:1042B00002900598806B01900598006C78B9FFE733
:1042C0000598006848B9FFE70598406802F01AF9B8
:1042D000029005990020486000E0FFE741E0039864
:1042E000B8B9FFE7059A04999068126CFBF71AFFBA
:1042F000059988680A6C1044886005984168806850
:10430000884204D3FFE705990868886000E0FFE76A
:1043100026E0059A0499D068126CFBF703FF059913
:10432000C8680A6C801AC86005980168C06888422D
:1043300006D2FFE7059948680A6C801AC86000E059
:10434000FFE70398022809D1FFE7019820B1FFE7B2
:1043500001980138019000E0FFE700E0FFE7FFE788
:10436000FFE70198013005998863029806B080BD87
:1043700080B582B00090009890F8590040B9FFE7EE
:104380000098006B00F078FF009800F075FF1CE0CB
:10439000009890F85900012804D1FFE7009800F038
:1043A0006BFF11E0009890F8590002280BD0FFE74E
:1043B0004FF0500080F31188BFF36F8FBFF34F8F22
:1043C0000190FFE7FEE7FFE7FFE702B080BD0000D6
:1043D00082B0019040F65020C2F2000000680068F0
:1043E000B0FA80F04009019908600198006848B966
:1043F000FFE740F65020C2F200000068C068006885
:10440000009002E000200090FFE7009802B07047A3
:1044100084B04FF44060009040F6C460C2F20000E7
:1044200001909DF80400400788B1FFE7019807302C
:104430000190019820F007000190019A40F6C461B4
:10444000C2F200010098891A08440090FFE7019821
:104450000290029941F6A840C2F2000001600021DA
:1044600041600298009A1044019001980838019028
:10447000019820F007000190019A40F65820C2F2FE
:1044800000000260026851600268116002990391A5
:104490000199039A891A516000680399086003988A
:1044A000406841F64441C2F2000108600398406848
:1044B00041F63C41C2F20001086041F61041C2F2EF
:1044C00000014FF00040086004B0704780B582B032
:1044D0000190FFE7FFF796FE40F66420C2F200006D
:1044E000006802280CD3FFE74EF60451CEF200011B
:1044F0004FF080500860BFF34F8FBFF36F8F00E025
:10450000FFE7E7E780B584B0DDF818C003900291BB
:1045100001928DF80330029818B9FFE70698006001
:1045200003E0019806990860FFE703980699C863BD
:104530000298069908640698012101F0B9FA9DF8DD
:104540000300069981F84C0004B080BD80B588B0A6
:10455000DDF834C0DDF830C0DDF82CC0DDF828C04F
:1045600006900591049203930C98006B04998900BE
:10457000A522FBF7E9FD0C98006B049900EB810084
:1045800004380290029820F0070002909DF808007D
:10459000400758B1FFE74FF0500080F31188BFF398
:1045A0006F8FBFF34F8F0790FFE7FEE7002001906A
:1045B000FFE701980F2813D8FFE70598019A805C60
:1045C0000C99114481F8340005980199405608B9B6
:1045D000FFE705E0FFE7FFE7019801300190E8E71A
:1045E0000C99002081F843000A98382803D3FFE78C
:1045F00037200A9000E0FFE70A980C99C8620A98F1
:104600000C99C8640C990020009008650C9804303F
:1046100000F084FD0C98183000F080FD00980C9993
:1046200009610A99C1F138010C9A91610C994962AA
:104630000C9948650C9981F8580002980699039ADC
:1046400000F098FC0C9908600B9820B1FFE70C98DB
:104650000B99086000E0FFE708B080BD80B584B02A
:1046600000200390FFE70398372810D8FFE703984E
:1046700000EB800140F66420C2F2000000EB8100F4
:1046800000F034FDFFE7039801300390EBE741F6BB
:104690001440C2F20000019000F028FD41F62840CD
:1046A000C2F20000029000F021FD41F65040C2F23B
:1046B000000000F01BFD41F6C440C2F2000000F013
:1046C00015FD41F6B040C2F2000000F00FFD019967
:1046D000029840F65422C2F20002116040F65C21BA
:1046E000C2F20001086004B080BD000083B00290F7
:1046F00041F6A840C2F200000190FFE7019800686F
:104700000299884205D2FFE7FFE70198006801900F
:10471000F4E70198009000980199496808440299CB
:10472000884209D1FFE7029842680199486810441D
:1047300048600198029000E0FFE70298009000981E
:1047400002994968084401990968884220D1FFE725
:104750000198006840F65821C2F2000109688842B9
:104760000DD0FFE70198006842680299486810443C
:1047700048600198006800680299086007E040F608
:104780005820C2F20000006802990860FFE704E0C8
:104790000198006802990860FFE701980299884231
:1047A00004D0FFE702980199086000E0FFE703B03A
:1047B0007047000080B586B0059004910392029383
:1047C00000200190049805994860059800610498BC
:1047D0000399884216D8FFE703980299401A059971
:1047E0008969884203D3FFE70120019009E040F680
:1047F0006020C2F2000000680599043100F096FCC8
:10480000FFE717E003980299884208D2FFE704986F
:104810000299884203D3FFE70120019009E040F6A6
:104820005020C2F2000000680599043100F07EFCBF
:10483000FFE7FFE7019806B080BD000080B582B0B9
:10484000019000F0C7FC0198806B18B9FFE70120C8
:10485000009002E000200090FFE700F0E7FC0098E5
:1048600002B080BD80B582B0019000F0B3FC019829
:10487000806B0199C96B884203D1FFE7012000904A
:1048800002E000200090FFE700F0D0FC009802B0AA
:1048900080BD000006480068006880F3088862B6A2
:1048A00061B6BFF34F8FBFF36F8F00DF00BF000013
:1048B00008ED00E080B586B00490039140F65020EA
:1048C000C2F200000068C068C0680190019804301E
:1048D00000F0BCFB0198C069012823D1FFE70198D3
:1048E000049B81691944039AFFF764FFC0B1FFE795
:1048F0000198049A694600230B60194601F0EEFF07
:104900000290029858B9FFE74FF0500080F31188E9
:10491000BFF36F8FBFF34F8F0590FFE7FEE700E017
:10492000FFE700E0FFE70198416A884706B080BDD5
:1049300080B58EB0FFE741F6DC40C2F200000068AF
:1049400007A9002201F0CCFA002800F09780FFE7C9
:104950000798B0F1FF3F17DCFFE707A8043002908B
:10496000029858B9FFE74FF0500080F31188BFF369
:104970006F8FBFF34F8F0D90FFE7FEE702990A6834
:1049800048688968904700E0FFE70798002800F131
:104990007480FFE7099806900698406928B1FFE700
:1049A0000698043000F052FB00E0FFE705A800F095
:1049B000D9F803900798019009285CD80199DFE89D
:1049C00001F005050534354F050534350698089B7B
:1049D00081691944039AFFF7EDFE20B3FFE70698BB
:1049E000416A88470698C06901281AD1FFE70698EE
:1049F000089982690A44694600230B60194601F050
:104A00006DFF0490049858B9FFE74FF0500080F311
:104A10001188BFF36F8FBFF34F8F0C90FFE7FEE756
:104A200000E0FFE700E0FFE726E025E008980699B0
:104A300088610698806958B9FFE74FF0500080F30D
:104A40001188BFF36F8FBFF34F8F0B90FFE7FEE727
:104A50000698039B816919441A46FFF7ABFE0BE0E9
:104A6000069890F82C0020B9FFE7069800F004FCA7
:104A700000E0FFE700E0FFE7FFE75CE70EB080BD86
:104A800080B584B00390029100F0ACFE684600F05F
:104A900069F801900098D8BBFFE7029860B9FFE77A
:104AA00003980199884207D8FFE701F009FE0398AF
:104AB0000199FFF7FFFE2AE0029858B1FFE740F6A0
:104AC0006020C2F2000000680068B0FA80F040097F
:104AD0000290FFE741F6DC40C2F200000068039953
:104AE000019A891A029A00F0B5FC01F0E9FD60B95B
:104AF000FFE74EF60451CEF200014FF080500860FF
:104B0000BFF34F8FBFF36F8F00E0FFE7FFE702E0D7
:104B100001F0D6FDFFE704B080BD000081B040F693
:104B20005420C2F200000068006840B9FFE741F677
:104B30004841C2F200014FF0FF3008600FE040F63C
:104B40005420C2F200000068C068C068009000985D
:104B5000406841F64841C2F200010860FFE701B039
:104B60007047000080B582B0019001F0DFFB00903B
:104B7000009840F64821C2F200010968884206D236
:104B8000FFE700F011F801990120086003E00199A6
:104B900000200860FFE7009840F64821C2F20001BB
:104BA0000860009802B080BD80B588B0FFE740F68D
:104BB0005020C2F200000068006800284CD0FFE7D7
:104BC00040F65020C2F200000168C96809680691E9
:104BD0000068C068C06803900398043000F036FA9B
:104BE0000398416A88470398C069012832D1FFE7DA
:104BF00006980399896908440590059806998842A2
:104C00000FD9FFE70598039948600398006140F6C3
:104C10005020C2F2000000680399043100F086FAC7
:104C200017E00398069A694600230B60194601F0C5
:104C300055FE0290029858B9FFE74FF0500080F3FC
:104C40001188BFF36F8FBFF34F8F0790FFE7FEE729
:104C5000FFE700E0FFE7AAE740F65022C2F20002B9
:104C60001068049040F66021C2F2000108681060EC
:104C70000498086008B080BD83B00020009040F226
:104C80004400C2F200000068013058B1FFE74FF065
:104C9000500080F31188BFF36F8FBFF34F8F0290E6
:104CA000FFE7FEE74FF0500080F31188BFF36F8FEE
:104CB000BFF34F8F0190FFE7009808B9FFE7FBE7CC
:104CC00003B0704780B584B00390FFE701A8FFF7F9
:104CD0007FFB029002980199FFF7D2FEFFF728FEB2
:104CE000F4E7000080B582B0019000F073FA0198FB
:104CF00090F845008DF80300FFE79DF903000128B7
:104D000016DBFFE70198406A58B1FFE701982430AD
:104D100001F06EFC18B1FFE700F0A0FC00E0FFE737
:104D200000E005E09DF8030001388DF80300E4E79A
:104D30000199FF2081F8450000F078FA00F04AFA66
:104D4000019890F844008DF80200FFE79DF90200F9
:104D5000012816DBFFE70198006980B1FFE70198A1
:104D6000103001F045FC18B1FFE700F077FC00E0DF
:104D7000FFE79DF8020001388DF8020000E000E036
:104D8000E4E70199FF2081F8440000F04FFA02B0F7
:104D900080BD000080B58AB006900020029000F02F
:104DA00021FD40F65820C2F20000006818B9FFE764
:104DB000FFF72EFB00E0FFE7069841F61041C2F234
:104DC00000010968084240F0BE80FFE7069800B382
:104DD000FFE70698083006909DF818004007B0B12C
:104DE000FFE7069820F00700083006909DF81800AD
:104DF000400758B1FFE74FF0500080F31188BFF330
:104E00006F8FBFF34F8F0990FFE7FEE700E0FFE7EA
:104E100000E0FFE70698002800F09380FFE706987F
:104E200041F63C41C2F200010968884200F28980E3
:104E3000FFE741F6A840C2F2000004900068059028
:104E4000FFE705984168069A00209142019007D239
:104E5000FFE705980068002818BF01200190FFE7D0
:104E60000198C00730B1FFE70598049005980068E5
:104E70000590E6E7059840F65821C2F2000109685E
:104E800088425CD0FFE704980068083002900598DB
:104E9000006804990860059840680699401A11282E
:104EA00021D3FFE705980699084403909DF80C006C
:104EB000400758B1FFE74FF0500080F31188BFF36F
:104EC0006F8FBFF34F8F0890FFE7FEE705984068AC
:104ED0000699401A03994860069805994860039816
:104EE000FFF704FC00E0FFE70598426841F63C400C
:104EF000C2F200000168891A0160006841F644416D
:104F0000C2F20001096888420BD2FFE741F63C403B
:104F1000C2F20000006841F64441C2F2000108609C
:104F200000E0FFE741F61040C2F200000268059978
:104F300048681043486005990020086000E0FFE7DA
:104F400000E0FFE700E0FFE701F0BAFB9DF8080092
:104F5000400758B1FFE74FF0500080F31188BFF3CE
:104F60006F8FBFF34F8F0790FFE7FEE702980AB0FD
:104F700080BD000083B00290019100920298043835
:104F8000029002994FF080700860029804380290F5
:104F9000019820F0010002990860029804380290FC
:104FA000029944F67940C0F600000860029814386F
:104FB00002900098029908600298203802900298A6
:104FC00003B0704780B586B0059000F003F940F259
:104FD000A420C2F20000694648600A2003900860DD
:104FE00043F69D60C0F6000047F2A331C0F6000111
:104FF0004FF4007202920023049301F0C5F8029A64
:10500000049B039840F2047CC2F2000C6946C1F88C
:1050100004C0086045F23900C0F6000047F2B7311D
:10502000C0F6000101F0B0F800F000F9049800F0BB
:105030007BFA06B080BD000080B582B00190FFE72A
:105040004FF47A7000F038FAFAE7000082B001906D
:105050000198006900900198416880688860019912
:10506000486889684860009840680199884205D17D
:10507000FFE7019880680099486000E0FFE7019928
:1050800000200861009908680138086000980068ED
:1050900002B0704783B0029001910092029940F2F1
:1050A0004820C2F200000860019940F24800C2F2B4
:1050B0000000086000998020086003B0704700007D
:1050C00083B0029001910092029940F2A860C2F26E
:1050D00000000860019940F2A820C2F200000860B8
:1050E00000994FF48070086003B0704781B0009061
:1050F000009901F10800486000994FF0FF30886086
:10510000009901F10800C860009901F108000861E8
:1051100000990020086001B07047000081B0009045
:1051200000990020086101B07047000084B003902E
:1051300002910298006800900098013020B9FFE7C2
:1051400003980069019010E0039808300190FFE790
:105150000198406800680099884205D8FFE7FFE79A
:10516000019840680190F3E7FFE7019840680299D1
:1051700048600298416888600198029988600298A6
:105180000199486003980299086103990868013001
:10519000086004B07047000083B00290019102984B
:1051A00040680090009801994860009880680199D3
:1051B0008860019800998968486001980099886022
:1051C000029801990861029908680130086003B0EB
:1051D0007047000082B04FF0500080F31188BFF399
:1051E0006F8FBFF34F8F019040F24400C2F2000076
:1051F0000168013101600068012814D1FFE74EF613
:105200000450CEF200000068000658B1FFE74FF0EE
:10521000500080F31188BFF36F8FBFF34F8F009062
:10522000FFE7FEE7FFE702B07047000082B040F200
:105230004400C2F20000006858B9FFE74FF0500088
:1052400080F31188BFF36F8FBFF34F8F0090FFE79C
:10525000FEE740F24400C2F200000168013901603B
:10526000006830B9FFE700200190019880F31188B1
:10527000FFE702B07047000080B586B00390039846
:1052800002900398002855D0FFE702980838029052
:10529000029801900198406841F61041C2F2000165
:1052A000096808420BD1FFE74FF0500080F31188E6
:1052B000BFF36F8FBFF34F8F0590FFE7FEE70198B5
:1052C000006858B1FFE74FF0500080F31188BFF33A
:1052D0006F8FBFF34F8F0490FFE7FEE701984068A0
:1052E00041F61041C2F200010968084220D0FFE7F0
:1052F00001980068D0B9FFE741F61040C2F2000003
:105300000268019948689043486000F06BFA019880
:10531000426841F63C41C2F200010868104408604E
:105320000198FFF7E3F901F0CBF900E0FFE700E0B7
:10533000FFE7FFE706B080BD4EF21001CEF200019C
:10534000002008604EF21802CEF20002106040F217
:105350000400C2F20000006844F6D352C1F26202B7
:10536000A0FB02024FF0FF3000EB92104EF214024D
:10537000CEF20002106007200860704784B0EFF39F
:1053800005800190019810281ED3FFE701984EF286
:10539000F031CEF20001405C8DF803009DF803006F
:1053A00041F6C421C2F20001097888420BDAFFE716
:1053B0004FF0500080F31188BFF36F8FBFF34F8F12
:1053C0000390FFE7FEE7FFE74EF60C50CEF2000039
:1053D000006800F4E06041F6C821C2F200010968EB
:1053E00088420BD9FFE74FF0500080F31188BFF3DC
:1053F0006F8FBFF34F8F0290FFE7FEE704B0704757
:1054000083B00290019100200090FFE700980728E8
:105410001DD8FFE7009941F66440C2F2000050F841
:10542000310070B9FFE70198009A41F66441C2F279
:10543000000141F832000298009A01EBC201486075
:1054400005E0FFE7FFE7009801300090DEE703B0DA
:105450007047000080B584B00390029101920398D8
:105460000090FFF7B7FE009890F94400013028B98A
:10547000FFE70099002081F84400FFE7009890F9C9
:105480004500013028B9FFE70099002081F8450068
:10549000FFE7FFF7CBFE0098806B38B9FFE7009875
:1054A00024300299019A00F003F900E0FFE7009828
:1054B000FFF718FC04B080BD80B584B002900020D6
:1054C00001900298E0B1FFE741F6DC30C2F2000043
:1054D000006858B1FFE74FF0500080F31188BFF328
:1054E0006F8FBFF34F8F0390FFE7FEE700F07AF96D
:1054F00002980021FEF738FD01F0E2F8019000E08B
:10550000FFE7019860B9FFE74EF60451CEF20001C3
:105510004FF080500860BFF34F8FBFF36F8F00E0F4
:10552000FFE704B080BD000080B584B00290FFF7B3
:1055300051FE029838B9FFE740F64C20C2F2000055
:105540000068009002E002980090FFE70098019048
:1055500001980430FFF77AFD08B9FFE700E0FFE7A4
:105560000198806A28B1FFE701981830FFF76EFDB7
:1055700000E0FFE741F6E031C2F2000108680130C7
:105580000860019840F64C21C2F200010968884287
:1055900010D1FFE70198011D41F6C440C2F200009E
:1055A000FFF7FAFD41F6D431C2F20001086801307C
:1055B00008600CE041F6D031C2F200010868013801
:1055C00008600198FEF7D4FEFFF7A8FAFFE7FFF79F
:1055D0002DFE41F6A440C2F20000006848B3FFE788
:1055E000019840F64C21C2F20001096888421ED1A0
:1055F000FFE741F6DC30C2F20000006858B1FFE777
:105600004FF0500080F31188BFF36F8FBFF34F8FBF
:105610000390FFE7FEE74EF60451CEF200014FF093
:1056200080500860BFF34F8FBFF36F8F00E0FFE73C
:10563000FFE704B080BD000081B0009041F64C400F
:10564000C2F2000000680099086041F6D840C2F23A
:10565000000000680099486001B0704741F6E441DD
:10566000C2F20001012008607047000080B584B0DC
:1056700002900191029858B9FFE74FF0500080F373
:105680001188BFF36F8FBFF34F8F0390FFE7FEE7E3
:10569000029840F64C21C2F2000109681831FFF768
:1056A00045FD01980121FEF75FFC04B080BD0000BC
:1056B00080B584B0029001910092029858B9FFE73A
:1056C0004FF0500080F31188BFF36F8FBFF34F8FFF
:1056D0000390FFE7FEE7029840F64C21C2F200017A
:1056E00009681831FFF758FD009820B1FFE74FF027
:1056F000FF300190FFE701980099FEF735FC04B0F8
:1057000080BD000080B58AB000200390069005900F
:1057100006A805A904AAFFF7BDFC039B049A0599F6
:10572000DDF818C06846C0F808C04160036044F264
:10573000CD40C0F6000047F28431C0F6000100F011
:1057400073FD014641F64040C2F20000016000686E
:1057500018B1FFE70120079002E000200790FFE763
:105760000798012804D1FFE701F06EF8079000E0E8
:10577000FFE70798012823D1FFE74FF0500080F39F
:105780001188BFF36F8FBFF34F8F099041F64841E7
:10579000C2F200014FF0FF30086041F6A441C2F2AE
:1057A00000010120086041F6D841C2F2000100204A
:1057B000086000F083F808B1FFE700E0FFE70FE0C2
:1057C0000798013058B9FFE74FF0500080F3118877
:1057D000BFF36F8FBFF34F8F0890FFE7FEE7FFE740
:1057E0000AB080BD41F6DC31C2F200010868013028
:1057F0000860704783B041F6DC30C2F200000068F8
:1058000038B1FFE741F6E441C2F20001012008602F
:1058100051E041F6E441C2F200010020086041F687
:10582000E430C2F2000000680190FFE7019800EB4D
:10583000800140F66420C2F2000050F8210090B9C7
:10584000FFE7019858B9FFE74FF0500080F3118847
:10585000BFF36F8FBFF34F8F0290FFE7FEE7019812
:1058600001380190E2E7019800EB800140F66420E6
:10587000C2F2000000EB8100009000994868406887
:105880004860009948680831884205D1FFE70099CF
:10589000486840684860FFE700984068C06840F684
:1058A0004C21C2F200010860019841F6E431C2F2D5
:1058B00000010860FFE703B07047000080B586B0C4
:1058C0004EF20040CEF20000039001780491FF21D7
:1058D000017000788DF80B009DF80B0000F050006F
:1058E00041F6C421C2F20001087041F6C821C2F29B
:1058F000000107200860FFE79DF80B000006002864
:105900000DD5FFE741F6C821C2F200010868013851
:1059100008609DF80B0040008DF80B00ECE741F6A5
:10592000C820C2F20000006803280BD0FFE74FF048
:10593000500080F31188BFF36F8FBFF34F8F059036
:10594000FFE7FEE741F6C821C2F200010868000245
:105950000860086800F4E060086004984EF20041B6
:10596000CEF2000108704EF62051CEF20001086818
:1059700040F470000860086840F070400860FFF76D
:10598000DBFC40F24401C2F20001002001900860FB
:10599000FEF780FFFFF72EFFFFF76EF9019806B0C4
:1059A00080BD000080B590B084461298CDF828C024
:1059B0000991089207938DF81B000A9858B9FFE7E0
:1059C0004FF0500080F31188BFF36F8FBFF34F8FFC
:1059D0000F90FFE7FEE7079858B9FFE74FF0500038
:1059E00080F31188BFF36F8FBFF34F8F0E90FFE7E7
:1059F000FEE708990020039031B1FFE70998B0FA5B
:105A000080F040090390FFE70398C00758B1FFE713
:105A10004FF0500080F31188BFF36F8FBFF34F8FAB
:105A20000D90FFE7FEE708990020029031B9FFE7EB
:105A30000998002818BF01200290FFE70298C007CC
:105A400058B1FFE74FF0500080F31188BFF36F8F1C
:105A5000BFF34F8F0C90FFE7FEE7502004900498AF
:105A600050280BD0FFE74FF0500080F31188BFF3B0
:105A70006F8FBFF34F8F0B90FFE7FEE707980590FE
:105A8000059888B1FFE70599012081F846000A983A
:105A90000999089A9DF81B30DDF814C0EE46CEF83F
:105AA00000C0FEF72FFD00E0FFE7059810B080BDB5
:105AB00080B584B00290019102980090009858B986
:105AC000FFE74FF0500080F31188BFF36F8FBFF3F3
:105AD0004F8F0390FFE7FEE7FFF77CFB00990B6811
