:020000040800F2
:10000000480F002001010008E91E0008E11D00085A
:10001000E51E0008DD070008812000080000000040
:10002000000000000000000000000000411F000868
:10003000F907000800000000F11E0008651F000815
:100040001B0100081B0100081B0100081B01000820
:100050001B0100081B0100081B0100081B01000810
:100060001B0100081B0100081B0100081B01000800
:100070001B0100081B010008E1070008ED0700084C
:100080001B0100081B0100081B0100081B010008E0
:100090001B0100081B0100081B0100081B010008D0
:1000A0001B010008991F00081B0100081B01000824
:1000B0001B0100081B0100081B0100081B010008B0
:1000C0001B0100081B0100081B0100081B010008A0
:1000D0001B010008752000081B0100081B01000817
:1000E0001B0100081B0100081B010008DFF80CD0F1
:1000F00000F0C6FA00480047C9280008480F002051
:100100000648804706480047FEE7FEE7FEE7FEE7B1
:10011000FEE7FEE7FEE7FEE7FEE7FEE7951F0008C5
:10012000ED000008D2B201E000F8012B491EFBD21D
:1001300070470022F6E710B513460A4604461946F2
:10014000FFF7F0FF204610BD421C10F8011B0029EC
:10015000FBD1801A7047034611F8012B00F8012BE0
:10016000002AF9D1184670472DE9F04791460F460D
:1001700080460446002614F8015B2DB100F074F8A7
:100180000068405DC007F6D12B2D02D02D2D18D070
:10019000641E4A463946204600F06AF827B139689D
:1001A000A14201D1C7F8008071054FF002040BD5C0
:1001B0004042002803DD02F04DFD0460A007BDE8C9
:1001C000F08746F48066E4E70028F8DA02F042FDA2
:1001D00004606FF00040F2E730B50B4601460020A6
:1001E0002022012409E021FA02F59D4205D303FAF9
:1001F00002F5491B04FA02F52844151EA2F101027A
:10020000F1DC30BD2DE9F05F0546002092469B46AB
:1002100088460646814640241BE02846414647461C
:10022000224600F04EFA53465A46C01A914110D366
:1002300011461846224600F035FA2D1A67EB0108E0
:100240004F4622460120002100F02CFA17EB00094E
:100250004E41201EA4F10104DFDC484631462A4607
:100260004346BDE8F09F000000487047BC350008D9
:100270002DE9F05F82460078002715468B460AF18B
:100280000104B946302801D09DB113E014F8010BE8
:100290000127782803D0582801D045B10AE00DB1D4
:1002A000102D07D10027102514F8010B02E00825B6
:1002B00000E00A250026B0460EE005FB080005FB1D
:1002C00006F1012701EB10461FFA80F8B6F5803FD2
:1002D00000D3B94614F8010B294600F014FA00289F
:1002E000EBDABBF1000F05D00FB1641E00E05446FD
:1002F000CBF80040B9F1000F06D002F0ABFC0221B0
:100300000160C81EBDE8F09F48EA0640FAE72DE903
:10031000FE4F804681EA0300C00F0C46009021F09A
:10032000004123F00045B8EB0200A94105D2404648
:10033000214690461C460B46024623F000401043DF
:1003400047D0270DC7F30A00C3F30A510290401AA1
:10035000019040286BDAC3F3130040F4801B00982F
:10036000924620B10023D2EB030A63EB0B0B0198FA
:100370005946C0F14002504600F094F906460D4639
:1003800050465946019A00F0ACF910EB0800614163
:10039000002487EA115284EAE7731A4340D0009A96
:1003A00062B3019A012A4FEA075215DC001B61EB88
:1003B00002014FF0004202EA0752CDE90042001C60
:1003C00041F5801132462B4600F0BAF903B0BDE882
:1003D000F08F40462146F9E7001B61EB0201001C4B
:1003E00041F5801300185B412018A2F5001747EB78
:1003F000030140EAD570B6196D4111E06D084FEA6E
:10040000360645EAC0754FEA0752001B61EB020150
:10041000001C41F5801149084FEA30000019514194
:1004200032462B4603B0BDE8F04F00F07AB9009891
:10043000012240000023D0EB020263EBE07300983E
:1004400021464FEAE074B8EB000061EB0401E9E7F4
:1004500083F000435BE781F0004158E72DE9FE4F50
:1004600081EA030404F0004421F0004100944FF0BD
:10047000000B23F0004350EA01045ED052EA03046B
:100480005BD0C3F30A54C1F30A552C44A4F2F334ED
:100490000194A0FB0254C1F3130141F48011C3F392
:1004A000130343F4801301FB024400FB034E840A50
:1004B000970A44EA815447EA8357A4FB07680295E8
:1004C0008D0A05FB07854FEA932C04FB0C54270586
:1004D000029D4FEA065847EA1637B5EB08056EEB62
:1004E000070C870E920E47EA811742EA8312A7FB98
:1004F0000201B6EB0B0164EB00042B0D43EA0C3355
:100500005E1844EB1C50DA465146E7FB0201C5F386
:1005100013044FEA0B3343EA14534FEA0432019CAD
:1005200043EA0603A4F10C040294009CCDE900B454
:1005300000F006F903B0BDE8F08F00200146F9E7AE
:100540002DE9F04D81EA030404F0004B21F0004551
:1005500014464FF0000A23F0004150EA050220D073
:1005600054EA01021DD0C5F30A570246C5F313032E
:10057000C1F31300C1F30A5640F4801543F480130D
:10058000A7EB0608101BD64608F2FD3873EB0500F2
:1005900002D308F1010801E092185B41B8F1000FA5
:1005A00003DA00200146BDE8F08D00204FF48011F1
:1005B000064684460EE0171B73EB050705D3121B96
:1005C00063EB050306434CEA010C49084FEA30008F
:1005D00092185B4150EA0107EDD152EA030012D0B4
:1005E00082EA040083EA0501084305D0101BAB41F1
:1005F00006D20122002306E000224FF0004302E071
:100600006FF0010253101AEB06004CEB085110EB8F
:100610000A0041EB0B01BDE8F04D00F082B8C1F3D8
:100620000A52C1F3130140F2FF3341F480119A42A0
:1006300002DA00200146704740F233439A42A2F2A8
:10064000334202DC524200F03CB800F02BB800000C
:1006500030B5041E71F1000404DB4FF00044404249
:1006600064EB0101141E73F1000405DB1C464FF01E
:100670000043524263EB0403994208BF904230BDED
:10068000064C074D06E0E06840F0010394E80700DF
:1006900098471034AC42F6D3FFF72CFDD036000853
:1006A000F0360008202A04DB203A00FA02F100208C
:1006B00070479140C2F1200320FA03F319439040A0
:1006C0007047202A04DB203A21FA02F0002170470B
:1006D00021FA02F3D040C2F12002914008431946AA
:1006E0007047202A06DBCB17203A41FA02F043EA92
:1006F000E07306E041FA02F3D040C2F120029140DB
:100700000843194670473A2800D2303820F02002BA
:10071000412A01D3A2F13700884201D34FF0FF30C4
:10072000704710B5141E73F1000408DA401C41F143
:10073000000192185B411A4301D120F0010010BD65
:100740002DE9F04D92469B4611B1B1FA81F202E0DB
:10075000B0FA80F220329046FFF7A4FF04460F461D
:1007600040EA0A0041EA0B0153465A46084313D0B7
:10077000114653EA010019D0C8F140025046FFF774
:10078000A0FF05460E46504659464246FFF78AFFEF
:10079000084305D0012004E020463946BDE8F08D2D
:1007A0000020054346EAE0762C4337430A98630568
:1007B000E40AA0EB08000022FD0A44EA47540A308C
:1007C00002D500200146E9E7010510196941DDE97C
:1007D000084500196941BDE8F04DA2E7FEE70000B9
:1007E00040F2E810C2F2000000F084B840F2A41019
:1007F000C2F2000000F07EB870470000EFF31080F6
:1008000072B600BFFEE70000014690F82100022802
:1008100013D10868D1E90FC3026822F00E0202600A
:10082000026822F001020260012000FA03F2CCF813
:10083000042081F82100002002E0042088630120C8
:10084000002281F82020704780B590F821100229FD
:1008500023D10268116821F00E0111602F21136865
:10086000C4F202018A4240F20401C4F2020123F000
:100870000103136015DD3023C4F202039A421CD039
:100880004423C4F202039A421AD05823C4F202034A
:100890009A421AD14FF480331FE004218163012072
:1008A00080BD0823C4F202039A420CD01C23C4F278
:1008B00002039A4209D110230FE04FF480730CE039
:1008C0004FF4805309E0012307E001F1680C4FF079
:1008D0008073624508BF4FF480130B60012180F8DC
:1008E0002110426B002180F820100AB190470021AE
:1008F000084680BD10B5D0E90FCE0168DCF80030A5
:100900000A6823FA0EF35C0724D512F0040421D000
:100910000A68920603D40A6822F004020A602F22B1
:10092000C4F20202914240F20402C4F2020253DD18
:100930003023C4F20203994266D04423C4F2020376
:10094000994264D05823C4F20203994264D14FF40F
:10095000802369E09C0727D512F0020424D00A689E
:10096000920606D40A6822F00A020A60012280F880
:1009700021202F22C4F20202914240F20402C4F26A
:10098000020235DD3023C4F20203994252D04423DF
:10099000C4F20203994250D05823C4F20203994290
:1009A00050D14FF4003355E01B075AD512F008021E
:1009B00008BF10BD0A6822F00E020A60012101FA88
:1009C0000EF2CCF80420816380F82110016B002224
:1009D00080F8202059BB44E00823C4F20203994266
:1009E00018D01C23C4F20203994215D140231BE006
:1009F0000823C4F20203994222D01C23C4F202034A
:100A000099421FD1202325E04FF480630CE04FF47E
:100A1000804309E0042307E002F168044FF080639B
:100A2000A14208BF4FF480031360C16AC9B1BDE899
:100A3000104008474FF400730CE04FF4005309E0F6
:100A4000022307E002F168044FF00073A14208BFDF
:100A50004FF400131360816A0022002980F82020DF
:100A6000E5D110BD014600284FF0010008BF7047D6
:100A70002DE9F043D1F800C04FF6F873CBF6FD73C3
:100A80004CF6CD426344CCF6CC42A3FB02236FF07C
:100A9000030707EA93030027C4F2020701F10C09D8
:100AA000C1E90F730223D1E9012E99E87002D1F850
:100AB0001C8081F82130DCF8003043F6F077BB432E
:100AC0001A4342EA0E0222432A43324342EA09020F
:100AD00042EA0802CCF8002000228A6381F8210053
:100AE00081F820200020BDE8F0437047B0B50446EF
:100AF00000F01CF9054640F20900C2F2000000783F
:100B0000611C18BF044400BF00F010F9401BA04254
:100B1000FAD3B0BD2DE9F04F82B00E68002E00F080
:100B2000F68041F20042C4F20102042340F2004E7A
:100B3000904208BF03234FF6FF7CC4F2010E0093DE
:100B400000240123C1F2100C4FF0000A4FF00009FD
:100B500043E0012704F00C030F229A402BEA020223
:100B600007FA03F34FEA9A051A4346F825204E6820
:100B700040F20C45F202DEF8082054BF22EA0802D7
:100B800042EA0802C4F20105CEF808202A68B3023E
:100B900054BF22EA080242EA08022A60B303DEF8E0
:100BA000042054BF22EA080242EA0802F303CEF806
:100BB0000420DEF800204FF0010354BF22EA0802AF
:100BC00042EA0802CEF800200E680AF1010A36FA5D
:100BD0000AF204F1040400F09A8003FA0AFB16EA10
:100BE0000B08F1D04E68664510DC122E50D8DFE8B5
:100BF00006F0330A41454F4F4F4F4F4F4F4F4F4F26
:100C00004F4F4F484C00D1F80C9041E04FF6FF7227
:100C1000C1F2210296420FDC0022C1F2110296427B
:100C20001AD00022C1F21202964215D00022C1F25F
:100C30002102964210D02BE00022C1F222029642FD
:100C40000AD00022C1F23102964205D00022C1F240
:100C5000320296421CD100BF8A6842B1012A14BFF9
:100C6000C0F814B0C0F810B04FF0080910E04FF011
:100C700004090DE0CA6802F1080909E04FF0000913
:100C800006E0CA6802F1040902E0CA6802F10C0930
:100C900022460646B8F5807F24BF203A04363768DE
:100CA0000F25954027EA050509FA02F22A4332602A
:100CB000CA79D2067FF588AF41F21803C4F2020365
:100CC0001A68AEF57E7642F001021A601A6802F0E8
:100CD00001020192019A2AF0030256F802B040F68E
:100CE0000002C4F2010290420FD040F60042C4F26A
:100CF000010290423FF42DAF41F20002C4F2010222
:100D0000009F904208BF022724E7002722E702B095
:100D1000BDE8F08F8068084018BF012070470000D0
:100D2000002A08BF090401617047000040F628301E
:100D3000C2F200000068704740F2090040F6283116
:100D4000C2F20000C2F2000100780A681044086094
:100D50007047000080B542F20000C4F20200016852
:100D600041F010010160032000F03EF90F2000F077
:100D700005F800F055F8002080BD0000B0B586B041
:100D800041F21801C4F202010A68044642F400620A
:100D90000A60096801A801F400610191019969469E
:100DA00000F010FA00F044FA4DF68361C4F21B31F2
:100DB000A0FB01014FF0FF3000EB914140F22C20ED
:100DC00042F60042C2F20000C4F2010240F2E733F0
:100DD0000025C0E90021C0E902530561856100F0EA
:100DE000D7FB0546C0B940F22C20C2F2000000F04B
:100DF0003DFC054680B9192000F0BAF80F2C0AD83E
:100E000019202146002200F0C3F840F20C00C2F283
:100E10000000046000E00125284606B0B0BD0000D7
:100E200080B582B041F21800C4F2020001680022CD
:100E300041F001010160016801F001010191019996
:100E4000416841F08051416040680F2100F08050BE
:100E5000009000986FF0010000F09AF80420C4F2AE
:100E600001000168022262F31A61016002B080BDD4
:100E7000002804BF0120704770B5044690F8410077
:100E800015460E4628B9002084F84000204600F0A0
:100E900073FE242084F841002068D4E90212C3685C
:100EA00023F40053C360036923F440531A430261DF
:100EB000D4E904231143C268194341F20C639A43F5
:100EC0001143C1604169A26921F44071114343F6A5
:100ED0000002C4F201029042416102D000F094F994
:100EE00001E000F0A5F96268192148439100B0FBC8
:100EF000F1F048F21F51C5F2EB11A0FB01235A0992
:100F00004FF69C73C0F6FF7302FB0300322303EB22
:100F10000010A0FB0101F02303EA5113206803EB4A
:100F20000212C1F3431111448160016921F490411F
:100F30000161416921F02A014161016921F00F013C
:100F40000161016931430161C16821F40061C1603F
:100F5000C1682943C160C16841F40051C1600020EB
:100F60002021606484F8411084F84210606370BDF1
:100F7000002848BF704700F01F01012202FA01F16A
:100F80004EF200124009CEF2000242F820107047E3
:100F900010B54EF60C5CCEF2000CDCF80030C3F35A
:100FA000022E8EF00704042C28BF0424BEF1030394
:100FB0004FF0FF3E0EFA04F438BF0023A1439940DE
:100FC0000EFA03F39A43114300F1604200F00F035D
:100FD000090102F56442043B6344002848BF03F161
:100FE0000C02117010BD00004EF60C51CEF2000143
:100FF0000A684FF6FF031A4060F30A2242F080604D
:1010000040F0FD70086070472DE9F04381B0002882
:1010100000F0858042F20008C4F202080446D8F8C5
:1010200000000D4600F0070088420CD2D8F80000FE
:1010300020F007002843C8F80000D8F8000000F0AE
:101040000700A8426BD1206841F204098107C4F26D
:10105000020917D5410705D5D9F8001041F4E06120
:10106000C9F80010010705D5D9F8001041F4605106
:10107000C9F80010D9F80010A26821F0F00111435E
:10108000C9F80010C00741D1D8F8000000F00700EF
:10109000A8420CD9D8F8000020F007002843C8F86F
:1010A0000000D8F8000000F00700A84237D12068FF
:1010B000410707D5D9F80010E26821F4E061114337
:1010C000C9F80010000708D5D9F80000216920F4FC
:1010D000605040EAC100C9F80000D9F8002002F0D1
:1010E0000C00082841F20020C0F27A004ED143F2F1
:1010F000DA53C2F38341C0F60003595CD20339D4FA
:1011000040F60010C0F23D0048433FE0606802280E
:1011100009D0012829D159F8041C890307D40120DA
:1011200001B0BDE8F08359F8041C8901F7D5D9F85E
:10113000001021F003010843C9F80000FFF7F6FD95
:10114000064641F2883700BFD9F80000616800F018
:101150000C00B0EB810F97D0FFF7E8FD801BB84281
:10116000F2D9032001B0BDE8F08359F8041C8907C7
:10117000D5D5DCE7D9F8002043F2D853C2F340427A
:10118000C0F600039A5C4843B0FBF2F0D9F80010B7
:1011900043F2C052C1F30311C0F60002515C40F2A9
:1011A000040220FA01F140F20C00C2F200000068D3
:1011B000C2F200021160FFF7E1FD002001B0BDE8BE
:1011C000F08300000F22026041F20402C4F2020226
:1011D000136803F003034360136803F0F0038360B4
:1011E000136803F4E063C36012684FF4E06303EA3A
:1011F000D202026142F20000C4F20200006800F074
:10120000070008607047000040F2040041F204014A
:10121000C2F20000C4F202010068096843F2D05231
:10122000C1F30221C0F60002515CC84070470000C3
:1012300040F2040041F20401C2F20000C4F20201D3
:101240000068096843F2D052C1F3C221C0F600021F
:10125000515CC840704700002DE9F04182B0002881
:1012600000F0D7800446007841F20006C007C4F2BF
:10127000020644D0706800F00C00042817D0706893
:1012800000F00C00082802D17068C0030FD4656814
:101290002DB1B5F5A02F10D0B5F5803F11D0306835
:1012A00020F480303060306820F480200CE030681A
:1012B000800324D5606810BBABE0306840F4802028
:1012C0003060306840F480303060FFF72FFD002D33
:1012D000054611D03068800311D4FFF727FD401B6D
:1012E0006428F7D916E100BFFFF720FD401B6428F2
:1012F0004FF0030000F28A8030688003F4D4207835
:10130000800718D5706810F00C0F07D0706800F0D7
:101310000C00082827D17068C00324D430688007E7
:1013200002D52069012874D13068616920F0F80085
:1013300040EAC1003060207800074FD5A06940B373
:101340000020C4F242200121C0F88014FFF7EEFC17
:10135000054600BF706A80072DD4FFF7E7FC401BED
:101360000228F7D9D6E02069002840F20000C4F234
:10137000422000F0A68001210160FFF7D7FC05465E
:1013800030688007D0D4FFF7D1FC401B0228F7D982
:10139000C0E00020C4F242200021C0F88014FFF712
:1013A000C5FC0546706A800718D5FFF7BFFC401BD7
:1013B0000228F7D9AEE040F20400C2F20000006853
:1013C00044F6D351C1F26201A0FB0101480A019029
:1013D00000BF0198411E00280191F9D120784007F3
:1013E0001BD4E5698DB1706800F00C00082846D167
:1013F000012D0ED07068216A00F480328A4208D133
:10140000616A00F47010884203D1002002B0BDE888
:10141000F081012002B0BDE8F081F06910F0805841
:1014200008D1F06940F08050F061F06900F0805020
:101430000090009847F20007C4F200073868C00522
:101440000FD4386840F480703860FFF76FFC0546B1
:101450003868C00505D4FFF769FC401B6428F7D93C
:1014600058E0E5681DB1052D3CD0012D3ED0306A15
:1014700020F001003062306A20F0040039E00027DB
:10148000C4F2422700203866FFF750FC022D0546C3
:101490000CD100BF3068800154D5FFF747FC401BDA
:1014A00002284FF00300F5D9B0E700BF3068800193
:1014B000ABD5FFF73BFC401B02284FF00300F5D9EA
:1014C000A4E700210160FFF731FC05463068800782
:1014D0007FF531AFFFF72AFC401B02284FF00300D5
:1014E000F4D993E7306A40F004003062306A40F08B
:1014F00001003062FFF71AFC002D054641F28837E3
:1015000014D000BF306A800713D4FFF70FFC401BD4
:10151000B842F7D9032002B0BDE8F081FFF706FC1E
:10152000401BB8424FF003003FF670AF306A8007AF
:10153000F4D4B8F1000F7FF454AFF06920F080507C
:10154000F0614EE7206AB0F5803F05D17168A2686E
:1015500021F40031114371607168626A21F47411E1
:1015600011430843706001203866FFF7DFFB044633
:10157000306880013FF549AFFFF7D8FB001B022818
:101580004FF00300F4D941E77047000070470000B6
:10159000002804BF0120704710B5044690F83D00B4
:1015A00028B9002084F83C00204600F05DF80220B5
:1015B00084F83D00206840F2FF730268C4F2000323
:1015C00042F6004C9842C4F2010C05DCB0F1804FA9
:1015D0000AD040F2004103E0604505D040F600012A
:1015E000C4F20001884203D1A16822F070020A43CC
:1015F000984205DCB0F1804F0AD040F2004103E090
:10160000604505D040F60001C4F20001884203D1D4
:10161000216922F440720A43A36922F08001D4F8C0
:1016200004E0E268194360450160C262C0F828E046
:1016300002D16169CCF8301001214161002084F8A9
:10164000461084F83E1084F83F1084F8401084F867
:10165000411084F8421084F8431084F8441084F850
:10166000451084F83D1010BD7047000090F83D1003
:1016700001291CBF01207047022180F83D1000683D
:1016800040F2FF72C168C4F20002904241F00101D1
:10169000C16005DCB0F1804F0ED040F2004107E0A0
:1016A00042F60041C4F20101884205D040F6000133
:1016B000C4F20001884206D1816801F007010629C1
:1016C00004BF00207047016841F001010160002063
:1016D000704700007047000010B5044600680169BB
:1016E000890744BFC1685FEA81713FD420680169FE
:1016F000490744BFC1685FEA417143D4206801696A
:10170000090744BFC1685FEA017148D420680169D4
:10171000C90644BFC1685FEAC1614CD42068016951
:10172000C9071CBFC1685FEAC17151D12068016956
:10173000090644BFC1685FEA016150D420680169AD
:10174000490644BFC1685FEA41614FD42168086916
:10175000800646BFC8685FEA806010BD6FF0200257
:1017600020460A61BDE81040FFF710BF6FF002018C
:10177000016101212177806980073ED02046FFF773
:10178000A9FF40E06FF00401016102212177806927
:1017900010F4407F3AD02046FFF79CFF3CE06FF00A
:1017A0000801016104212177C069800737D02046F4
:1017B000FFF790FF39E06FF01001016108212177F8
:1017C000C06910F4407F33D02046FFF783FF35E037
:1017D0006FF001010161204600F038F8A6E76FF0D4
:1017E000800101612046FFF7CFFEA7E76FF04001BF
:1017F0000161204600F034F8A8E7204600F022F806
:10180000204600F021F8002020776FE7204600F006
:1018100019F8204600F018F8002020776EE72046DF
:1018200000F010F8204600F00FF8002020776DE758
:10183000204600F007F8204600F006F80020207748
:101840006CE700007047000070470000006842F637
:101850000041C4F20101884218BF7047FFF76CBA1B
:10186000704700007047000070470000B0B582B0BC
:10187000044600680168C368426901F02F05202D05
:1018800003F0200506D12DB1204602B0BDE8B040DE
:1018900000F08EBB5FEA017C1EBF02F0010E03F474
:1018A000907212EB0E0253D1226B012A05D111F076
:1018B000100218BF13F0100236D10A0622D513F019
:1018C00080021FD094F8411021293FD1A168B1F5C1
:1018D000805F03D12169002900F04581216A4A1CFB
:1018E000226209784160E18C01390A04E1842DD13A
:1018F000C16821F08001C160C16841F04001C16050
:1019000002B0B0BD490621D513F040011ED0C16818
:1019100021F04001C1602021204684F8411002B02E
:10192000BDE8B04000F05ABA002101910168019170
:101930004168019101994069400611D4A08DE18D63
:10194000E28D002A18BF884240F0DF8002B0B0BDAF
:10195000C80718BF13F4807049D148074DD453E02D
:10196000E06B016849688AB2002AEFD0A38D9A42E1
:10197000ECD2E1858069202831D000BF206850E892
:10198000030F216820F4807041E80302002AF5D19A
:10199000206850E8050F216820F0010041E80502A9
:1019A000002AF5D1206850E8050F216820F040009A
:1019B00041E80502002AF5D1202084F842000020E9
:1019C000206300BF206850E8030F216820F010005A
:1019D00041E80302002AF5D1E06BFEF715FF022073
:1019E0006063A08DE18D401A81B22046B6E0606C44
:1019F00040F001006064480706D5BEF1000F03D037
:101A0000606C40F002006064880706D5BEF1000FEC
:101A100003D0606C40F004006064BCF1000F09D595
:101A200045EA0E00B0FA80F0400903D1606C40F046
:101A300008006064606C00283FF488AF11F020005B
:101A400018BF002D02D0204600F0B2FA206840698D
:101A5000616C00F0400001F00801401848D000BF60
:101A6000206850E8030F216820F4907041E80302D9
:101A7000002AF5D1206850E8050F216820F0010008
:101A800041E80502002AF5D1206B01280AD100BFE8
:101A9000206850E8030F216820F0100041E803029D
:101AA000002AF5D1202084F842000020206320681D
:101AB0004069400623D500BF206850E8050F216823
:101AC00020F0400041E80502002AF5D1E06BB0B1FA
:101AD00041F6A571C0F600014163FEF7B5FE00288E
:101AE0003FF434AFE06B416B02B0BDE8B040084753
:101AF0002046FFF7B9FE0020606402B0B0BD20466A
:101B000002B0BDE8B040FFF7AFBE401A216851E80F
:101B1000031F226821F4907142E80313002BF5D1D2
:101B2000216851E8051F226821F0010142E80513F0
:101B3000002BF5D1202184F842100021216300BF41
:101B4000216851E8031F226821F0100142E80313C5
:101B5000002BF5D1022281B22046626302B0BDE8BB
:101B6000B040FFF77FBE216A31F8022B6FF35F228E
:101B700042602162B7E600002DE9F04186B040F6F0
:101B800000050446C4F20105006805F54051002730
:101B900088420597CDE90377029702D006B0BDE8E9
:101BA000F08141F21800C4F20200016802AE41F473
:101BB00080410160016840F2440801F480410191D4
:101BC00001990168C4F2020841F004010160006853
:101BD000314600F00400019001984FF4007002902B
:101BE00002200390032005902846FEF793FF4FF450
:101BF0008060CDE90207284631460497FEF78AFF48
:101C000040F2E815C2F2000510208026C5E90080E8
:101C10002846C5E90276C5E90477C5E90677FEF7E7
:101C200021FF002818BFFEF7E9FDA5636C6240F2B2
:101C3000A41508F11400C2F200050021C5E9000155
:101C40002846C5E90216C5E90411C5E90611FEF7E3
:101C500009FF002818BFFEF7D1FD25200E21002224
:101C6000E5636C62FFF794F92520FFF781F906B070
:101C7000BDE8F081704700002DE9F04381B00446D3
:101C800090F8410020281DD10D4600294FF0010099
:101C900000F0A1801646002A00F09D8000206064BC
:101CA0002120984684F84100FFF740F8A684E68496
:101CB000A1688146B1F5805F01D1206930B12F461E
:101CC000002504E0022001B0BDE8F0830027E08C8D
:101CD000002842D008F101060AE000BF97B117F8CA
:101CE000010B21684860E08C0138E084E08CA0B3EF
:101CF000206800680006F1D4BEB1B8F1000F0ED123
:101D000016E000BF35F8020B21686FF35F204860D2
:101D10000027E8E701680906E0D4002EFAD0FFF7B3
:101D200005F8A0EB0900404502D82068F2E700BFA3
:101D3000206850E8030F216820F4D07041E80302C6
:101D4000002AF5D1206850E8050F216820F0010035
:101D500041E80502002AF5D10AE020680068400643
:101D600035D4B8F1000F1DD018F101050CD012E0E8
:101D7000202084F8410084F84200002084F84000CC
:101D8000032001B0BDE8F083206800BF0168490668
:101D90001DD4002DFAD0FEF7C9FFA0EB0900404585
:101DA000F2D900BF206850E8030F216820F4D070FA
:101DB00041E80302002AF5D1206850E8050F2168A8
:101DC00020F0010041E80502002AF5D1D0E72020EB
:101DD00084F84100002001B0BDE8F08370470000A6
:101DE000FEE7000080B582B041F21400C4F20200A8
:101DF0000168002241F00101016000680E2100F03D
:101E00000100019001980E20FFF7C2F80E20FFF7A5
:101E1000AFF80F200E210022FFF7BAF80F2002B012
:101E2000BDE88040FFF7A4B8F0B585B0002541F2C9
:101E30001800CDE90355CDE90155C4F2020001684F
:101E400041F2000441F0100101600168C4F2010494
:101E500001F01001009100990168012241F0200178
:101E6000016001684FF4005601F0200100910099D3
:101E70000168012741F00401016000684FF400513E
:101E800000F00400009000982046FEF749FF032070
:101E9000049001A92046CDE901670395FEF73AFEBB
:101EA00005B0F0BD80B540F2742043F60001C2F2E7
:101EB0000000C4F201014FF4E13200234FF00C0C9A
:101EC00080E80E0000210022C0E90333C0E905C309
:101ED000C361FEF7CDFF002808BF80BDBDE880408C
:101EE000FEF78CBCFEE70000FEE7000000000000EB
:101EF000EFF30980BFF36F8F0D4B1A6820E9F00FE5
:101F000010602DE908404FF0500080F3118800F078
:101F100075FD4FF0000080F31188BDE80840196896
:101F20000868B0E8F00F80F30988BFF36F8F70473F
:101F3000BC020020000000000000000000000000C3
:101F4000074B19680868B0E8F00F80F30988BFF301
:101F50006F8F4FF0000080F311884EF00D0E704728
:101F6000BC02002080B54FF0500080F31188BFF311
:101F70006F8FBFF34F8F00F08FFD30B14EF60450DE
:101F8000CEF200004FF080510160002080F31188F4
:101F900080BD00007047000040F22C20C2F200001B
:101FA000FFF79ABB406A0021C185C184FFF75CBC82
:101FB00081B090F8421022291DD18268B2F5805F6D
:101FC00002D10169002948D0816AB2F5805F07D04B
:101FD0000AB9026922B10268526802F07F0201E088
:101FE000026852680A70816A01318162C18D0139CB
:101FF0000A04C18501D001B070470168CA6822F0A7
:102000002002CA60CA6822F48072CA604A6922F05B
:1020100001024A61202180F8421000214163026BD5
:10202000012A23D1016300BF016851E8031F026840
:1020300021F0100142E80313002BF5D101680A6872
:10204000D20606D5002200920A68009249680091E3
:102050000099818D01B0FFF705BC0168826A49686B
:102060006FF35F2122F8021B8262BFE701B0FFF726
:1020700001BE000040F27420C2F20000FFF7F6BB80
:10208000FEE70000FEE70000B0B50546002843F279
:10209000BB600C46C0F6000008D043F2A063C0F657
:1020A00000030421712200F079F809E043F28E6305
:1020B000C0F600030021712200F070F8FFF7E2FF84
:1020C000E86843F2FC528069C0F6000210F9021B76
:1020D00002EB81014FF6FC62CFF6FF728D580021B2
:1020E0000A22FEF741F880B2012101FA00F081B224
:1020F0002846FEF70FFE014600284FF0010018BFEA
:1021000001212170B0BD0000B0B584B0044660B1BB
:1021100043F2BB6043F2A063C0F60000C0F60003C8
:102120000421262200F03AF80DE043F2BB6043F2AE
:102130008E63C0F60000C0F600030021262200F0E6
:102140002DF8FFF79FFFE06843F2FC528069C0F66C
:10215000000210F9021B002502EB81014FF6FC6220
:10216000CFF6FF728C5800210A22FDF7FDFF80B2E6
:10217000012101FA00F0CDE9011585B20320039099
:10218000694620460095FEF7C5FC204629460022F8
:10219000FEF7C6FD012004B0B0BD0000F0B581B06F
:1021A000164640F20802C2F2000212788A4230D388
:1021B00040F22874C2F200040F46014620461D4634
:1021C000FDF7C9FFFDF7C0FF13A151F82710204408
:1021D000FDF7C1FF2046FDF7B7FF204413A13246AB
:1021E00000F012FD06A800902046FDF7ADFF009A12
:1021F0002044294600F01CFD2046FDF7A5FF82B2D1
:1022000040F27420C2F2000021464FF47A73FFF7C7
:1022100033FD01B0F0BD00BF763600081636000869
:102220005E3600082E360008463600084C696E659A
:102230002025643A0000000070B584B005460028EF
:1022400043F2BB600C46C0F6000008D043F2A06326
:10225000C0F6000304213A22FFF7A0FF09E043F291
:102260008E63C0F6000300213A22FFF797FFFFF7C5
:1022700009FF43F2BB60C0F60000052C08D243F210
:10228000A063C0F6000304213B22FFF787FF09E0AB
:1022900043F28E63C0F6000300213B22FFF77EFF6E
:1022A000FFF7F0FEE86843F2FC528069C0F60002D6
:1022B00010F9021B002602EB81014FF6FC62CFF6FB
:1022C000FF728D5800210A22FDF74EFF042C039661
:1022D000CDE90166009608D861B20BA20FA352F8AF
:1022E000212053F82110CDE9012180B2012101FA0A
:1022F00000F080B200900320039069462846FEF764
:1023000009FC012004B070BD0000000000000000C6
:1023100000000000010000001100000000000000AB
:1023200001000000020000000000000001000000A9
:10233000B0B50546002843F2BB600C46C0F600006D
:1023400008D043F2A063C0F6000304216422FFF723
:1023500025FF09E043F28E63C0F6000300216422EA
:10236000FFF71CFFFFF78EFEE86843F2FC5280691E
:10237000C0F6000210F9021B02EB81014FF6FC626D
:10238000CFF6FF728D5800210A22FDF7EDFE80B2D4
:10239000012101FA00F081B228462246FEF7C0FC76
:1023A0000120B0BDB0B50446002843F2B2600D462E
:1023B000C0F6000008D043F2A063C0F60003042179
:1023C0001022FFF7EBFE09E043F28E63C0F6000334
:1023D00000211022FFF7E2FEFFF754FE43F2B26045
:1023E000C0F6000045B143F2A063C0F6000304212B
:1023F0001122FFF7D3FE09E043F28E63C0F600031B
:1024000000211122FFF7CAFEFFF73CFE286860B1E9
:1024100043F2B26043F2A063C0F60000C0F60003CE
:1024200004211222FFF7BAFE0DE043F2B26043F23C
:102430008E63C0F60000C0F6000300211222FFF7F1
:10244000ADFEFFF71FFED5E9000140F21005C2F214
:1024500000052A88206043F2B260642AC0F60000BA
:10246000616008D243F2A063C0F600030421202279
:10247000FFF794FE09E043F28E63C0F600030021EB
:102480002022FFF78BFEFFF7FDFD2888411C2980E5
:1024900040F21401C2F2000141F82040B0BD00003A
:1024A000F0B581B00546002843F2BB6014460E46E5
:1024B000C0F6000008D043F2A063C0F60003042178
:1024C0001B22FFF76BFE09E043F28E63C0F60003A8
:1024D00000211B22FFF762FEFFF7D4FD43F2BB6031
:1024E000C0F6000046B143F2A063C0F60003042129
:1024F0001C22FFF753FE09E043F28E63C0F600038F
:1025000000211C22FFF74AFEFFF7BCFD2046FDF725
:102510001BFE042811D160782E280ED12078413876
:1025200005280AD8A07800273038092806D8E0788E
:1025300030380A2838BF012700E00027A01C0021FE
:102540000A22FDF711FE4FF6F07108420DD167B176
:1025500043F2BB6043F2A063C0F60000C0F6000384
:1025600004211D22FFF71AFE0DE043F2BB6043F287
:102570008E63C0F60000C0F6000300211D22FFF7A5
:102580000DFEFFF77FFD94F9000043F2FC51C0F609
:10259000000101EB80004FF6FC61CFF6FF7140585F
:1025A000A0F18040A0F584304FEAB020042849D83B
:1025B000DFE800F003111F2D3B0041F21800C4F2C8
:1025C0000200016841F004010160006800F00400AD
:1025D0000090009836E041F21800C4F20200016851
:1025E00041F008010160006800F0080000900098C8
:1025F00028E041F21800C4F20200016841F0100125
:102600000160006800F01000009000981AE041F2AC
:102610001800C4F20200016841F020010160006866
:1026200000F02000009000980CE041F21800C4F285
:102630000200016841F040010160006800F04000C4
:102640000090009843F2EC52C0F600022846314652
:102650002B46AC6101B0BDE8F04000F001B80000CD
:10266000F0B583B00446002843F2C5601E46154607
:102670000F46C0F6000008D043F2A063C0F6000386
:1026800004210B22FFF78AFD09E043F28E63C0F6B6
:10269000000300210B22FFF781FDFFF7F3FC43F25B
:1026A000C560C0F6000047B143F2A063C0F6000366
:1026B00004210C22FFF772FD09E043F28E63C0F69D
:1026C000000300210C22FFF769FDFFF7DBFC43F25A
:1026D000C560C0F6000045B143F2A063C0F6000338
:1026E00004210D22FFF75AFD09E043F28E63C0F684
:1026F000000300210D22FFF751FDFFF7C3FC40F658
:102700000120ADF8080001A920460197FFF74AFE15
:1027100000202968C4E90206204625618847052073
:10272000207503B0F0BD0000B0B50446002843F2A8
:10273000C5600D46C0F6000008D043F2A063C0F6A5
:10274000000304211F22FFF729FD09E043F28E63F5
:10275000C0F6000300211F22FFF720FDFFF792FCC7
:1027600043F2C560C0F60000052D08D243F2A06315
:10277000C0F6000304212022FFF710FD09E043F218
:102780008E63C0F6000300212022FFF707FDFFF74C
:1027900079FC207DA84208BFB0BD20692946426867
:1027A000204690472575B0BDB0B50446002843F2D9
:1027B000C5600D46C0F6000008D043F2A063C0F625
:1027C000000304212D22FFF7E9FC09E043F28E63A8
:1027D000C0F6000300212D22FFF7E0FCFFF752FCBA
:1027E000207D05280CD243F2C56043F2A063C0F6F9
:1027F0000000C0F6000304212E22FFF7CFFC0DE0FD
:1028000043F2C56043F28E63C0F60000C0F60003D9
:1028100000212E22FFF7C2FCFFF734FC607DA842A6
:1028200008BFB0BD207D032807D3206929468268F0
:1028300020469047002818BF6575B0BD80B582B0AE
:10284000844604280FD840F20800C2F2000080F845
:1028500000C043F21060C0F6000015A3042123223B
:10286000CDF800C00AE00420009043F21060C0F6EA
:10287000000004A300212622CDF804C0FFF78EFC3F
:1028800002B080BD6C6F67206D6178206C657665E5
:102890006C2069732025642C6E6F7720796F7572B8
:1028A0002076616C75652069732025640D0A00002F
:1028B0006C6F67206E6F77206C6576656C2069732E
:1028C0002025640D0A00000090B0FEF743FA06AC24
:1028D00020462821FDF72DFC012006900A904FF498
:1028E000E01000254FF4803102260F902046059518
:1028F000CDE90355CDE90155CDE90715CDE90D61C8
:10290000FEF7AAFC18B1EFF3108072B6FEE70F20B5
:10291000CDE901064FF48060CDE9040501A802214C
:102920000395FEF771FB20B1EFF3108072B600BF84
:10293000FEE7FFF779FAFFF755FAFFF7B3FA04203D
:10294000FFF77CFF12A014A304216822FFF726FCE6
:102950000120FFF773FF06AC14A116A22046FFF773
:102960009FFD20460321FFF7DFFE00BF2046012127
:10297000FFF71AFF4FF47A70FEF7B8F820460021EF
:10298000FFF712FF4FF47A70FEF7B0F8EEE700BFE2
:102990006D61696E2E6300006173736572742073DC
:1029A000756363657373210D0A00000070696E5FC3
:1029B0006C656400432E313300000000D0E9013221
:1029C00001699A60D1F804C082688445536008BFE9
:1029D0004A60002202610868013808600868704790
:1029E000D0F800C0436808619A684B608A609A68B2
:1029F000996051600CF101010160704740F6303080
:102A0000C2F20000006830B140F64430C2F200006B
:102A100001210160704740F64430C2F200000021FD
:102A200040F6343C0160C2F2000CDCF8001040F2C9
:102A3000C82201EB8103C2F2000252F8230048B918
:102A400002EB8300A0F11403D9B153F81409013942
:102A50000028F9D001EB810002EB800252F8040F4C
:102A60004368101D8342136001D1586810601068DC
:102A700040F2BC22C068C2F200021060CCF8001024
:102A800070474FF0500080F31188BFF36F8FBFF392
:102A90004F8F00BFFEE700002DE9F04F81B040F6F8
:102AA0003030C2F20000006840B140F62C30C2F273
:102AB0000000016800240131016098E040F64030D8
:102AC000C2F2000001684E1C06602ED340F2C02006
:102AD000C2F200000168096849B14FF0500080F36C
:102AE0001188BFF36F8FBFF34F8F00BFFEE740F237
:102AF000C422C2F20002016813680360116040F64C
:102B00003C31C2F200010A6801320A6001680968BA
:102B100021B10068C068C068406801E04FF0FF3034
:102B200040F63831C2F20001086040F63831C2F296
:102B30000001086840F2BC2A40F2C8288642C2F26E
:102B4000000AC2F2000801D2002446E040F2C02789
:102B5000C2F20007386800240068A0B340F6343B96
:102B6000C2F2000B1AE000BFD9F82C00DBF800100D
:102B7000884288BFCBF8000000EB800008EB8000A3
:102B80002946FFF72DFFD9F82C00DAF80010C96AA2
:102B90003A68884228BF01241068B8B13868C06814
:102BA000D0F80C904D4655F8040F864210D32846B5
:102BB000FFF704FFD9F828000028D5D009F1180044
:102BC000FFF7FCFED0E74FF0FF3005E04FF0FF309D
:102BD00040F63831C2F200010860DAF80000C06A3D
:102BE00000EB800058F82000012888BF012440F63F
:102BF0004430C2F200000068002818BF01242046BB
:102C000001B0BDE8F08F00000FB4084B10B504A967
:102C100002AA039800F0F4F8044602A9002000F08C
:102C200086FC204610BC5DF814FB00002F35000820
:102C300037B514460846064B6A46214600F0E0F8D0
:102C400004466946002000F072FC20463EBD0000AC
:102C50002F350008004870470000002002E008C837
:102C6000121F08C1002AFAD170477047002001E006
:102C700001C1121F002AFBD1704700002DE9FF5F40
:102C800082B00021DDE90430020DDDF840B00343DD
:102C900018D044F61050A2F2FF3242431514119896
:102CA00001281FD0A5EB0B00401C5FEA000A4FF083
:102CB00000064E4FDFF83891B046504615D5CAF1A0
:102CC000000413E0119801244AA3012801D16FEAFE
:102CD0000B010298119AC0E90031C0E9024206B026
:102CE000BDE8F09FCBF10000DFE704460021404A39
:102CF000491842EB0450CDE9001012E0E00707D07C
:102D000032463B4640464946FDF7A8FB8046894689
:102D100032463B4610461946FDF7A0FB06460F46D5
:102D20006410002CEAD1DDE90401DDE90023BAF1E9
:102D3000000F06DAFDF792FB42464B46FDF78EFB8D
:102D400005E0FDF7FDFB42464B46FDF7F9FB044667
:102D50000E460022284BFDF77BFC03D84FF0FF30D6
:102D6000014607E00022254B20463146FDF7CFFA09
:102D7000FDF755FC102409E0002C0ADB0A22002391
:102D8000FDF740FA039B30321A55641E50EA0102E7
:102D9000F2D1641C039AC4F111031444119A012A5C
:102DA00003D0012208430DD10AE0084304D00020DB
:102DB0004FF0110B119072E7A3EB0B056D1E0DE0A8
:102DC0005B4504DD4FF0000205F1010504E003DA84
:102DD0004FF00002A5F10105002AECD002981199EC
:102DE000C0E90231C0E9004579E700000000144065
:102DF0000000F03F300000000000F0430000E03F22
:102E00002DE9FF4F95B09B468946064600250FE207
:102E1000252877D100242746F84A0121059400E0AF
:102E2000044316F8013F203B01FA03F01042F7D1AA
:102E300030782A2811D06FF02F033078A0F13002BB
:102E4000092A16D8059A44F0020402EB820203EB29
:102E500042021044761C0590EFE759F8042B0592C6
:102E6000002A03DA504244F40054059044F002046E
:102E7000761C30782E2816D116F8010F44F0040481
:102E80002A280DD06FF02F023078A0F13003092BE3
:102E900009D807EB870302EB4303C718761CF3E757
:102EA00059F8047B761C30786C280FD006DC4C284F
:102EB00017D068280DD06A2814D104E0742810D0E7
:102EC0007A280FD10DE044F400140AE044F4801491
:102ED00001E044F440147278824202D104F5801477
:102EE000761C761C307866280BD013DC582877D0F7
:102EF00009DC002875D04528F6D04628F4D04728AC
:102F00001AD19DE118E0632835D0642879D065286E
:102F100012D195E1702873D008DC6728F1D06928B8
:102F20006FD06E280DD06F2806D1B5E073282CD055
:102F3000752875D0782874D05A46179990476D1C1B
:102F400075E1C4F30250022809D003280DD0D9F846
:102F5000001004280DD00D6009F1040967E1D9F8CB
:102F60000010EA17C1E90052F6E7D9F800100D8009
:102F7000F2E70D70F0E719F8041B8DF8001000203F
:102F80008DF80100EA46012003E059F804AB4FF048
:102F9000FF3061074FF0000102D40DE008F101019C
:102FA0008846B9420FDA8045F8DB1AF80810002984
:102FB000F4D108E008F1010188468142FADB1AF8F1
:102FC00008100029F6D105985B46A0EB08072146BA
:102FD0003846179A00F094FA284400EB080507E0F9
:102FE0004DE029E10DE01AF8010B5A461799904778
:102FF000B8F10108F7D25B4621463846179A13E12B
:1030000042E00A220092C4F302524FF0000A022A60
:1030100008D059F804CB032A4FEAEC710AD00DE02E
:1030200029E02AE009F1070121F00702F2E802C1D4
:10303000914609E00FFA8CFC4FEAEC71042A03D1A7
:103040004FFA8CFC4FEAEC71002907DA0A4600219E
:10305000DCF1000C61EB02012D2202E0220504D517
:103060002B228DF80420012203E0E20701D0202268
:10307000F7E7904659E00A2102E010220DE0102106
:103080004FF0000A00910BE010224FF0000A44F0CC
:1030900004040827009203E008224FF0000A00927F
:1030A000C4F30252022A05D059F804CB0021032AA6
:1030B00008D009E009F1070121F00702F2E802C196
:1030C000914605E01FFA8CFC042A01D10CF0FF0C9C
:1030D0004FF00008220728D5702806D0009B83F007
:1030E000100353EA0A0305D00EE040228DF80420B5
:1030F000012208E05CEA010206D030228DF80420AB
:103100008DF8050002229046009B83F0080353EAE5
:103110000A030AD15CEA010201D1620705D5302217
:103120008DF804204FF001087F1E582804D034A0E9
:1031300003900EA802900DE036A0F9E753466046D2
:10314000009AFDF75FF884460398825C0298401E5F
:10315000029002705CEA0100F0D1029806A9081AF8
:1031600000F1200A600702D524F4803400E0012732
:10317000574502DDA7EB0A0000E0002000EB0A0142
:10318000009005984144401A0590E00306D45B4640
:103190002146179A059800F0B3F90544002706E088
:1031A00001A85A46C05D179990476D1C7F1C474582
:1031B000F6DBE0030CD55B462146179A059800F034
:1031C0009FF9054404E030205A46179990476D1C3A
:1031D0000099481E00900029F5DC08E00298029949
:1031E0005A460078491C0291179990476D1CBAF114
:1031F0000001AAF1010AF1DC65E1000009280100E3
:10320000303132333435363738396162636465665C
:10321000000000003031323334353637383941421E
:10322000434445460000000000F058F90544761C70
:10323000307800287FF4ECAD19B02846BDE8F08F57
:10324000620700D4062709F1070222F0070CFCE808
:103250000223E14603F000485FEA080C02D00FF2B7
:10326000702C0DE05FEA045C02D50FF2682C07E0D9
:103270005FEAC47C02D00FF2602C01E0AFF2700C68
:103280004FF0FF3823F00043CDF850C065280CD034
:1032900006DC452809D046281DD047283DD13DE011
:1032A000662818D067287ED138E00021112F01DB75
:1032B000112000E0781CCDE9000106A90EA8FFF757
:1032C000DDFCDDE90F010E9A03910021009207F168
:1032D000010A04914DE04FF000400097CDE9011044
:1032E00006A90EA8FFF7CAFCDDE90F0203920E9BA8
:1032F00011990022DDF80CA00093049211B9791CF9
:1033000000EB010AB7EB0A0004D4C0F1FF3007F16B
:10331000010A0490AAEB0700019044E0012F00DAB3
:1033200001270021112F01DD112000E03846CDE9F1
:10333000000106A90EA8FFF7A1FCDDE90F010E9A16
:103340000391002104910092BA4621070CD40399FD
:10335000514500DA8A46BAF1010F05DD009AAAF15B
:103360000101515C302908D0B84202DA10F1040F93
:1033700006DA0121CDE9011015E0AAF10101E9E722
:10338000002805DC049901440491AAEB000102E045
:10339000411C514500DD8A460499401A401C0190A9
:1033A0004FF000400290200704D40198504501DB03
:1033B000CDF8048000208DF84F0002980DF14F07E2
:1033C000B0F1004F25D02B200E9002984FF002084C
:1033D00000280CDA404202902D200E9007E00A21CE
:1033E0000298FCF7F9FE3031029007F8011DB8F1A0
:1033F0000001A8F10108F2DC02980028EFD1791E43
:103400000E980870307800F0200040F0450007F872
:10341000020D12A8C01B00F107081498007800B133
:10342000012000EB0A01019801EBE071059841448D
:10343000401A401E0590E00306D45B462146179AC9
:10344000059800F05DF805441498007818B15A46C4
:10345000179990476D1CE00324D55B462146179AC7
:10346000059800F04DF805441CE00498002807DB9F
:10347000DDE90301884203DD0098405C179901E013
:10348000179930205A469047049805F10105401CD1
:1034900004900198401E019004D12E205A4617999D
:1034A00090476D1CBAF10001AAF1010ADDDC05E0CC
:1034B00017F8010B5A46179990476D1CB8F1000197
:1034C000A8F10108F4DC5B462146179A0598ABE6A3
:1034D0002D0000002B000000200000002DE9F0412D
:1034E000044600251E461746880404D405E03946E4
:1034F0002020B0476D1C641EF9D52846BDE8F08138
:103500002DE9F041044600251E469046C80301D52A
:10351000302700E02027880404D505E041463846DE
:10352000B0476D1C641EF9D52846BDE8F0810A68D5
:10353000531C0B60107070470040404040404040BA
:103540004040414141414140404040404040404076
:10355000404040404040404040050202020202021A
:103560000202020202020202022020202020202069
:10357000202020020202020202029090909090907D
:10358000101010101010101010101010101010103B
:1035900010101010020202020202888888888888AF
:1035A000080808080808080808080808080808089B
:1035B000080808080202020240000000393500082D
:1035C00000000000000000000102030406070809D3
:1035D00000000000010203040102020304050607C3
:1035E00008090A0B0C0D0E0F10100000092100082D
:1035F0003922000831230008892000080008014012
:10360000000C01400010014000140140001801406E
:103610006C6F672E63001B5B313B33333B34306D83
:10362000205B5761726E205D201B5B306D001B5B61
:10363000313B33343B34306D205B496E666F205D27
:10364000201B5B306D001B5B313B33373B34306DEF
:10365000205B54726163655D201B5B306D001B5BFA
:10366000313B33323B34306D205B44656275675DBE
:10367000201B5B306D001B5B313B33313B34306DC5
:10368000205B4572726F725D201B5B306D00617351
:1036900073657274206661696C757265210D0A002C
:1036A0006173736572742073756363657373210D41
:1036B0000A006465766963652E63006472765F70E4
:1036C000696E2E630068616C5F70696E2E63000026
:1036D000F036000800000020100000005C2C0008FC
:1036E0000037000810000020380F00006C2C000884
:1036F000000000000024F40002010000100000009F
:04000005080000ED02
:00000001FF
