:020000040800F2
:10000000383F002001010008251700086516000888
:100010002117000845030008B91800080000000077
:100020000000000000000000000000008117000830
:10003000490300080000000031170008A517000858
:100040001B0100081B0100081B0100081B01000820
:100050001B0100081B0100081B0100081B01000810
:100060001B0100081B0100081B0100081B01000800
:100070001B0100081B0100081B0100081B010008F0
:100080001B0100081B0100081B0100081B010008E0
:100090001B0100081B0100081B0100081B010008D0
:1000A0001B010008D91700081B0100081B010008EC
:1000B0001B0100081B0100081B0100081B010008B0
:1000C0001B0100081B0100081B0100081B010008A0
:1000D0001B010008B51800081B0100081B010008DF
:1000E0001B0100081B0100081B010008DFF80CD0F1
:1000F00000F016F900480047311C0008383F002086
:100100000648804706480047FEE7FEE7FEE7FEE7B1
:10011000FEE7FEE7FEE7FEE7FEE7FEE7D51700088D
:10012000ED00000840EA01039B0703D009E008C97D
:10013000121F08C0042AFAD203E011F8013B00F8AC
:10014000013B521EF9D27047D2B201E000F8012BF8
:10015000491EFBD270470022F6E710B513460A4647
:1001600004461946FFF7F0FF204610BD421C10F868
:10017000011B0029FBD1801A704710B5002200E056
:10018000521C835C8C5CA34201D1002BF8D1D8B205
:10019000E1B2401A10BD30B505460020034600E02C
:1001A0005B1C934205D2EC5CC85C201A01D1002C88
:1001B000F6D130BD80EA010210B502F000434000E4
:1001C00022D04A001FD0010E01EB1261C0F356008D
:1001D000C2F3560240F4000042F40002A0FB0220E9
:1001E00000047F39140400D0401C50EA124001D4AE
:1001F0004000491EC2B20C0604EBD010401C40085F
:10020000802A02D003E0002010BD20F00100002968
:1002100000DA0020184310BD30B480EA010202F079
:10022000004530F0004221F0004013D090B1C30DE2
:10023000D40DC2F31601C0F31600E41A41F4000114
:1002400040F400027D34914201D3641C00E0490077
:10025000002C02DA30BC002070474FF4000000236D
:10026000914201D3891A034340084FEA4101F7D173
:1002700051B1914202D14FF0004105E002D24FF05E
:10028000010101E06FF0010103EBC450284430BCD0
:1002900000F00EB8C10F80EAE0700844CA07962348
:1002A000002100F00EB896230022114600F009B894
:1002B0000029A8BF7047401C490008BF20F001007A
:1002C000704710B4B0FA80FC00FA0CF050EA010458
:1002D00004BF10BC704749B1CCF1200421FA04F4EA
:1002E00011FA0CF118BF012121430843A3EB0C01C3
:1002F000CB1D4FEA00614FEA102042BF002010BC26
:10030000704700EBC35010440029A4BF10BC7047D5
:10031000401C490008BF20F0010010BC70470000DD
:10032000064C074D06E0E06840F0010394E8070042
:1003300098471034AC42F6D3FFF7DCFE185A000899
:10034000385A0008FEE7000070470000EFF3108005
:1003500072B600BFFEE70000014690F821000228B7
:1003600013D10868D1E90FC3026822F00E020260BF
:10037000026822F001020260012000FA03F2CCF8C8
:10038000042081F82100002002E00420886301207D
:10039000002281F82020704780B590F821100229B2
:1003A00023D10268116821F00E0111602F2113681A
:1003B000C4F202018A4240F20401C4F2020123F0B5
:1003C0000103136015DD3023C4F202039A421CD0EE
:1003D0004423C4F202039A421AD05823C4F20203FF
:1003E0009A421AD14FF480331FE004218163012027
:1003F00080BD0823C4F202039A420CD01C23C4F22D
:1004000002039A4209D110230FE04FF480730CE0ED
:100410004FF4805309E0012307E001F1680C4FF02D
:100420008073624508BF4FF480130B60012180F890
:100430002110426B002180F820100AB19047002162
:10044000084680BDB0B5044600F016F9054640F2F6
:100450000600C2F200000078611C18BF044400BF0F
:1004600000F00AF9401BA042FAD3B0BD2DE9F04FCD
:1004700082B00E68002E00F0F68041F20042C4F215
:100480000102042340F2004E904208BF03234FF6BE
:10049000FF7CC4F2010E009300240123C1F2100C72
:1004A0004FF0000A4FF0000943E0012704F00C036D
:1004B0000F229A402BEA020207FA03F34FEA9A0549
:1004C0001A4346F825204E6840F20C45F202DEF849
:1004D000082054BF22EA080242EA0802C4F20105D9
:1004E000CEF808202A68B30254BF22EA080242EA82
:1004F00008022A60B303DEF8042054BF22EA08028F
:1005000042EA0802F303CEF80420DEF800204FF0A0
:10051000010354BF22EA080242EA0802CEF8002092
:100520000E680AF1010A36FA0AF204F1040400F036
:100530009A8003FA0AFB16EA0B08F1D04E6866456A
:1005400010DC122E50D8DFE806F0330A41454F4F39
:100550004F4F4F4F4F4F4F4F4F4F4F484C00D1F8D9
:100560000C9041E04FF6FF72C1F2210296420FDC7F
:100570000022C1F2110296421AD00022C1F21202E8
:10058000964215D00022C1F22102964210D02BE0F3
:100590000022C1F2220296420AD00022C1F23102A8
:1005A000964205D00022C1F2320296421CD100BF11
:1005B0008A6842B1012A14BFC0F814B0C0F810B064
:1005C0004FF0080910E04FF004090DE0CA6802F18D
:1005D000080909E04FF0000906E0CA6802F10409C1
:1005E00002E0CA6802F10C0922460646B8F5807F8F
:1005F00024BF203A043637680F25954027EA0505C1
:1006000009FA02F22A433260CA79D2067FF588AF2E
:1006100041F21803C4F202031A68AEF57E7642F086
:1006200001021A601A6802F001020192019A2AF08E
:10063000030256F802B040F60002C4F201029042F2
:100640000FD040F60042C4F2010290423FF42DAFB9
:1006500041F20002C4F20102009F904208BF02274B
:1006600024E7002722E702B0BDE8F08F002A08BF88
:10067000090401617047000043F61820C2F200002F
:100680000068704740F2060043F61821C2F20000ED
:10069000C2F2000100780A68104408607047000048
:1006A00080B542F20000C4F20200016841F010017E
:1006B0000160032000F0D2F80F2000F005F800F0F0
:1006C00055F8002080BD0000B0B586B041F2180199
:1006D000C4F202010A68044642F400620A60096832
:1006E00001A801F4006101910199694600F0A4F9A3
:1006F00000F0D8F94DF68361C4F21B31A0FB010173
:100700004FF0FF3000EB914140F6241042F60042DA
:10071000C2F20000C4F2010240F2E7330025C0E952
:100720000021C0E902530561856100F06BFB0546BD
:10073000C0B940F62410C2F2000000F0D1FB05461B
:1007400080B9192000F04EF80F2C0AD81920214644
:10075000002200F057F840F20800C2F200000460E6
:1007600000E00125284606B0B0BD000080B582B08B
:1007700041F21800C4F202000168002241F00101B8
:100780000160016801F0010101910199416841F0A6
:100790008051416040680F2100F080500090009827
:1007A0006FF0010000F02EF80420C4F2010001688F
:1007B000022262F31A61016002B080BD002848BFC6
:1007C000704700F01F01012202FA01F14EF280127F
:1007D0004009CEF2000242F82010BFF34F8FBFF362
:1007E0006F8F7047002848BF704700F01F0101223B
:1007F00002FA01F14EF200124009CEF2000242F874
:100800002010704710B54EF60C5CCEF2000CDCF8F0
:100810000030C3F3022E8EF00704042C28BF0424FA
:10082000BEF103034FF0FF3E0EFA04F438BF00237D
:10083000A14399400EFA03F39A43114300F1604239
:1008400000F00F03090102F56442043B63440028F1
:1008500048BF03F10C02117010BD00004EF60C51A0
:10086000CEF200010A684FF6FF031A4060F30A2235
:1008700042F0806040F0FD70086070472DE9F04361
:1008800081B0002800F0858042F20008C4F202081E
:100890000446D8F800000D4600F0070088420CD24C
:1008A000D8F8000020F007002843C8F80000D8F866
:1008B000000000F00700A8426BD1206841F2040953
:1008C0008107C4F2020917D5410705D5D9F80010F0
:1008D00041F4E061C9F80010010705D5D9F800100E
:1008E00041F46051C9F80010D9F80010A26821F055
:1008F000F0011143C9F80010C00741D1D8F8000039
:1009000000F00700A8420CD9D8F8000020F007003A
:100910002843C8F80000D8F8000000F00700A842FB
:1009200037D12068410707D5D9F80010E26821F4D3
:10093000E0611143C9F80010000708D5D9F800009C
:10094000216920F4605040EAC100C9F80000D9F8DC
:10095000002002F00C00082841F20020C0F27A00CA
:100960004ED145F22073C2F38341C0F60003595CB7
:10097000D20339D440F60010C0F23D0048433FE0B6
:100980006068022809D0012829D159F8041C89037C
:1009900007D4012001B0BDE8F08359F8041C890197
:1009A000F7D5D9F8001021F003010843C9F8000079
:1009B000FFF762FE064641F2883700BFD9F8000013
:1009C000616800F00C00B0EB810F97D0FFF754FE88
:1009D000801BB842F2D9032001B0BDE8F08359F87A
:1009E000041C8907D5D5DCE7D9F8002045F21E7331
:1009F000C2F34042C0F600039A5C4843B0FBF2F0F9
:100A0000D9F8001045F20672C1F30311C0F60002D6
:100A1000515C40F2000220FA01F140F20800C2F2FB
:100A200000000068C2F200021160FFF74DFE0020D6
:100A300001B0BDE8F08300000F22026041F2040221
:100A4000C4F20202136803F003034360136803F067
:100A5000F0038360136803F4E063C36012684FF42B
:100A6000E06303EAD202026142F20000C4F2020033
:100A7000006800F0070008607047000040F20000C6
:100A800041F20401C2F20000C4F2020100680968E8
:100A900045F21672C1F30221C0F60002515CC84053
:100AA0007047000040F2000041F20401C2F2000071
:100AB000C4F202010068096845F21672C1F3C2214E
:100AC000C0F60002515CC840704700002DE9F041BB
:100AD00082B0002800F0D7800446007841F200067A
:100AE000C007C4F2020644D0706800F00C0004286D
:100AF00017D0706800F00C00082802D17068C0039D
:100B00000FD465682DB1B5F5A02F10D0B5F5803F95
:100B100011D0306820F480303060306820F48020BC
:100B20000CE03068800324D5606810BBABE030680F
:100B300040F480203060306840F480303060FFF74F
:100B40009BFD002D054611D03068800311D4FFF7BE
:100B500093FD401B6428F7D916E100BFFFF78CFD19
:100B6000401B64284FF0030000F28A803068800345
:100B7000F4D42078800718D5706810F00C0F07D0D7
:100B8000706800F00C00082827D17068C00324D4D6
:100B90003068800702D52069012874D13068616906
:100BA00020F0F80040EAC1003060207800074FD5FF
:100BB000A06940B30020C4F242200121C0F8801493
:100BC000FFF75AFD054600BF706A80072DD4FFF776
:100BD00053FD401B0228F7D9D6E02069002840F2D7
:100BE0000000C4F2422000F0A68001210160FFF75E
:100BF00043FD054630688007D0D4FFF73DFD401B1C
:100C00000228F7D9C0E00020C4F242200021C0F839
:100C10008014FFF731FD0546706A800718D5FFF78D
:100C20002BFD401B0228F7D9AEE040F20000C2F2D3
:100C30000000006844F6D351C1F26201A0FB01013B
:100C4000480A019000BF0198411E00280191F9D186
:100C5000207840071BD4E5698DB1706800F00C0066
:100C6000082846D1012D0ED07068216A00F4803228
:100C70008A4208D1616A00F47010884203D10020D2
:100C800002B0BDE8F081012002B0BDE8F081F0695A
:100C900010F0805808D1F06940F08050F061F069A0
:100CA00000F080500090009847F20007C4F200075F
:100CB0003868C0050FD4386840F480703860FFF79A
:100CC000DBFC05463868C00505D4FFF7D5FC401BA2
:100CD0006428F7D958E0E5681DB1052D3CD0012DF9
:100CE0003ED0306A20F001003062306A20F004000B
:100CF00039E00027C4F2422700203866FFF7BCFC29
:100D0000022D05460CD100BF3068800154D5FFF795
:100D1000B3FC401B02284FF00300F5D9B0E700BF39
:100D200030688001ABD5FFF7A7FC401B02284FF0CD
:100D30000300F5D9A4E700210160FFF79DFC0546FB
:100D4000306880077FF531AFFFF796FC401B022823
:100D50004FF00300F4D993E7306A40F004003062AA
:100D6000306A40F001003062FFF786FC002D054636
:100D700041F2883714D000BF306A800713D4FFF7E0
:100D80007BFC401BB842F7D9032002B0BDE8F081DC
:100D9000FFF772FC401BB8424FF003003FF670AF04
:100DA000306A8007F4D4B8F1000F7FF454AFF069D3
:100DB00020F08050F0614EE7206AB0F5803F05D109
:100DC0007168A26821F40031114371607168626A30
:100DD00021F4741111430843706001203866FFF755
:100DE0004BFC0446306880013FF549AFFFF744FCF7
:100DF000001B02284FF00300F4D941E770470000C0
:100E000070470000002804BF0120704710B5044659
:100E100090F83D0028B9002084F83C00204600F0FE
:100E20005DF8022084F83D00206840F2FF730268FC
:100E3000C4F2000342F6004C9842C4F2010C05DCF7
:100E4000B0F1804F0AD040F2004103E0604505D088
:100E500040F60001C4F20001884203D1A16822F0EB
:100E600070020A43984205DCB0F1804F0AD040F28C
:100E7000004103E0604505D040F60001C4F20001E6
:100E8000884203D1216922F440720A43A36922F007
:100E90008001D4F804E0E268194360450160C26251
:100EA000C0F828E002D16169CCF83010012141611D
:100EB000002084F8461084F83E1084F83F1084F82F
:100EC000401084F8411084F8421084F8431084F8EC
:100ED000441084F8451084F83D1010BD70470000A0
:100EE00090F83D1001291CBF01207047022180F8B5
:100EF0003D10006840F2FF72C168C4F200029042E7
:100F000041F00101C16005DCB0F1804F0ED040F22C
:100F1000004107E042F60041C4F20101884205D0D9
:100F200040F60001C4F20001884206D1816801F058
:100F30000701062904BF00207047016841F0010144
:100F400001600020704700007047000010B50446A3
:100F500000680169890744BFC1685FEA81713FD4B5
:100F600020680169490744BFC1685FEA417143D401
:100F700020680169090744BFC1685FEA017148D46C
:100F800020680169C90644BFC1685FEAC1614CD4E9
:100F900020680169C9071CBFC1685FEAC17151D1EE
:100FA00020680169090644BFC1685FEA016150D445
:100FB00020680169490644BFC1685FEA41614FD4B6
:100FC00021680869800646BFC8685FEA806010BD76
:100FD0006FF0200220460A61BDE81040FFF710BF05
:100FE0006FF00201016101212177806980073ED005
:100FF0002046FFF7A9FF40E06FF0040101610221E4
:101000002177806910F4407F3AD02046FFF79CFF9B
:101010003CE06FF00801016104212177C06980077D
:1010200037D02046FFF790FF39E06FF010010161E3
:1010300008212177C06910F4407F33D02046FFF7A4
:1010400083FF35E06FF001010161204600F038F8C0
:10105000A6E76FF0800101612046FFF7CFFEA7E70A
:101060006FF040010161204600F034F8A8E7204607
:1010700000F022F8204600F021F8002020776FE7EA
:10108000204600F019F8204600F018F800202077DC
:101090006EE7204600F010F8204600F00FF8002020
:1010A00020776DE7204600F007F8204600F006F8AC
:1010B000002020776CE700007047000070470000B8
:1010C000006842F60041C4F20101884218BF70472F
:1010D000FFF7D8BA70470000704700007047000063
:1010E000B0B582B0044600680168C368426901F087
:1010F0002F05202D03F0200506D12DB1204602B08A
:10110000BDE8B04000F074BB5FEA017C1EBF02F096
:10111000010E03F4907212EB0E0253D1226B012ADE
:1011200005D111F0100218BF13F0100236D10A06D3
:1011300022D513F080021FD094F8411021293FD10D
:10114000A168B1F5805F03D12169002900F04581D4
:10115000216A4A1C226209784160E18C01390A0443
:10116000E1842DD1C16821F08001C160C16841F0E6
:101170004001C16002B0B0BD490621D513F0400165
:101180001ED0C16821F04001C1602021204684F8B2
:10119000411002B0BDE8B04000F042BA0021019118
:1011A000016801914168019101994069400611D49B
:1011B000A08DE18DE28D002A18BF884240F0DF80CB
:1011C00002B0B0BDC80718BF13F4807049D14807FA
:1011D0004DD453E0E06B016849688AB2002AEFD031
:1011E000A38D9A42ECD2E1858069202831D000BFDE
:1011F000206850E8030F216820F4807041E8030262
:10120000002AF5D1206850E8050F216820F0010080
:1012100041E80502002AF5D1206850E8050F216851
:1012200020F0400041E80502002AF5D1202084F892
:1012300042000020206300BF206850E8030F2168AF
:1012400020F0100041E80302002AF5D1E06BFFF71F
:1012500083F802206063A08DE18D401A81B22046A0
:10126000B6E0606C40F001006064480706D5BEF14E
:10127000000F03D0606C40F002006064880706D560
:10128000BEF1000F03D0606C40F004006064BCF15C
:10129000000F09D545EA0E00B0FA80F0400903D1ED
:1012A000606C40F008006064606C00283FF488AF18
:1012B00011F0200018BF002D02D0204600F098FA4F
:1012C00020684069616C00F0400001F0080140189E
:1012D00048D000BF206850E8030F216820F49070C8
:1012E00041E80302002AF5D1206850E8050F216883
:1012F00020F0010041E80502002AF5D1206B012809
:101300000AD100BF206850E8030F216820F01000C8
:1013100041E80302002AF5D1202084F84200002091
:10132000206320684069400623D500BF206850E84C
:10133000050F216820F0400041E80502002AF5D1A0
:10134000E06BB0B141F2E571C0F600014163FFF717
:1013500023F800283FF434AFE06B416B02B0BDE8E6
:10136000B04008472046FFF7B9FE0020606402B095
:10137000B0BD204602B0BDE8B040FFF7AFBE401A96
:10138000216851E8031F226821F4907142E8031399
:10139000002BF5D1216851E8051F226821F00101D9
:1013A00042E80513002BF5D1202184F842100021DA
:1013B000216300BF216851E8031F226821F010015A
:1013C00042E80313002BF5D1022281B2204662636A
:1013D00002B0BDE8B040FFF77FBE216A31F8022BB2
:1013E0006FF35F2242602162B7E60000002804BF6D
:1013F0000120704710B5044690F8410028B900203C
:1014000084F84000204600F061F8242084F8410070
:101410002068D4E90212C36823F40053C36003694F
:1014200023F440531A430261D4E904231143C268F0
:10143000194341F20C639A431143C1604169A269A7
:1014400021F44071114343F60002C4F201029042BC
:10145000416102D0FFF712FB01E0FFF723FB626856
:10146000192148439100B0FBF1F048F21F51C5F239
:10147000EB11A0FB01235A094FF69C73C0F6FF73D2
:1014800002FB0300322303EB0010A0FB0101F02359
:1014900003EA5113206803EB0212C1F34311114414
:1014A0008160016921F490410161416921F02A01C3
:1014B0004161C16841F40051C16000202021606495
:1014C00084F8411084F84210606310BD70B586B096
:1014D00040F60004C4F20104006804F540510026FF
:1014E00088420596CDE90366029601D006B070BD2C
:1014F00041F21800C4F20200016802AD41F48041DB
:101500000160016801F4804101910199016841F095
:10151000040101600068294600F004000190019870
:101520004FF40070029002200390032005902046A3
:10153000FEF79CFF4FF48060CDE902062046294665
:101540000496FEF793FF25200E210022FFF75AF99B
:101550002520FFF747F906B070BD000090F8423033
:10156000202B1CBF0220704700294FF0010318BF39
:10157000002A01D1184670470023036381622221AB
:101580008285C285436480F84210016921B10168F7
:10159000CA6842F48072CA6000680023416941F061
:1015A00001014161C16841F02001C16018467047E6
:1015B00010B5016843F60002C4F20102914218BF5F
:1015C00010BD40F62014C2F2000421460122FFF7AC
:1015D000C5FF40F66C70C2F2000021460122BDE852
:1015E000104000F0E9B90000034690F841002028BF
:1015F0001CBF0220704700294FF0010018BF002ACD
:1016000000D170471962002021219A84DA8458643D
:1016100083F841101968CA6842F08002CA607047B6
:1016200010B582B00446216843F60002C4F20102FC
:10163000002091428DF8070001D002B010BD40F6A5
:101640007870C2F200000DF10701012200F076F976
:101650000028F2D00DF1070120460122FFF7C4FF58
:1016600002B010BDFEE70000F0B585B0002541F2E4
:101670001800CDE90355CDE90155C4F20200016817
:1016800041F2000441F0100101600168C4F201045C
:1016900001F01001009100990168012241F0200140
:1016A000016001684FF4005601F02001009100999B
:1016B0000168012741F00401016000684FF4005106
:1016C00000F00400009000982046FEF7CFFF0320B2
:1016D000049001A92046CDE901670395FEF7C6FEF7
:1016E00005B0F0BD80B540F6B41043F60001C2F27B
:1016F0000000C4F2010100234FF00C0C4FF4E13262
:1017000080E80E00C0E90333C0E905C3C361FFF7F9
:101710006DFE002808BF80BDBDE88040FEF716BE04
:10172000FEE70000FEE700000000000000000000EF
:10173000EFF30980BFF36F8F0D4B1A6820E9F00FAC
:1017400010602DE908404FF0500080F3118803F03D
:1017500065F94FF0000080F31188BDE80840196872
:101760000868B0E8F00F80F30988BFF36F8F704707
:10177000F40A00200000000000000000000000004B
:10178000074B19680868B0E8F00F80F30988BFF3C9
:101790006F8F4FF0000080F311884EF00D0E7047F0
:1017A000F40A002080B54FF0500080F31188BFF399
:1017B0006F8FBFF34F8F03F077FD30B14EF60450BB
:1017C000CEF200004FF080510160002080F31188BC
:1017D00080BD00007047000040F62410C2F20000F7
:1017E000FFF7B4BB406A0021C185C184FFF776BC16
:1017F00081B090F8421022291DD18268B2F5805F35
:1018000002D10169002948D0816AB2F5805F07D012
:101810000AB9026922B10268526802F07F0201E04F
:10182000026852680A70816A01318162C18D013992
:101830000A04C18501D001B070470168CA6822F06E
:101840002002CA60CA6822F48072CA604A6922F023
:1018500001024A61202180F8421000214163026B9D
:10186000012A23D1016300BF016851E8031F026808
:1018700021F0100142E80313002BF5D101680A683A
:10188000D20606D5002200920A68009249680091AB
:101890000099818D01B0FFF71FBC0168826A496819
:1018A0006FF35F2122F8021B8262BFE701B0FFF7EE
:1018B0007FBE000000F0EEB8FEE70000FEE700008B
:1018C00082B00120009044F2D1304FF0000CC0F6FD
:1018D000000005A180220023CDF804C003F0EEFB38
:1018E00003F042F8FEE700BF73746172745F7461C5
:1018F000736B000070B50028154604460E4608BFFD
:10190000FFF7DCFF002E08BFFFF7D8FF002025817E
:101910006581C4E9006070BD10B50028044608BFA9
:10192000FFF7CCFF2068002808BFFFF7C7FF6089DA
:101930002189401AB0FA80F0400910BD2DE9F0412C
:10194000002816460446884608BFFFF7B7FF206800
:10195000002808BFFFF7B2FFB8F1000F08BFFFF77C
:10196000ADFF20896189401A80B2864238BF304677
:10197000A8B1C0F1000C4FF0FF3200BFE388561C45
:1019800025893344B3FBF5F7216807FB153342443F
:10199000C95C51700CEB060101313246EED1E18891
:1019A00022890144B1FBF2F303FB12116289E18049
:1019B00011186181BDE8F081F0B581B000281746AB
:1019C00005460E4608BFFFF779FF2868002808BFC4
:1019D000FFF774FF002E08BFFFF770FF6989781EBC
:1019E00080B2884218D23846721E012F98BF01205B
:1019F00012F8013F2E68AC8801383355AB882E8928
:101A000003F10103B3FBF6F404FB16336E89AB80DC
:101A1000A6F101036B81EBD10020B94228BF012060
:101A200001B0F0BD10B540F66C1443F60001C2F2EF
:101A30000004C4F2010100220C23C4E90010204676
:101A4000C4E90222C4E90423C4E90622FFF7CEFC5C
:101A500040F62011C2F2000120460122FFF77EFD70
:101A600040F66C7040F2E061C2F20000C2F2000188
:101A70004022FFF73FFF40F6787040F22071C2F23B
:101A80000000C2F200014FF40072BDE81040FFF701
:101A900031BF000040F66C10C2F20000FFF720BB1F
:101AA000B0B5054625200C46FEF788FE40F66C7062
:101AB000C2F2000029462246FFF740FF04462520D7
:101AC000FEF790FE2046B0BDF0B581B0054625205A
:101AD0000C46FEF773FE40F67876C2F200063046FA
:101AE000FFF71AFF0746304629462246FFF764FFF4
:101AF0000446BFB140F6787040F62111C2F20000F2
:101B0000C2F200010122FFF719FF01280AD140F6B5
:101B10006C1040F62111C2F20000C2F20001012255
:101B2000FFF762FD2520FEF75DFE204601B0F0BD07
:101B30002DE9F04381B041F2342045F638224CF2D1
:101B4000D431CAF6CD30C0F60002CAF2B21108E0B4
:101B500052F8047C8F4208BF1A467B1A18BF032331
:101B60003BB9134653F8147D8742F1D00323002B71
:101B7000F7D0136840F2DC6940F2D868C2F200097D
:101B80008342C2F20008C9F8002013D102F10C030D
:101B9000002200BF5F688F420DD11F7898F8006067
:101BA0000132B74288BF88F800709F6814338742BB
:101BB000F0D000E0002240F2D466C2F20006002716
:101BC000326005E0013798F80000F9B2814215D87B
:101BD00030680028F6D00025002405E03068013484
:101BE000844205F11405EDD2D9F80000FAB2284478
:101BF000017B9142F2D180688047EFE701B0BDE8F8
:101C0000F083000040F6FC1541F20004C2F200052A
:101C1000C4F2010428784FF4005180F001022046FC
:101C20002A70FEF723FD642002F06CFDF2E700004D
:101C300090B0FEF735FD06AC20462821FEF78BFA62
:101C4000012006900A904FF4E01000254FF48031F7
:101C500002260F9020460595CDE90355CDE90155A3
:101C6000CDE90715CDE90D61FEF730FF18B1EFF3AF
:101C7000108072B6FEE70F20CDE901064FF48060B8
:101C8000CDE9040501A802210395FEF7F7FD20B177
:101C9000EFF3108072B600BFFEE741F20004C4F219
:101CA0000104FFF7E1FCFFF71DFDFFF741FFFFF720
:101CB00007FE00BF20464FF400510122FEF7D6FC7C
:101CC0006420FEF7BFFB20464FF400510022FEF7D0
:101CD000CDFC6420FEF7B6FBECE700007047000087
:101CE000F0B581B00D4643F6243140F6F426C2F239
:101CF0000001C2F200060F6831680446081D02F0B8
:101D0000A7FB601C0BD155B13068011D43F6FC20C8
:101D1000C2F2000001B0BDE8F04002F0F5BB30684F
:101D2000E41944600BD340F60430C2F200000068AE
:101D30003168043101B0BDE8F04002F0C7BB40F6A5
:101D4000FC20C2F2000000683168043102F0BEFBE2
:101D500043F69420C2F2000001688C4238BF046050
:101D600001B0F0BD2DE9F047044602F0DBFB43F67D
:101D70001C20C2F20000016840F6F4270131016026
:101D8000C2F20007396843F6F02A40F60C36C2F278
:101D9000000AC2F2000651B1DAF8000000283ED174
:101DA0003868E16AC06A884298BF3C6037E03C60AE
:101DB0000068012833D10025701902F077FB143533
:101DC000B5F58C6FF8D143F66028C2F200084046A2
:101DD00002F06CFB43F67429C2F20009484602F097
:101DE00065FB43F69C20C2F2000002F05FFB43F665
:101DF0001030C2F2000002F059FB43F6FC20C2F2A0
:101E0000000002F053FB40F6FC20C2F20000C0F8D4
:101E1000008040F60430C2F20000C0F8009043F6A3
:101E20002C20C2F20000016801310160616443F6B8
:101E30003021C2F20001E06A0A68904288BF08605F
:101E400000EB800006EB8000211D02F05DFB02F03C
:101E50008DFBDAF8000088B13868E16AC06A884210
:101E600028BFBDE8F0874EF60450CEF200004FF0D8
:101E700080510160BFF34F8FBFF36F8FBDE8F087D4
:101E800070B582B002F04EFB43F62836C2F200066F
:101E9000306850BB43F63424C2F20004204602F0FE
:101EA00005FB43F64825C2F20005284602F0FEFA7B
:101EB00040F6F820C2F20000046040F60830C2F29A
:101EC000000040F6FD1240F6A02305600025C2F296
:101ED0000002C2F200030A201021009502F05AFE0F
:101EE000306010B103A102F0D5FB02B0BDE8704034
:101EF00002F03CBB546D72510000000043F62025F7
:101F000040F60C3A4EF6045843F6103743F61C26BA
:101F1000C2F20005C2F2000ACEF200084FF080596A
:101F2000C2F20007C2F2000603E000BF204602F042
:101F300035FB2868C8B102F0F5FAF868C468201DBE
:101F400002F086FA3068013830602868013828606D
:101F500002F00CFB94F859000228EAD00128E5D0E1
:101F600070B9206B02F01AFBE0E7DAF800000228F3
:101F7000DFD3C8F80090BFF34F8FBFF36F8FD8E760
:101F80004FF0500080F31188BFF36F8FBFF34F8F76
:101F9000FEE7000006480068006880F3088862B623
:101FA00061B6BFF34F8FBFF36F8F00DF00BF00003C
:101FB00008ED00E02DE9F04F85B0824603F06EF9A0
:101FC00040F6F029C2F20009D9F80010054688420F
:101FD00047D240F6F824C2F20004206801680029C4
:101FE00041D043F6283BC2F2000B08E0786020683D
:101FF00031463F6102F06AFA2068016899B3C0680F
:10200000C768D0F800803E1D304602F021FA796A98
:1020100038468847F8690128EED1B8694044404500
:10202000E4D887B3DBF8000078B10020CDE90108DF
:10203000039703F01FF9DBF8000001A90022002339
:1020400002F016FE0028D7D102E000200028D3D1EC
:102050004FF0500080F31188BFF36F8FBFF34F8FA5
:10206000FEE7002007E040F60831C2F200010A68EE
:10207000086001202260CAF800002846C9F8005014
:1020800005B0BDE8F08F4FF0500080F31188BFF32A
:102090006F8FBFF34F8F00BFFEE7000081B00020BD
:1020A000009040F20C00C2F2000000684FF05001B6
:1020B00081F31188BFF36F8FBFF34F8F013001D0D1
:1020C000FEE700BF00980028FCD001B07047000078
:1020D0008AB040F6F82B43F62838C2F2000B0DF117
:1020E0000809C2F2000801ACDBF8000007681FB164
:1020F000C068D0F800A001E04FF0000A02F086FCB2
:102100004846FFF757FF029911B103F017FA77E03D
:102110000546F7B155451CD303F010FADBF8000073
:10212000C068C7683E1D304602F092F9F869012880
:102130005FD1B9693F6101EB0A00A842786030D9EC
:1021400055454ED2504540F6F820C2F2000030D23C
:102150004BE00FB1002208E040F60830C2F2000068
:1021600000680068B0FA80F04209D8F80000AAEBD5
:10217000050102F0A3FA03F0E1F940F60836002861
:10218000C2F200064FF0010A44D14EF60450CEF2DE
:1021900000004FF080510160BFF34F8FBFF36F8F8E
:1021A00038E0A5EB0A00884240F60830C2F2000091
:1021B0001BD3002F00F0C380D8F8000070B10020BE
:1021C000CDE9060A089703F055F8D8F8000006A9EB
:1021D0000022002302F04CFD58B9BAE0002040B9BB
:1021E000B7E040F6F820C2F200000068314602F085
:1021F0006DF9796A3846884740F6F82BC2F2000B31
:1022000040F60836C2F200064FF0010A02E03068DC
:1022100002F05CF9D8F800004946002202F032FED4
:1022200000283FF461AF0298B0F1FF3F03DCDDE925
:1022300003200599904702980028EBD4049F786901
:1022400010B1381D02F004F92046FFF7B3FE0299E1
:102250000929DFD80AFA01F212F0C70F0ED0039A4B
:10226000BD693946AB1841F8043F83423F6118D934
:10227000904211D2934217D20EE000BF12F4047FB5
:1022800030D003990029B96145D00A18394641F880
:10229000042F82423F61BAD9DBF8000002F016F940
:1022A000B8E7801AA842B2D3796A38468847F869F5
:1022B0000128AFD1002F38D0D8F80000F0B1039832
:1022C000B969089708440021CDE9061002F0D2FF51
:1022D000D8F8000006A90022002302F0C9FC00285B
:1022E00098D10FE005297FF495AF97F82C000028CE
:1022F0007FF490AF384602F051F98BE700200028B8
:102300007FF488AF4FF0500080F31188BFF36F8FD8
:10231000BFF34F8FFEE74FF0500080F31188BFF3FB
:102320006F8FBFF34F8F00BFFEE74FF0500080F379
:102330001188BFF36F8FBFF34F8F00BFFEE74FF0E1
:10234000500080F31188BFF36F8FBFF34F8F00BF32
:10235000FEE74FF0500080F31188BFF36F8FBFF39B
:102360004F8F00BFFEE70000F0B581B0044602F0D9
:10237000D9F894F94560012E0FDB04F1240500BF64
:10238000286850B1284603F091F8002818BF02F0E1
:10239000A7FA70B2013E0128F2DCFF2684F84560FE
:1023A00002F0E4F802F0BEF894F94470012F0EDB5D
:1023B00004F11005286850B1284603F077F800288A
:1023C00018BF02F08DFA78B2013F0128F2DC84F8E0
:1023D000446001B0BDE8F04002F0C8B8F0B581B08B
:1023E000044602F013FB40F60031C2F20001086817
:1023F00043F65C27C2F2000780BB41F21022C2F212
:102400000002D61D26F0070612F00703A2EB060510
:1024100018BF324643F6F426C2F200060020C6E991
:1024200000204FF42056002B18BF05F520569319B5
:1024300023F00703A3F108060E6043E90200B01A77
:10244000C2E9006043F69022C2F20002106043F637
:102450008822C2F20002106001203870387800280B
:1024600018BF4FF0004020420DD0002403F066F862
:10247000600712D04FF0500080F31188BFF36F8FC8
:10248000BFF34F8FFEE75CB160071ABF24F007006F
:1024900000F1100304F1080303E0204601B0F0BD91
:1024A0000023002B4FF00004E0D043F6882CC2F24A
:1024B000000CDCF800008342D8D843F6F424C2F2C2
:1024C0000004266875689D420FD232684AB100BF89
:1024D0005568344616469D4207D23268002AF7D125
:1024E00003E043F6F424C2F2000408688642BCD03C
:1024F000D4F800E03068EA1A112A20602FD3F418CB
:10250000600708D04FF0500080F31188BFF36F8F41
:10251000BFF34F8FFEE743F6F425C2F20005626079
:10252000736000BF2B462D68A542FBD35A689818EC
:10253000A04203D160681C46104458606268A0182D
:10254000A84201D0294606E009688D4203D0D5E9AA
:10255000001010446060A342216018BF1C6043F665
:1025600090217068DCF80020C2F200010B68121A9A
:102570009A42CCF8002038BF0A6038780EF108047F
:10258000716800284FF0000018BF41F00041C6E913
:1025900000016BE7034642F29D00C0F600004FF0D9
:1025A000807C21F0010103E90310A3F1400043F80E
:1025B000202C7047012100F073B8000040F69071A4
:1025C0000020C2F2000102E00130052808D051F8D5
:1025D0002020002AF8D092F860309B07F4D500E064
:1025E0000022002A08BF7047926E2AB145F6F71004
:1025F000C0F60000082110477047000070B540F693
:1026000090710020C2F2000103E000BF01300528F4
:1026100009D051F82040002CF8D094F8602092079F
:10262000F4D514B936E00024A4B3A26EA56D2AB186
:1026300045F62700C0F6000011219047B4F85C0071
:10264000002808BF70BD0020002605E00136B4F860
:102650005C1030B288421DDA05EB0011487810F0AA
:102660000E0FF3D10A784AB100F00F03082B05D002
:102670002368002BEAD01B781342E7D094F860203F
:1026800000F0100002F001028018DFD0204600F0B8
:102690007BFEDBE770BD00004FF0FF31AFF3008041
:1026A000F0B581B0C2890446012908BF002A75D05F
:1026B000A389481C08BF9A4270D0012908BF9A42DA
:1026C00059D0A289E189B0FA80F35E09531AB34266
:1026D0000DDD334622693144575C114401F8017C19
:1026E000A289E18901331EB2571AB742F2DC013ADE
:1026F000A28140B1481EE0810820A26E8DF8000042
:102700006846012190472069A18900224254B4F90A
:102710000E00A189884210DA86B20DF1020500BFD1
:102720002169A26E085C01218DF8020028469047BD
:102730000136A18930B28842F2DB2020A26E8DF8EA
:1027400001000DF1010001219047A089E189401AA3
:10275000013006B2012E21DB08270DF1030500BF71
:10276000A26E284601218DF803709047701E06B2B4
:10277000002EF5DC12E0501EE081581E2169A08178
:1027800080B200220A54A26E42B145F62300C0F680
:102790000000032101B0BDE8F040104701B0F0BDDA
:1027A0004FF0FF3100F0ECBB10B5044600F006F826
:1027B0002046BDE8104001F0AFBC0000B0B582B0CB
:1027C0008189002900F09E8002690446002050544F
:1027D00094F86050E9070BD1216820698968FDF7FA
:1027E000CCFC98B3A26E002A48D047A0122144E046
:1027F000B4F8501004F13C05A4F8540061B1B4F8E9
:102800005200411E002808BF042155F8210021690B
:10281000FDF7B3FC002846D02169B4F852000A78CD
:1028200055F820006AB30023002500BF0135C254CB
:10283000ABB2CA5C002AF9D100212A04C15422D0CB
:10284000B4F852000130A4F852001CE0A26E45F02A
:10285000010084F860008AB145F69900C0F60000D6
:10286000411E00208B780130002B01F10101F9D1CC
:1028700081B245F69900C0F6000090470020E06064
:1028800040E000210170B4F85000B4F8521001305B
:1028900080B2052828BF05200529A4F8500024BFD0
:1028A0000020A4F852002069A18904F1140208252F
:1028B0002023009501F042F9E08600210004E16048
:1028C00020D0A26E2AB145F6EF10C0F6000002211A
:1028D00090476169A26D2046002300F0F3FE30B1FD
:1028E0000146204602B0BDE8B04000F03DBEA26EF9
:1028F00042B145F66400C0F60000132102B0BDE805
:10290000B040104702B0B0BD0D0A70617373776FAD
:102910007264206572726F720D0A00002DE9F04337
:1029200081B099460D4606463AB12878242840F0F1
:10293000DB806878002800F0D780287827281BD112
:102940006978C9B15C2940F0BF8095F90200A0F117
:102950006202122A00F2B2800821DFE802F0B5B468
:10296000B4B4B4B4B4B4B4B4B4B40AB4B4B4B7B4CE
:10297000BA000A214DB2FCE02D2802D14FF0FF38F9
:1029800005E0A0F13001092917D84FF001082D38D2
:10299000B0FA80F04209AB5CA818302B0BD1467816
:1029A0000327612E4FF0020122DC422E26D0582E42
:1029B00018BF0F4623E0002721E0002800F0948094
:1029C000242840F08A80294611F8012F002A00F0BF
:1029D0008380B26D30460023002500F073FE00288E
:1029E00000F0C7800146304600F04CF90546C0E0D3
:1029F000622E03D0782E02D00F4600E0012713B9D3
:102A000009E000BF39B1013001782E29FAD14378AD
:102A1000002BF7D00427791E02294FF0000006D8BA
:102A200057A35AA653F8213056F8211001E00A2383
:102A3000002129440A440025013200BF12F8011C7C
:102A40002E2903D101320125F8E700BFE1B1A1F140
:102A50003006F4B20A2C10D3A1F16106F6B2052EAD
:102A600002D8A1F1570608E0A1F14106F6B2062E00
:102A70004FF0000638BFA1F137065843F1B20844C1
:102A800005EB85014D00D7E7042F14D19DB1FDF76B
:102A90000AFC07462846FDF706FC01463846FDF7C6
:102AA000BBFB05464046FDF7F5FB01462846FDF712
:102AB00081FB05465DE000FB08F55AE0302802D1B5
:102AC00000214DB255E0C1B24DB252E00D214DB2E0
:102AD0004FE009214DB24CE030B1222808BF01354A
:102AE00000202B46002108E04FF0FF3001B0BDE888
:102AF000F083DFB22CE0013301311F78222F07D0A1
:102B00005C2F09D0002F31D08AB2AF54F3E700BF59
:102B10008AB2A854EFE700BF5A1C272F08BF1346FC
:102B20001F785C2F14D193F90130A3F16206122EA5
:102B300014D80827DFE806F00C0A0A0A0A0A0A0A6B
:102B40000A0A0A0A100A0A0A160A1800D1E700BF80
:102B50008BB2EF541346CEE70A27F9E7302BC8D1E2
:102B60000027F5E70D27F3E70927F1E788B20021F1
:102B70002954C9F80050002001B0BDE8F08300BF1F
:102B80000200000008000000100000000200000029
:102B900001000000020000002DE9F0478CB005465E
:102BA0008878884600F00F09501E002620EAE0745D
:102BB0001F1D0DF1100A0B96CDE90966CDE90766D8
:102BC000CDE9056604969145B8BF814684B1B959EF
:102BD0000AEB060328460022FFF7A0FE013C00286E
:102BE00006F10406F2D04FF0FF300CB0BDE8F087DC
:102BF000B9F1070FF7D8DFE809F0040A1119212904
:102C00002F37D8F808000CB0BDE8F047004704980B
:102C1000D8F808100CB0BDE8F0470847D8F80820ED
:102C2000DDE904010CB0BDE8F047104704AAD8F86C
:102C3000083007CA0CB0BDE8F047184704ABD8F815
:102C400008C00FCB0CB0BDE8F047604704AED8F821
:102C500008704FCE009610E0099DD8F8087004AEB9
:102C60004FCECDE9006508E0DDE90954D8F80870D9
:102C700004AE4FCECDE900650294B8470CB0BDE874
:102C8000F0870000487800F00F000238052816D8B9
:102C9000DFE800F005080C030310886870478868B7
:102CA000006870478868B0F900007047886890F93C
:102CB000000070478868416809B100680847002033
:102CC000704700002DE9F04F81B0002900F08180AD
:102CD0008346806B10F47F4C04D06FF0FF0A4FF0F6
:102CE000000E15E010F47F0F06D040F2000ACFF678
:102CF000FF7A4FF0080E0BE04FF0100E4FF07F4AB6
:102D0000B0F1807F38BF4FF0180E38BF4FF0000A87
:102D1000BBF85C0000284AD0DBF85820FF23AEF156
:102D2000080403FA0EF903FA04F80025002705E069
:102D3000002100BF01373DB2854238DA02EB0516AB
:102D4000757805F00F03092BF4D1337833B1DBF834
:102D50000040002CEED024781C42EBD09BF8603071
:102D600005F0100403F001031B19E3D056F8043FEB
:102D7000DBF8385003EA0A04AC42DBD103EA090469
:102D80004BB203FA0EF39C42D4D145EA0301BCF1E5
:102D9000000FCBF8381003D1316811EA080FC7D102
:102DA000716809B1584688470021CBF838100806E9
:102DB0000FD09BF86020002002F0FB02CBF8380017
:102DC00049B258468BF8602001B0BDE8F04F00F0E2
:102DD000EFB901B0BDE8F08F70B540F690730022F6
:102DE000C2F2000303E000BF0132052A09D053F804
:102DF0002240002CF8D094F86060B607F4D51CB9D6
:102E000070E00024002C6DD0012833D1A26EA56D96
:102E10002AB145F62700C0F6000011219047B4F80A
:102E20005C0000285ED00020002605E00136B4F8E2
:102E30005C1030B2884255DA05EB0011487810F08A
:102E40000E0FF3D10A784AB100F00F03082B05D01A
:102E50002368002BEAD01B781342E7D094F8602057
:102E600000F0100002F001028018DFD0204600F0D0
:102E70008BFADBE7022835DB4968A26D2046002388
:102E800000F020FCA26E20B3054612B137A010213D
:102E9000904740F68470C2F20000302101724FF07A
:102EA0003031C0E90011697801F00F01012988BFB4
:102EB000072918D8291D0868A26E8AB3017861B362
:102EC000431E00219E780131002E03F10103F9D148
:102ED00024E03AB145F66400C0F600001321BDE8D5
:102EE0007040104770BD082905F10401E3D009685E
:102EF000002200290272DFD0082200BF01F00F0378
:102F000003F13006092BA2F1010288BF03F1570635
:102F1000D3B20909C654F1D1CEE7002189B2904756
:102F2000A26E2AB145F6EF10C0F6000002219047CC
:102F3000A26E7AB1E868017849B1431E002100BF52
:102F40009E780131002E03F10103F9D100E0002148
:102F500089B29047A26E002A08BF70BD45F6EF10F7
:102F6000C0F600000221BDE870401047636F6D6D30
:102F7000616E642068656C70206F66200000000040
:102F8000F0B581B00129044659DBB4F85000B4F81B
:102F90005210B4F95420884288BF0146531E48425B
:102FA0008242A4F85430D8BFA4F85400A089E18923
:102FB000401A06B2012E0DDB20270DF1030500BFDC
:102FC000A26E284601218DF80370904730B2013E71
:102FD0000128F5DCA68930060ED045F62305C0F69B
:102FE000000502E0013E300606D0A26E002AF9D0AC
:102FF000284603219047F5E7B4F9540020B3B4F80C
:103000005210084446F267610530C6F2666180FBE3
:103010000112511001EBD27101EB8101401A04EB56
:103020008000C26B2069157800218DB10026002335
:10303000013385559EB2955D002DF9D10AE0B1F1BD
:10304000FF3F1CDD01B0F0BD0020E06001B0F0BD2D
:103050000023002681551804A381F3D0A26EE381DA
:10306000002AEFD020690178C1B1431E002100BFC2
:103070009F780131002F03F10103F9D10FE0B4F87B
:10308000540047F6FE72411C9042A4F854103FF6DB
:103090008DAF0020A4F8540001B0F0BD002189B22A
:1030A000904701B0F0BD000010B5044690F86000F4
:1030B000002340F0010084F860004AF6AB20424350
:1030C000C4E90331900C01EB924138222360A086C1
:1030D000A4F85430236500BFA318043259604C2A69
:1030E0000144F9D145F6602045F68031C0F6000074
:1030F000C0F60001A065081A000940F69071A4F816
:103100005C000020C2F2000151F820201AB1013009
:103110000528F9D101E041F8204045F2307145F62B
:103120006022C0F60001C0F600022046002300F035
:10313000C9FA2060806830B1017821B1E18E02299E
:1031400003D2002007E0012005E0A169FDF715F892
:10315000B0FA80F0400994F86010A26E01F0FE0110
:10316000084484F860002AB145F6F710C0F6000064
:103170000821904794F86000C00713D0A26E8AB16E
:1031800045F69900C0F60000411E00208B78013002
:10319000002B01F10101F9D181B245F69900C0F689
:1031A000000090472046BDE8104000F0B5BF000089
:1031B000F0B581B0828E04468089013A82421BDDDF
:1031C000E289904233D12269431CA38111542069C2
:1031D000A28900238354E08994F860200130E081C3
:1031E000D00708BF2A21A26E8DF801100DF1010051
:1031F0000121904701B0F0BDA26E2AB145F67800DA
:10320000C0F6000020219047204600F085FFA26E06
:10321000002A55D020690178002953D0431E00218F
:103220009F780131002F03F10103F9D14BE047D919
:10323000801A00B2012808DB2269E3891A441318B6
:1032400013F8013C13540138F6DCE0892269431C71
:10325000E3811154A08921690130A08180B200224C
:103260000A54E089A189461E30B2884215DA0DF170
:1032700002050CE02169085CA26E8DF80200284668
:10328000012190470136A18930B2884205DA94F8CD
:103290006010C907EED12A20EEE7E089081A06B2CD
:1032A000012E0DDB08270DF1030500BFA26E284695
:1032B00001218DF80370904730B2013E0128F5DC02
:1032C00001B0F0BD002189B201B0BDE8F040104767
:1032D00070B540F690710020C2F2000103E000BF1B
:1032E0000130052809D051F82040002CF8D094F87E
:1032F00060209207F4D514B933E000248CB3A26E99
:10330000A56D2AB145F65600C0F600000D21904784
:10331000B4F85C00002808BF70BD0020002605E05E
:103320000136B4F85C1030B288421ADA05EB0011AD
:10333000487800F00F02092AF2D10A782AB12368EE
:10334000002BEDD01B781342EAD094F8602000F0F7
:10335000100002F001028018E2D0204600F014F8BC
:10336000DEE770BD10B582B00446C08950B10820B8
:10337000A26E8DF807000DF1070001219047E0894A
:103380000138E08102B010BD2DE9F04182B040F675
:1033900084728846C2F20002302111724FF030313F
:1033A000C2E9001198F80110044601F00F0101294B
:1033B00088BF072911D808F104000268A36E53B131
:1033C000107820B3511E00208F780130002F01F1BA
:1033D0000101F9D11CE016271FE0082908F10400BB
:1033E000EBD00068002100281172E7D0082100BF4F
:1033F00000F00F0303F13007092BA1F1010188BF91
:1034000003F15707CBB20009D754F1D1D6E700201A
:1034100081B210469847C0F1160738B220250DF149
:1034200006060028D8BF0427A26E304601218DF879
:1034300006509047013F3804F6D198F8010000F09B
:103440000F00012803D8A26EBAB13AA013E00728F2
:1034500003D8A26E8AB135A00DE0082803D1A26E70
:103460005AB130A007E0A26E092802D82AB12BA0D9
:1034700001E012B127A004219047A26E2AB145F6BF
:10348000F210C0F600000221904708270DF1070650
:1034900098F80000013FF840C0074FF0780008BFDF
:1034A0002D20A26E8DF80700304601219047002F95
:1034B000EEDCA26E2AB145F6F210C0F60000022141
:1034C0009047A26ED2B1D8F80C000021012342F23D
:1034D0000147064602E000BF0136013135780D2D67
:1034E000FAD803FA05F53D42F6D089B2252904D36E
:1034F00024219047A26E11A003219047A26E2AB109
:1035000045F6EF10C0F600000221904702B0BDE87A
:10351000F08100BF4E4F4E45000000004B45592042
:103520000000000055534552000000005641522053
:1035300000000000434D4420000000002E2E2E000D
:1035400080B582B0C189828991420AD202694B1C3E
:10355000C381515C826E8DF807100DF107000121C7
:10356000904702B080BD00002DE9F04381B00446D1
:1035700090F86000884640F0020684F86060487861
:1035800000F00F00012826D0B0BBE08EE0B304F1BC
:1035900014074FF00009002510E000BF57F8256020
:1035A0003046FCF7E3FD80B20138315C0135222959
:1035B00008BF06F80090E08E854225D257F8250016
:1035C00001782229EAD180F8009057F825000130CF
:1035D00047F82500E2E7E28E04F114032046414655
:1035E000FFF7DAFA98F80110054689065FD42046FD
:1035F000294600F0F5FD5AE0072815D82046414637
:1036000000F094F9002552E0D8F80820E08E04F18B
:103610001401904798F801100546890647D42046C2
:10362000294600F0DDFD42E008280BD1C4F80080F7
:10363000D8F8080040B1017831B1E18E022905D2F5
:10364000002009E0002532E0012005E0A169FCF737
:1036500094FDB0FA80F04009A26E06F0FE01084425
:1036600084F860002AB145F6F710C0F60000082182
:10367000904794F86000C00701D1002517E0A26EC2
:10368000A2B145F69900C0F60000411E002000BF1F
:103690008B780130002B01F10101F9D181B245F69F
:1036A0009900C0F600009047002500E0002594F83E
:1036B000600000F0FD01284684F8601001B0BDE80C
:1036C000F08300002DE9F04F81B08846816D0746F8
:1036D000B0F85C00511A1546C1F30F1290424FF03A
:1036E000000663D00909401A40F6847B9A4684B2EA
:1036F000C2F2000B4FF0000904E05246FCF74BFD0C
:1037000090BB53E005EB0916707800F00F02092A10
:103710002AD03178002918BF082A1FD197F86010E5
:1037200000F0100001F0010140181DD030208BF88E
:1037300008004FF03030CBE90000707800F00F0047
:10374000012888BF072814D8301D01684046BAF107
:10375000000FD2D1FCF711FD30B927E03A681AB159
:1037600012780A42DAD100BF09F10109A145C9D195
:103770001BE0082806F10400E7D0006800218BF860
:10378000081080B1082100BF00F00F0202F13003E1
:10379000092AA1F1010188BF02F15703CAB2000949
:1037A0000BF80230F0D15946D0E70026304601B080
:1037B000BDE8F08F70B50E4640F6907104460020CB
:1037C000C2F2000103E000BF0130052809D051F822
:1037D0002050002DF8D095F860209207F4D515B947
:1037E00032E0002585B3AA6D284621460023FFF765
:1037F00069FFA0B10146407800F00E00083810F1D2
:10380000070F10D8AA6EC2B1207890B1611E0020B7
:103810008B780130002B01F10101F9D10AE0AA6E89
:1038200092B10EA00CE028463246BDE8704000F090
:103830001DB8002081B220469047AA6E22B103A095
:103840000F219047002070BD002070BD20697320BB
:103850006E6F742061207661720D0A0056617220CD
:103860006E6F7420466F756E740D0A0070B50C464D
:10387000497806464B060CD401F00F0002380528A3
:103880000CD8DFE800F003111417282FA06802609D
:1038900004E0B26E12B119A01921904730462146BA
:1038A000BDE8704000F042B8A0680280F6E7A0686A
:1038B0000270F3E71378A0684FF0000C4FF000019E
:1038C00033B1002501354354A9B2535C002BF9D123
:1038D00000F801C0E2E7B26E002ADFD00EA013218B
:1038E0009047DBE7A0688368002BD7D0006810B151
:1038F00011469847D2E710469847CFE763616E2795
:1039000074207365742072656164206F6E6C792019
:103910007661720D0A00000063616E277420736582
:103920007420706F696E7465720D0A002DE9F041A4
:1039300084B0044643F230000E46C0F230000390DB
:1039400070784FF0303100F00F00023805280291F6
:1039500001911AD8DFE800F0060A0E030312D6F828
:10396000088014E0B068D0F8008010E0B068B0F9CA
:1039700000800CE0B06890F9008008E0B068416811
:1039800019B100688847804601E04FF00008A26E38
:1039900072B17068017841B1431E00219D780131F8
:1039A000002D03F10103F9D100E0002189B2904715
:1039B000A26E12B160A003219047707800F00F0052
:1039C000052818D1A26E2AB145F6F510C0F6000000
:1039D00001219047A26E002A5ED098F800000028CE
:1039E00056D0A8F1010100208B780130002B01F1A5
:1039F0000101F9D14DE00020B8F1000F8DF80F0062
:103A000034D046F2676241464FF00B00C6F2666260
:103A100001AB48BFC8F1000181FB0265AE1006EBA7
:103A2000D57606EB8605A1EB450501380931303521
:103A3000C7B212293146DD55EED8B8F1FF3F19DD86
:103A4000B8F1000F1ED0A26E01AE8AB3C0F10B0018
:103A500040B2301A0B30017839B30021034600BF61
:103A600013F8017F0131002FFAD11FE00B20B8F1CC
:103A7000FF3FE5DC0138C1B201AA2D235354B8F150
:103A8000000FE0D10138C1B201AA30235354DAE764
:103A9000002081B240469047A26E002A3FD045F6F2
:103AA000F510C0F60000012138E0002189B29047EE
:103AB000A26E2AB145F60020C0F60000042190470E
:103AC0004FF03030CDF80B00CDE901000020B8F107
:103AD000000F8DF80C000FD00820414601F00F02B6
:103AE00002F13003092AA0F1010088BF02F1570357
:103AF000C2B20909B354F1D1A26E82B19DF804009B
:103B000048B1711E002000BF8B780130002B01F1FD
:103B10000101F9D100E0002081B201A89047A26E16
:103B20002AB145F6EF10C0F600000221904740464A
:103B300004B0BDE8F08100BF203D20002DE9F04F2A
:103B400085B08A460E991F46144606460020012974
:103B50000490CDE90200019004DB88B28100204688
:103B6000FCF7F9FABAF1000F5CD040F204080094B7
:103B70005FFA87FBC2F20008002200210020002427
:103B80004FF001090CE09EF801700023B354202F80
:103B90004FF0010218BF914601318AB2524542D21C
:103BA0005FFA84FCBCF1000F18D1B75C06EB020E83
:103BB0005F450CD0B9F1010F09D10E9B984206DA8E
:103BC000009B4FF0000943F820E0013006E05F451C
:103BD00014BF202FB9F1000FD5D000BF98F80070A6
:103BE00023060DD098F80130B5569D4208D1ACF1AE
:103BF000010301ADEB5CBB4202D1013C09E000BF17
:103C0000B356BB4205D1631C01AD03F00F0405F8A8
:103C10000C70B35C5C2BBFD132445278002A18BFC1
:103C20000131B9E7002005B0BDE8F08F2DE9F04F74
:103C300083B004468089002800F0028121690023B6
:103C4000A28E0B54B4F85C00D4F858B040F68477D8
:103C50000028C2F20007019200F02C814FF03039A9
:103C60004FF0300E00204FF0000A4FF0000C0025FE
:103C700012E00022A8B291B26546884238BF0146E0
:103C800001910135D4460AF1010AB4F85C100FFA2B
:103C90008AF0884280F2118101011BF801100BEBC0
:103CA000001859B198F8010000F00F00082805D05D
:103CB00020680028E7D000780842E4D094F860003B
:103CC000C00703D198F80100C006DCD5C7E9009908
:103CD00087F808E098F80110206901F00F01012928
:103CE00088BF07295FD808F10401096803785BB130
:103CF000002600228E5D46B1B34206D1013296B253
:103D0000835D002BF6D100E00022A08991B28142B0
:103D1000B9D1A8B20028B4D0012809D1A26E3AB115
:103D200045F6EF10C0F60000022166469047B44603
:103D30001FFA8CF00BEB001620463146FFF724FBF0
:103D40004FF0300E87F808E0C7E90099707800F06E
:103D50000F00012888BF07283ED8301D006887F86B
:103D600008E0C7E9009998F8011001F00F01012956
:103D700088BF07294AD808F104010968AC460378CE
:103D8000019D002B3FF475AF002600228E5D002EB2
:103D90003FF470AFB3427FF46DAF013296B2835DF2
:103DA000002BF3D166E7082908F104019DD00968CA
:103DB00000223A7271B1082201F00F0303F13006BC
:103DC000092BA2F1010288BF03F15706D3B20909FA
:103DD000FE54F1D1394689E7082806F10400BDD028
:103DE00000680021397278B1082100BF00F00F028D
:103DF00002F13003092AA1F1010188BF02F1570342
:103E0000CAB20009BB54F1D13846A8E7082908F125
:103E10000401B2D009680022AC463A7271B108229E
:103E200001F00F0303F13006092BA2F1010288BF54
:103E300003F15706D3B20909FE54F1D139469EE782
:103E4000A26EA56D2AB145F62700C0F6000011212B
:103E50009047B4F85C0038B30020002606E000BFAD
:103E60000136B4F85C1030B288421DDA05EB00115F
:103E7000487810F00E0FF3D10A784AB100F00F0322
:103E8000082B05D02368002BEAD01B781342E7D01B
:103E900094F8602000F0100002F001028018DFD0DA
:103EA0002046FFF771FADBE7204603B0BDE8F04F8C
:103EB00000F032B900254FF0000C1FFA85F8B8F178
:103EC000000F00F08F80B8F1010F2AD1A089E1899D
:103ED0006546401A06B2012E0EDB4FF0200A0DF1A6
:103EE0000B0900BFA26E484601218DF80BA0904738
:103EF00030B2013E0128F5DCA689AC46300610D070
:103F000045F62309C0F6000903E000BF013E300674
:103F100007D0A26E002AF9D0484603219047AC464C
:103F2000F4E71FFA8CF00BEB00114FF03030C7E9CB
:103F30000000302038724A78206902F00F02012A0E
:103F400088BF072A31D80A1D17683D78002245B17D
:103F500000260023013385559EB2BD5D002DF9D1A9
:103F600001E000230026B8F1020F8255A38107D398
:103F70002046FFF709FA204600F0CEF80198A0810C
:103F80002069A18900224254A26EA089E0814AB32F
:103F90002069017819B3431E002100BF9F780131C9
:103FA000002F03F10103F9D11AE0082A01F10402FC
:103FB000CAD012680023002A3B72C6D0082300BF73
:103FC00002F00F0606F13005092EA3F1010388BFA8
:103FD00006F15705DEB21209BD55F1D1B5E7002152
:103FE00089B2904703B0BDE8F08F00000121FEF7D1
:103FF000C7BF000070B540F690710020C2F200010A
:1040000003E000BF0130052809D051F82040002C02
:10401000F8D094F860209207F4D514B92BE000246E
:104020004CB3A26EA56D2AB145F64700C0F600005C
:104030000E219047B4F85C00002808BF70BD002036
:10404000002605E00136B4F85C1030B2884212DA7E
:1040500005EB0011487800F00F02082AF2D194F81D
:10406000602000F0100002F001028018EAD0204623
:10407000FFF78AF9E6E770BD70B540F69071002051
:10408000C2F2000103E000BF0130052809D051F859
:104090002040002CF8D094F860209207F4D514B991
:1040A00038E00024B4B3A26EA56D2AB145F63900FC
:1040B000C0F600000D219047B4F85C00002808BF4E
:1040C00070BD0020002605E00136B4F85C1030B267
:1040D00088421FDA05EB0011487800F00F039A1EA2
:1040E000052AF1D80A78002A18BF082B0BD194F8BA
:1040F000602000F0100002F001028018E4D0204699
:10410000FFF742F9E0E72368002BDDD01B7813426C
:10411000EDD1D9E770BD000010B5044690F86000FD
:10412000A26EC00705D1F2B127A01621BDE810404C
:1041300010472AB145F6EF10C0F600000221904763
:10414000D4F868C0BCF1000F11D020684068017835
:1041500051B1431E002100BF9A780131002A03F1BA
:104160000103F9D101E010BD002189B2E047A26E40
:1041700012B112A001219047A168D4F868C010A024
:10418000002918BF0846BCF1000F0DD0017841B1DD
:10419000431E00219A780131002A03F10103F9D16D
:1041A00000E0002189B2E047A26E002A08BF10BDDE
:1041B00004A00221BDE81040104700BF3A000000F3
:1041C0002F00000024200000506C65617365206999
:1041D0006E7075742070617373776F72643A00004B
:1041E0002DE9F04184B0804643F23000D8F86820D1
:1041F000C0F230000D4603904FF030300290019035
:1042000012B148A0082190470020002D8DF80F0022
:1042100032D046F2676229464FF00B00C6F2666262
:1042200001AB48BF694200BF81FB0264A61006EBE8
:10423000D47606EB8604A1EB44040138093130340E
:10424000C7B212293146DC55EED8B5F1FF3F17DD74
:10425000EDB1D8F8682001AE12B3C0F10B0040B246
:10426000301A0B300178C1B10021034613F8017FE9
:104270000131002FFAD111E00B20B5F1FF3FE7DC4F
:104280000138C1B201AA2D235354002DE1D10138C8
:10429000C1B201AA30235354DBE7002189B2904711
:1042A000D8F868202AB145F60020C0F600000421A5
:1042B00090474FF03030CDF80B00CDE901000020E1
:1042C0008DF80C0075B1082005F00F0101F13002E6
:1042D0000929A0F1010088BF01F15702C1B22D09DF
:1042E0007254F1D1D8F868207AB19DF8040040B139
:1042F000711E00208B780130002B01F10101F9D1F2
:1043000000E0002081B201A89047D8F868202AB1C7
:1043100045F6EF10C0F600000221904704B0BDE85A
:10432000F08100BF52657475726E3A200000000083
:1043300082B040F6A474C2F200040DF1070503E058
:104340000A2000F0DFF900BF626E002AF8D028468C
:10435000012190470128F3D19DF907102046FEF76F
:10436000B1FCF1E780B582B04FF4E130FDF75AFBC4
:1043700040F6A47041F6A12141F6C922C2F2000024
:10438000C0F60001C0F60002C0E9191241F21001A6
:10439000C2F200014FF40072FEF786FE0A2040F2DE
:1043A000702C009044F23130C2F2000CC0F60000D4
:1043B00004A14FF480620023CDF804C000F07EFE1B
:1043C00002B080BD7368656C6C5F7461736B0000D4
:1043D00010B582B000F0A6F840F26C20C2F20000E6
:1043E000019041F605400A24C0F600000FA14FF4E9
:1043F00000720023009400F061FE40F2D06C44F2A1
:104400004540C2F2000CC0F600000BA14FF4007250
:1044100000230094CDF804C000F050FE00F0A6F890
:10442000002002B0BDE8104000F0C0B96C65645FC8
:104430007461736B00000000756172745F74617366
:104440006B0000004FF47A7000F05CF9FAE70000AE
:10445000D0E9013201699A60D1F804C082688445CC
:10446000536008BF4A600022026108680138086092
:104470000868704740F21023C2F20003036040F264
:104480001000C2F200000860802010607047000039
:1044900040F27463C2F20003036040F27420C2F27F
:1044A000000008604FF48070106070474FF0FF31DB
:1044B000024642F8081F00214260C0E90322016061
:1044C00070470000002101617047000080B5D1F8FD
:1044D00000C01CF1010207D000F108039E465B6892
:1044E0001A686245FAD901E0D0F810E0DEF804203D
:1044F00008614A609160C1F808E0CEF804100168D4
:104500000131016080BD0000D0F800C0436808613F
:104510009A684B608A609A68996051600CF1010159
:10452000016070474FF0500080F31188BFF36F8F28
:10453000BFF34F8F40F20C00C2F2000001684A1C2A
:10454000026001B170474EF60450CEF200000068E0
:10455000000608BF70474FF0500080F31188BFF38A
:104560006F8FBFF34F8F00BFFEE7000040F20C00DB
:10457000C2F20000016839B10139016018BF70470B
:10458000002080F3118870474FF0500080F31188AD
:10459000BFF36F8FBFF34F8FFEE70000B0B5002869
:1045A00008BFB0BD044643F65C20C2F200000078AC
:1045B00054F8041C002818BF4FF0004008420CD0EB
:1045C000A4F108052A6892B14FF0500080F31188D9
:1045D000BFF36F8FBFF34F8FFEE74FF0500080F3B4
:1045E0001188BFF36F8FBFF34F8F00BFFEE721EA43
:1045F000000044F8040C00F009FA43F68821C2F2E6
:10460000000154F8040C0A681044086043F6F421D1
:10461000C2F2000108460968A942FBD34268831828
:10462000AB4204D154F8043C05461A4442606A681F
:10463000AB188B4201D00B460AE040F60033C2F2C1
:1046400000031B68994203D0D1E90034A1186960C6
:10465000A8422B6018BF0560BDE8B04000F06EBFF7
:104660004EF21000CEF2000000210160816040F2A5
:104670000001C2F20001096844F6D352C1F262029D
:10468000A1FB02124FF0FF3101EB921141600721B3
:104690000160704743F6B02C0022C2F2000C00BF4C
:1046A0005CF8323023B10132082A08BF7047F7E7BF
:1046B0000CEBC2034CF832105860704770B51546C9
:1046C0000E460446FFF72EFF94F84400FF2804BF6F
:1046D000002084F8440094F84500FF2804BF00201F
:1046E00084F84500FFF742FFA06B28B904F12400CD
:1046F00031462A4600F018F92046BDE87040FDF723
:1047000033BE000070B5002843D0044643F628208D
:10471000C2F20000016841B14FF0500080F31188EF
:10472000BFF36F8FBFF34F8FFEE7016840F6F425AC
:104730000131016043F62430C2F20000C2F20005EC
:10474000066828680430FFF783FE2868A4194460CF
:1047500009D340F60430C2F2000000682968043131
:10476000FFF7B4FE10E040F6FC20C2F20000006843
:1047700029680431FFF7AAFE43F69420C2F2000034
:1047800001688C4238BF046000F0D8FE002818BFD2
:1047900070BD4EF60450CEF200004FF08051016023
:1047A000BFF34F8FBFF36F8F70BD000070B504462D
:1047B000FFF7B8FE40F6F426002CC2F2000608BF50
:1047C0003468251D2846FFF743FEA06A18B104F19E
:1047D0001800FFF73DFE43F62C20C2F200000168EE
:1047E000013101603068844225D043F61C20C2F2BA
:1047F000000001680139016094F85900022809D0CD
:10480000012804D0002852D1206BFFF7C7FE2046B4
:10481000FFF7C4FE40F6FC20C2F200000168096800
:10482000B9B1006843F69421C068C2F20001C068C3
:104830004068086014E043F61030C2F200002946D8
:10484000FFF762FE43F62020C2F20000016801314A
:1048500005E043F69420C2F200004FF0FF31016002
:10486000FFF784FE43F6F020C2F200000068E8B1D2
:104870003068844218BF70BD43F62820C2F20000A1
:10488000006840B14FF0500080F31188BFF36F8F84
:10489000BFF34F8FFEE74EF60450CEF200004FF00C
:1048A00080510160BFF34F8FBFF36F8F70BD4FF02A
:1048B000500080F31188BFF36F8FBFF34F8F00BF9D
:1048C000FEE7000043F69821C2F20001096801608A
:1048D00043F62431C2F200010968416070470000CC
:1048E00043F63030C2F20000012101607047000041
:1048F00010B570B10C4640F6F421C2F2000109680F
:104900001831FFF7E3FD20460121BDE81040FDF717
:10491000E7B94FF0500080F31188BFF36F8FBFF3FA
:104920004F8F00BFFEE70000B0B598B10D4640F6CE
:10493000F421C2F20001096814461831FFF7E4FDC2
:10494000002C18BF4FF0FF3528462146BDE8B04087
:10495000FDF7C6B94FF0500080F31188BFF36F8F99
:10496000BFF34F8FFEE7000010B586B0002405A806
:1049700004A903AACDE90444FFF77CFDDDE9032087
:1049800005990023CDE9010141F6FD60C0F6000064
:104990001CA1009400F0FEFB43F68C21C2F2000142
:1049A000086010B100F066FE0446601C20D0012CA7
:1049B0001CD14FF0500080F31188BFF36F8FBFF30D
:1049C0004F8F43F69420C2F200004FF0FF31016098
:1049D00043F6F020C2F200000121016043F62430CA
:1049E000C2F200000021016000F066F806B010BDC0
:1049F0004FF0500080F31188BFF36F8FBFF34F8FDC
:104A0000FEE700BF49444C450000000043F6282063
:104A1000C2F20000016801310160704743F62820AE
:104A2000C2F20000006830B143F63030C2F200003C
:104A300001210160704743F63030C2F200000021CE
:104A400043F6302C0160C2F2000CDCF8001040F696
:104A50000C3201EB8103C2F2000252F8230048B984
:104A600002EB8300A0F11403D9B153F81409013902
:104A70000028F9D001EB810002EB800252F8040F0C
:104A80004368101D8342136001D15868106010689C
:104A900040F6F422C068C2F200021060CCF80010A8
:104AA00070474FF0500080F31188BFF36F8FBFF352
:104AB0004F8F00BFFEE70000B0B584B04EF200405B
:104AC000CEF20000017843F610220291FF2101701E
:104AD0000178C2F200028DF807109DF8071001F06E
:104AE0005001117043F61421C2F2000107220A603E
:104AF0009DF90720B2F1FF3F0BDC06220A609DF80A
:104B00000730013A5B008DF807309DF90730002B24
:104B1000F4D40A68032A33D14FF4E06303EA022293
:104B20000A6002990170D0F8201941F47001C0F8B0
:104B30002019D0F8201941F07041C0F82019FFF772
:104B40008FFD40F20C04C2F2000400252560FDF741
:104B500021FAFFF763FF039520684FF0500181F3BE
:104B60001188BFF36F8FBFF34F8F013002D000BFAA
:104B7000FEE700BF03980028FCD0002004B0B0BDC1
:104B80004FF0500080F31188BFF36F8FBFF34F8F4A
:104B9000FEE7000070B582B068B11C46ABB1F1B958
:104BA000EAB14FF0500080F31188BFF36F8FBFF36D
:104BB0004F8F00BFFEE74FF0500080F31188BFF326
:104BC0006F8FBFF34F8F00BFFEE74FF0500080F3B1
:104BD0001188BFF36F8FBFF34F8F00BFFEE751B156
:104BE0004AB94FF0500080F31188BFF36F8FBFF3C5
:104BF0004F8F00BFFEE750230193019B502B2CD118
:104C0000069E012384F84630002908BF2246226010
:104C1000C4E90F01FFF786FC2068D4E90F120025D4
:104C200002FB0103013901FB0201A563C4E9013064
:104C3000FF20E16084F8440084F8450004F110008E
:104C4000FFF734FC04F12400FFF730FCFFF78EFC83
:104C5000204684F84C6002B070BD4FF0500080F3E5
:104C60001188BFF36F8FBFF34F8F00BFFEE70000C7
:104C70002DE9F04F83B00292B8B11D460E460446AE
:104C8000E9B1022D03D1E06B012840F0A68000F0CD
:104C9000F1FA00BB0298F0B14FF0500080F3118898
:104CA000BFF36F8FBFF34F8FFEE74FF0500080F3DD
:104CB0001188BFF36F8FBFF34F8F00BFFEE7206CEB
:104CC0000028DED04FF0500080F31188BFF36F8FC3
:104CD000BFF34F8FFEE7FFF725FCA06B022D5ED0E0
:104CE000E16B88425BD304F1100801206F460DF19F
:104CF000080900BF0299002900F08280C00702D095
:104D00003846FFF7DFFDFFF731FCFFF77FFEFFF7C7
:104D100009FC94F84400FF2804BF002084F84400F4
:104D200094F84500FF2804BF002084F84500FFF7F1
:104D30001DFC3846494600F079F9002863D1FFF799
:104D4000F1FBD4F838A0D4F83CB0FFF70FFCDA45FB
:104D500016D102994046FFF7CBFD2046FDF704FB34
:104D600000F0ECFB88B94EF60450CEF200004FF094
:104D700080510160BFF34F8FBFF36F8F05E000BF1D
:104D80002046FDF7F1FA00F0D9FBFFF7CBFBA06B53
:104D9000022D04D0E16B88424FF00000AAD2A76B2D
:104DA000226C22B3C5B3E0683146FBF7BBF9E1687A
:104DB000206C2268091A9142E16003D26168404286
:104DC0000844E060A81EB0FA80F040093946002F80
:104DD00018BF012108403F1A2BE04FF0500080F32C
:104DE0001188BFF36F8FBFF34F8F00BFFEE72068BE
:104DF0000025F8B9606800F00FFB6560054619E012
:104E0000FFF7B4FB04E02046FDF7AEFA00F096FB96
:104E1000002003B0BDE8F08FA0683146FBF782F9AF
:104E2000216CD4E9012008449042A06001D320689D
:104E3000A0600025781CA06354F8240F78B12046A8
:104E400000F034FBB8B14EF60450CEF200004FF043
:104E500080510160BFF34F8FBFF36F8F0BE055B1EF
:104E60004EF60450CEF200004FF080510160BFF3C7
:104E70004F8FBFF36F8FFFF779FB012003B0BDE8C1
:104E8000F08F00002DE9F04F85B0049298B10C46E8
:104E90000546002900F0B78000F0ECF9A8B90498A5
:104EA00098B14FF0500080F31188BFF36F8FBFF3BC
:104EB0004F8F00BFFEE74FF0500080F31188BFF323
:104EC0006F8FBFF34F8F00BFFEE705F11000019019
:104ED00005F1240000900DF108090DF1100A4FF0C2
:104EE00000080CE02846FDF73FFA00F027FBFFF72B
:104EF00019FBAF6BFFF73AFB002F00F09280FFF732
:104F000011FBD5F838B0BBF1000F27D02A6C5AB18D
:104F1000E86869681044E860884224BF2868E8604F
:104F2000E9682046FBF7FEF8ABF10100A8632869A9
:104F300070B1019800F0BAFA50B14EF60450CEF2BA
:104F400000004FF080510160BFF34F8FBFF36F8FB0
:104F5000FFF70CFB00200126A0B963E0049850B1D4
:104F6000B8F1000F02D14846FFF7ACFC4FF0010842
:104F7000012038B956E0FFF7F9FA00260020002892
:104F800050D000BFFFF7F2FAFFF740FDFFF7CAFA73
:104F900095F84400FF2804BF002085F8440095F8E8
:104FA0004500FF2804BF002085F84500FFF7DEFA22
:104FB0004846514600F03AF800287FF493AFFFF7D7
:104FC000B1FAAF6BFFF7D2FA2FB12846FDF7CCF953
:104FD00000F0B4FA93E704990098FFF789FC28469B
:104FE000FDF7C2F900F0AAFA00287FF488AF4EF668
:104FF0000450CEF200004FF080510160BFF34F8F9C
:10500000BFF36F8F7BE7286C00283FF445AF4FF06C
:10501000500080F31188BFF36F8FBFF34F8F00BF35
:10502000FEE70026304605B0BDE8F08F70B5D8B178
:105030000D4611B30446FFF775FA43F6243EC2F25B
:10504000000EDEF8002029684B1C20D043F6982C77
:10505000C2F2000CD4E90003DCF80060864218D0EC
:105060009A4216D3012424E04FF0500080F31188B7
:10507000BFF36F8FBFF34F8FFEE74FF0500080F309
:105080001188BFF36F8FBFF34F8F00BFFEE700247F
:105090000FE0D21A914209D9881A2860DCF8000082
:1050A0002060DEF800006060002402E0002001249F
:1050B0002860FFF75BFA204670BD00002DE9F04F35
:1050C00081B0950080462846994692460F46FDF7E6
:1050D00085F978B104465C20FDF780F938B10646C1
:1050E000046356B94FF0FF3001B0BDE8F08F2046A1
:1050F000FFF754FA0026002EF4D0306BCDF8008074
:10510000DDF828B04FF000082946A52286F859801E
:10511000FBF71AF8306B00EB8A00043820F0070424
:1051200017F8080006EB080181F8340017F80800AA
:1051300020B1B8F10F0F08F10108F1D10025301DA1
:1051400086F84350BBF1370F28BF4FF0370BC6F836
:105150002CB0C6E913B5FFF7B5F906F11800FFF753
:10516000B1F9CBF138003661B0617662756586F8C9
:105170005850009920464A46FDF70CFA0B993060CA
:105180003046002918BF0E60FCF7ECFD012001B08D
:10519000BDE8F08F2DE9F04381B01746099A002A47
:1051A0004AD00A9D002D50D081465C200090009886
:1051B0005C2854D102200C46089E2A6385F85900C9
:1051C000B9001046A5229846FAF7BEFF286B0021C9
:1051D000625C6B1883F83420625C1AB10F2901F10C
:1051E0000101F5D100EB8700043820F00704002707
:1051F000281D85F84370372E28BF3726EE62C5E993
:105200001367FFF75FF905F11800FFF75BF9C6F1C7
:105210003800A8612046494642462D616D626F659F
:1052200085F85870FDF7B6F928602846FCF79AFD16
:10523000284601B0BDE8F0834FF0500080F311889C
:10524000BFF36F8FBFF34F8FFEE74FF0500080F337
:105250001188BFF36F8FBFF34F8F00BFFEE74FF092
:10526000500080F31188BFF36F8FBFF34F8F00BFE3
:10527000FEE7000043F6F020C2F2000000680028BC
:1052800004BF0120704743F62820C2F200000068E6
:10529000B0FA80F0400940007047000043F6243027
:1052A000C2F20000006870472DE9F04F81B043F66C
:1052B0002820C2F20000006840B143F62420C2F268
:1052C0000000016800240131016098E043F62430B9
:1052D000C2F2000001684E1C06602ED340F6FC208E
:1052E000C2F200000168096849B14FF0500080F334
:1052F0001188BFF36F8FBFF34F8F00BFFEE740F6FB
:105300000432C2F20002016813680360116043F6C0
:105310009821C2F200010A6801320A600168096836
:1053200021B10068C068C068406801E04FF0FF30FC
:1053300043F69421C2F20001086043F69421C2F2C0
:105340000001086840F6F42A40F60C388642C2F2A2
:10535000000AC2F2000801D2002446E040F6FC2711
:10536000C2F20007386800240068A0B343F6302B6F
:10537000C2F2000B1AE000BFD9F82C00DBF80010D5
:10538000884288BFCBF8000000EB800008EB80006B
:105390002946FFF7B9F8D9F82C00DAF80010C96AE5
:1053A0003A68884228BF01241068B8B13868C068DC
:1053B000D0F80C904D4655F8040F864210D328467D
:1053C000FFF746F8D9F828000028D5D009F11800D1
:1053D000FFF73EF8D0E74FF0FF3005E04FF0FF3029
:1053E00043F69421C2F200010860DAF80000C06AB6
:1053F00000EB800058F82000012888BF012443F604
:105400003030C2F200000068002818BF0124204696
:1054100001B0BDE8F08F0000B0B580B1044640F6A1
:10542000F420C2F200000068A0420AD04FF0500001
:1054300080F31188BFF36F8FBFF34F8FFEE700201B
:10544000B0BD206D38B3411EE06AE26C2165904228
:105450004FF0000008BFB0BDE1B9251D2846FEF79A
:10546000F7FFE06CC0F13801A16143F63021E06242
:10547000C2F200010A68904288BF086040F60C3111
:1054800000EB8000C2F2000101EB80002946FFF72B
:105490003BF80120B0BD4FF0500080F31188BFF3FE
:1054A0006F8FBFF34F8F00BFFEE70000B0B5C0683D
:1054B000C5687DB105F118042046FEF7C9FF43F623
:1054C0002820C2F20000006868B143F69C20C2F2B6
:1054D00000001DE04FF0500080F31188BFF36F8F84
:1054E000BFF34F8FFEE72C1D2046FEF7B1FF43F6BA
:1054F0003021C2F20001E86A0A68904288BF086061
:1055000040F60C3100EB8000C2F2000101EB80009C
:105510002146FEF7F9FF40F6F421C2F20001E86AE5
:105520000968C96A884291BF002043F63031C2F24F
:105530000001012088BF0860B0BD00002DE9F04FD8
:1055400081B043F62824C2F20004206868B1FEF757
:10555000E9FF206801382060206880B10024FFF74F
:1055600005F8204601B0BDE8F08F4FF0500080F301
:105570001188BFF36F8FBFF34F8F00BFFEE743F675
:105580001C20C2F200000068002847D043F69C2689
:10559000C2F20006306843F630380028C2F2000834
:1055A00045D043F6302740F60C3940F6F42BC2F2D2
:1055B0000007C2F20009C2F2000B4FF0010A00BF5F
:1055C000F068C56805F11800FEF742FF2C1D204663
:1055D000FEF73EFFE86A3968884288BF386000EB12
:1055E000800009EB80002146FEF78EFFE86ADBF8B9
:1055F0000010C96A884228BFC8F800A03068002897
:10560000DED1A5B140F6FC20C2F2000001680968B5
:1056100031B10068C068C068406803E000249EE7BC
:105620004FF0FF3043F69421C2F20001086043F6C8
:105630002424C2F20004256855B10126FFF734FE88
:10564000002818BFC8F80060013DF7D10020206095
:10565000D8F8000060B14EF60450CEF200004FF0D2
:1056600080510160BFF34F8F0124BFF36F8F76E746
:10567000002474E780B586B0FCF702FC43F62830BE
:10568000C2F20000006808B30020CDE9040005A8BC
:1056900004A903AAFEF7FCFEDDE903200221DDF8E0
:1056A00014C0CDE9001042F2D100C0F600000CA1F8
:1056B0000023CDF808C0FFF76DFD43F62C31C2F290
:1056C0000001086010B1012006B080BD4FF050000D
:1056D00080F31188BFF36F8FBFF34F8FFEE700BFDA
:1056E000546D72205376630002E008C8121F08C18F
:1056F000002AFAD170477047002001E001C1121F53
:10570000002AFBD1704700000000000000000102E9
:105710000304060708090000000001020304010257
:1057200002030405060708090A0B0C0D0E0F1010E2
:1057300074746C7A6900636C65617200636D647384
:105740000068656C70006B657973007365745661F1
:1057500072007573657273007661727300646566BA
:1057600061756C742075736572006261636B737030
:105770006163650074616200656E74657200656ED8
:105780007465720064656C65746500757000646FA3
:10579000776E007269676874006C65667400626198
:1057A000636B737061636500636C65617220636F26
:1057B0006E736F6C65006C69737420616C6C206330
:1057C0006D640073686F7720636F6D6D616E642028
:1057D000696E666F0D0A68656C70205B636D645D51
:1057E000006C69737420616C6C206B657900736563
:1057F0007420766172006C69737420616C6C207522
:10580000736572006C69737420616C6C20766172D0
:1058100000006D6F64756C655F6E756C6C5F696EB2
:10582000697400082008000D0A436F6D6D616E6495
:10583000204C6973743A0D0A000D0A566172204CAF
:105840006973743A0D0A000D0A55736572204C692C
:1058500073743A0D0A000D0A4B6579204C69737414
:105860003A0D0A00436F6D6D616E64206E6F742097
:10587000466F756E640D0A000D0A5761726E696E8F
:10588000673A20436F6D6D616E6420697320746F99
:105890006F206C6F6E670D0A000D0A205F202020BC
:1058A0002020202020205F2020205F20202020207A
:1058B000202020202020202020202020205F2020A9
:1058C00020202020202020205F205F200D0A7C2027
:1058D0007C202020205F5F5F7C207C5F7C207C5FC1
:1058E000205F5F5F205F205F5F2020205F5F5F7C25
:1058F000207C5F5F2020205F5F5F7C207C207C0D10
:105900000A7C207C2020202F205F205C205F5F7C91
:10591000205F5F2F205F205C20275F5F7C202F208F
:105920005F5F7C20275F205C202F205F205C207C35
:10593000207C0D0A7C207C5F5F7C20205F5F2F2015
:105940007C5F7C207C7C20205F5F2F207C202020BF
:10595000205C5F5F205C207C207C207C20205F5FBF
:105960002F207C207C0D0A7C5F5F5F5F5F5C5F5F48
:105970005F7C5C5F5F7C5C5F5F5C5F5F5F7C5F7CCC
:10598000202020207C5F5F5F2F5F7C207C5F7C5C21
:105990005F5F5F7C5F7C5F7C0D0A0D0A4275696CFE
:1059A000643A2020202020202041707220313320B2
:1059B000323032342031313A31383A34300D0A56EF
:1059C000657273696F6E3A2020202020332E322EAC
:1059D000330D0A436F707972696768743A2020202A
:1059E0002863292032303230204C65747465720D82
:1059F0000A0020200022001B5B324A1B5B3148005A
:105A00002C203078007368656C6C5F756172745F10
:105A1000696E697400000000805B000800000020CF
:105A200010000000E8560008905B000810000020FD
:105A3000283F0000F85600083412CDAB1258000879
:105A4000DD1C000800000000D4C3B2A13412CDABAD
:105A5000055A00086543000802000000D4C3B2A143
:105A60000008000030570008115800085D57000872
:105A7000002100004B570008B5370008EE5700081A
:105A80000009000000415B1BED3F00088B57000838
:105A90000009000000425B1BA12700088E57000888
:105AA0000019000000435B1B4135000893570008B4
:105AB0000019000000445B1B65330008995700087B
:105AC00000090000000000092D3C00087457000880
:105AD0000019000000000008B52500086A570008FA
