:020000040800F2
:10000000383F002001010008A5140008E91300088A
:10001000A1140008450300080519000800000000AD
:100020000000000000000000000000005115000862
:100030004903000800000000E114000875150008DD
:100040001B0100081B0100081B0100081B01000820
:100050001B0100081B0100081B0100081B01000810
:100060001B0100081B0100081B0100081B01000800
:100070001B0100081B0100081B0100081B010008F0
:100080001B0100081B0100081B0100081B010008E0
:100090001B0100081B0100081B0100081B010008D0
:1000A0001B010008091600081B0100081B010008BD
:1000B0001B0100081B0100081B0100081B010008B0
:1000C0001B0100081B0100081B0100081B010008A0
:1000D0001B010008FD1800081B0100081B01000897
:1000E0001B0100081B0100081B010008DFF80CD0F1
:1000F00000F016F9004800473D1D0008383F002079
:100100000648804706480047FEE7FEE7FEE7FEE7B1
:10011000FEE7FEE7FEE7FEE7FEE7FEE7051600085E
:10012000ED00000840EA01039B0703D009E008C97D
:10013000121F08C0042AFAD203E011F8013B00F8AC
:10014000013B521EF9D27047D2B201E000F8012BF8
:10015000491EFBD270470022F6E710B513460A4647
:1001600004461946FFF7F0FF204610BD421C10F868
:10017000011B0029FBD1801A704710B5002200E056
:10018000521C835C8C5CA34201D1002BF8D1D8B205
:10019000E1B2401A10BD30B505460020034600E02C
:1001A0005B1C934205D2EC5CC85C201A01D1002C88
:1001B000F6D130BD80EA010210B502F000434000E4
:1001C00022D04A001FD0010E01EB1261C0F356008D
:1001D000C2F3560240F4000042F40002A0FB0220E9
:1001E00000047F39140400D0401C50EA124001D4AE
:1001F0004000491EC2B20C0604EBD010401C40085F
:10020000802A02D003E0002010BD20F00100002968
:1002100000DA0020184310BD30B480EA010202F079
:10022000004530F0004221F0004013D090B1C30DE2
:10023000D40DC2F31601C0F31600E41A41F4000114
:1002400040F400027D34914201D3641C00E0490077
:10025000002C02DA30BC002070474FF4000000236D
:10026000914201D3891A034340084FEA4101F7D173
:1002700051B1914202D14FF0004105E002D24FF05E
:10028000010101E06FF0010103EBC450284430BCD0
:1002900000F00EB8C10F80EAE0700844CA07962348
:1002A000002100F00EB896230022114600F009B894
:1002B0000029A8BF7047401C490008BF20F001007A
:1002C000704710B4B0FA80FC00FA0CF050EA010458
:1002D00004BF10BC704749B1CCF1200421FA04F4EA
:1002E00011FA0CF118BF012121430843A3EB0C01C3
:1002F000CB1D4FEA00614FEA102042BF002010BC26
:10030000704700EBC35010440029A4BF10BC7047D5
:10031000401C490008BF20F0010010BC70470000DD
:10032000064C074D06E0E06840F0010394E8070042
:1003300098471034AC42F6D3FFF7DCFEB853000800
:10034000D8530008FEE7000070470000EFF310806C
:1003500072B600BFFEE70000014690F821000228B7
:1003600013D10868D1E90FC3026822F00E020260BF
:10037000026822F001020260012000FA03F2CCF8C8
:10038000042081F82100002002E00420886301207D
:10039000002281F82020704780B590F821100229B2
:1003A00023D10268116821F00E0111602F2113681A
:1003B000C4F202018A4240F20401C4F2020123F0B5
:1003C0000103136016DD3023C4F202039A421DD0EC
:1003D0004423C4F202039A421BD05823C4F20203FE
:1003E0009A421BD14FF4803320E004218163012124
:1003F000084680BD0823C4F202039A420CD01C2395
:10040000C4F202039A4209D110230FE04FF4807323
:100410000CE04FF4805309E0012307E001F1680C80
:100420004FF08073624508BF4FF480130B600121C9
:1004300080F82110426B002180F820100AB190470B
:100440000021084680BD0000B0B5044600F014F954
:10045000054640F20600C2F200000078611C18BF99
:10046000044400BF00F008F9401BA042FAD3B0BD1D
:100470002DE9F04F82B00E68002E00F0F38041F2BB
:100480000042C4F20102042340F2004E904208BF31
:1004900003234FF6FF7CC4F2010E009300240123D6
:1004A000C1F2100C4FF0000A4FF0000941E00125A5
:1004B00004F00C030F279F402BEA070705FA03F30C
:1004C0003B4342F826304E6840F20C45F202DEF81B
:1004D000082054BF22EA080242EA0802C4F20105D9
:1004E000CEF808202A68B30254BF22EA080242EA82
:1004F00008022A60B303DEF8042054BF22EA08028F
:1005000042EA0802F303CEF80420DEF800204FF0A0
:10051000010354BF22EA080242EA0802CEF8002092
:100520000E680AF1010A36FA0AF204F1040400F036
:10053000998003FA0AFB16EA0B08F1D04A68624573
:1005400010DC122A50D8DFE802F0330A41454F4F41
:100550004F4F4F4F4F4F4F4F4F4F4F484C00D1F8D9
:100560000C9041E04FF6FF75C1F22105AA420FDC65
:100570000025C1F21105AA421AD00025C1F21205C8
:10058000AA4215D00025C1F22105AA4210D02BE0C5
:100590000025C1F22205AA420AD00025C1F2310588
:1005A000AA4205D00025C1F23205AA421CD100BFE3
:1005B0008A6842B1012A14BFC0F814B0C0F810B064
:1005C0004FF0080910E04FF004090DE0CA6802F18D
:1005D000080909E04FF0000906E0CA6802F10409C1
:1005E00002E0CA6802F10C0922460546B8F5807F90
:1005F00024BF203A04352E680F279740BE4309FADE
:1006000002F232432A60CA79D2067FF589AF41F2FD
:100610001803C4F202031A684FEA9A0642F0010274
:100620001A601A6840F6000302F001020192019A72
:10063000AEF57E7252F826B0C4F2010398420FD094
:1006400040F60043C4F2010398423FF430AF41F258
:100650000003C4F20103009D984208BF022527E76A
:10066000002525E702B0BDE8F08F0000002A08BF92
:10067000090401617047000043F61820C2F200002F
:100680000068704740F2060043F61821C2F20000ED
:10069000C2F2000100780A68104408607047000048
:1006A00080B542F20000C4F20200016841F010017E
:1006B0000160032000F09AF80F2000F005F800F028
:1006C00055F8002080BD0000B0B586B041F2180199
:1006D000C4F202010A68044642F400620A60096832
:1006E00001A801F4006101910199694600F03CF90B
:1006F00000F074F94DF68361C4F21B31A0FB0101D7
:100700004FF0FF3000EB914140F6241042F60042DA
:10071000C2F20000C4F2010240F2E7330025C0E952
:100720000021C0E902530561856100F023FB054605
:10073000C0B940F62410C2F2000000F04BFB0546A1
:1007400080B9192000F03EF80F2C0AD81920214654
:10075000002200F03BF840F20800C2F20000046002
:1007600000E00125284606B0B0BD000080B582B08B
:1007700041F21800C4F202000168002241F00101B8
:100780000160016801F0010101910199416841F0A6
:100790008051416040680F2100F080500090009827
:1007A0006FF0010000F012F80420C4F201000168AB
:1007B000022262F31A61016002B080BD80B501F0CF
:1007C000A3F880BD80B501F0B3F880BD70B51446C4
:1007D0000D46064601F0BCF82946224600F064FEAC
:1007E0000146304601F0BCF870BD000080B501F054
:1007F000C9F880BD2DE9F04381B0002800F0898060
:1008000042F20008C4F202080446D8F800000D467F
:1008100000F0070088420CD2D8F8000020F0070052
:100820002843C8F80000D8F8000000F00700A842EC
:100830006FD1206841F204098107C4F2020917D57B
:10084000410705D5D9F8001041F4E061C9F800105E
:10085000010705D5D9F8001041F46051C9F800101E
:10086000D9F80010A26821F0F0011143C9F8001076
:10087000C00745D1D8F8000000F00700A8420CD905
:10088000D8F8000020F007002843C8F80000D8F886
:10089000000000F00700A8423BD12068410707D5BF
:1008A000D9F80010E26821F4E0611143C9F80010A2
:1008B000000708D5D9F80000216920F4605040EA0B
:1008C000C100C9F8000000F09BF8D9F8001045F20B
:1008D000FA02C1F30311C0F60002515C40F20002BB
:1008E00020FA01F140F20800C2F200000068C2F2F2
:1008F00000021160FFF7E8FE002001B0BDE8F083C0
:100900006068022809D0012829D159F8041C8903FC
:1009100007D4012001B0BDE8F08359F8041C890117
:10092000F7D5D9F8001021F003010843C9F80000F9
:10093000FFF7A2FE064641F2883700BFD9F8000053
:10094000616800F00C00B0EB810F93D0FFF794FECC
:10095000801BB842F2D9032001B0BDE8F08359F8FA
:10096000041C8907D5D5DCE70F22026041F204029E
:10097000C4F20202136803F003034360136803F038
:10098000F0038360136803F4E063C36012684FF4FC
:10099000E06303EAD202026142F20000C4F2020004
:1009A000006800F0070008607047000040F2000097
:1009B000C2F200000068704780B5FFF7F7FF41F210
:1009C0000401C4F20201096845F20A12C1F30221CE
:1009D000C0F60002515CC84080BD000080B5FFF742
:1009E000E5FF41F20401C4F20201096845F20A126E
:1009F000C1F3C221C0F60002515CC84080BD0000B6
:100A000041F2040CC4F2020CDCF8003003F00C00DC
:100A1000082841F20020C0F27A0018BF7047C3F3E3
:100A200083420AA18A5CD90305D440F60010C0F2C3
:100A30003D0050437047DCF8001008A3C1F340416B
:100A4000595C5043B0FBF1F0704700BF020304054E
:100A5000060708090A0B0C0D0E0F1010010200000A
:100A60002DE9F04182B0002800F0C48004460078EF
:100A700041F20006C007C4F2020643D0706800F0DD
:100A80000C00042817D0706800F00C00082802D170
:100A90007068C0030FD465682DB1B5F5A02F10D0D4
:100AA000B5F5803F11D0306820F480303060306878
:100AB00020F480200CE03068800323D5606808BBF8
:100AC00098E0306840F480203060306840F4803036
:100AD0003060FFF7D1FD002D054610D0306880034F
:100AE00010D4FFF7C9FD401B6428F7D904E100BF0B
:100AF000FFF7C2FD401B64284FF0030077D8306831
:100B00008003F5D42078800718D5706810F00C0F9A
:100B100007D0706800F00C00082826D17068C00368
:100B200023D43068800702D52069012862D130685B
:100B3000616920F0F80040EAC100306020780007C9
:100B40003DD5A06938B30020C4F242200121C0F88D
:100B50008014FFF791FD0546706A80072DD4FFF7DA
:100B60008BFD401B0228F7D9C6E02069002840F21F
:100B70000000C4F2422000F0968001210160FFF7DE
:100B80007BFD054630688007D1D4FFF775FD401B1B
:100B90000228F7D9B0E00020C4F242200021C0F8BA
:100BA0008014FFF769FD0546706A800707D5FFF7D7
:100BB00063FD401B0228F7D99EE000F0B3FC2078CB
:100BC00040071BD4E5698DB1706800F00C0008285F
:100BD00047D1012D0ED07068216A00F480328A421C
:100BE00008D1616A00F47010884203D1002002B07D
:100BF000BDE8F081012002B0BDE8F081F06910F09D
:100C0000805808D1F06940F08050F061F06900F040
:100C100080500190019847F20007C4F2000738683D
:100C2000C00510D4386840F480703860FFF724FDA8
:100C3000054600BF3868C00505D4FFF71DFD401B01
:100C40006428F7D958E0E5681DB1052D3CD0012D89
:100C50003ED0306A20F001003062306A20F004009B
:100C600039E00027C4F2422700203866FFF704FD70
:100C7000022D05460CD100BF3068800154D5FFF726
:100C8000FBFC401B02284FF00300F5D9AFE700BF83
:100C900030688001AAD5FFF7EFFC401B02284FF017
:100CA0000300F5D9A3E700210160FFF7E5FC054645
:100CB000306880077FF542AFFFF7DEFC401B02285B
:100CC0004FF00300F4D992E7306A40F0040030623C
:100CD000306A40F001003062FFF7CEFC002D05467F
:100CE00041F2883714D000BF306A800713D4FFF771
:100CF000C3FC401BB842F7D9032002B0BDE8F08125
:100D0000FFF7BAFC401BB8424FF003003FF66FAF4D
:100D1000306A8007F4D4B8F1000F7FF453AFF06964
:100D200020F08050F0614DE7206AB0F5803F05D19A
:100D30007168A26821F40031114371607168626AC0
:100D400021F4741110430843706001203866FFF7E6
:100D500093FC0446306880013FF548AFFFF78CFCF8
:100D6000001B02284FF00300F4D940E77047000051
:100D700070470000002804BF0120704710B50446EA
:100D800090F83D0028B9002084F83C00204600F08F
:100D90001FF8022084F83D002068211D00F03CFC73
:100DA000012084F8460084F83E0084F83F0084F86F
:100DB000400084F8410084F8420084F8430084F83D
:100DC000440084F8450084F83D00002010BD000078
:100DD0007047000090F83D1001291CBF01207047AA
:100DE000022180F83D10006840F2FF72C168C4F231
:100DF0000002904241F00101C16005DCB0F1804F7A
:100E00000ED040F2004107E042F60041C4F2010179
:100E1000884205D040F60001C4F20001884206D1A4
:100E2000816801F00701062904BF002070470168AE
:100E300041F0010101600020704700007047000090
:100E400010B5044600680169890744BFC1685FEABC
:100E5000817138D420680169490744BFC1685FEADD
:100E600041713CD420680169090744BFC1685FEA49
:100E7000017141D420680169C90644BFC1685FEAB5
:100E8000C16145D420680169C9071CBFC1685FEA18
:100E9000C1714AD120680169090644BFC1685FEA8F
:100EA000016149D420680169490644BFC1685FEA0D
:100EB000416148D420680169890644BFC1685FEA7E
:100EC000816147D410BD6FF00201016101212177DA
:100ED0008069800745D02046FFF7B0FF47E06FF0FC
:100EE0000401016102212177806910F4407F41D023
:100EF0002046FFF7A3FF43E06FF0080101610421E2
:100F00002177C06980073ED02046FFF797FF40E079
:100F10006FF01001016108212177C06910F4407F52
:100F20003AD02046FFF78AFF3CE06FF001010161F3
:100F3000204600F03FF8ADE76FF0800101612046E8
:100F4000FFF714FFAEE76FF040010161204600F0AB
:100F50003DF8AFE76FF0200101612046FFF708FF81
:100F600010BD204600F022F8204600F021F80020B5
:100F700020776FE7204600F019F8204600F018F8B7
:100F8000002020776EE7204600F010F8204600F0A1
:100F90000FF8002020776DE7204600F007F8204684
:100FA00000F006F8002020776CE700007047000092
:100FB0007047000080B5006842F60041C4F20101AC
:100FC000884208BFFFF75EFB80BD0000704700004D
:100FD0007047000070470000B0B582B00368044657
:100FE0001868D9685A6900F02F05202D01F02005F6
:100FF00005D125B1204600F091FB02B0B0BD5FEAFB
:10100000007C1EBF02F0010E01F4907212EB0E0282
:101010004AD1226B0840C1063DD5012A3BD10020B0
:10102000019018680190586801900198586940062D
:1010300042D4A08DE18DE28D002A1CBF401A5FEAE8
:10104000004101D102B0B0BD216851E8031F226800
:1010500021F4907142E80313002BF5D1216851E887
:10106000051F226821F0010142E80513002BF5D18C
:10107000202184F842100021216300BF216851E83B
:10108000031F226821F0100142E80313002BF5D161
:101090000221616354E0010658D44006D2D52046AF
:1010A00000F030FB02B0B0BDC20718BF11F480726F
:1010B00051D1420755D45BE0E06B016849688AB2C0
:1010C000002ABFD0A38D9A42BCD2E1858069202836
:1010D00031D000BF206850E8030F216820F48070F1
:1010E00041E80302002AF5D1206850E8050F216885
:1010F00020F0010041E80502002AF5D1206850E8FF
:10110000050F216820F0400041E80502002AF5D1D2
:10111000202084F842000020206300BF206850E8AF
:10112000030F216820F0100041E80302002AF5D1E6
:10113000E06BFFF711F902206063A08DE18D401A8A
:1011400081B22046FFF744FF02B0B0BD204600F058
:10115000ABFB02B0B0BD626C42F0010262644207B8
:1011600006D5BEF1000F03D0626C42F00202626449
:10117000820706D5BEF1000F03D0626C42F0040274
:101180006264BCF1000F06D55EEA050203D0626C12
:1011900042F008026264626C002A3FF453AF0840D8
:1011A000800602D5204600F0B9FA20684069616CDB
:1011B00000F0400001F00801401827D0204600F060
:1011C00079FA2068406940061BD500BF206850E8C6
:1011D000050F216820F0400041E80502002AF5D102
:1011E000E06B70B141F2A561C0F600014163FFF709
:1011F000D3F800283FF426AFE06B416B884702B07C
:10120000B0BD2046FFF7E6FE02B0B0BD2046FFF7B6
:10121000E1FE0020606402B0B0BD0000002804BF01
:101220000120704710B5044690F8410028B900200D
:1012300084F84000204600F021F8242084F8410082
:101240002068C16821F40051C160204600F0CAFA4C
:101250002068016921F490410161416921F02A016E
:101260004161C16841F40051C160002020216064E7
:1012700084F8411084F84210606310BD70B586B0E8
:1012800040F60004C4F20104006804F54051002651
:1012900088420596CDE90366029601D006B070BD7E
:1012A00041F21800C4F20200016802AD41F480412D
:1012B0000160016801F4804101910199016841F0E8
:1012C000040101600068294600F0040001900198C3
:1012D0004FF40070029002200390032005902046F6
:1012E000FFF7C6F84FF48060CDE902062046294694
:1012F0000496FFF7BDF825200E210022FFF766FABD
:101300002520FFF75FFA06B070BD000010B590F819
:101310004230202B1CBF022010BD00294FF00104D9
:1013200018BF002A01D1204610BD0024046300F03C
:10133000A1FA204610BD000010B5016843F6000276
:10134000C4F20102914218BF10BD40F62014C2F24F
:10135000000421460122FFF7D9FF40F66C70C2F26B
:1013600000002146012200F009FC10BD034690F860
:10137000410020281CBF0220704700294FF00100C7
:1013800018BF002A00D170471962002021219A84D9
:10139000DA84586483F841101968CA6842F0800200
:1013A000CA60704710B582B00446216843F6000257
:1013B000C4F20102002091428DF8070001D002B072
:1013C00010BD40F67870C2F200000DF10701012255
:1013D00000F096FB0028F2D00DF107012046012213
:1013E000FFF7C4FF02B010BDFEE70000F0B585B006
:1013F000002541F21800CDE90355CDE90155C4F2AD
:101400000200016841F2000441F01001016001682E
:10141000C4F2010401F01001009100990168012259
:1014200041F02001016001684FF4005601F02001F5
:10143000009100990168012741F0040101600068F2
:101440004FF4005100F00400009000982046FFF790
:101450000DF90320049001A92046CDE90167039509
:10146000FFF706F805B0F0BD80B540F6B41043F6BE
:101470000001C2F20000C4F2010100234FF00C0C85
:101480004FF4E13280E80E00C0E90333C0E905C340
:10149000C361FFF7C3FE002818BFFEF757FF80BDEA
:1014A000FEE70000FEE7000000F0070080F0070301
:1014B000042B28BF04234FF0FF3C03380CFA03F33E
:1014C00038BF0020994381400CFA00F022EA000066
:1014D000084370470000000000000000000000000A
:1014E000EFF30980BFF36F8F0D4B1A6820E9F00FFF
:1014F00010602DE908404FF0500080F3118802F091
:10150000BBFF4FF0000080F31188BDE80840196868
:101510000868B0E8F00F80F30988BFF36F8F704759
:10152000F40A002081B040F20000C2F2000000681E
:1015300044F6D351C1F26201A0FB0101480A0090B8
:1015400000BF0098411E00280091F9D101B07047FA
:10155000074B19680868B0E8F00F80F30988BFF3FB
:101560006F8F4FF0000080F311884EF00D0E704722
:10157000F40A002080B54FF0500080F31188BFF3CB
:101580006F8FBFF34F8F03F075FB30B14EF60450F1
:10159000CEF200004FF080510160002080F31188EE
:1015A00080BD000070B590B006AC20462821FEF743
:1015B000D2FD012006900A904FF4E01000254FF470
:1015C000803102260F9020460595CDE90355CDE9DF
:1015D0000155CDE90715CDE90D61FFF741FA78B95D
:1015E0000F20CDE901064FF48060CDE9040501A884
:1015F00002210395FFF7FEF8002804BF10B070BD6C
:10160000FEF7A4FE7047000080B540F62410C2F239
:101610000000FFF715FC80BD10B540F2FF7E0368A7
:10162000C4F2000E42F6004C7045C4F2010C05DC19
:10163000B0F1804F0AD040F2004203E0604505D08F
:1016400040F60002C4F20002904203D14A6823F03F
:1016500070031343704505DCB0F1804F0AD040F2AF
:10166000004203E0604505D040F60002C4F20002EB
:10167000904203D1CA6823F44073134323F08002DD
:101680004B69D1F800E08C681A4360450260C4627F
:10169000C0F828E002D10969CCF83010012141617D
:1016A00010BD000080B5406A0021C185C184FFF7EC
:1016B00091FC80BD016851E8031F026821F490711C
:1016C00042E80313002BF5D1016851E8051F0268B9
:1016D00021F0010142E80513002BF5D1016B01292E
:1016E0000AD100BF016851E8031F026821F0100110
:1016F00042E80313002BF5D1202180F8421000218D
:101700000163704780B50168CA6822F04002CA6070
:10171000202180F84110FFF745FE80BD80B582B0E2
:1017200090F8421022291ED18268B2F5805F02D162
:10173000016900294AD0816AB2F5805F07D00AB9F1
:10174000026922B10268526802F07F0201E0026879
:1017500052680A700121826A11448162C18D013987
:101760000A04C18501D002B080BD0168CA6822F0B8
:101770002002CA60CA6822F48072CA604A6922F0F4
:1017800001024A61202180F8421000214163026B6E
:10179000012A23D1016300BF016851E8031F0268D9
:1017A00021F0100142E80313002BF5D101680A680B
:1017B000D20606D5002201920A6801924968019179
:1017C0000199818DFFF704FC02B080BD0168826A37
:1017D00049686FF35F2111800221BCE7FFF7ACFD80
:1017E00002B080BD10B504460068D4E902C2236986
:1017F000016921F4405111430161616943EA0C021E
:101800001143C26841F20C639A431143C1604169BC
:10181000A26921F44071114343F60002C4F20102AF
:101820009042416102D0FFF7C7F801E0FFF7D6F818
:101830006268192148439100B0FBF1F048F21F5152
:10184000C5F2EB11A0FB01235A096FF0630302FB01
:101850000300322303EB0010A0FB0101F02303EA95
:101860005113206803EB0212C1F34311114481604C
:1018700010BD0000816200218285C2854164222161
:1018800080F84210016921B10168CA6842F480728F
:10189000CA600168486940F001004861C86840F0CA
:1018A00020020020CA60704790F84110212923D1FE
:1018B0008168B1F5805F01D1016931B1016A0268C7
:1018C0004B1C03620978516007E0016A036831F834
:1018D000022B6FF35F225A600162C18C01390A0446
:1018E000C18418BF70470068C16821F08001C160E1
:1018F000C16841F04001C1607047000080B500F050
:10190000A5F980BDFEE70000002848BF704700F041
:101910001F01012202FA01F14EF280124009CEF2BB
:10192000000242F82010BFF34F8FBFF36F8F704754
:10193000002848BF704700F01F01012202FA01F1A0
:101940004EF200124009CEF2000242F82010704719
:101950004EF60C50CEF200000068C0F30220704733
:101960004EF6145300F00F02CEF2000309011A44A0
:1019700000F16043B0F1FF3FC8BF03F5644211704E
:10198000704700004EF60C51CEF200010A684FF687
:10199000FF031A4060F30A2242F0806040F0FD70BD
:1019A00008607047FEE700002DE9F04140F2D4687E
:1019B000C2F20008D8F80010002908BFBDE8F08185
:1019C00040F2DC6704460026C2F20007002506E06C
:1019D000D8F800000135854206F1140607D23868B0
:1019E0003044017BA142F3D180688047F0E7BDE835
:1019F000F081000010B541F2342045F2D8314CF2AC
:101A0000D43ECAF6CD30C0F60001CAF2B21E0AE0DA
:101A100051F8043CB3EB0E03B3FA83F34FEA5313CC
:101A200008BF11463BB10A4652F8143D8342EFD03D
:101A30000023002BF7D10A6840F2DC63C2F20003F6
:101A40008242196016D140F2D86C01F10C030022D9
:101A5000C2F2000C596871450DD119789CF800400C
:101A60000132A14288BF8CF800109968143381427A
:101A7000F0D000E0002240F2D460C2F20000026028
:101A800010BD000082B00120009043F6C1604FF00D
:101A9000000CC0F6000005A180220023CDF804C090
:101AA00003F060F802F08EFCFEE700BF7374617211
:101AB000745F7461736B000070B5002815460446AE
:101AC0000E4608BFFFF76EFF002E08BFFFF76AFF44
:101AD000002025816581C4E9006070BD10B5002833
:101AE000044608BFFFF75EFF2068002808BFFFF725
:101AF00059FF60892189401AB0FA80F0400910BD71
:101B00002DE9F0410028904604460E4608BFFFF735
:101B100049FF2068002808BFFFF744FF002E08BFD8
:101B2000FFF740FF20896189401A81B2414538BFE3
:101B300080465FEA084010D01FFA88F0002100BFFD
:101B4000E28823890A44B2FBF3F5276805FB1322D8
:101B5000BA5C725401318842F2D1E1881FFA88F0F0
:101B600022890144B1FBF2F303FB12116289E18087
:101B700002EB08016181BDE8F0810000F0B581B0A1
:101B80000028174605460E4608BFFFF70BFF2868DA
:101B9000002808BFFFF706FF002E08BFFFF702FF6F
:101BA0006989B94216D3AFB1701E3A4610F8013FA9
:101BB0002E68AC88013A3355AB882E8903F10103B6
:101BC000B3FBF6F404FB16336E89AB80A6F1010378
:101BD0006B81EBD10020B94228BF012001B0F0BDDC
:101BE00010B540F66C1443F60001C2F20004C4F2D2
:101BF000010100220C23C4E900102046C4E902229E
:101C0000C4E90423C4E90622FFF708FB40F62011CB
:101C1000C2F2000120460122FFF778FB40F66C700B
:101C200040F2E061C2F20000C2F200014022FFF780
:101C300043FF40F6787040F22071C2F20000C2F219
:101C400000014FF40072FFF737FF10BD80B540F67A
:101C50006C10C2F20000FFF7BFF980BDB0B50546B9
:101C600025200C46FEF7AAFD40F66C70C2F200007B
:101C700029462246FFF744FF04462520FEF7A2FD31
:101C80002046B0BDF0B581B0054625200C46FEF7D4
:101C900095FD40F67876C2F200063046FFF71EFF4B
:101CA0000746304629462246FFF768FF0446BFB183
:101CB00040F6787040F62111C2F20000C2F2000135
:101CC0000122FFF71DFF01280AD140F66C1040F6F3
:101CD0002111C2F20000C2F200010122FFF746FB0F
:101CE0002520FEF76FFD204601B0F0BDB0B5FFF72F
:101CF00081FE40F2D8650024C2F20005E0B2FFF791
:101D000053FE01342878E1B28142F7D9B0BD00001A
:101D100040F6FC1541F20004C2F20005C4F20104D1
:101D200028784FF4005180F0010220462A70FEF717
:101D30009DFC4FF47A7002F069FAF1E741F2000479
:101D4000C4F20104FEF7ACFCFFF72CFCFFF74EFBDE
:101D5000FFF78AFBFFF7CAFFFFF794FE20464FF418
:101D600000510122FEF782FC6420FEF76DFB204645
:101D70004FF400510022FEF779FC6420FEF764FB6B
:101D8000ECE7000070470000F0B581B00D4643F667
:101D9000243140F6F426C2F20001C2F200060F68B8
:101DA00031680446081D02F0CBF8601C0AD14DB121
:101DB0003068011D43F6FC20C2F2000002F01CF95D
:101DC00001B0F0BD3068E41944600AD340F6043035
:101DD000C2F2000000683168043102F0EFF801B08F
:101DE000F0BD40F6FC20C2F200000068316804310A
:101DF00002F0E4F843F69420C2F2000001688C423D
:101E000038BF046001B0F0BD70B5044602F002F9BD
:101E100043F61C20C2F20000016840F6F4250131AF
:101E20000160C2F20005296843F6F026C2F20006FE
:101E300041B1306860B92868E16AC06A884298BFD9
:101E40002C6005E02C600068012801D100F0BEF98B
:101E500043F62C20C2F20000016801310160616488
:101E600043F63021C2F20001E06A0A68904288BF5E
:101E7000086040F60C3100EB8000C2F2000101EB7B
:101E80008000211D02F0B8F802F0E8F8306880B157
:101E90002868E16AC06A884228BF70BD4EF60450C7
:101EA000CEF200004FF080510160BFF34F8FBFF3BF
:101EB0006F8F70BD70B582B002F0ACF843F6283673
:101EC000C2F20006306850BB43F63424C2F200046C
:101ED000204602F063F843F64825C2F20005284682
:101EE00002F05CF840F6F820C2F20000046040F610
:101EF0000830C2F2000040F6FD1240F6A023056053
:101F00000025C2F20002C2F200030A20102100954F
:101F100002F05EFB306010B103A102F041F902F063
:101F20009DF802B070BD00BF546D725100000000FA
:101F3000F0B581B043F62025C2F200052868E0B173
:101F400043F6103643F61C27C2F20006C2F2000721
:101F500002F060F8F068C468201D01F0F1FF3868F5
:101F60000138386028680138286002F077F8204688
:101F700000F058F828680028EAD101B0F0BD000050
:101F800080B5026C002A08BF80BDC368D0F804C0C9
:101F90001344C360634524BF0368C360C368084635
:101FA0001946FEF7BFF880BD70B5866B036C04461A
:101FB000E3B115461AB3E0681A46FEF7B3F8E168D4
:101FC000206C2268091A9142E16003D261684042A4
:101FD0000844E060A81EB0FA80F040093146002EA7
:101FE00018BF01210840361A002516E02068002598
:101FF00098B9606802F0E8FE656005460DE0A068EB
:102000001A46FEF78FF8216CD4E901200025084418
:10201000A060904224BF2068A060711C2846A16384
:1020200070BD000010B5044690F85900022808BFA2
:1020300010BD012803D030B9206B02F027F82046EC
:1020400002F024F810BD4FF0500080F31188BFF368
:102050006F8FBFF34F8F00BFFEE7000040F6F821FF
:10206000C2F2000109680A68B2FA82F35B090360F0
:10207000002A0EBF0020C8680068704741F2102097
:10208000C2F20000C21D22F0070210F0070CA0EB04
:10209000020318BF104643F6F422C2F200020021E8
:1020A000C2E900014FF42052BCF1000F18BF03F544
:1020B00020520244083A40F6003322F00702C2F2EE
:1020C00000031A60C2E90011111A1A68C0E9002160
:1020D00043F69020C2F20000016043F68820C2F26D
:1020E0000000016043F65C20C2F200000121017093
:1020F0007047000040F60C344EF60455C2F200045E
:10210000CEF200054FF08056FFF712FF206802283C
:10211000FAD32E60BFF34F8FBFF36F8FF4E7000049
:10212000B0B5049D002914BF2A602D60C5E90F01D8
:10213000284601211C4602F095FA85F84C40B0BDB6
:102140002DE9F0470A9C8246206B16460F46DDE9D2
:1021500008599100A5229846FDF7F6FF206B00EB89
:102160008600043820F00706002000BF395C2218E2
:1021700082F83410395C19B10F2800F10100F5D351
:102180000027201D84F84370372D28BF3725E562CE
:10219000C4E9135701F00EFF04F1180001F00AFF23
:1021A000C5F13800A0613046514642462461646260
:1021B000676584F8587000F01BFBB9F1000F2060D0
:1021C00018BFC9F80040BDE8F0870000B0B540F680
:1021D0000C350024C2F20005281901F0DFFE14348A
:1021E000B4F58C6FF8D143F66024C2F200042046A7
:1021F00001F0D4FE43F67425C2F20005284601F032
:10220000CDFE43F69C20C2F2000001F0C7FE43F66B
:102210001030C2F2000001F0C1FE43F6FC20C2F211
:10222000000001F0BBFE40F6FC20C2F2000004609A
:1022300040F60430C2F200000560B0BD80B543F640
:10224000F422C2F2000200BF114612688242FBD3A0
:10225000D1F804C001EB0C03834203D14068604411
:1022600048600846D0F804C000EB0C03934201D04C
:1022700013460BE040F60033C2F200031B689A429B
:1022800004D0D2E9003E0EEB0C02426081420360B2
:1022900018BF086080BD000080B58C46014641F83B
:1022A00004CF9445006108D99A4201D29C4511D2CD
:1022B00040F6F820C2F2000007E08069D21A82429C
:1022C00008D240F60830C2F20000006801F076FE45
:1022D000002080BD012080BD10B5044601F09AFEAB
:1022E000A06BB0FA80F0440901F0B8FE204610BDA2
:1022F00010B5044601F08EFEA06BE16B401AB0FAF7
:1023000080F0440901F0AAFE204610BD064800688E
:10231000006880F3088862B661B6BFF34F8FBFF3E1
:102320006F8F00DF00BF00BF08ED00E070B582B026
:1023300040F6F822C2F2000212680546D2680E4644
:10234000D468201D01F0FCFDE069012810D1A069CE
:102350003246411920462B46FFF79EFF40B100262A
:10236000204600212A460023009602F083FE20B179
:10237000616A2046884702B070BD4FF0500080F37C
:102380001188BFF36F8FBFF34F8F00BFFEE70000D0
:102390002DE9F04387B043F62837C2F200073868CA
:1023A00003A900224FF0000802F0D6FA00285AD004
:1023B00002AC4FF0010903AD13E000BF10F4047F3D
:1023C00047D004980028B06150D081183046134699
:1023D000FFF762FF38682946002202F0BDFA0028A4
:1023E00041D00398B0F1FF3F03DCDDE904200699FA
:1023F000904703980028EDD4059E706910B1301DF8
:1024000001F09EFD204600F099F803990929E1D8D2
:10241000024609FA01F010F0C70FCFD0049BB06953
:10242000C1183046FFF738FF0028D3D0716A304614
:102430008847F0690128CDD10498B16900230A18B2
:1024400030460021CDF8008002F014FE0028C1D1F2
:1024500015E00529BED196F82C000028BAD13046E7
:1024600001F014FEB6E707B0BDE8F0834FF050006E
:1024700080F31188BFF36F8FBFF34F8FFEE74FF0EC
:10248000500080F31188BFF36F8FBFF34F8F00BFF1
:10249000FEE7000070B582B00E46044601F0E4FF8E
:1024A00001A800F04BF8019919B102F01FFD02B02C
:1024B00070BD05464EB9A54207D302F017FD204670
:1024C0002946FFF733FF02B070BD4EB140F6083029
:1024D000C2F2000000680068B0FA80F0420900E033
:1024E000002243F62830C2F200000068611B01F0B0
:1024F0006BFE02F0FBFC0028D9D14EF60450CEF260
:1025000000004FF080510160BFF34F8FBFF36F8F1A
:1025100002B070BD40F6FC20C2F2000001680968FC
:1025200021B10068C068C068406801E04FF0FF302A
:1025300043F69421C2F200010860704770B504466A
:1025400002F092FB40F6F026C2F200063168054622
:10255000884203D200F008F8012000E0002020604B
:102560002846356070BD00002DE9F04182B040F68C
:10257000F827C2F200073868016881B34FF00008FD
:1025800009E000BF606038682946246101F016FD4B
:102590003868016819B3C068C4680668251D2846F4
:1025A00001F0CEFC616A20468847E0690128EFD13E
:1025B000A0693044B042E5D82046002132460023CD
:1025C000CDF8008002F056FD0028E1D14FF0500018
:1025D00080F31188BFF36F8FBFF34F8FFEE740F694
:1025E0000831C2F200010A6808603A6002B0BDE832
:1025F000F081000081B00020009040F20C00C2F297
:10260000000000684FF0500181F31188BFF36F8F15
:10261000BFF34F8F013001D0FEE700BF00980028C4
:10262000FCD001B07047000082B001AC2046FFF73B
:1026300015FD0199FFF72EFFFFF7AAFEF6E7000050
:10264000F0B581B0044601F0E5FC94F94560012E37
:102650000FDB04F1240500BF286850B1284602F0C2
:10266000FDFB002818BF01F06BFE70B2013E01288F
:10267000F2DCFF2684F8456001F0F0FC01F0CAFCB2
:1026800094F94470012F0EDB04F11005286850B155
:10269000284602F0E3FB002818BF01F051FE78B293
:1026A000013F0128F2DC84F8446001F0D7FC01B05E
:1026B000F0BD00002DE9F04381B0044601F0D4FEE6
:1026C00040F60036C2F200063068002808BFFFF767
:1026D000D5FC43F65C29C2F2000999F800000028F5
:1026E00018BF4FF0004020420DD0002402F0FEFB46
:1026F00060071ED04FF0500080F31188BFF36F8F3A
:10270000BFF34F8FFEE7C4B114F0070004F10801D6
:102710001EBF081A00F108015FEA41700ED04FF0A9
:10272000500080F31188BFF36F8FBFF34F8F00BF4E
:10273000FEE7204601B0BDE8F083002143F688287B
:10274000C2F20008D8F800004A1E8242CDD243F6F9
:10275000F420C2F2000005682F4657F8042F8A4281
:1027600011D22B685BB100BF1F4657F8042F2846D3
:102770001D468A4207D22B68002BF5D103E043F6B1
:10278000F420C2F2000033689D42AED004682B688A
:10279000521A112A036010D36818430709D04FF06A
:1027A000500080F31188BFF36F8FBFF34F8F00BFCE
:1027B000FEE742603960FFF741FD43F6902039683B
:1027C000D8F80020C2F200000368511A9942C8F8F4
:1027D000001038BF016099F80000083439680028FB
:1027E0004FF0000018BF41F00041396028607DE7DC
:1027F000034642F2F550C0F600004FF0807C21F015
:10280000010103E90310A3F1400043F8202C7047B5
:1028100040F6907C0022C2F2000C05E093B2032B3C
:1028200002F1010288BF704713B25CF8231000293F
:10283000F4D14CF82300704780B5012100F076F800
:1028400080BD000010B50168044600698968FDF785
:1028500094FC08B108A109E094F8600045F23A211F
:1028600040F00100C0F6000184F86000204601F04D
:10287000B7FA0020E06010BD0D0A70617373776FC6
:102880007264206572726F720D0A00000A784AB194
:102890004B7803F00F03082B04D003688BB11B782F
:1028A00013420ED090F86000C0071EBF00204042C7
:1028B00070474878012100F0100081EA1010404272
:1028C000704701204042704780B500F0C1FA0028EF
:1028D00008BF80BD45F29A31C0F6000101F080FAD0
:1028E00080BD0000B0B504468089E189401A05B278
:1028F000012D07DB2046202101F092F928B2013D8D
:102900000128F7DC217B204600F078F8B0BD0000FC
:1029100080B500F09DFA002818BF00F0A7FC80BD2C
:1029200080B54FF0FF3100F001F880BDB0B5C2892D
:102930000446012908BF002A52D0A38911F1010CD5
:1029400008BF9A424CD0012908BF9A4249D0A289B7
:10295000E189BCFA8CF35D09531AAB420DDD2B46BD
:1029600022692944555C114401F8015CA289E1897E
:1029700001331DB2501AA842F2DC013ABCF1000F3B
:10298000A28105D0481EE0812046082101F048F9C7
:102990002069A18900224254B4F90E00A18988421D
:1029A0000ADA85B221690956204601F039F9013564
:1029B000A18928B28842F5DB2046202101F030F9B8
:1029C000A089E189401A013005B2012DB8BFB0BD20
:1029D0002046082101F024F9681E05B2002DF7DC1D
:1029E000B0BD501EE081581E2169A08180B2002236
:1029F0000A542046012100F001F8B0BD70B500294D
:102A000008BF70BD0C46054604A600BF28463146E7
:102A1000013C01F0E5F92006F8D170BD082008005E
:102A200080B54FF0FF3100F0D5FA80BD10B50446F7
:102A300000F004F8204601F05DF910BDB0B5044681
:102A4000808948B1216900250D5494F86000C007C1
:102A500003D12046FFF7F6FEB0BD204600F008FB8C
:102A6000204600F03FFDE08EE560002808BFB0BDC5
:102A700045F29031C0F60001204601F0B1F96169DC
:102A8000A26D2046002300F0C5FD20B1014620467E
:102A900000F076FDB0BD45F20521C0F600012046EC
:102AA00001F09EF9B0BD000001460078302806D143
:102AB0004A7842F02002782A15D1032000E0002055
:102AC0000A78002A08BF7047013107E04A78002AD7
:102AD0001CBF0420704711F8012B1AB10A782E2A66
:102AE000F4D0F8E77047302806D1487840F020004D
:102AF000622801D10120E3E70220E1E7014611F855
:102B0000012B272A18BF014608785C281BD191F9B0
:102B10000110A1F16202122A0FD80820DFE802F0AA
:102B20001312121212121212121212120A1212128C
:102B3000151218000A2040B27047302902BF002049
:102B400040B27047C8B240B270470D2040B27047E3
:102B5000092040B2704700002DE9F04381B00646DD
:102B600000784FF001092D38B0FA80F04FEA501488
:102B700006EB040008BF4FF0FF39FFF795FF05464D
:102B80000138C1B2022907D840B220A151F82080F3
:102B900021A151F8200002E000204FF00A08304443
:102BA000044400260027013414F8010C2E2803D118
:102BB00001340127F8E700BF48B140B200F00CF93A
:102BC000C0B206FB080607EB87004700EBE7042DC1
:102BD00016D1AFB13046FDF766FB05463846FDF726
:102BE00062FB01462846FDF717FB05464846FDF700
:102BF00051FB01462846FDF7DDFA01B0BDE8F08340
:102C000006FB09F001B0BDE8F08300BF0200000040
:102C10000800000010000000020000000100000099
:102C20000200000010B51C4622B10A78242A25D1E2
:102C30004A781AB30A782D2A0DD0272A07D14B7863
:102C40001BB10846FFF75AFF08E02D2A03D0A2F176
:102C50003003092B05D80846FFF77EFF20600020CF
:102C600010BD5AB1242A05D14B7813B100F032F8C7
:102C7000F4E71AB1084600F005F8EFE74FF0FF302F
:102C800010BD0000F0B581B0044614F8011B002609
:102C9000222918BF04462546002707E02846FFF7EB
:102CA0002DFFB9B26054013501350137287822284B
:102CB00006D05C28F2D030B1B9B26054F4E700BF5E
:102CC000B8B22654F0E7B9B200222046625401B0EF
:102CD000F0BD0000B0B5826D01310023044600252F
:102CE00000F098FC20B10146204600F0C7F80546E8
:102CF0002846B0BD2DE9F0438BB08846054600203C
:102D000089780A90CDE90800CDE90600CDE90400F4
:102D10000390501E01F00F0920EAE0741F1D03AE5E
:102D20009145B8BF814600BF84B157F8041B2846BF
:102D300000223346FFF776FF013C002806F1040627
:102D4000F2D04FF0FF300BB0BDE8F083B9F1070FC0
:102D5000F7D8DFE809F0040A111921262C34D8F835
:102D6000080080470BB0BDE8F083D8F8081003983E
:102D700088470BB0BDE8F083D8F80820DDE90301EF
:102D800090470BB0BDE8F08303AAD8F8083007CA13
:102D900098470BB0BDE8F08303ABD8F808700FCBB1
:102DA00016E0D8F8087003AE4FCE009610E0089DEC
:102DB000D8F8087003AE4FCECDE9006508E0DDE934
:102DC0000854D8F8087003AE4FCECDE900650294E0
:102DD000B8470BB0BDE8F083A0F13001C9B20A29B1
:102DE00001D2D02105E0A0F16101C9B2062903D2C8
:102DF000A921084440B27047A0F14101C9B20022A4
:102E0000062938BFA0F1370250B27047C06870473A
:102E100010B540F68471C2F2000130220A724FF000
:102E20003032C1E90022417801F00F01012988BF49
:102E3000072901D8406810BD0829FBD040F68474EA
:102E40004068C2F20004214600F0B4FE204610BDE6
:102E500040F690720021C2F2000207E090F8603064
:102E60009B0748BF70470131052904D052F8210063
:102E70000028F3D1F7E700207047000080B54878BC
:102E800000F00F000238052817D8DFE800F0050829
:102E90000C030310886880BD8868006880BD88685E
:102EA000B0F9000080BD886890F9000080BD886896
:102EB000416811B10068884780BD002080BD0000D6
:102EC0002DE9F04F83B000296ED00446806B0D468B
:102ED00010F47F4F05D06FF0FF0A4FF0000801207B
:102EE00016E010F47F0F06D040F2000ACFF6FF7A0A
:102EF0004FF008080BE04FF010084FF07F4AB0F198
:102F0000807F38BF4FF0180838BF4FF0000A00200C
:102F10000290B4F85C0000283ED0FF20A8F1080120
:102F2000A76D00FA08FB8840019000204FF00009CF
:102F300008E0002509F10109B4F85C100FFA89F0E6
:102F4000884229DA07EB0016707800F00F00092894
:102F5000F0D120463146FFF799FC0028EAD13046EF
:102F600050F8042FA16B02EA0A038B42E2D102EA75
:102F70000B036AB202FA08F29342DBD11143029AC0
:102F8000A1631AB9006801990842D2D1B16809B1A8
:102F9000204688470025A563280605D00020A063A9
:102FA00069B2204600F094FA03B0BDE8F08F00004B
:102FB000B0B50C460546FFF74BFF50B1012D02D1CD
:102FC00000F050F9B0BD022DB8BFB0BD616800F08F
:102FD0005BFEB0BD10B50129044636DBB4F85000E5
:102FE000B4F85210B4F95420884288BF0146531EE9
:102FF00048428242A4F85430D8BFA4F85400204676
:10300000FFF770FCB4F9540018B3B4F85210084438
:10301000411D46F26760C6F2666081FB00025310F4
:1030200003EBD27202EB8202891A04EB8101206960
:10303000C96B00F0DDFC0028A08108BF10BD21692C
:10304000E081204600F0CCFE02E0B1F1FF3F03DD5D
:1030500010BD0020E06010BDB4F85400013001B292
:103060000129A4F85400CADB0020A4F8540010BDC4
:1030700010B50446B0F850000021A4F8541070B107
:10308000B4F85200411E002808BF042104EB81005F
:10309000C06B2169FDF771F8002808BF10BDB4F8B6
:1030A0005200216904EB8000C06B00F0A1FC20B14C
:1030B000B4F852000130A4F85200B4F850000130C6
:1030C00081B20529B4F8521028BF05200529A4F8BB
:1030D000500024BF0020A4F8520010BD10B54AF6DD
:1030E000AB23CAF6AA23044690F86000A2FB032390
:1030F000002240F00100226084F86000C4E903214E
:103100009808A4F85420226501EB93013822A08688
:10311000A318043259604C2A0144F9D145F2004009
:1031200045F22051C0F60000C0F60001A065081A63
:103130000009A4F85C002046FFF76AFBA26D06A117
:103140002046002300F066FA0146204600F0A4FA6B
:10315000204600F0CFFD10BD74746C7A6900000049
:10316000B0B5828E04468089013A824216DDE2893A
:10317000904222D12269431CA38111542069A28963
:1031800000238354E08994F860200130E081D00767
:10319000204608BF2A2100F043FDB0BD45F21921A9
:1031A000C0F60001204600F01BFE204600F0A2FD04
:1031B0002169204600F014FEB0BDFDD9801A00B28E
:1031C000012808DB2269E3891A44131813F8013C2B
:1031D00013540138F6DCE0892269431CE381115461
:1031E000A08921690130A08180B200220A54E089BF
:1031F000451E06E02169085C41B2204600F010FD42
:103200000135A18928B2884205DA94F86010C9070F
:10321000F0D12A20F0E7E089081A05B2012DB8BFE5
:10322000B0BD00BF2046082100F0FAFC28B2013DE5
:103230000128F7DCC0E7000080B5FFF709FE002891
:1032400018BF00F0B3F880BD10B50446C08900284F
:1032500008BF10BD2046082100F0E2FCE0890138DB
:10326000E08110BD80B500F001F880BDF0B581B0FF
:10327000866D12A1044600F0B3FDB4F85C00D0B135
:103280000020002706E000BF0137B4F85C1038B218
:10329000884210DA06EB0015687810F00E0FF3D1B3
:1032A00020462946FFF7F2FA0028EDD120462946AC
:1032B00000F00EF8E8E701B0F0BD00BF0D0A436F63
:1032C0006D6D616E64204C6973743A0D0A000000E4
:1032D00070B5044608460D46FFF79AFD01462046A4
:1032E00000F07EFDC0F1160630B20028D8BF0426DB
:1032F0002046202100F094FC013E3004F8D168788B
:1033000000F00F00022801D21EA10BE0082801D214
:103310001EA107E001D11FA104E022A11FA20A28DB
:1033200038BF1146204600F05BFD45F29331C0F6F0
:103330000001204600F054FD082600BF2878013E19
:10334000F040C0074FF07801204608BF2D2100F063
:1033500067FC002EF2DC45F29331C0F600012046F6
:1033600000F03EFD2846FFF751FD0146204600F0E3
:1033700063FC45F29031C0F60001204600F030FDBC
:1033800070BD00BF434D4420000000005641522054
:103390000000000055534552000000004B455920E5
:1033A000000000004E4F4E4500000000F0B581B017
:1033B000866D12A1044600F013FDB4F85C00D8B18C
:1033C0000020002706E000BF0137B4F85C1038B2D7
:1033D000884211DA06EB0015687800F00F00092822
:1033E000F2D120462946FFF751FA0028ECD12046B9
:1033F0002946FFF76DFFE7E701B0F0BD0D0A4B6509
:1034000079204C6973743A0D0A000000F0B581B060
:10341000866D12A1044600F0E3FCB4F85C00D8B15C
:103420000020002706E000BF0137B4F85C1038B276
:10343000884211DA06EB0015687800F00F000828C2
:10344000F2D120462946FFF721FA0028ECD1204688
:103450002946FFF73DFFE7E701B0F0BD0D0A5573C0
:103460006572204C6973743A0D0A0000F0B581B0A2
:10347000866D13A1044600F0B3FCB4F85C00E0B123
:103480000020002706E000BF0137B4F85C1038B216
:10349000884212DA06EB0015687800F00F00023857
:1034A0000528F1D820462946FFF7F0F90028EBD18E
:1034B00020462946FFF70CFFE6E701B0F0BD00BF4C
:1034C0000D0A566172204C6973743A0D0A000000AF
:1034D00080B590F8602002F0FB0280F86020FFF7D2
:1034E0003FFE80BD10B582B004460069A18904F199
:1034F00014024FF0080C2023CDF800C000F0DEF9D4
:10350000E08602B010BD00002DE9F0410446C08EF7
:10351000002808BFBDE8F08104F114064FF0000850
:1035200000270FE056F827502846FCF71FFE80B210
:103530000138295C0137222908BF05F80080E08E98
:1035400087420CD256F8270001782229EAD180F868
:10355000008056F82700013046F82700E2E7BDE872
:10356000F081000080B5C1898289914228BF80BD69
:1035700002694B1CC381515600F052FB80BD000014
:10358000B0B5044690F860000D4640F0020084F8A3
:103590006000487800F00F00012811D000BB2046E1
:1035A000FFF7B2FFAA68E08E04F114019047697832
:1035B0000546890625D42046294600F0D3FB20E0A5
:1035C000E28E04F1140320462946FFF793FB697845
:1035D0000546890615D42046294600F0C3FB10E0B5
:1035E000072805D82046294600F010F9002508E0F4
:1035F000082805D12046294600F04EF8002500E0B5
:10360000002594F8600000F0FD01284684F8601061
:10361000B0BD00002DE9F0470746806D9046B7F831
:103620005C20A8EB0000A2EB101002042CD09A46FC
:10363000894685B20024464607E0FCF79EFD30B37C
:103640000134013D06F110061AD0707800F00F0029
:103650000928F5D038463146FFF718F90028EFD190
:103660003046FFF7D5FBBAF1000F01464846E4D0DB
:103670005246FCF790FD0028E2D13046BDE8F087C5
:1036800000263046BDE8F0870020BDE8F08708EB53
:103690000410BDE8F087000010B50160044688689A
:1036A00030B1017831B1E18E022905D2002009E064
:1036B000012007E0012005E0A169FCF75EFDB0FAFA
:1036C00080F0400994F8601001F0FE01084445F2D2
:1036D0009A3184F86000C0F60001204600F080FBBB
:1036E00094F86000C00708BF10BD45F23A21C0F64B
:1036F0000001204600F074FB10BD000070B50D46BF
:103700000646FFF7A5FB98B1826D314600230446BB
:10371000FFF780FF70B10146407800F00F000238DB
:1037200006280DD32046314600F05AFB07A102E0DF
:10373000002070BD09A1204600F052FB002070BDA2
:1037400020462A4600F012F870BD00BF20697320A1
:103750006E6F742061207661720D0A0056617220CE
:103760006E6F7420466F756E740D0A00B0B50C460E
:10377000497805464B060CD401F00F0002380528A5
:103780000BD8DFE800F0030F12151A1FA0680260C3
:1037900003E012A1284600F023FB2846214600F052
:1037A00035F8B0BDA0680280F7E7A0680270F4E7C2
:1037B000A068114600F01CF9EFE70FA1284600F0C1
:1037C0000FFBEAE7A0688368002BE6D0006810B121
:1037D00011469847E1E710469847DEE763616E2798
:1037E00074207365742072656164206F6E6C79203B
:1037F0007661720D0A00000063616E2774207365A4
:103800007420706F696E7465720D0A00F0B583B034
:10381000044643F23000C0F230004FF030370E461D
:103820000290CDE90077FFF729FB71680546204635
:1038300000F0D6FA20A1204600F0D2FA707800F00D
:103840000F00052810D145F29636C0F60006204636
:10385000314600F0C5FA2046294600F0C1FA20465C
:10386000314600F0BDFA1DE06E462846314600F0B4
:1038700069F9301A00F10B01204600F0B1FA45F267
:10388000A331C0F60001204600F0AAFA28463146CE
:10389000CDE90077CDF8077000F08CF9204631466D
:1038A00000F09EFA45F29031C0F60001204600F08B
:1038B00097FA284603B0F0BD203D20002DE9F04FD7
:1038C00085B08B460E991F46914606460020012979
:1038D0000490CDE90200019004DB88B281004846E3
:1038E000FCF739FCBBF1000F66D0F8B240F20408D7
:1038F0000090C2F2000800220021002000244FF0B6
:10390000010A0DE09EF801300027B754202B4FF03C
:10391000010218BF9246A94601318AB25A454CD2DB
:103920005FFA84FCBCF1000F10D10E9BB75C98428B
:1039300006EB020E2EDABAF1010F2BD1009B9F424B
:1039400028D049F820E001304FF0000A98F80070C4
:1039500023060DD098F80130B5569D4208D1ACF140
:10396000010301ADEB5CBB4202D1013C09E000BFA9
:10397000B356BB4205D1631C01AD03F00F0405F83B
:103980000C70B35C5C2BC7D132445278002A18BF4C
:103990000131C1E7BAF1000FD8D1009B4D46A7EB2A
:1039A0000309203FB9FA89F3B7FA87F75B097F0962
:1039B0003B43A7D1A946C9E7002005B0BDE8F08F79
:1039C00090F800C0BCF1000F0FD00023002200BF10
:1039D000CB5C43B19C4506D1013293B210F803C0D1
:1039E000BCF1000FF4D190B27047002290B2704742
:1039F00080B50A7886464FF0000C4AB100230020BB
:103A000001300EF8032083B2CA5C002AF8D101E02D
:103A10000020002380B20EF803C080BD2DE9F04FD6
:103A200081B004468089002853D021694FF0000AF4
:103A3000B4F8349001F800A0B4F85C00D4F858B0A1
:103A400000284FD0002000254FF000084FF0000A5A
:103A50001EE01FFA88F00BEB001720463946FFF7EF
:103A600037FC3846FFF7D4F907463046FFF7D0F960
:103A700001463846FFF7A4FF814588BF81460AF119
:103A8000010AA8460135B4F85C1028B288422BDA46
:103A90000BEB001620463146FEF7F8FE0028F1D168
:103AA00027693046FFF7B4F901463846FFF788FF2B
:103AB000A1898842E6D11FFA8AF00028DFD00128C8
:103AC000C7D145F290312046C0F6000100F088F9D8
:103AD000BFE72046FFF7C6FB204600F00BF901B018
:103AE000BDE8F08F4FF000081FFA8AF5002DF6D0E0
:103AF000012D02D12046FEF7F5FE1FFA88F00BEBF0
:103B0000001726693846FFF783F901463046FFF76C
:103B10006FFF022DA08108D320463946FFF7D8FB5E
:103B2000204600F0E7F8A4F80C902069A189002253
:103B30004254A0892169E081204600F051F901B08A
:103B4000BDE8F08F0346002848BF4342B0B50022CD
:103B50004FF00B0ECA72B3B146F2676CC6F2666CD8
:103B600083FB0C24A21002EBD47202EB8204A3EBC1
:103B70004404AEF1010E093330345FFA8EF5122B96
:103B800013464C55ECD8B0F1FF3F04DD58B1CEF1EF
:103B90000B0040B2B0BDAEF1010E5FFA8EF22D23E4
:103BA0008B540028F3D1AEF1010E5FFA8EF0302273
:103BB0000A54ECE710B54FF0000C81F808C0A8B12A
:103BC000082300BF9E4600F00F0303F13002092BCB
:103BD00088BF03F15702AEF10103DCB2BCEB101F4A
:103BE0004FEA10100A55EDD1CEF1090C4FFA8CF0C6
:103BF00010BD000080B50121FFF7ECF980BD000089
:103C000080B5FFF725F9002818BFFFF7FFFB80BD3F
:103C100080B5FFF71DF9002818BFFFF727FC80BD0E
:103C200080B582B0826E8DF807100DF1070001217A
:103C3000904702B080BD0000F0B581B0836EF3B153
:103C400007460020012242F201440D4602E000BF77
:103C5000013501302E780D2EFAD802FA06F62642EA
:103C6000F6D082B20846252A07D324219847BA6E97
:103C700004A00321904701B0F0BD1146984701B060
:103C8000F0BD00BF2E2E2E0070B5826D00230446BD
:103C9000FFF7C0FCD8B1054611A1204600F0A0F8FE
:103CA0002846FFF7B5F80146204600F099F845F29E
:103CB0009036C0F600062046314600F091F82846BE
:103CC000FFF7A4F80146204600F08AF803E045F229
:103CD0000526C0F600062046314600F081F870BD8A
:103CE000636F6D6D616E642068656C70206F662017
:103CF0000000000010B5044690F86000C00701D134
:103D000010A11BE045F29031C0F60001204600F002
:103D100067F820684168204600F062F80FA120464D
:103D200000F05EF8A06845F29831C0F60001002866
:103D300018BF0146204600F053F809A1204600F0C4
:103D40004FF810BD506C6561736520696E707574B5
:103D50002070617373776F72643A00003A0000005C
:103D600024200000F0B583B0044643F23000C0F2D6
:103D700030000D4602904FF0303716A12046CDE9B5
:103D8000007700F02DF86E4628463146FFF7DAFE40
:103D9000301A00F10B01204600F022F845F2A33161
:103DA000C0F60001204600F01BF828463146CDE958
:103DB0000077CDF80770FFF7FDFE2046314600F092
:103DC0000FF845F29031C0F60001204600F008F8E7
:103DD00003B0F0BD52657475726E3A2000000000A9
:103DE00080B5D0F868C0BCF1000F0AD0087858B18F
:103DF0004A1E002093780130002B02F10102F9D114
:103E000003E0002080B280BD002082B20846114647
:103E1000E04780B280BD000080B582B00A2040F249
:103E2000702C009043F65160C2F2000CC0F6000006
:103E300004A14FF480620023CDF804C000F092FE8C
:103E400002B080BD7368656C6C5F7461736B000059
:103E500082B040F6A474C2F200040DF1070503E03D
:103E60000A2000F0D3F900BF626E002AF8D028467D
:103E7000012190470128F3D19DF907102046FFF753
:103E80001FF8F1E780B54FF4E130FDF7A9FE40F6E9
:103E9000A47041F65D4141F68542C2F20000C0F6D1
:103EA0000001C0F60002C0E9191241F21001C2F28D
:103EB00000014FF40072FFF711F9FFF7ADFF80BD6D
:103EC00010B582B000F0A6F840F26C20C2F20000FB
:103ED000019041F611500A24C0F600000FA14FF4E2
:103EE00000720023009400F03DFE40F2D06C43F6D7
:103EF0003570C2F2000CC0F600000BA14FF4007246
:103F000000230094CDF804C000F02CFE00F0A6F8C9
:103F1000002000F0A5F902B010BD00BF6C65645F21
:103F20007461736B00000000756172745F7461737B
:103F30006B0000004FF47A7000F068F9FAE70000B7
:103F4000D0E9013201699A60D1F804C082688445E1
:103F5000536008BF4A6000220261086801380860A7
:103F60000868704740F21023C2F20003036040F279
:103F70001000C2F20000086080201060704700004E
:103F800040F27463C2F20003036040F27420C2F294
:103F9000000008604FF48070106070474FF0FF31F0
:103FA000024642F8081F00214260C0E90322016076
:103FB00070470000002101617047000080B5D1F812
:103FC00000C01CF1010207D000F108039E465B68A7
:103FD0001A686245FAD901E0D0F810E0DEF8042052
:103FE00008614A609160C1F808E0CEF804100168E9
:103FF0000131016080BD0000D0F800C04368086155
:104000009A684B608A609A68996051600CF101016E
:10401000016070474FF0500080F31188BFF36F8F3D
:10402000BFF34F8F40F20C00C2F2000001684A1C3F
:10403000026001B170474EF60450CEF200000068F5
:10404000000608BF70474FF0500080F31188BFF39F
:104050006F8FBFF34F8F00BFFEE7000040F20C00F0
:10406000C2F20000016839B10139016018BF704720
:10407000002080F3118870474FF0500080F31188C2
:10408000BFF36F8FBFF34F8FFEE70000B0B500287E
:1040900008BFB0BD044643F65C20C2F200000078C1
:1040A00054F8041C002818BF4FF0004008420CD000
:1040B000A4F108052A6892B14FF0500080F31188EE
:1040C000BFF36F8FBFF34F8FFEE74FF0500080F3C9
:1040D0001188BFF36F8FBFF34F8F00BFFEE721EA58
:1040E000000044F8040C00F0BFF943F68821C2F246
:1040F000000154F8040C0A68104408602846FEF7D2
:104100009DF800F0F3FEB0BD4EF21000CEF20000BC
:1041100000210160816040F20001C2F200010968E3
:1041200044F6D352C1F26202A1FB02124FF0FF31FA
:1041300001EB92114160072101607047EFF30580A8
:10414000102814D34EF2F031CEF20001405C43F659
:104150001021C2F200010978884208D24FF05000C5
:1041600080F31188BFF36F8FBFF34F8FFEE74EF6DA
:104170000C50CEF2000043F614210068C2F2000198
:10418000096800F4E060884298BF70474FF0500023
:1041900080F31188BFF36F8FBFF34F8FFEE70000EE
:1041A00043F6B02C0022C2F2000C00BF5CF83230A3
:1041B00023B10132082A08BF7047F7E70CEBC203AE
:1041C0004CF832105860704770B515460E460446DC
:1041D000FFF720FF94F84400FF2804BF002084F874
:1041E000440094F84500FF2804BF002084F84500EF
:1041F000FFF734FFA06B28B904F1240031462A46AA
:1042000000F0C0F82046FEF71BFA70BD10B5D8B11B
:10421000044643F62820C2F20000006848B14FF07F
:10422000500080F31188BFF36F8FBFF34F8F00BF33
:10423000FEE700F019F920460021FDF7A5FD00F08A
:1042400055FE002818BF10BD4EF60450CEF20000F7
:104250004FF080510160BFF34F8FBFF36F8F10BDE0
:1042600070B50446FFF7D6FE40F6F426002CC2F2E5
:10427000000608BF3468251D2846FFF761FEA06AC6
:1042800018B104F11800FFF75BFE43F62C20C2F2D0
:104290000000016801310160306884420CD043F6AF
:1042A0001C20C2F200000168013901602046FDF7C0
:1042B000B9FEFEF72FF90DE043F61030C2F2000010
:1042C0002946FFF799FE43F62020C2F2000001685C
:1042D00001310160FFF7C2FE43F6F020C2F2000098
:1042E0000068E8B13068844218BF70BD43F62820EA
:1042F000C2F20000006840B14FF0500080F3118816
:10430000BFF36F8FBFF34F8FFEE74EF60450CEF230
:1043100000004FF080510160BFF34F8FBFF36F8FEC
:1043200070BD000043F69821C2F2000109680160E7
:1043300043F62431C2F20001096841607047000071
:1043400043F63030C2F200000121016070470000E6
:1043500010B568B10C4640F6F421C2F200010968BC
:104360001831FFF72BFE20460121FDF70DFD10BD92
:104370004FF0500080F31188BFF36F8FBFF34F8F62
:10438000FEE70000B0B590B10D4640F6F421C2F250
:104390000001096814461831FFF72EFE002C18BFE3
:1043A0004FF0FF3528462146FDF7EEFCB0BD4FF03B
:1043B000500080F31188BFF36F8FBFF34F8F00BFA2
:1043C000FEE7000010B586B0002405A804A903AAE2
:1043D000CDE90444FFF7C6FDDDE90320059900237C
:1043E000CDE9010142F2F500C0F600001CA10094E5
:1043F00000F0ECFB43F68C21C2F20001086010B122
:1044000000F0FEFD0446601C20D0012C1CD14FF0B2
:10441000500080F31188BFF36F8FBFF34F8F43F6C7
:104420009420C2F200004FF0FF31016043F6F0200B
:10443000C2F200000121016043F62430C2F2000004
:104440000021016000F066F806B010BD4FF050008A
:1044500080F31188BFF36F8FBFF34F8FFEE700BF6C
:1044600049444C450000000043F62820C2F20000F9
:10447000016801310160704743F62820C2F2000054
:10448000006830B143F63030C2F200000121016013
:10449000704743F63030C2F20000002143F6302C62
:1044A0000160C2F2000CDCF8001040F60C3201EBA7
:1044B0008103C2F2000252F8230048B902EB8300E4
:1044C000A0F11403D9B153F8140901390028F9D027
:1044D00001EB810002EB800252F8040F4368101DCB
:1044E0008342136001D158681060106840F6F422CE
:1044F000C068C2F200021060CCF8001070474FF0A4
:10450000500080F31188BFF36F8FBFF34F8F00BF50
:10451000FEE7000080B582B04EF20040CEF200000F
:10452000017843F610220191FF2101700178C2F257
:1045300000028DF803109DF8031001F05001117076
:1045400043F61421C2F2000107220A609DF90320FC
:10455000B2F1FF3F0BDC0A689DF80330013A5B00C3
:104560008DF803309DF90330002BF5D40A600A68FA
:10457000032A23D14FF4E06303EA02220A6001997F
:104580000170D0F8201941F47001C0F82019D0F85A
:10459000201941F07041C0F82019FFF7B5FD40F235
:1045A0000C00C2F2000000210160FDF7AFFEFFF732
:1045B00063FFFEF71FF8002002B080BD4FF05000EF
:1045C00080F31188BFF36F8FBFF34F8FFEE70000BA
:1045D000B0B582B068B11D46ABB1F1B9EAB14FF0E8
:1045E000500080F31188BFF36F8FBFF34F8F00BF70
:1045F000FEE74FF0500080F31188BFF36F8FBFF3D9
:104600004F8F00BFFEE74FF0500080F31188BFF3DB
:104610006F8FBFF34F8F00BFFEE751B14AB94FF024
:10462000500080F31188BFF36F8FBFF34F8F00BF2F
:10463000FEE750230193019B502B09D1069B0124D7
:1046400085F846400095FDF76BFD284602B0B0BDE9
:104650004FF0500080F31188BFF36F8FBFF34F8F7F
:10466000FEE7000070B5F8B104460E46FFF7D2FC35
:104670002068D4E90F12002502FB0103013901FB78
:104680000201A563C4E90130FF20E16084F8440021
:1046900084F8450004F110007EB1FFF77FFC04F1BF
:1046A0002400FFF77BFC18E04FF0500080F31188E6
:1046B000BFF36F8FBFF34F8FFEE7016869B100F062
:1046C000CDFB50B14EF60450CEF200004FF08051B9
:1046D0000160BFF34F8FBFF36F8FFFF7BFFC012067
:1046E00070BD00002DE9F04F83B00292B8B11D46B5
:1046F0000E460446E9B1022D03D1E06B012840F0DB
:104700009A8000F09DFA00BB0298F0B14FF0500083
:1047100080F31188BFF36F8FBFF34F8FFEE74FF029
:10472000500080F31188BFF36F8FBFF34F8F00BF2E
:10473000FEE7206C0028DED04FF0500080F3118897
:10474000BFF36F8FBFF34F8FFEE7FFF763FCA06BE4
:10475000022D58D0E16B884255D304F11008012096
:104760006F464FF0000B0DF108094FF0805A00BF63
:104770000299002900F07B80C00702D03846FFF77D
:10478000D1FDFFF76BFCFFF76FFEFFF743FC94F8DA
:104790004400FF2808BF84F844B094F84500FF287F
:1047A00008BF84F845B0FFF759FC3846494600F089
:1047B00095F900285ED12046FDF79AFDA0B1029937
:1047C0004046FFF7C5FD2046FDF73AFF00F08EFB9F
:1047D00078B94EF60450CEF20000C0F800A0BFF346
:1047E0004F8FBFF36F8F04E02046FDF729FF00F0E5
:1047F0007DFBFFF70FFCA06B022D04D0E16B88421C
:104800004FF00000B4D2204631462A46FDF7CCFBDB
:1048100054F8241FC9B1204600F020FB08B34EF61F
:104820000450CEF200004FF080510160BFF34F8F73
:10483000BFF36F8F15E04FF0500080F31188BFF386
:104840006F8FBFF34F8F00BFFEE750B14EF604509D
:10485000CEF200004FF080510160BFF34F8FBFF3E5
:104860006F8FFFF7FBFB012003B0BDE8F08FFFF770
:10487000F5FB04E02046FDF7E3FE00F037FB0020E7
:1048800003B0BDE8F08F00002DE9F04381B0E8B13E
:104890001E46914605460F4609B3022E02D1E86B2B
:1048A000012836D1FFF74AFCEFF311884FF0500092
:1048B00080F31188BFF36F8FBFF34F8FA86B022E69
:1048C00019D0E96B884216D300203FE04FF050002A
:1048D00080F31188BFF36F8FBFF34F8FFEE7286C13
:1048E0000028DAD04FF0500080F31188BFF36F8FAB
:1048F000BFF34F8FFEE795F84540284639463246CC
:10490000FDF752FBFF2C0ED0601C85F845000120FE
:104910001CE04FF0500080F31188BFF36F8FBFF39E
:104920004F8F00BFFEE755F8240F70B1284600F006
:1049300095FA0146B9F1000F4FF0010006D00029A9
:104940001CBF0120C9F8000000E0012088F3118895
:1049500001B0BDE8F08300002DE9F04F85B004926E
:1049600098B10C460546002900F0A58000F068F9D2
:10497000A8B9049898B14FF0500080F31188BFF3A4
:104980006F8FBFF34F8F00BFFEE74FF0500080F3F3
:104990001188BFF36F8FBFF34F8F00BFFEE705F1A4
:1049A000240005F11009019002AF0DF1100A4FF03B
:1049B00000080AE02846FDF743FE00F097FA284673
:1049C000FDF78AFC002840F08480FFF723FBD5F830
:1049D00038B0BBF1000F1DD028462146FDF7D0FAB4
:1049E000ABF10100A863286970B1484600F036FABF
:1049F00050B14EF60450CEF200004FF080510160ED
:104A0000BFF34F8FBFF36F8FFFF728FB0020012606
:104A1000A0B95FE0049850B1B8F1000F02D1384658
:104A2000FFF780FC4FF00108012038B952E0FFF792
:104A300015FB0026002000284CD000BFFFF70EFB1E
:104A4000FFF712FDFFF7E6FA95F84400FF2804BFD0
:104A5000002085F8440095F84500FF2804BF002099
:104A600085F84500FFF7FAFA3846514600F036F867
:104A700000289FD12846FDF72FFCB0B1049901987A
:104A8000FFF766FC2846FDF7DBFD00F02FFA002853
:104A90009BD14EF60450CEF200004FF080510160E1
:104AA000BFF34F8FBFF36F8F8FE72846FDF7C8FD29
:104AB00000F01CFA89E7286C00283FF457AF4FF04C
:104AC000500080F31188BFF36F8FBFF34F8F00BF8B
:104AD000FEE70026304605B0BDE8F08FB0B5D0B196
:104AE0000D4611B30446FFF795FA43F62430C2F29F
:104AF000000001682868421C21D043F698236268B0
:104B0000C2F20003D3F800C091421AD323689C4537
:104B100017D0012422E04FF0500080F31188BFF33A
:104B20006F8FBFF34F8F00BFFEE74FF0500080F351
:104B30001188BFF36F8FBFF34F8F00BFFEE70024D4
:104B40000CE0891A884206D9401A28602046FFF7EF
:104B5000E9FB002402E0002001242860FFF77EFA30
:104B60002046B0BD2DE9F04383B00746900098463B
:104B700015468946FDF79EFD78B106465C20FDF797
:104B800099FD38B10446066354B94FF0FF3003B0C5
:104B9000BDE8F0833046FFF779FA0024002CF4D00A
:104BA000DDE90A10002284F85920CDE900103846CA
:104BB00049462A4643460294FDF7C2FA2046FDF7CD
:104BC00023F9012003B0BDE8F083000070B586B082
:104BD0000B9CBCB10C9EF6B15C250495049D5C2D2C
:104BE00023D10A9D3463022486F8594005ACCDE9EF
:104BF00000540296FDF7A4FA3046FDF705F9059832
:104C000006B070BD4FF0500080F31188BFF36F8F76
:104C1000BFF34F8FFEE74FF0500080F31188BFF3D2
:104C20006F8FBFF34F8F00BFFEE74FF0500080F350
:104C30001188BFF36F8FBFF34F8F00BFFEE70000F7
:104C400043F6F020C2F200000068002804BF0120F3
:104C5000704743F62820C2F200000068B0FA80F0E6
:104C6000400940007047000043F62430C2F20000C3
:104C7000006870472DE9F04F81B043F62820C2F25A
:104C80000000006840B143F62420C2F20000016831
:104C90000024013101608AE043F62430C2F20000B2
:104CA00001684E1C066021D340F6FC20C2F20000D1
:104CB0000168096849B14FF0500080F31188BFF3D3
:104CC0006F8FBFF34F8F00BFFEE740F60432C2F292
:104CD000000201681368036043F698201160C2F275
:104CE0000000016801310160FDF714FC43F69421D6
:104CF000C2F20001086840F6F42A40F60C388642F9
:104D0000C2F2000AC2F2000801D2002445E040F6D7
:104D1000FC27C2F2000738680024006898B343F605
:104D2000302BC2F2000B19E0D9F82C00DBF8001090
:104D3000884288BFCBF8000000EB800008EB8000C1
:104D40002946FFF759F9D9F82C00DAF80010C96A9A
:104D50003A68884228BF01241068B8B13868C06832
:104D6000D0F80C904D4655F8040F864210D32846D3
:104D7000FFF7E6F8D9F828000028D5D009F1180087
:104D8000FFF7DEF8D0E74FF0FF3005E04FF0FF30DF
:104D900043F69421C2F200010860DAF80000C06A0C
:104DA00000EB800058F82000012888BF012443F65A
:104DB0003030C2F200000068002818BF01242046ED
:104DC00001B0BDE8F08F0000B0B580B1044640F6F8
:104DD000F420C2F200000068A0420AD04FF0500058
:104DE00080F31188BFF36F8FBFF34F8FFEE7002072
:104DF000B0BD206D38B3013820654FF0000018BFFA
:104E0000B0BDE16AE26C91421CD0251D2846FFF737
:104E100097F8E06CC0F13801A16143F63021E062FF
:104E2000C2F200010A68904288BF086040F60C3167
:104E300000EB8000C2F2000101EB80002946FFF781
:104E4000DBF80120B0BD4FF0500080F31188BFF3B4
:104E50006F8FBFF34F8F00BFFEE70000B0B5C06893
:104E6000C5687DB105F118042046FFF769F843F6DF
:104E70002820C2F20000006868B143F69C20C2F20C
:104E800000001DE04FF0500080F31188BFF36F8FDA
:104E9000BFF34F8FFEE72C1D2046FFF751F843F676
:104EA0003021C2F20001E86A0A68904288BF0860B7
:104EB00040F60C3100EB8000C2F2000101EB8000F3
:104EC0002146FFF799F840F6F421C2F20001E86AA2
:104ED0000968C96A884291BF002043F63031C2F2A6
:104EE0000001012088BF0860B0BD00002DE9F04F2F
:104EF00081B043F62824C2F20004206868B1FFF7AD
:104F000089F8206801382060206880B10024FFF70C
:104F1000A5F8204601B0BDE8F08F4FF0500080F3B7
:104F20001188BFF36F8FBFF34F8F00BFFEE743F6CB
:104F30001C20C2F20000006800285DD043F69C26C9
:104F4000C2F20006306843F63038C2F2000890B36F
:104F500043F6302740F60C3940F6F42BC2F2000736
:104F6000C2F20009C2F2000B4FF0010AF068C568F6
:104F700005F11800FEF7E4FF2C1D2046FEF7E0FFC8
:104F8000E86A3968884288BF386000EB800009EB26
:104F900080002146FFF730F8E86ADBF80010C96AA4
:104FA000884228BFC8F800A030680028DED1002D54
:104FB00018BFFDF7AFFA43F62424C2F200042568B7
:104FC00055B10126FFF756FE002818BFC8F800604B
:104FD000013DF7D100202060D8F8000070B14EF6F6
:104FE0000450CEF200004FF080510160BFF34F8FAC
:104FF0000124BFF36F8F8AE7002488E7002486E747
:1050000080B586B0FCF756FF43F62830C2F20000A8
:10501000006808B30020CDE9040005A804A903AA8C
:10502000FEF7AEFFDDE903200221DDF814C0CDE973
:10503000001042F22960C0F600000CA10023CDF858
:1050400008C0FFF7C3FD43F62C31C2F2000108602F
:1050500010B1012006B080BD4FF0500080F31188E0
:10506000BFF36F8FBFF34F8FFEE700BF546D722009
:105070005376630010B584B0A8B143F62834C2F269
:10508000000484462068C0B10529CDE90012CDF89E
:1050900008C015DCFFF7D4FD01462068022916D1AF
:1050A000069A694615E04FF0500080F31188BFF36F
:1050B0006F8FBFF34F8F00BFFEE7002004B010BD1D
:1050C00069461A460023FFF7DFFB04B010BD6946AE
:1050D00000220023FFF706FB04B010BD02E008C861
:1050E000121F08C1002AFAD170477047002001E062
:1050F00001C1121F002AFBD1704700000000000010
:105100000000010203040607080900000000010274
:10511000030474746C7A6900636C65617200636D7A
:1051200064730068656C70006B65797300736574F7
:1051300056617200757365727300766172730064F4
:10514000656661756C742075736572006261636B6E
:1051500073706163650074616200656E74657200EE
:10516000656E7465720064656C65746500757000C9
:10517000646F776E007269676874006C65667400AE
:105180006261636B737061636500636C656172205B
:10519000636F6E736F6C65006C69737420616C6C07
:1051A00020636D640073686F7720636F6D6D616E4F
:1051B0006420696E666F0D0A68656C70205B636DB4
:1051C000645D006C69737420616C6C206B657900A0
:1051D00073657420766172006C69737420616C6C05
:1051E0002075736572006C69737420616C6C207635
:1051F000617200006D6F64756C655F6E756C6C5FDD
:10520000696E697400436F6D6D616E64206E6F74BA
:1052100020466F756E640D0A000D0A5761726E6943
:105220006E673A20436F6D6D616E64206973207400
:105230006F6F206C6F6E670D0A000D0A205F2020D3
:10524000202020202020205F2020205F20202020E0
:1052500020202020202020202020202020205F200F
:105260002020202020202020205F205F200D0A7C8D
:10527000207C202020205F5F5F7C207C5F7C207C66
:105280005F205F5F5F205F205F5F2020205F5F5FA8
:105290007C207C5F5F2020205F5F5F7C207C207C07
:1052A0000D0A7C207C2020202F205F205C205F5F67
:1052B0007C205F5F2F205F205C20275F5F7C202F9A
:1052C000205F5F7C20275F205C202F205F205C20F8
:1052D0007C207C0D0A7C207C5F5F7C20205F5F2F20
:1052E000207C5F7C207C7C20205F5F2F207C202026
:1052F00020205C5F5F205C207C207C207C20205F65
:105300005F2F207C207C0D0A7C5F5F5F5F5F5C5FAE
:105310005F5F7C5C5F5F7C5C5F5F5C5F5F5F7C5F4F
:105320007C202020207C5F5F5F2F5F7C207C5F7C67
:105330005C5F5F5F7C5F7C5F7C0D0A0D0A42756974
:105340006C643A20202020202020417072203133CC
:1053500020323032342031313A33353A32360D0A88
:1053600056657273696F6E3A2020202020332E32EA
:105370002E330D0A436F707972696768743A202082
:10538000202863292032303230204C6574746572D5
:105390000D0A0020200022002F001B5B324A1B5BFD
:1053A0003148002C203078007368656C6C5F756143
:1053B00072745F696E697400205500080000002057
:1053C00010000000DC5000083055000810000020DC
:1053D000283F0000EC5000083412CDABF451000817
:1053E000851D000800000000D4C3B2A13412CDAB6B
:1053F000A8530008853E000802000000D4C3B2A1F3
:105400000008000012510008F35100083F51000845
:10541000002100002D510008FD360008D051000881
:105420000009000000415B1BF53B00086D510008BE
:105430000009000000425B1B212A0008705100088F
:105440000019000000435B1B65350008755100081A
:105450000019000000445B1B493200087B51000822
:1054600000090000000000091D3A0008565100081C
:105470000019000000000008392800084C510008FD
:10548000001900000000007F392800088051000842
:10549000001900007E335B1B2129000866510008BB
:1054A000001900000000000A2D2A00085A510008C7
:1054B000001900000000000D2D2A000860510008AE
:1054C0000020000023510008B12F0008A55100085A
:1054D0000021000034510008013C0008D8510008A8
:1054E000002100001E5100081129000898510008F1
:1054F000002100003A510008113C0008E651000864
:10550000002100002851000839320008C35100086A
:105510000021000018510008C92800088A5100081D
:105520000024F4002222010010000000AAAAAAAA66
:04000005080000ED02
:00000001FF
