:020000040800F2
:10000000781E00200101000805170008FD150008F2
:100010000117000891010008A11800080000000065
:100020000000000000000000000000006117000850
:10003000AD01000800000000111700088517000836
:100040001B0100081B0100081B0100081B01000820
:100050001B0100081B0100081B0100081B01000810
:100060001B0100081B0100081B0100081B01000800
:100070001B0100081B01000895010008A1010008F0
:100080001B0100081B0100081B0100081B010008E0
:100090001B0100081B0100081B0100081B010008D0
:1000A0001B010008B91700081B0100081B0100080C
:1000B0001B0100081B0100081B0100081B010008B0
:1000C0001B0100081B0100081B0100081B010008A0
:1000D0001B010008951800081B0100081B010008FF
:1000E0001B0100081B0100081B010008DFF80CD0F1
:1000F00000F03CF80048004701190008781E002075
:100100000648804706480047FEE7FEE7FEE7FEE7B1
:10011000FEE7FEE7FEE7FEE7FEE7FEE7B5170008AD
:10012000ED00000840EA01039B0703D009E008C97D
:10013000121F08C0042AFAD203E011F8013B00F8AC
:10014000013B521EF9D27047D2B201E000F8012BF8
:10015000491EFBD270470022F6E710B513460A4647
:1001600004461946FFF7F0FF204610BD064C074D28
:1001700006E0E06840F0010394E807009847103477
:10018000AC42F6D3FFF7B6FFB4350008D43500080B
:10019000FEE7000040F21470C2F2000000F084B8E4
:1001A00040F2D060C2F2000000F07EB8704700005C
:1001B000EFF3108072B600BFFEE70000014690F832
:1001C0002100022813D10868D1E90FC3026822F088
:1001D0000E020260026822F001020260012000FAB1
:1001E00003F2CCF8042081F82100002002E0042072
:1001F00088630120002281F82020704780B590F8A4
:100200002110022923D10268116821F00E0111602A
:100210002F211368C4F202018A4240F20401C4F2A1
:10022000020123F00103136015DD3023C4F2020341
:100230009A421CD04423C4F202039A421AD0582393
:10024000C4F202039A421AD14FF480331FE0042112
:100250008163012080BD0823C4F202039A420CD0BE
:100260001C23C4F202039A4209D110230FE04FF479
:1002700080730CE04FF4805309E0012307E001F1A3
:10028000680C4FF08073624508BF4FF480130B6019
:10029000012180F82110426B002180F820100AB162
:1002A00090470021084680BD10B5D0E90FCE016807
:1002B000DCF800300A6823FA0EF35C0724D512F04C
:1002C000040421D00A68920603D40A6822F00402CA
:1002D0000A602F22C4F20202914240F20402C4F2E8
:1002E000020253DD3023C4F20203994266D0442354
:1002F000C4F20203994264D05823C4F20203994223
:1003000064D14FF4802369E09C0727D512F00204E2
:1003100024D00A68920606D40A6822F00A020A600B
:10032000012280F821202F22C4F20202914240F2E1
:100330000402C4F2020235DD3023C4F20203994202
:1003400052D04423C4F20203994250D05823C4F23D
:100350000203994250D14FF4003355E01B075AD5A0
:1003600012F0080208BF10BD0A6822F00E020A60EF
:10037000012101FA0EF2CCF80420816380F82110EB
:10038000016B002280F8202059BB44E00823C4F20E
:100390000203994218D01C23C4F20203994215D1DA
:1003A00040231BE00823C4F20203994222D01C23FD
:1003B000C4F2020399421FD1202325E04FF4806349
:1003C0000CE04FF4804309E0042307E002F16804E5
:1003D0004FF08063A14208BF4FF480031360C16AED
:1003E000C9B1BDE8104008474FF400730CE04FF46A
:1003F000005309E0022307E002F168044FF00073A4
:10040000A14208BF4FF400131360816A0022002943
:1004100080F82020E5D110BD014600284FF00100F2
:1004200008BF70472DE9F043D1F800C04FF6F873CC
:10043000CBF6FD734CF6CD426344CCF6CC42A3FB25
:1004400002236FF0030707EA93030027C4F20207B1
:1004500001F10C09C1E90F730223D1E9012E99E8DA
:100460007002D1F81C8081F82130DCF8003043F6AE
:10047000F077BB431A4342EA0E0222432A43324337
:1004800042EA090242EA0802CCF8002000228A630C
:1004900081F8210081F820200020BDE8F04370475A
:1004A0002DE9F04F82B00E68002E00F0F68041F288
:1004B0000042C4F20102042340F2004E904208BF01
:1004C00003234FF6FF7CC4F2010E009300240123A6
:1004D000C1F2100C4FF0000A4FF0000943E0012771
:1004E00004F00C030F229A402BEA020207FA03F3EE
:1004F0004FEA9A051A4346F825204E6840F20C450B
:10050000F202DEF8082054BF22EA080242EA08029A
:10051000C4F20105CEF808202A68B30254BF22EACB
:10052000080242EA08022A60B303DEF8042054BF3E
:1005300022EA080242EA0802F303CEF80420DEF8B9
:1005400000204FF0010354BF22EA080242EA0802E9
:10055000CEF800200E680AF1010A36FA0AF204F118
:10056000040400F09A8003FA0AFB16EA0B08F1D0A3
:100570004E68664510DC122E50D8DFE806F0330ACC
:1005800041454F4F4F4F4F4F4F4F4F4F4F4F4F489A
:100590004C00D1F80C9041E04FF6FF72C1F22102FD
:1005A00096420FDC0022C1F2110296421AD00022BC
:1005B000C1F21202964215D00022C1F221029642E7
:1005C00010D02BE00022C1F2220296420AD0002273
:1005D000C1F23102964205D00022C1F232029642A7
:1005E0001CD100BF8A6842B1012A14BFC0F814B000
:1005F000C0F810B04FF0080910E04FF004090DE00A
:10060000CA6802F1080909E04FF0000906E0CA686B
:1006100002F1040902E0CA6802F10C09224606460A
:10062000B8F5807F24BF203A043637680F259540FF
:1006300027EA050509FA02F22A433260CA79D2068E
:100640007FF588AF41F21803C4F202031A68AEF5D1
:100650007E7642F001021A601A6802F001020192ED
:10066000019A2AF0030256F802B040F60002C4F2E2
:10067000010290420FD040F60042C4F201029042C3
:100680003FF42DAF41F20002C4F20102009F9042FC
:1006900008BF022724E7002722E702B0BDE8F08F59
:1006A000002A08BF090401617047000041F65C1090
:1006B000C2F200000068704740F2040041F65C118D
:1006C000C2F20000C2F2000100780A68104408601B
:1006D0007047000080B542F20000C4F202000168D9
:1006E00041F010010160032000F03EF90F2000F0FE
:1006F00005F800F055F8002080BD0000B0B586B0C8
:1007000041F21801C4F202010A68044642F4006290
:100710000A60096801A801F4006101910199694624
:1007200000F010FA00F044FA4DF68361C4F21B3178
:10073000A0FB01014FF0FF3000EB914140F25870F7
:1007400042F60042C2F20000C4F2010240F2E73376
:100750000025C0E90021C0E902530561856100F070
:10076000D7FB0546C0B940F25870C2F2000000F055
:100770003DFC054680B9192000F0BAF80F2C0AD8C4
:1007800019202146002200F0C3F840F20800C2F20E
:100790000000046000E00125284606B0B0BD00005E
:1007A00080B582B041F21800C4F202000168002254
:1007B00041F001010160016801F00101019101991D
:1007C000416841F08051416040680F2100F0805045
:1007D000009000986FF0010000F09AF80420C4F235
:1007E00001000168022262F31A61016002B080BD5B
:1007F000002804BF0120704770B5044690F84100FE
:1008000015460E4628B9002084F84000204600F026
:1008100073FE242084F841002068D4E90212C368E2
:1008200023F40053C360036923F440531A43026165
:10083000D4E904231143C268194341F20C639A437B
:100840001143C1604169A26921F44071114343F62B
:100850000002C4F201029042416102D000F094F91A
:1008600001E000F0A5F96268192148439100B0FB4E
:10087000F1F048F21F51C5F2EB11A0FB01235A0918
:100880004FF69C73C0F6FF7302FB0300322303EBA9
:100890000010A0FB0101F02303EA5113206803EBD1
:1008A0000212C1F3431111448160016921F49041A6
:1008B0000161416921F02A014161016921F00F01C3
:1008C0000161016931430161C16821F40061C160C6
:1008D000C1682943C160C16841F40051C160002072
:1008E0002021606484F8411084F84210606370BD78
:1008F000002848BF704700F01F01012202FA01F1F1
:100900004EF200124009CEF2000242F82010704769
:1009100010B54EF60C5CCEF2000CDCF80030C3F3E0
:10092000022E8EF00704042C28BF0424BEF103031A
:100930004FF0FF3E0EFA04F438BF0023A143994064
:100940000EFA03F39A43114300F1604200F00F03E3
:10095000090102F56442043B6344002848BF03F1E7
:100960000C02117010BD00004EF60C51CEF20001C9
:100970000A684FF6FF031A4060F30A2242F08060D3
:1009800040F0FD70086070472DE9F04381B0002809
:1009900000F0858042F20008C4F202080446D8F84C
:1009A00000000D4600F0070088420CD2D8F8000085
:1009B00020F007002843C8F80000D8F8000000F035
:1009C0000700A8426BD1206841F204098107C4F2F4
:1009D000020917D5410705D5D9F8001041F4E061A7
:1009E000C9F80010010705D5D9F8001041F460518D
:1009F000C9F80010D9F80010A26821F0F0011143E5
:100A0000C9F80010C00741D1D8F8000000F0070075
:100A1000A8420CD9D8F8000020F007002843C8F8F5
:100A20000000D8F8000000F00700A84237D1206885
:100A3000410707D5D9F80010E26821F4E0611143BD
:100A4000C9F80010000708D5D9F80000216920F482
:100A5000605040EAC100C9F80000D9F8002002F057
:100A60000C00082841F20020C0F27A004ED143F277
:100A7000A453C2F38341C0F60003595CD20339D4B6
:100A800040F60010C0F23D0048433FE06068022895
:100A900009D0012829D159F8041C890307D4012061
:100AA00001B0BDE8F08359F8041C8901F7D5D9F8E5
:100AB000001021F003010843C9F80000FFF7F6FD1C
:100AC000064641F2883700BFD9F80000616800F09F
:100AD0000C00B0EB810F97D0FFF7E8FD801BB84208
:100AE000F2D9032001B0BDE8F08359F8041C89074E
:100AF000D5D5DCE7D9F8002043F2A253C2F3404237
:100B0000C0F600039A5C4843B0FBF2F0D9F800103D
:100B100043F28A52C1F30311C0F60002515C40F265
:100B2000000220FA01F140F20800C2F20000006861
:100B3000C2F200021160FFF7E1FD002001B0BDE844
:100B4000F08300000F22026041F20402C4F20202AC
:100B5000136803F003034360136803F0F00383603A
:100B6000136803F4E063C36012684FF4E06303EAC0
:100B7000D202026142F20000C4F20200006800F0FA
:100B8000070008607047000040F2000041F20401D5
:100B9000C2F20000C4F202010068096843F29A52EE
:100BA000C1F30221C0F60002515CC840704700004A
:100BB00040F2000041F20401C2F20000C4F202015E
:100BC0000068096843F29A52C1F3C221C0F60002DC
:100BD000515CC840704700002DE9F04182B0002808
:100BE00000F0D7800446007841F20006C007C4F246
:100BF000020644D0706800F00C00042817D070681A
:100C000000F00C00082802D17068C0030FD465689A
:100C10002DB1B5F5A02F10D0B5F5803F11D03068BB
:100C200020F480303060306820F480200CE03068A0
:100C3000800324D5606810BBABE0306840F48020AE
:100C40003060306840F480303060FFF72FFD002DB9
:100C5000054611D03068800311D4FFF727FD401BF3
:100C60006428F7D916E100BFFFF720FD401B642878
:100C70004FF0030000F28A8030688003F4D42078BB
:100C8000800718D5706810F00C0F07D0706800F05E
:100C90000C00082827D17068C00324D4306880076E
:100CA00002D52069012874D13068616920F0F8000C
:100CB00040EAC1003060207800074FD5A06940B3FA
:100CC0000020C4F242200121C0F88014FFF7EEFC9E
:100CD000054600BF706A80072DD4FFF7E7FC401B74
:100CE0000228F7D9D6E02069002840F20000C4F2BB
:100CF000422000F0A68001210160FFF7D7FC0546E5
:100D000030688007D0D4FFF7D1FC401B0228F7D908
:100D1000C0E00020C4F242200021C0F88014FFF798
:100D2000C5FC0546706A800718D5FFF7BFFC401B5D
:100D30000228F7D9AEE040F20000C2F200000068DD
:100D400044F6D351C1F26201A0FB0101480A0190AF
:100D500000BF0198411E00280191F9D12078400779
:100D60001BD4E5698DB1706800F00C00082846D1ED
:100D7000012D0ED07068216A00F480328A4208D1B9
:100D8000616A00F47010884203D1002002B0BDE80F
:100D9000F081012002B0BDE8F081F06910F08058C8
:100DA00008D1F06940F08050F061F06900F08050A7
:100DB0000090009847F20007C4F200073868C005A9
:100DC0000FD4386840F480703860FFF76FFC054638
:100DD0003868C00505D4FFF769FC401B6428F7D9C3
:100DE00058E0E5681DB1052D3CD0012D3ED0306A9C
:100DF00020F001003062306A20F0040039E0002762
:100E0000C4F2422700203866FFF750FC022D054649
:100E10000CD100BF3068800154D5FFF747FC401B60
:100E200002284FF00300F5D9B0E700BF3068800119
:100E3000ABD5FFF73BFC401B02284FF00300F5D970
:100E4000A4E700210160FFF731FC05463068800708
:100E50007FF531AFFFF72AFC401B02284FF003005B
:100E6000F4D993E7306A40F004003062306A40F011
:100E700001003062FFF71AFC002D054641F2883769
:100E800014D000BF306A800713D4FFF70FFC401B5B
:100E9000B842F7D9032002B0BDE8F081FFF706FCA5
:100EA000401BB8424FF003003FF670AF306A800736
:100EB000F4D4B8F1000F7FF454AFF06920F0805003
:100EC000F0614EE7206AB0F5803F05D17168A268F5
:100ED00021F40031114371607168626A21F4741168
:100EE00011430843706001203866FFF7DFFB0446BA
:100EF000306880013FF549AFFFF7D8FB001B02289F
:100F00004FF00300F4D941E770470000704700003C
:100F1000002804BF0120704710B5044690F83D003A
:100F200028B9002084F83C00204600F05DF802203B
:100F300084F83D00206840F2FF730268C4F20003A9
:100F400042F6004C9842C4F2010C05DCB0F1804F2F
:100F50000AD040F2004103E0604505D040F60001B0
:100F6000C4F20001884203D1A16822F070020A4352
:100F7000984205DCB0F1804F0AD040F2004103E016
:100F8000604505D040F60001C4F20001884203D15B
:100F9000216922F440720A43A36922F08001D4F847
:100FA00004E0E268194360450160C262C0F828E0CD
:100FB00002D16169CCF8301001214161002084F830
:100FC000461084F83E1084F83F1084F8401084F8EE
:100FD000411084F8421084F8431084F8441084F8D7
:100FE000451084F83D1010BD7047000090F83D108A
:100FF00001291CBF01207047022180F83D100068C4
:1010000040F2FF72C168C4F20002904241F0010157
:10101000C16005DCB0F1804F0ED040F2004107E026
:1010200042F60041C4F20101884205D040F60001B9
:10103000C4F20001884206D1816801F00701062947
:1010400004BF00207047016841F0010101600020E9
:10105000704700007047000010B504460068016941
:10106000890744BFC1685FEA81713FD42068016984
:10107000490744BFC1685FEA417143D420680169F0
:10108000090744BFC1685FEA017148D4206801695B
:10109000C90644BFC1685FEAC1614CD420680169D8
:1010A000C9071CBFC1685FEAC17151D120680169DD
:1010B000090644BFC1685FEA016150D42068016934
:1010C000490644BFC1685FEA41614FD4216808699D
:1010D000800646BFC8685FEA806010BD6FF02002DE
:1010E00020460A61BDE81040FFF710BF6FF0020113
:1010F000016101212177806980073ED02046FFF7FA
:10110000A9FF40E06FF004010161022121778069AD
:1011100010F4407F3AD02046FFF79CFF3CE06FF090
:101120000801016104212177C069800737D020467A
:10113000FFF790FF39E06FF010010161082121777E
:10114000C06910F4407F33D02046FFF783FF35E0BD
:101150006FF001010161204600F038F8A6E76FF05A
:10116000800101612046FFF7CFFEA7E76FF0400145
:101170000161204600F034F8A8E7204600F022F88C
:10118000204600F021F8002020776FE7204600F08D
:1011900019F8204600F018F8002020776EE7204666
:1011A00000F010F8204600F00FF8002020776DE7DF
:1011B000204600F007F8204600F006F800202077CF
:1011C0006CE700007047000070470000006842F6BE
:1011D0000041C4F20101884218BF7047FFF76CBAA2
:1011E000704700007047000070470000B0B582B043
:1011F000044600680168C368426901F02F05202D8C
:1012000003F0200506D12DB1204602B0BDE8B04064
:1012100000F0DEBA5FEA017C1EBF02F0010E03F4AB
:10122000907212EB0E0253D1226B012A05D111F0FC
:10123000100218BF13F0100236D10A0622D513F09F
:1012400080021FD094F8411021293FD1A168B1F547
:10125000805F03D12169002900F04581216A4A1C81
:10126000226209784160E18C01390A04E1842DD1C0
:10127000C16821F08001C160C16841F04001C160D6
:1012800002B0B0BD490621D513F040011ED0C1689F
:1012900021F04001C1602021204684F8411002B0B5
:1012A000BDE8B04000F0A8B90021019101680191AA
:1012B0004168019101994069400611D4A08DE18DEA
:1012C000E28D002A18BF884240F0DF8002B0B0BD36
:1012D000C80718BF13F4807049D148074DD453E0B4
:1012E000E06B016849688AB2002AEFD0A38D9A4268
:1012F000ECD2E1858069202831D000BF206850E819
:10130000030F216820F4807041E80302002AF5D120
:10131000206850E8050F216820F0010041E805022F
:10132000002AF5D1206850E8050F216820F0400020
:1013300041E80502002AF5D1202084F8420000206F
:10134000206300BF206850E8030F216820F01000E0
:1013500041E80302002AF5D1E06BFEF72FFF0220DF
:101360006063A08DE18D401A81B22046B6E0606CCA
:1013700040F001006064480706D5BEF1000F03D0BD
:10138000606C40F002006064880706D5BEF1000F73
:1013900003D0606C40F004006064BCF1000F09D51C
:1013A00045EA0E00B0FA80F0400903D1606C40F0CD
:1013B00008006064606C00283FF488AF11F02000E2
:1013C00018BF002D02D0204600F002FA20684069C4
:1013D000616C00F0400001F00801401848D000BFE7
:1013E000206850E8030F216820F4907041E8030260
:1013F000002AF5D1206850E8050F216820F001008F
:1014000041E80502002AF5D1206B01280AD100BF6E
:10141000206850E8030F216820F0100041E8030223
:10142000002AF5D1202084F84200002020632068A3
:101430004069400623D500BF206850E8050F2168A9
:1014400020F0400041E80502002AF5D1E06BB0B180
:1014500041F2C571C0F600014163FEF7CFFE0028DE
:101460003FF434AFE06B416B02B0BDE8B0400847D9
:101470002046FFF7B9FE0020606402B0B0BD2046F0
:1014800002B0BDE8B040FFF7AFBE401A216851E896
:10149000031F226821F4907142E80313002BF5D159
:1014A000216851E8051F226821F0010142E8051377
:1014B000002BF5D1202184F842100021216300BFC8
:1014C000216851E8031F226821F0100142E803134C
:1014D000002BF5D1022281B22046626302B0BDE842
:1014E000B040FFF77FBE216A31F8022B6FF35F2215
:1014F00042602162B7E600002DE9F04186B040F677
:1015000000050446C4F20105006805F540510027B6
:1015100088420597CDE90377029702D006B0BDE86F
:10152000F08141F21800C4F20200016802AE41F4F9
:1015300080410160016840F2440801F4804101915A
:1015400001990168C4F2020841F0040101600068D9
:10155000314600F00400019001984FF400700290B1
:1015600002200390032005902846FEF799FF4FF4D0
:101570008060CDE90207284631460497FEF790FFC8
:1015800040F21475C2F2000510208026C5E90080E3
:101590002846C5E90276C5E90477C5E90677FEF76E
:1015A0003BFF002818BFFEF703FEA5636C6240F204
:1015B000D06508F11400C2F200050021C5E9000160
:1015C0002846C5E90216C5E90411C5E90611FEF76A
:1015D00023FF002818BFFEF7EBFD25200E21002277
:1015E000E5636C62FFF794F92520FFF781F906B0F7
:1015F000BDE8F0817047000070470000FEE7000082
:1016000080B582B041F21400C4F2020001680022E9
:1016100041F00101016000680E2100F0010001901D
:1016200001980E20FFF774F90E20FFF761F90F20E3
:101630000E210022FFF76CF90F2002B0BDE88040B8
:10164000FFF756B9F0B585B0002541F21800CDE995
:101650000355CDE90155C4F20200016841F20004CE
:1016600041F0100101600168C4F2010401F01001B1
:10167000009100990168012241F020010160016898
:101680004FF4005601F020010091009901680127F4
:1016900041F00401016000684FF4005100F00400C3
:1016A000009000982046FEF7FBFF0320049001A95C
:1016B0002046CDE901670395FEF7F2FE05B0F0BDC7
:1016C00080B540F2A07043F60001C2F20000C4F2FF
:1016D00001014FF4E13200234FF00C0C80E80E00C2
:1016E00000210022C0E90333C0E905C3C361FFF74D
:1016F0007FF8002808BF80BDBDE88040FEF758BDD8
:10170000FEE70000FEE7000000000000000000000F
:10171000EFF30980BFF36F8F0D4B1A6820E9F00FCC
:1017200010602DE908404FF0500080F3118801F05F
:10173000B7F84FF0000080F31188BDE80840196841
:101740000868B0E8F00F80F30988BFF36F8F704727
:10175000DC08002000000000000000000000000085
:10176000074B19680868B0E8F00F80F30988BFF3E9
:101770006F8F4FF0000080F311884EF00D0E704710
:10178000DC08002080B54FF0500080F31188BFF3D3
:101790006F8FBFF34F8F01F0C9FC30B14EF604508C
:1017A000CEF200004FF080510160002080F31188DC
:1017B00080BD00007047000040F25870C2F2000087
:1017C000FFF74ABC406A0021C185C184FFF70CBD08
:1017D00081B090F8421022291DD18268B2F5805F55
:1017E00002D10169002948D0816AB2F5805F07D033
:1017F0000AB9026922B10268526802F07F0201E070
:10180000026852680A70816A01318162C18D0139B2
:101810000A04C18501D001B070470168CA6822F08E
:101820002002CA60CA6822F48072CA604A6922F043
:1018300001024A61202180F8421000214163026BBD
:10184000012A23D1016300BF016851E8031F026828
:1018500021F0100142E80313002BF5D101680A685A
:10186000D20606D5002200920A68009249680091CB
:101870000099818D01B0FFF7B5BC0168826A4968A3
:101880006FF35F2122F8021B8262BFE701B0FFF70E
:10189000B1BE000040F2A070C2F20000FFF7A6BC8B
:1018A000FEE7000082B00120009042F255204FF088
:1018B000000CC0F6000005A180220023CDF804C072
:1018C00001F03EFB00F092FFFEE700BF737461720F
:1018D000745F7461736B000041F200040025C4F270
:1018E000010400BF642000F04FFE85F0010505F003
:1018F000010220464FF40051FEF7D2FEF2E700004D
:1019000090B0FEF7E7FE06AC20462821FEF723FC48
:10191000012006900A904FF4E01000254FF480312A
:1019200002260F9020460595CDE90355CDE90155D6
:10193000CDE90715CDE90D61FFF74EF918B1EFF3C9
:10194000108072B6FEE70F20CDE901064FF48060EB
:10195000CDE9040501A802210395FFF715F820B190
:10196000EFF3108072B600BFFEE7FFF76BFEFFF7E4
:1019700047FEFFF7A5FEFFF795FF00BFFEE700005B
:10198000F0B581B00D4641F6682140F6DC06C2F2A2
:101990000001C2F200060F6831680446081D00F01D
:1019A00099FC601C0BD155B13068011D41F64020F7
:1019B000C2F2000001B0BDE8F04000F0E7BC3068C2
:1019C000E41944600BD340F6EC00C2F2000000685A
:1019D0003168043101B0BDE8F04000F0B9BC40F618
:1019E000E400C2F2000000683168043100F0B0FC8D
:1019F00041F6D810C2F2000001688C4238BF046082
:101A000001B0F0BD2DE9F047044600F0CDFC41F6F1
:101A10006010C2F20000016840F6DC07013101608D
:101A2000C2F20007396841F6342A40F6F406C2F2E1
:101A3000000AC2F2000651B1DAF8000000283ED1D7
:101A40003868E16AC06A884298BF3C6037E03C6011
:101A50000068012833D10025701900F069FC1435A5
:101A6000B5F58C6FF8D141F6A418C2F200084046D3
:101A700000F05EFC41F6B819C2F20009484600F0D9
:101A800057FC41F6E010C2F2000000F051FC41F6B4
:101A90005420C2F2000000F04BFC41F64020C2F29C
:101AA000000000F045FC40F6E400C2F20000C0F87F
:101AB000008040F6EC00C2F20000C0F8009041F651
:101AC0007010C2F20000016801310160616441F6EA
:101AD0007411C2F20001E06A0A68904288BF08608F
:101AE00000EB800006EB8000211D00F04FFC00F0B1
:101AF0007FFCDAF8000088B13868E16AC06A884281
:101B000028BFBDE8F0874EF60450CEF200004FF03B
:101B100080510160BFF34F8FBFF36F8FBDE8F08737
:101B200070B582B000F040FC41F66C26C2F20006AF
:101B3000306850BB41F67814C2F20004204600F031
:101B4000F7FB41F68C15C2F20005284600F0F0FBC9
:101B500040F6E000C2F20000046040F6F000C2F27D
:101B6000000040F2E87240F6880305600025C2F2EA
:101B70000002C2F200030A201021009500F04CFF81
:101B8000306010B103A100F0C7FC02B0BDE87040A6
:101B900000F02EBC546D72510000000041F6641537
:101BA00040F6F40A4EF6045841F6542741F6601602
:101BB000C2F20005C2F2000ACEF200084FF08059CE
:101BC000C2F20007C2F2000603E000BF204600F0A8
:101BD00027FC2868C8B100F0E7FBF868C468201D3E
:101BE00000F078FB306801383060286801382860E0
:101BF00000F0FEFB94F859000228EAD00128E5D055
:101C000070B9206B00F00CFCE0E7DAF80000022865
:101C1000DFD3C8F80090BFF34F8FBFF36F8FD8E7C3
:101C20004FF0500080F31188BFF36F8FBFF34F8FD9
:101C3000FEE7000006480068006880F3088862B686
:101C400061B6BFF34F8FBFF36F8F00DF00BF00009F
:101C500008ED00E02DE9F04F85B0824601F060FA12
:101C600040F6D809C2F20009D9F8001005468842AA
:101C700047D240F6E004C2F200042068016800295F
:101C800041D041F66C2BC2F2000B08E0786020686E
:101C900031463F6100F05CFB2068016899B3C06881
:101CA000C768D0F800803E1D304600F013FB796A0B
:101CB00038468847F8690128EED1B8694044404564
:101CC000E4D887B3DBF8000078B10020CDE9010843
:101CD000039701F011FADBF8000001A900220023AC
:101CE00000F008FF0028D7D102E000200028D3D15F
:101CF0004FF0500080F31188BFF36F8FBFF34F8F09
:101D0000FEE7002007E040F6F001C2F200010A6899
:101D1000086001202260CAF800002846C9F8005077
:101D200005B0BDE8F08F4FF0500080F31188BFF38D
:101D30006F8FBFF34F8F00BFFEE7000081B0002020
:101D4000009040F20C00C2F2000000684FF0500119
:101D500081F31188BFF36F8FBFF34F8F013001D034
:101D6000FEE700BF00980028FCD001B070470000DB
:101D70008AB040F6E00B41F66C28C2F2000B0DF180
:101D80000809C2F2000801ACDBF8000007681FB1C7
:101D9000C068D0F800A001E04FF0000A00F078FD24
:101DA0004846FFF757FF029911B101F009FB77E0B0
:101DB0000546F7B155451CD301F002FBDBF80000E6
:101DC000C068C7683E1D304600F084FAF8690128F3
:101DD0005FD1B9693F6101EB0A00A842786030D950
:101DE00055454ED2504540F6E000C2F2000030D2D8
:101DF0004BE00FB1002208E040F6F000C2F2000014
:101E000000680068B0FA80F04209D8F80000AAEB38
:101E1000050100F095FB01F0D3FA40F6F00600282A
:101E2000C2F200064FF0010A44D14EF60450CEF241
:101E300000004FF080510160BFF34F8FBFF36F8FF1
:101E400038E0A5EB0A00884240F6F000C2F200003C
:101E50001BD3002F00F0C380D8F8000070B1002021
:101E6000CDE9060A089701F047F9D8F8000006A95D
:101E70000022002300F03EFE58B9BAE0002040B92D
:101E8000B7E040F6E000C2F200000068314600F022
:101E90005FFA796A3846884740F6E00BC2F2000BD9
:101EA00040F6F006C2F200064FF0010A02E0306888
:101EB00000F04EFAD8F800004946002200F024FF56
:101EC00000283FF461AF0298B0F1FF3F03DCDDE989
:101ED00003200599904702980028EBD4049F786965
:101EE00010B1381D00F0F6F92046FFF7B3FE029955
:101EF0000929DFD80AFA01F212F0C70F0ED0039AAF
:101F0000BD693946AB1841F8043F83423F6118D997
:101F1000904211D2934217D20EE000BF12F4047F18
:101F200030D003990029B96145D00A18394641F8E3
:101F3000042F82423F61BAD9DBF8000000F008FAB2
:101F4000B8E7801AA842B2D3796A38468847F86958
:101F50000128AFD1002F38D0D8F80000F0B1039895
:101F6000B969089708440021CDE9061001F0C4F8CA
:101F7000D8F8000006A90022002300F0BBFD0028CD
:101F800098D10FE005297FF495AF97F82C00002831
:101F90007FF490AF384600F043FA8BE7002000282A
:101FA0007FF488AF4FF0500080F31188BFF36F8F3C
:101FB000BFF34F8FFEE74FF0500080F31188BFF35F
:101FC0006F8FBFF34F8F00BFFEE74FF0500080F3DD
:101FD0001188BFF36F8FBFF34F8F00BFFEE74FF045
:101FE000500080F31188BFF36F8FBFF34F8F00BF96
:101FF000FEE74FF0500080F31188BFF36F8FBFF3FF
:102000004F8F00BFFEE70000F0B581B0044600F03E
:10201000CBF994F94560012E0FDB04F1240500BFD4
:10202000286850B1284601F083F9002818BF00F055
:1020300099FB70B2013E0128F2DCFF2684F845606E
:1020400000F0D6F900F0B0F994F94470012F0EDBDE
:1020500004F11005286850B1284601F069F90028FC
:1020600018BF00F07FFB78B2013F0128F2DC84F852
:10207000446001B0BDE8F04000F0BAB9F0B581B0FD
:10208000044600F005FC40F6E801C2F200010868D1
:1020900041F6A017C2F2000780BB40F65452C2F2CC
:1020A0000002D61D26F0070612F00703A2EB060574
:1020B00018BF324641F63826C2F200060020C6E9B3
:1020C00000204FF44066002B18BF05F540669319B9
:1020D00023F00703A3F108060E6043E90200B01ADB
:1020E000C2E9006041F6D412C2F20002106041F66B
:1020F000CC12C2F20002106001203870387800283B
:1021000018BF4FF0004020420DD0002401F058F9D4
:10211000600712D04FF0500080F31188BFF36F8F2B
:10212000BFF34F8FFEE75CB160071ABF24F00700D2
:1021300000F1100304F1080303E0204601B0F0BDF4
:102140000023002B4FF00004E0D041F6CC1CC2F27B
:10215000000CDCF800008342D8D841F63824C2F2E3
:102160000004266875689D420FD232684AB100BFEC
:102170005568344616469D4207D23268002AF7D188
:1021800003E041F63824C2F2000408688642BCD05D
:10219000D4F800E03068EA1A112A20602FD3F4182E
:1021A000600708D04FF0500080F31188BFF36F8FA5
:1021B000BFF34F8FFEE741F63825C2F2000562609B
:1021C000736000BF2B462D68A542FBD35A68981850
:1021D000A04203D160681C46104458606268A01891
:1021E000A84201D0294606E009688D4203D0D5E90E
:1021F000001010446060A342216018BF1C6041F6CB
:10220000D4117068DCF80020C2F200010B68121AC9
:102210009A42CCF8002038BF0A6038780EF10804E2
:10222000716800284FF0000018BF41F00041C6E976
:1022300000016BE7034641F63D50C0F600004FF049
:10224000807C21F0010103E90310A3F1400043F871
:10225000202C704710B582B000F0A6F840F26C2038
:10226000C2F20000019041F6D9000A24C0F6000035
:102270000FA14FF400720023009400F061FE40F2C1
:10228000CC6C42F2C920C2F2000CC0F600000BA1D7
:102290004FF4007200230094CDF804C000F050FE0B
:1022A00000F0A6F8002002B0BDE8104000F0C0B970
:1022B0006C65645F7461736B00000000756172741B
:1022C0005F7461736B0000004FF47A7000F05CF98A
:1022D000FAE70000D0E9013201699A60D1F804C040
:1022E00082688445536008BF4A6000220261086822
:1022F000013808600868704740F21023C2F20003FA
:10230000036040F21000C2F20000086080201060FC
:102310007047000040F27063C2F20003036040F2B5
:102320007020C2F2000008604FF4807010607047A7
:102330004FF0FF31024642F8081F00214260C0E919
:102340000322016070470000002101617047000016
:1023500080B5D1F800C01CF1010207D000F10803DC
:102360009E465B681A686245FAD901E0D0F810E031
:10237000DEF8042008614A609160C1F808E0CEF8F8
:10238000041001680131016080BD0000D0F800C078
:10239000436808619A684B608A609A6899605160E6
:1023A0000CF10101016070474FF0500080F311887B
:1023B000BFF36F8FBFF34F8F40F20C00C2F20000EB
:1023C00001684A1C026001B170474EF60450CEF21B
:1023D00000000068000608BF70474FF0500080F30F
:1023E0001188BFF36F8FBFF34F8F00BFFEE7000070
:1023F00040F20C00C2F20000016839B101390160FD
:1024000018BF7047002080F3118870474FF05000CC
:1024100080F31188BFF36F8FBFF34F8FFEE700008B
:10242000B0B5002808BFB0BD044641F6A010C2F206
:102430000000007854F8041C002818BF4FF000403A
:1024400008420CD0A4F108052A6892B14FF0500060
:1024500080F31188BFF36F8FBFF34F8FFEE74FF00C
:10246000500080F31188BFF36F8FBFF34F8F00BF11
:10247000FEE721EA000044F8040C00F009FA41F6F6
:10248000CC11C2F2000154F8040C0A681044086030
:1024900041F63821C2F2000108460968A942FBD37F
:1024A00042688318AB4204D154F8043C05461A44F0
:1024B00042606A68AB188B4201D00B460AE040F6D6
:1024C000E803C2F200031B68994203D0D1E900344B
:1024D000A1186960A8422B6018BF0560BDE8B04034
:1024E00000F06EBF4EF21000CEF20000002101603D
:1024F000816040F20001C2F20001096844F6D35243
:10250000C1F26202A1FB02124FF0FF3101EB921106
:10251000416007210160704741F6F41C0022C2F2BD
:10252000000C00BF5CF8323023B10132082A08BF2A
:102530007047F7E70CEBC2034CF832105860704755
:1025400070B515460E460446FFF72EFF94F844007A
:10255000FF2804BF002084F8440094F84500FF28B9
:1025600004BF002084F84500FFF742FFA06B28B9A4
:1025700004F1240031462A4600F018F92046BDE84F
:102580007040FFF741BD000070B5002843D00446FD
:1025900041F66C10C2F20000016841B14FF05000EA
:1025A00080F31188BFF36F8FBFF34F8FFEE7016891
:1025B00040F6DC050131016041F66820C2F20000FE
:1025C000C2F20005066828680430FFF783FE286819
:1025D000A419446009D340F6EC00C2F20000006880
:1025E00029680431FFF7B4FE10E040F6E400C2F2BF
:1025F0000000006829680431FFF7AAFE41F6D810F0
:10260000C2F2000001688C4238BF046000F0D8FEBE
:10261000002818BF70BD4EF60450CEF200004FF0F7
:1026200080510160BFF34F8FBFF36F8F70BD00000B
:1026300070B50446FFF7B8FE40F6DC06002CC2F287
:10264000000608BF3468251D2846FFF743FEA06A30
:1026500018B104F11800FFF73DFE41F67010C2F208
:1026600000000168013101603068844225D041F6E4
:102670006010C2F2000001680139016094F859004D
:10268000022809D0012804D0002852D1206BFFF77E
:10269000C7FE2046FFF7C4FE40F6E400C2F2000089
:1026A00001680968B9B1006841F6D811C068C2F282
:1026B0000001C0684068086014E041F65420C2F28E
:1026C00000002946FFF762FE41F66410C2F20000E6
:1026D0000168013105E041F6D810C2F200004FF068
:1026E000FF310160FFF784FE41F63420C2F20000A2
:1026F0000068E8B13068844218BF70BD41F66C10C4
:10270000C2F20000006840B14FF0500080F3118821
:10271000BFF36F8FBFF34F8FFEE74EF60450CEF23C
:1027200000004FF080510160BFF34F8FBFF36F8FF8
:1027300070BD4FF0500080F31188BFF36F8FBFF36F
:102740004F8F00BFFEE7000041F6DC11C2F200012E
:102750000968016041F66821C2F200010968416020
:102760007047000041F67420C2F2000001210160B0
:102770007047000010B570B10C4640F6DC01C2F2A3
:10278000000109681831FFF7E3FD20460121BDE88B
:102790001040FFF7F5B84FF0500080F31188BFF3F9
:1027A0006F8FBFF34F8F00BFFEE70000B0B598B149
:1027B0000D4640F6DC01C2F20001096814461831EA
:1027C000FFF7E4FD002C18BF4FF0FF3528462146E7
:1027D000BDE8B040FFF7D4B84FF0500080F3118847
:1027E000BFF36F8FBFF34F8FFEE7000010B586B0C9
:1027F000002405A804A903AACDE90444FFF77CFD41
:10280000DDE9032005990023CDE9010141F69D3062
:10281000C0F600001CA1009400F0FEFB41F6D011B0
:10282000C2F20001086010B100F066FE0446601CB0
:1028300020D0012C1CD14FF0500080F31188BFF341
:102840006F8FBFF34F8F41F6D810C2F200004FF0E8
:10285000FF31016041F63420C2F200000121016025
:1028600041F66820C2F200000021016000F066F825
:1028700006B010BD4FF0500080F31188BFF36F8F8A
:10288000BFF34F8FFEE700BF49444C4500000000F6
:1028900041F66C10C2F2000001680131016070471E
:1028A00041F66C10C2F20000006830B141F67420AD
:1028B000C2F2000001210160704741F67420C2F2AB
:1028C0000000002141F6741C0160C2F2000CDCF82B
:1028D000001040F6F40201EB8103C2F2000252F84C
:1028E000230048B902EB8300A0F11403D9B153F8D7
:1028F000140901390028F9D001EB810002EB8002B4
:1029000052F8040F4368101D8342136001D15868C8
:102910001060106840F6DC02C068C2F2000210606D
:10292000CCF8001070474FF0500080F31188BFF3CF
:102930006F8FBFF34F8F00BFFEE70000B0B584B0CC
:102940004EF20040CEF20000017841F6541202919E
:10295000FF2101700178C2F200028DF807109DF886
:10296000071001F05001117041F65811C2F2000138
:1029700007220A609DF90720B2F1FF3F0BDC062217
:102980000A609DF80730013A5B008DF807309DF929
:102990000730002BF4D40A68032A33D14FF4E063E4
:1029A00003EA02220A6002990170D0F8201941F46A
:1029B0007001C0F82019D0F8201941F07041C0F81A
:1029C0002019FFF78FFD40F20C04C2F2000400252D
:1029D0002560FFF72FF9FFF763FF039520684FF09D
:1029E000500181F31188BFF36F8FBFF34F8F013018
:1029F00002D000BFFEE700BF03980028FCD00020F3
:102A000004B0B0BD4FF0500080F31188BFF36F8F5A
:102A1000BFF34F8FFEE7000070B582B068B11C466F
:102A2000ABB1F1B9EAB14FF0500080F31188BFF3B8
:102A30006F8FBFF34F8F00BFFEE74FF0500080F362
:102A40001188BFF36F8FBFF34F8F00BFFEE74FF0CA
:102A5000500080F31188BFF36F8FBFF34F8F00BF1B
:102A6000FEE751B14AB94FF0500080F31188BFF32F
:102A70006F8FBFF34F8F00BFFEE750230193019B81
:102A8000502B2CD1069E012384F84630002908BF24
:102A900022462260C4E90F01FFF786FC2068D4E9D2
:102AA0000F12002502FB0103013901FB0201A5639E
:102AB000C4E90130FF20E16084F8440084F8450057
:102AC00004F11000FFF734FC04F12400FFF730FCA0
:102AD000FFF78EFC204684F84C6002B070BD4FF0CA
:102AE000500080F31188BFF36F8FBFF34F8F00BF8B
:102AF000FEE700002DE9F04F83B00292B8B11D4609
:102B00000E460446E9B1022D03D1E06B012840F0E6
:102B1000A68000F0F1FA00BB0298F0B14FF050002F
:102B200080F31188BFF36F8FBFF34F8FFEE74FF035
:102B3000500080F31188BFF36F8FBFF34F8F00BF3A
:102B4000FEE7206C0028DED04FF0500080F31188A3
:102B5000BFF36F8FBFF34F8FFEE7FFF725FCA06B2E
:102B6000022D5ED0E16B88425BD304F11008012096
:102B70006F460DF1080900BF0299002900F082801C
:102B8000C00702D03846FFF7DFFDFFF731FCFFF743
:102B90007FFEFFF709FC94F84400FF2804BF0020E3
:102BA00084F8440094F84500FF2804BF002084F80E
:102BB0004500FFF71DFC3846494600F079F900282A
:102BC00063D1FFF7F1FBD4F838A0D4F83CB0FFF79D
:102BD0000FFCDA4516D102994046FFF7CBFD20469F
:102BE000FFF712FA00F0ECFB88B94EF60450CEF273
:102BF00000004FF080510160BFF34F8FBFF36F8F24
:102C000005E000BF2046FFF7FFF900F0D9FBFFF712
:102C1000CBFBA06B022D04D0E16B88424FF000008B
:102C2000AAD2A76B226C22B3C5B3E0683146FDF788
:102C300079FAE168206C2268091A9142E16003D2B6
:102C4000616840420844E060A81EB0FA80F0400984
:102C50003946002F18BF012108403F1A2BE04FF0E2
:102C6000500080F31188BFF36F8FBFF34F8F00BF09
:102C7000FEE720680025F8B9606800F00FFB65608A
:102C8000054619E0FFF7B4FB04E02046FFF7BCF966
:102C900000F096FB002003B0BDE8F08FA06831463D
:102CA000FDF740FA216CD4E9012008449042A0606D
:102CB00001D32068A0600025781CA06354F8240F7D
:102CC00078B1204600F034FBB8B14EF60450CEF295
:102CD00000004FF080510160BFF34F8FBFF36F8F43
:102CE0000BE055B14EF60450CEF200004FF080518B
:102CF0000160BFF34F8FBFF36F8FFFF779FB0120A8
:102D000003B0BDE8F08F00002DE9F04F85B00492CC
:102D100098B10C460546002900F0B78000F0ECF9A8
:102D2000A8B9049898B14FF0500080F31188BFF310
:102D30006F8FBFF34F8F00BFFEE74FF0500080F35F
:102D40001188BFF36F8FBFF34F8F00BFFEE705F110
:102D50001000019005F1240000900DF108090DF11B
:102D6000100A4FF000080CE02846FFF74DF900F07C
:102D700027FBFFF719FBAF6BFFF73AFB002F00F0C3
:102D80009280FFF711FBD5F838B0BBF1000F27D0C8
:102D90002A6C5AB1E86869681044E860884224BF28
:102DA0002868E860E9682046FDF7BCF9ABF101004E
:102DB000A863286970B1019800F0BAFA50B14EF6D4
:102DC0000450CEF200004FF080510160BFF34F8FEE
:102DD000BFF36F8FFFF70CFB00200126A0B963E063
:102DE000049850B1B8F1000F02D14846FFF7ACFC8F
:102DF0004FF00108012038B956E0FFF7F9FA002634
:102E00000020002850D000BFFFF7F2FAFFF740FD86
:102E1000FFF7CAFA95F84400FF2804BF002085F8A0
:102E2000440095F84500FF2804BF002085F84500C0
:102E3000FFF7DEFA4846514600F03AF800287FF4E2
:102E400093AFFFF7B1FAAF6BFFF7D2FA2FB1284675
:102E5000FFF7DAF800F0B4FA93E704990098FFF767
:102E600089FC2846FFF7D0F800F0AAFA00287FF482
:102E700088AF4EF60450CEF200004FF08051016052
:102E8000BFF34F8FBFF36F8F7BE7286C00283FF4B1
:102E900045AF4FF0500080F31188BFF36F8FBFF341
:102EA0004F8F00BFFEE70026304605B0BDE8F08F2B
:102EB00070B5D8B10D4611B30446FFF775FA41F667
:102EC000682EC2F2000EDEF8002029684B1C20D0CC
:102ED00041F6DC1CC2F2000CD4E90003DCF800600F
:102EE000864218D09A4216D3012424E04FF05000B5
:102EF00080F31188BFF36F8FBFF34F8FFEE74FF062
:102F0000500080F31188BFF36F8FBFF34F8F00BF66
:102F1000FEE700240FE0D21A914209D9881A2860EE
:102F2000DCF800002060DEF800006060002402E0B1
:102F3000002001242860FFF75BFA204670BD0000E6
:102F40002DE9F04F81B0950080462846994692467B
:102F50000F46FFF793F878B104465C20FFF78EF830
:102F600038B10646046356B94FF0FF3001B0BDE8F2
:102F7000F08F2046FFF754FA0026002EF4D0306B75
:102F8000CDF80080DDF828B04FF000082946A522D2
:102F900086F85980FDF7D8F8306B00EB8A000438CA
:102FA00020F0070417F8080006EB080181F8340048
:102FB00017F8080020B1B8F10F0F08F10108F1D19E
:102FC0000025301D86F84350BBF1370F28BF4FF066
:102FD000370BC6F82CB0C6E913B5FFF7B5F906F103
:102FE0001800FFF7B1F9CBF138003661B0617662B5
:102FF000756586F85850009920464A46FFF71AF939
:103000000B9930603046002918BF0E60FEF7FAFCBD
:10301000012001B0BDE8F08F2DE9F04381B01746E3
:10302000099A002A4AD00A9D002D50D081465C2082
:10303000009000985C2854D102200C46089E2A6318
:1030400085F85900B9001046A5229846FDF77CF88E
:10305000286B0021625C6B1883F83420625C1AB123
:103060000F2901F10101F5D100EB8700043820F0B0
:1030700007040027281D85F84370372E28BF372600
:10308000EE62C5E91367FFF75FF905F11800FFF776
:103090005BF9C6F13800A8612046494642462D61D9
:1030A0006D626F6585F85870FFF7C4F82860284690
:1030B000FEF7A8FC284601B0BDE8F0834FF05000B1
:1030C00080F31188BFF36F8FBFF34F8FFEE74FF090
:1030D000500080F31188BFF36F8FBFF34F8F00BF95
:1030E000FEE74FF0500080F31188BFF36F8FBFF3FE
:1030F0004F8F00BFFEE7000041F63420C2F200000F
:103100000068002804BF0120704741F66C10C2F22D
:1031100000000068B0FA80F04009400070470000ED
:1031200041F66820C2F20000006870472DE9F04FB8
:1031300081B041F66C10C2F20000006840B141F667
:103140006810C2F20000016800240131016098E0BB
:1031500041F66820C2F2000001684E1C06602ED3C2
:1031600040F6E400C2F200000168096849B14FF07E
:10317000500080F31188BFF36F8FBFF34F8F00BFF4
:10318000FEE740F6EC02C2F2000201681368036039
:10319000116041F6DC11C2F200010A6801320A60D6
:1031A0000168096821B10068C068C068406801E032
:1031B0004FF0FF3041F6D811C2F20001086041F62D
:1031C000D811C2F20001086840F6DC0A40F6F408A3
:1031D0008642C2F2000AC2F2000801D2002446E090
:1031E00040F6E407C2F20007386800240068A0B384
:1031F00041F6741BC2F2000B1AE000BFD9F82C0094
:10320000DBF80010884288BFCBF8000000EB80009C
:1032100008EB80002946FFF7B9F8D9F82C00DAF856
:103220000010C96A3A68884228BF01241068B8B102
:103230003868C068D0F80C904D4655F8040F8642A7
:1032400010D32846FFF746F8D9F828000028D5D033
:1032500009F11800FFF73EF8D0E74FF0FF3005E026
:103260004FF0FF3041F6D811C2F200010860DAF8E1
:103270000000C06A00EB800058F82000012888BFD9
:10328000012441F67420C2F200000068002818BF33
:103290000124204601B0BDE8F08F0000B0B580B138
:1032A000044640F6DC00C2F200000068A0420AD0EA
:1032B0004FF0500080F31188BFF36F8FBFF34F8F33
:1032C000FEE70020B0BD206D38B3411EE06AE26C1D
:1032D000216590424FF0000008BFB0BDE1B9251D47
:1032E0002846FEF7F7FFE06CC0F13801A16141F616
:1032F0007411E062C2F200010A68904288BF08605F
:1033000040F6F40100EB8000C2F2000101EB800006
:103310002946FFF73BF80120B0BD4FF0500080F385
:103320001188BFF36F8FBFF34F8F00BFFEE7000020
:10333000B0B5C068C5687DB105F118042046FEF738
:10334000C9FF41F66C10C2F20000006868B141F696
:10335000E010C2F200001DE04FF0500080F3118831
:10336000BFF36F8FBFF34F8FFEE72C1D2046FEF794
:10337000B1FF41F67411C2F20001E86A0A68904296
:1033800088BF086040F6F40100EB8000C2F2000143
:1033900001EB80002146FEF7F9FF40F6DC01C2F2A6
:1033A0000001E86A0968C96A884291BF002041F6B5
:1033B0007421C2F20001012088BF0860B0BD000086
:1033C0002DE9F04F81B041F66C14C2F20004206880
:1033D00068B1FEF7E9FF206801382060206880B1FD
:1033E0000024FFF705F8204601B0BDE8F08F4FF04C
:1033F000500080F31188BFF36F8FBFF34F8F00BF72
:10340000FEE741F66010C2F200000068002847D0D5
:1034100041F6E016C2F20006306841F67428002832
:10342000C2F2000845D041F6741740F6F40940F6A0
:10343000DC0BC2F20007C2F20009C2F2000B4FF02F
:10344000010A00BFF068C56805F11800FEF742FFE9
:103450002C1D2046FEF73EFFE86A3968884288BF87
:10346000386000EB800009EB80002146FEF78EFFFC
:10347000E86ADBF80010C96A884228BFC8F800A0D3
:1034800030680028DED1A5B140F6E400C2F20000A9
:103490000168096831B10068C068C068406803E02D
:1034A00000249EE74FF0FF3041F6D811C2F2000130
:1034B000086041F66814C2F20004256855B101267F
:1034C000FFF734FE002818BFC8F80060013DF7D1AF
:1034D00000202060D8F8000060B14EF60450CEF213
:1034E00000004FF080510160BFF34F8F0124BFF304
:1034F0006F8F76E7002474E780B586B0FEF710FB87
:1035000041F66C20C2F20000006808B30020CDE94B
:10351000040005A804A903AAFEF7FCFEDDE90320C8
:103520000221DDF814C0CDE9001041F67150C0F65B
:1035300000000CA10023CDF808C0FFF76DFD41F697
:103540007021C2F20001086010B1012006B080BDF8
:103550004FF0500080F31188BFF36F8FBFF34F8F90
:10356000FEE700BF546D72205376630002E008C886
:10357000121F08C1002AFAD170477047002001E0ED
:1035800001C1121F002AFBD170470000000000009B
:103590000000010203040607080900000000010200
:1035A0000304010202030405060708090A0B0C0DB7
:1035B0000E0F1010D8350008000000201000000089
:1035C0006C350008E835000810000020681E000077
:1035D0007C350008000000000024F4000100000019
:0835E00010000000AAAAAAAA2B
:04000005080000ED02
:00000001FF
